{
	"contracts/Authentification.sol": {
		"Authentification": {
			"abi": [
				{
					"inputs": [
						{
							"internalType": "string",
							"name": "_email",
							"type": "string"
						},
						{
							"internalType": "string",
							"name": "_pass",
							"type": "string"
						}
					],
					"name": "add_stack_holder",
					"outputs": [
						{
							"internalType": "bytes32",
							"name": "",
							"type": "bytes32"
						}
					],
					"stateMutability": "nonpayable",
					"type": "function"
				},
				{
					"inputs": [
						{
							"internalType": "address",
							"name": "_address",
							"type": "address"
						},
						{
							"internalType": "string",
							"name": "_pass",
							"type": "string"
						}
					],
					"name": "authentify",
					"outputs": [],
					"stateMutability": "nonpayable",
					"type": "function"
				},
				{
					"inputs": [
						{
							"internalType": "address",
							"name": "_address",
							"type": "address"
						}
					],
					"name": "has_on_time",
					"outputs": [
						{
							"internalType": "bool",
							"name": "",
							"type": "bool"
						}
					],
					"stateMutability": "view",
					"type": "function"
				},
				{
					"inputs": [
						{
							"internalType": "string",
							"name": "source",
							"type": "string"
						}
					],
					"name": "toBytes16",
					"outputs": [
						{
							"internalType": "bytes16",
							"name": "result",
							"type": "bytes16"
						}
					],
					"stateMutability": "pure",
					"type": "function"
				},
				{
					"inputs": [
						{
							"internalType": "string",
							"name": "source",
							"type": "string"
						}
					],
					"name": "toBytes32",
					"outputs": [
						{
							"internalType": "bytes32",
							"name": "result",
							"type": "bytes32"
						}
					],
					"stateMutability": "pure",
					"type": "function"
				}
			],
			"devdoc": {
				"kind": "dev",
				"methods": {},
				"version": 1
			},
			"evm": {
				"assembly": "    /* \"contracts/Authentification.sol\":132:2863  contract Authentification{\r... */\n  mstore(0x40, 0x80)\n  callvalue\n  dup1\n  iszero\n  tag_1\n  jumpi\n  0x00\n  dup1\n  revert\ntag_1:\n  pop\n  dataSize(sub_0)\n  dup1\n  dataOffset(sub_0)\n  0x00\n  codecopy\n  0x00\n  return\nstop\n\nsub_0: assembly {\n        /* \"contracts/Authentification.sol\":132:2863  contract Authentification{\r... */\n      mstore(0x40, 0x80)\n      callvalue\n      dup1\n      iszero\n      tag_1\n      jumpi\n      0x00\n      dup1\n      revert\n    tag_1:\n      pop\n      jumpi(tag_2, lt(calldatasize, 0x04))\n      shr(0xe0, calldataload(0x00))\n      dup1\n      0x18b624fd\n      eq\n      tag_3\n      jumpi\n      dup1\n      0x1c0f6f2d\n      eq\n      tag_4\n      jumpi\n      dup1\n      0x27df8f2a\n      eq\n      tag_5\n      jumpi\n      dup1\n      0x385b81aa\n      eq\n      tag_6\n      jumpi\n      dup1\n      0xb10639b8\n      eq\n      tag_7\n      jumpi\n    tag_2:\n      0x00\n      dup1\n      revert\n        /* \"contracts/Authentification.sol\":2586:2858  function toBytes16(string memory source) public pure returns (bytes16 result) {\r... */\n    tag_3:\n      tag_8\n      0x04\n      dup1\n      calldatasize\n      sub\n      dup2\n      add\n      swap1\n      tag_9\n      swap2\n      swap1\n      tag_10\n      jump\t// in\n    tag_9:\n      tag_11\n      jump\t// in\n    tag_8:\n      mload(0x40)\n      tag_12\n      swap2\n      swap1\n      tag_13\n      jump\t// in\n    tag_12:\n      mload(0x40)\n      dup1\n      swap2\n      sub\n      swap1\n      return\n        /* \"contracts/Authentification.sol\":1329:1549  function has_on_time(address _address) external view returns(bool){\r... */\n    tag_4:\n      tag_14\n      0x04\n      dup1\n      calldatasize\n      sub\n      dup2\n      add\n      swap1\n      tag_15\n      swap2\n      swap1\n      tag_16\n      jump\t// in\n    tag_15:\n      tag_17\n      jump\t// in\n    tag_14:\n      mload(0x40)\n      tag_18\n      swap2\n      swap1\n      tag_19\n      jump\t// in\n    tag_18:\n      mload(0x40)\n      dup1\n      swap2\n      sub\n      swap1\n      return\n        /* \"contracts/Authentification.sol\":2306:2578  function toBytes32(string memory source) public pure returns (bytes32 result) {\r... */\n    tag_5:\n      tag_20\n      0x04\n      dup1\n      calldatasize\n      sub\n      dup2\n      add\n      swap1\n      tag_21\n      swap2\n      swap1\n      tag_10\n      jump\t// in\n    tag_21:\n      tag_22\n      jump\t// in\n    tag_20:\n      mload(0x40)\n      tag_23\n      swap2\n      swap1\n      tag_24\n      jump\t// in\n    tag_23:\n      mload(0x40)\n      dup1\n      swap2\n      sub\n      swap1\n      return\n        /* \"contracts/Authentification.sol\":1561:2108  function add_stack_holder(string memory _email, string memory _pass) \r... */\n    tag_6:\n      tag_25\n      0x04\n      dup1\n      calldatasize\n      sub\n      dup2\n      add\n      swap1\n      tag_26\n      swap2\n      swap1\n      tag_27\n      jump\t// in\n    tag_26:\n      tag_28\n      jump\t// in\n    tag_25:\n      mload(0x40)\n      tag_29\n      swap2\n      swap1\n      tag_24\n      jump\t// in\n    tag_29:\n      mload(0x40)\n      dup1\n      swap2\n      sub\n      swap1\n      return\n        /* \"contracts/Authentification.sol\":880:1190  function authentify(address _address, string memory _pass) external{\r... */\n    tag_7:\n      tag_30\n      0x04\n      dup1\n      calldatasize\n      sub\n      dup2\n      add\n      swap1\n      tag_31\n      swap2\n      swap1\n      tag_32\n      jump\t// in\n    tag_31:\n      tag_33\n      jump\t// in\n    tag_30:\n      stop\n        /* \"contracts/Authentification.sol\":2586:2858  function toBytes16(string memory source) public pure returns (bytes16 result) {\r... */\n    tag_11:\n        /* \"contracts/Authentification.sol\":2648:2662  bytes16 result */\n      0x00\n        /* \"contracts/Authentification.sol\":2675:2707  bytes memory tempEmptyStringTest */\n      dup1\n        /* \"contracts/Authentification.sol\":2716:2722  source */\n      dup3\n        /* \"contracts/Authentification.sol\":2675:2723  bytes memory tempEmptyStringTest = bytes(source) */\n      swap1\n      pop\n        /* \"contracts/Authentification.sol\":2768:2769  0 */\n      0x00\n        /* \"contracts/Authentification.sol\":2738:2757  tempEmptyStringTest */\n      dup2\n        /* \"contracts/Authentification.sol\":2738:2764  tempEmptyStringTest.length */\n      mload\n        /* \"contracts/Authentification.sol\":2738:2769  tempEmptyStringTest.length == 0 */\n      eq\n        /* \"contracts/Authentification.sol\":2734:2808  if (tempEmptyStringTest.length == 0) {\r... */\n      iszero\n      tag_35\n      jumpi\n        /* \"contracts/Authentification.sol\":2793:2796  0x0 */\n      0x00\n        /* \"contracts/Authentification.sol\":2786:2796  return 0x0 */\n      0x80\n      shl\n      swap2\n      pop\n      pop\n      jump(tag_34)\n        /* \"contracts/Authentification.sol\":2734:2808  if (tempEmptyStringTest.length == 0) {\r... */\n    tag_35:\n        /* \"contracts/Authentification.sol\":2846:2848  32 */\n      0x20\n        /* \"contracts/Authentification.sol\":2838:2844  source */\n      dup4\n        /* \"contracts/Authentification.sol\":2834:2849  add(source, 32) */\n      add\n        /* \"contracts/Authentification.sol\":2828:2850  mload(add(source, 32)) */\n      mload\n        /* \"contracts/Authentification.sol\":2818:2850  result := mload(add(source, 32)) */\n      swap2\n      pop\n        /* \"contracts/Authentification.sol\":2817:2851  {result := mload(add(source, 32))} */\n      pop\n        /* \"contracts/Authentification.sol\":2586:2858  function toBytes16(string memory source) public pure returns (bytes16 result) {\r... */\n    tag_34:\n      swap2\n      swap1\n      pop\n      jump\t// out\n        /* \"contracts/Authentification.sol\":1329:1549  function has_on_time(address _address) external view returns(bool){\r... */\n    tag_17:\n        /* \"contracts/Authentification.sol\":1390:1394  bool */\n      0x00\n        /* \"contracts/Authentification.sol\":1414:1440  is_already_exist(_address) */\n      tag_37\n        /* \"contracts/Authentification.sol\":1431:1439  _address */\n      dup3\n        /* \"contracts/Authentification.sol\":1414:1430  is_already_exist */\n      tag_38\n        /* \"contracts/Authentification.sol\":1414:1440  is_already_exist(_address) */\n      jump\t// in\n    tag_37:\n        /* \"contracts/Authentification.sol\":1406:1477  require(is_already_exist(_address), \"Partie prenante non reconnue !!!\") */\n      tag_39\n      jumpi\n      mload(0x40)\n      0x08c379a000000000000000000000000000000000000000000000000000000000\n      dup2\n      mstore\n      0x04\n      add\n      tag_40\n      swap1\n      tag_41\n      jump\t// in\n    tag_40:\n      mload(0x40)\n      dup1\n      swap2\n      sub\n      swap1\n      revert\n    tag_39:\n        /* \"contracts/Authentification.sol\":1526:1541  block.timestamp */\n      timestamp\n        /* \"contracts/Authentification.sol\":1495:1513  connection_timeout */\n      0x01\n        /* \"contracts/Authentification.sol\":1495:1523  connection_timeout[_address] */\n      0x00\n        /* \"contracts/Authentification.sol\":1514:1522  _address */\n      dup5\n        /* \"contracts/Authentification.sol\":1495:1523  connection_timeout[_address] */\n      0xffffffffffffffffffffffffffffffffffffffff\n      and\n      0xffffffffffffffffffffffffffffffffffffffff\n      and\n      dup2\n      mstore\n      0x20\n      add\n      swap1\n      dup2\n      mstore\n      0x20\n      add\n      0x00\n      keccak256\n      sload\n        /* \"contracts/Authentification.sol\":1495:1541  connection_timeout[_address] > block.timestamp */\n      gt\n        /* \"contracts/Authentification.sol\":1488:1541  return connection_timeout[_address] > block.timestamp */\n      swap1\n      pop\n        /* \"contracts/Authentification.sol\":1329:1549  function has_on_time(address _address) external view returns(bool){\r... */\n      swap2\n      swap1\n      pop\n      jump\t// out\n        /* \"contracts/Authentification.sol\":2306:2578  function toBytes32(string memory source) public pure returns (bytes32 result) {\r... */\n    tag_22:\n        /* \"contracts/Authentification.sol\":2368:2382  bytes32 result */\n      0x00\n        /* \"contracts/Authentification.sol\":2395:2427  bytes memory tempEmptyStringTest */\n      dup1\n        /* \"contracts/Authentification.sol\":2436:2442  source */\n      dup3\n        /* \"contracts/Authentification.sol\":2395:2443  bytes memory tempEmptyStringTest = bytes(source) */\n      swap1\n      pop\n        /* \"contracts/Authentification.sol\":2488:2489  0 */\n      0x00\n        /* \"contracts/Authentification.sol\":2458:2477  tempEmptyStringTest */\n      dup2\n        /* \"contracts/Authentification.sol\":2458:2484  tempEmptyStringTest.length */\n      mload\n        /* \"contracts/Authentification.sol\":2458:2489  tempEmptyStringTest.length == 0 */\n      eq\n        /* \"contracts/Authentification.sol\":2454:2528  if (tempEmptyStringTest.length == 0) {\r... */\n      iszero\n      tag_43\n      jumpi\n        /* \"contracts/Authentification.sol\":2513:2516  0x0 */\n      0x00\n        /* \"contracts/Authentification.sol\":2506:2516  return 0x0 */\n      dup1\n      shl\n      swap2\n      pop\n      pop\n      jump(tag_42)\n        /* \"contracts/Authentification.sol\":2454:2528  if (tempEmptyStringTest.length == 0) {\r... */\n    tag_43:\n        /* \"contracts/Authentification.sol\":2566:2568  32 */\n      0x20\n        /* \"contracts/Authentification.sol\":2558:2564  source */\n      dup4\n        /* \"contracts/Authentification.sol\":2554:2569  add(source, 32) */\n      add\n        /* \"contracts/Authentification.sol\":2548:2570  mload(add(source, 32)) */\n      mload\n        /* \"contracts/Authentification.sol\":2538:2570  result := mload(add(source, 32)) */\n      swap2\n      pop\n        /* \"contracts/Authentification.sol\":2537:2571  {result := mload(add(source, 32))} */\n      pop\n        /* \"contracts/Authentification.sol\":2306:2578  function toBytes32(string memory source) public pure returns (bytes32 result) {\r... */\n    tag_42:\n      swap2\n      swap1\n      pop\n      jump\t// out\n        /* \"contracts/Authentification.sol\":1561:2108  function add_stack_holder(string memory _email, string memory _pass) \r... */\n    tag_28:\n        /* \"contracts/Authentification.sol\":1653:1660  bytes32 */\n      0x00\n        /* \"contracts/Authentification.sol\":1681:1709  is_already_exist(msg.sender) */\n      tag_45\n        /* \"contracts/Authentification.sol\":1698:1708  msg.sender */\n      caller\n        /* \"contracts/Authentification.sol\":1681:1697  is_already_exist */\n      tag_38\n        /* \"contracts/Authentification.sol\":1681:1709  is_already_exist(msg.sender) */\n      jump\t// in\n    tag_45:\n        /* \"contracts/Authentification.sol\":1680:1709  !is_already_exist(msg.sender) */\n      iszero\n        /* \"contracts/Authentification.sol\":1672:1751  require(!is_already_exist(msg.sender), \"Cette partie prenante existe deja !!!\") */\n      tag_46\n      jumpi\n      mload(0x40)\n      0x08c379a000000000000000000000000000000000000000000000000000000000\n      dup2\n      mstore\n      0x04\n      add\n      tag_47\n      swap1\n      tag_48\n      jump\t// in\n    tag_47:\n      mload(0x40)\n      dup1\n      swap2\n      sub\n      swap1\n      revert\n    tag_46:\n        /* \"contracts/Authentification.sol\":1762:1795  Stack_holder storage stack_holder */\n      0x00\n        /* \"contracts/Authentification.sol\":1798:1815  stack_holder_list */\n      dup1\n        /* \"contracts/Authentification.sol\":1798:1827  stack_holder_list[msg.sender] */\n      0x00\n        /* \"contracts/Authentification.sol\":1816:1826  msg.sender */\n      caller\n        /* \"contracts/Authentification.sol\":1798:1827  stack_holder_list[msg.sender] */\n      0xffffffffffffffffffffffffffffffffffffffff\n      and\n      0xffffffffffffffffffffffffffffffffffffffff\n      and\n      dup2\n      mstore\n      0x20\n      add\n      swap1\n      dup2\n      mstore\n      0x20\n      add\n      0x00\n      keccak256\n        /* \"contracts/Authentification.sol\":1762:1827  Stack_holder storage stack_holder = stack_holder_list[msg.sender] */\n      swap1\n      pop\n        /* \"contracts/Authentification.sol\":1885:1890  _pass */\n      dup3\n        /* \"contracts/Authentification.sol\":1868:1891  abi.encodePacked(_pass) */\n      add(0x20, mload(0x40))\n      tag_49\n      swap2\n      swap1\n      tag_50\n      jump\t// in\n    tag_49:\n      mload(0x40)\n      0x20\n      dup2\n      dup4\n      sub\n      sub\n      dup2\n      mstore\n      swap1\n      0x40\n      mstore\n        /* \"contracts/Authentification.sol\":1858:1892  keccak256(abi.encodePacked(_pass)) */\n      dup1\n      mload\n      swap1\n      0x20\n      add\n      keccak256\n        /* \"contracts/Authentification.sol\":1838:1850  stack_holder */\n      dup2\n        /* \"contracts/Authentification.sol\":1838:1855  stack_holder.pass */\n      0x01\n      add\n        /* \"contracts/Authentification.sol\":1838:1892  stack_holder.pass = keccak256(abi.encodePacked(_pass)) */\n      dup2\n      swap1\n      sstore\n      pop\n        /* \"contracts/Authentification.sol\":1924:1930  _email */\n      dup4\n        /* \"contracts/Authentification.sol\":1903:1915  stack_holder */\n      dup2\n        /* \"contracts/Authentification.sol\":1903:1921  stack_holder.email */\n      0x02\n      add\n        /* \"contracts/Authentification.sol\":1903:1930  stack_holder.email = _email */\n      swap1\n      dup1\n      mload\n      swap1\n      0x20\n      add\n      swap1\n      tag_51\n      swap3\n      swap2\n      swap1\n      tag_52\n      jump\t// in\n    tag_51:\n      pop\n        /* \"contracts/Authentification.sol\":1986:2023  Strings.address_to_string(msg.sender) */\n      tag_53\n        /* \"contracts/Authentification.sol\":2012:2022  msg.sender */\n      caller\n        /* \"contracts/Authentification.sol\":1986:2011  Strings.address_to_string */\n      tag_54\n        /* \"contracts/Authentification.sol\":1986:2023  Strings.address_to_string(msg.sender) */\n      jump\t// in\n    tag_53:\n        /* \"contracts/Authentification.sol\":2024:2029  _pass */\n      dup4\n        /* \"contracts/Authentification.sol\":2031:2064  Strings.toString(block.timestamp) */\n      tag_55\n        /* \"contracts/Authentification.sol\":2048:2063  block.timestamp */\n      timestamp\n        /* \"contracts/Authentification.sol\":2031:2047  Strings.toString */\n      tag_56\n        /* \"contracts/Authentification.sol\":2031:2064  Strings.toString(block.timestamp) */\n      jump\t// in\n    tag_55:\n        /* \"contracts/Authentification.sol\":1969:2065  abi.encodePacked(Strings.address_to_string(msg.sender),_pass, Strings.toString(block.timestamp)) */\n      add(0x20, mload(0x40))\n      tag_57\n      swap4\n      swap3\n      swap2\n      swap1\n      tag_58\n      jump\t// in\n    tag_57:\n      mload(0x40)\n      0x20\n      dup2\n      dup4\n      sub\n      sub\n      dup2\n      mstore\n      swap1\n      0x40\n      mstore\n        /* \"contracts/Authentification.sol\":1959:2066  keccak256(abi.encodePacked(Strings.address_to_string(msg.sender),_pass, Strings.toString(block.timestamp))) */\n      dup1\n      mload\n      swap1\n      0x20\n      add\n      keccak256\n        /* \"contracts/Authentification.sol\":1941:1953  stack_holder */\n      dup2\n        /* \"contracts/Authentification.sol\":1941:1956  stack_holder.id */\n      0x00\n      add\n        /* \"contracts/Authentification.sol\":1941:2066  stack_holder.id = keccak256(abi.encodePacked(Strings.address_to_string(msg.sender),_pass, Strings.toString(block.timestamp))) */\n      dup2\n      swap1\n      sstore\n      pop\n        /* \"contracts/Authentification.sol\":2085:2097  stack_holder */\n      dup1\n        /* \"contracts/Authentification.sol\":2085:2100  stack_holder.id */\n      0x00\n      add\n      sload\n        /* \"contracts/Authentification.sol\":2078:2100  return stack_holder.id */\n      swap2\n      pop\n      pop\n        /* \"contracts/Authentification.sol\":1561:2108  function add_stack_holder(string memory _email, string memory _pass) \r... */\n      swap3\n      swap2\n      pop\n      pop\n      jump\t// out\n        /* \"contracts/Authentification.sol\":880:1190  function authentify(address _address, string memory _pass) external{\r... */\n    tag_33:\n        /* \"contracts/Authentification.sol\":966:992  is_already_exist(_address) */\n      tag_60\n        /* \"contracts/Authentification.sol\":983:991  _address */\n      dup3\n        /* \"contracts/Authentification.sol\":966:982  is_already_exist */\n      tag_38\n        /* \"contracts/Authentification.sol\":966:992  is_already_exist(_address) */\n      jump\t// in\n    tag_60:\n        /* \"contracts/Authentification.sol\":958:1025  require(is_already_exist(_address), \"Cet adresse n'existe pas !!!\") */\n      tag_61\n      jumpi\n      mload(0x40)\n      0x08c379a000000000000000000000000000000000000000000000000000000000\n      dup2\n      mstore\n      0x04\n      add\n      tag_62\n      swap1\n      tag_63\n      jump\t// in\n    tag_62:\n      mload(0x40)\n      dup1\n      swap2\n      sub\n      swap1\n      revert\n    tag_61:\n        /* \"contracts/Authentification.sol\":1107:1112  _pass */\n      dup1\n        /* \"contracts/Authentification.sol\":1090:1113  abi.encodePacked(_pass) */\n      add(0x20, mload(0x40))\n      tag_64\n      swap2\n      swap1\n      tag_50\n      jump\t// in\n    tag_64:\n      mload(0x40)\n      0x20\n      dup2\n      dup4\n      sub\n      sub\n      dup2\n      mstore\n      swap1\n      0x40\n      mstore\n        /* \"contracts/Authentification.sol\":1080:1114  keccak256(abi.encodePacked(_pass)) */\n      dup1\n      mload\n      swap1\n      0x20\n      add\n      keccak256\n        /* \"contracts/Authentification.sol\":1044:1061  stack_holder_list */\n      0x00\n        /* \"contracts/Authentification.sol\":1044:1071  stack_holder_list[_address] */\n      dup1\n        /* \"contracts/Authentification.sol\":1062:1070  _address */\n      dup5\n        /* \"contracts/Authentification.sol\":1044:1071  stack_holder_list[_address] */\n      0xffffffffffffffffffffffffffffffffffffffff\n      and\n      0xffffffffffffffffffffffffffffffffffffffff\n      and\n      dup2\n      mstore\n      0x20\n      add\n      swap1\n      dup2\n      mstore\n      0x20\n      add\n      0x00\n      keccak256\n        /* \"contracts/Authentification.sol\":1044:1076  stack_holder_list[_address].pass */\n      0x01\n      add\n      sload\n        /* \"contracts/Authentification.sol\":1044:1114  stack_holder_list[_address].pass == keccak256(abi.encodePacked(_pass)) */\n      eq\n        /* \"contracts/Authentification.sol\":1036:1146  require(stack_holder_list[_address].pass == keccak256(abi.encodePacked(_pass)), \"Mot de passe incoherent !!!\") */\n      tag_65\n      jumpi\n      mload(0x40)\n      0x08c379a000000000000000000000000000000000000000000000000000000000\n      dup2\n      mstore\n      0x04\n      add\n      tag_66\n      swap1\n      tag_67\n      jump\t// in\n    tag_66:\n      mload(0x40)\n      dup1\n      swap2\n      sub\n      swap1\n      revert\n    tag_65:\n        /* \"contracts/Authentification.sol\":1157:1182  refresh_session(_address) */\n      tag_68\n        /* \"contracts/Authentification.sol\":1173:1181  _address */\n      dup3\n        /* \"contracts/Authentification.sol\":1157:1172  refresh_session */\n      tag_69\n        /* \"contracts/Authentification.sol\":1157:1182  refresh_session(_address) */\n      jump\t// in\n    tag_68:\n        /* \"contracts/Authentification.sol\":880:1190  function authentify(address _address, string memory _pass) external{\r... */\n      pop\n      pop\n      jump\t// out\n        /* \"contracts/Authentification.sol\":2120:2270  function is_already_exist(address _address)\r... */\n    tag_38:\n        /* \"contracts/Authentification.sol\":2191:2195  bool */\n      0x00\n        /* \"contracts/Authentification.sol\":2248:2261  toBytes32(\"\") */\n      tag_71\n      mload(0x40)\n      dup1\n      0x20\n      add\n      0x40\n      mstore\n      dup1\n      0x00\n      dup2\n      mstore\n      pop\n        /* \"contracts/Authentification.sol\":2248:2257  toBytes32 */\n      tag_22\n        /* \"contracts/Authentification.sol\":2248:2261  toBytes32(\"\") */\n      jump\t// in\n    tag_71:\n        /* \"contracts/Authentification.sol\":2214:2231  stack_holder_list */\n      0x00\n        /* \"contracts/Authentification.sol\":2214:2241  stack_holder_list[_address] */\n      dup1\n        /* \"contracts/Authentification.sol\":2232:2240  _address */\n      dup5\n        /* \"contracts/Authentification.sol\":2214:2241  stack_holder_list[_address] */\n      0xffffffffffffffffffffffffffffffffffffffff\n      and\n      0xffffffffffffffffffffffffffffffffffffffff\n      and\n      dup2\n      mstore\n      0x20\n      add\n      swap1\n      dup2\n      mstore\n      0x20\n      add\n      0x00\n      keccak256\n        /* \"contracts/Authentification.sol\":2214:2244  stack_holder_list[_address].id */\n      0x00\n      add\n      sload\n        /* \"contracts/Authentification.sol\":2214:2261  stack_holder_list[_address].id != toBytes32(\"\") */\n      eq\n      iszero\n        /* \"contracts/Authentification.sol\":2207:2261  return stack_holder_list[_address].id != toBytes32(\"\") */\n      swap1\n      pop\n        /* \"contracts/Authentification.sol\":2120:2270  function is_already_exist(address _address)\r... */\n      swap2\n      swap1\n      pop\n      jump\t// out\n        /* \"contracts/Strings.sol\":11951:12418  function address_to_string(address x) internal pure returns (string memory) {\r... */\n    tag_54:\n        /* \"contracts/Strings.sol\":12012:12025  string memory */\n      0x60\n        /* \"contracts/Strings.sol\":12038:12052  bytes memory s */\n      0x00\n        /* \"contracts/Strings.sol\":12065:12067  40 */\n      0x28\n        /* \"contracts/Strings.sol\":12055:12068  new bytes(40) */\n      0xffffffffffffffff\n      dup2\n      gt\n      iszero\n      tag_73\n      jumpi\n      tag_74\n      tag_75\n      jump\t// in\n    tag_74:\n    tag_73:\n      mload(0x40)\n      swap1\n      dup1\n      dup3\n      mstore\n      dup1\n      0x1f\n      add\n      not(0x1f)\n      and\n      0x20\n      add\n      dup3\n      add\n      0x40\n      mstore\n      dup1\n      iszero\n      tag_76\n      jumpi\n      dup2\n      0x20\n      add\n      0x01\n      dup3\n      mul\n      dup1\n      calldatasize\n      dup4\n      calldatacopy\n      dup1\n      dup3\n      add\n      swap2\n      pop\n      pop\n      swap1\n      pop\n    tag_76:\n      pop\n        /* \"contracts/Strings.sol\":12038:12068  bytes memory s = new bytes(40) */\n      swap1\n      pop\n        /* \"contracts/Strings.sol\":12084:12090  uint i */\n      0x00\n        /* \"contracts/Strings.sol\":12079:12384  for (uint i = 0; i < 20; i++) {\r... */\n    tag_77:\n        /* \"contracts/Strings.sol\":12100:12102  20 */\n      0x14\n        /* \"contracts/Strings.sol\":12096:12097  i */\n      dup2\n        /* \"contracts/Strings.sol\":12096:12102  i < 20 */\n      lt\n        /* \"contracts/Strings.sol\":12079:12384  for (uint i = 0; i < 20; i++) {\r... */\n      iszero\n      tag_78\n      jumpi\n        /* \"contracts/Strings.sol\":12124:12132  bytes1 b */\n      0x00\n        /* \"contracts/Strings.sol\":12180:12181  i */\n      dup2\n        /* \"contracts/Strings.sol\":12175:12177  19 */\n      0x13\n        /* \"contracts/Strings.sol\":12175:12181  19 - i */\n      tag_80\n      swap2\n      swap1\n      tag_81\n      jump\t// in\n    tag_80:\n        /* \"contracts/Strings.sol\":12172:12173  8 */\n      0x08\n        /* \"contracts/Strings.sol\":12172:12182  8*(19 - i) */\n      tag_82\n      swap2\n      swap1\n      tag_83\n      jump\t// in\n    tag_82:\n        /* \"contracts/Strings.sol\":12168:12169  2 */\n      0x02\n        /* \"contracts/Strings.sol\":12168:12183  2**(8*(19 - i)) */\n      tag_84\n      swap2\n      swap1\n      tag_85\n      jump\t// in\n    tag_84:\n        /* \"contracts/Strings.sol\":12161:12162  x */\n      dup6\n        /* \"contracts/Strings.sol\":12148:12164  uint(uint160(x)) */\n      0xffffffffffffffffffffffffffffffffffffffff\n      and\n        /* \"contracts/Strings.sol\":12148:12184  uint(uint160(x)) / (2**(8*(19 - i))) */\n      tag_86\n      swap2\n      swap1\n      tag_87\n      jump\t// in\n    tag_86:\n        /* \"contracts/Strings.sol\":12135:12186  bytes1(uint8(uint(uint160(x)) / (2**(8*(19 - i))))) */\n      0xf8\n      shl\n        /* \"contracts/Strings.sol\":12124:12186  bytes1 b = bytes1(uint8(uint(uint160(x)) / (2**(8*(19 - i))))) */\n      swap1\n      pop\n        /* \"contracts/Strings.sol\":12201:12210  bytes1 hi */\n      0x00\n        /* \"contracts/Strings.sol\":12231:12233  16 */\n      0x10\n        /* \"contracts/Strings.sol\":12226:12227  b */\n      dup3\n        /* \"contracts/Strings.sol\":12220:12228  uint8(b) */\n      0xf8\n      shr\n        /* \"contracts/Strings.sol\":12220:12233  uint8(b) / 16 */\n      tag_88\n      swap2\n      swap1\n      tag_89\n      jump\t// in\n    tag_88:\n        /* \"contracts/Strings.sol\":12213:12234  bytes1(uint8(b) / 16) */\n      0xf8\n      shl\n        /* \"contracts/Strings.sol\":12201:12234  bytes1 hi = bytes1(uint8(b) / 16) */\n      swap1\n      pop\n        /* \"contracts/Strings.sol\":12249:12258  bytes1 lo */\n      0x00\n        /* \"contracts/Strings.sol\":12290:12292  hi */\n      dup2\n        /* \"contracts/Strings.sol\":12284:12293  uint8(hi) */\n      0xf8\n      shr\n        /* \"contracts/Strings.sol\":12279:12281  16 */\n      0x10\n        /* \"contracts/Strings.sol\":12279:12293  16 * uint8(hi) */\n      tag_90\n      swap2\n      swap1\n      tag_91\n      jump\t// in\n    tag_90:\n        /* \"contracts/Strings.sol\":12274:12275  b */\n      dup4\n        /* \"contracts/Strings.sol\":12268:12276  uint8(b) */\n      0xf8\n      shr\n        /* \"contracts/Strings.sol\":12268:12293  uint8(b) - 16 * uint8(hi) */\n      tag_92\n      swap2\n      swap1\n      tag_93\n      jump\t// in\n    tag_92:\n        /* \"contracts/Strings.sol\":12261:12294  bytes1(uint8(b) - 16 * uint8(hi)) */\n      0xf8\n      shl\n        /* \"contracts/Strings.sol\":12249:12294  bytes1 lo = bytes1(uint8(b) - 16 * uint8(hi)) */\n      swap1\n      pop\n        /* \"contracts/Strings.sol\":12318:12326  char(hi) */\n      tag_94\n        /* \"contracts/Strings.sol\":12323:12325  hi */\n      dup3\n        /* \"contracts/Strings.sol\":12318:12322  char */\n      tag_95\n        /* \"contracts/Strings.sol\":12318:12326  char(hi) */\n      jump\t// in\n    tag_94:\n        /* \"contracts/Strings.sol\":12309:12310  s */\n      dup6\n        /* \"contracts/Strings.sol\":12313:12314  i */\n      dup6\n        /* \"contracts/Strings.sol\":12311:12312  2 */\n      0x02\n        /* \"contracts/Strings.sol\":12311:12314  2*i */\n      tag_96\n      swap2\n      swap1\n      tag_83\n      jump\t// in\n    tag_96:\n        /* \"contracts/Strings.sol\":12309:12315  s[2*i] */\n      dup2\n      mload\n      dup2\n      lt\n      tag_97\n      jumpi\n      tag_98\n      tag_99\n      jump\t// in\n    tag_98:\n    tag_97:\n      0x20\n      add\n      add\n        /* \"contracts/Strings.sol\":12309:12326  s[2*i] = char(hi) */\n      swap1\n      not(0xffffffffffffffffffffffffffffffffffffffffffffffffffffffffffffff)\n      and\n      swap1\n      dup2\n      0x00\n      byte\n      swap1\n      mstore8\n      pop\n        /* \"contracts/Strings.sol\":12352:12360  char(lo) */\n      tag_100\n        /* \"contracts/Strings.sol\":12357:12359  lo */\n      dup2\n        /* \"contracts/Strings.sol\":12352:12356  char */\n      tag_95\n        /* \"contracts/Strings.sol\":12352:12360  char(lo) */\n      jump\t// in\n    tag_100:\n        /* \"contracts/Strings.sol\":12341:12342  s */\n      dup6\n        /* \"contracts/Strings.sol\":12347:12348  1 */\n      0x01\n        /* \"contracts/Strings.sol\":12345:12346  i */\n      dup7\n        /* \"contracts/Strings.sol\":12343:12344  2 */\n      0x02\n        /* \"contracts/Strings.sol\":12343:12346  2*i */\n      tag_101\n      swap2\n      swap1\n      tag_83\n      jump\t// in\n    tag_101:\n        /* \"contracts/Strings.sol\":12343:12348  2*i+1 */\n      tag_102\n      swap2\n      swap1\n      tag_103\n      jump\t// in\n    tag_102:\n        /* \"contracts/Strings.sol\":12341:12349  s[2*i+1] */\n      dup2\n      mload\n      dup2\n      lt\n      tag_104\n      jumpi\n      tag_105\n      tag_99\n      jump\t// in\n    tag_105:\n    tag_104:\n      0x20\n      add\n      add\n        /* \"contracts/Strings.sol\":12341:12360  s[2*i+1] = char(lo) */\n      swap1\n      not(0xffffffffffffffffffffffffffffffffffffffffffffffffffffffffffffff)\n      and\n      swap1\n      dup2\n      0x00\n      byte\n      swap1\n      mstore8\n      pop\n        /* \"contracts/Strings.sol\":12109:12384  {\r... */\n      pop\n      pop\n      pop\n        /* \"contracts/Strings.sol\":12104:12107  i++ */\n      dup1\n      dup1\n      tag_106\n      swap1\n      tag_107\n      jump\t// in\n    tag_106:\n      swap2\n      pop\n      pop\n        /* \"contracts/Strings.sol\":12079:12384  for (uint i = 0; i < 20; i++) {\r... */\n      jump(tag_77)\n    tag_78:\n      pop\n        /* \"contracts/Strings.sol\":12408:12409  s */\n      dup1\n        /* \"contracts/Strings.sol\":12394:12410  return string(s) */\n      swap2\n      pop\n      pop\n        /* \"contracts/Strings.sol\":11951:12418  function address_to_string(address x) internal pure returns (string memory) {\r... */\n      swap2\n      swap1\n      pop\n      jump\t// out\n        /* \"contracts/Strings.sol\":13093:13657  function toString(uint256 value) \r... */\n    tag_56:\n        /* \"contracts/Strings.sol\":13179:13192  string memory */\n      0x60\n        /* \"contracts/Strings.sol\":13220:13221  0 */\n      0x00\n        /* \"contracts/Strings.sol\":13211:13216  value */\n      dup3\n        /* \"contracts/Strings.sol\":13211:13221  value == 0 */\n      eq\n        /* \"contracts/Strings.sol\":13207:13260  if (value == 0) {\r... */\n      iszero\n      tag_109\n      jumpi\n        /* \"contracts/Strings.sol\":13238:13248  return \"0\" */\n      mload(0x40)\n      dup1\n      0x40\n      add\n      0x40\n      mstore\n      dup1\n      0x01\n      dup2\n      mstore\n      0x20\n      add\n      0x3000000000000000000000000000000000000000000000000000000000000000\n      dup2\n      mstore\n      pop\n      swap1\n      pop\n      jump(tag_108)\n        /* \"contracts/Strings.sol\":13207:13260  if (value == 0) {\r... */\n    tag_109:\n        /* \"contracts/Strings.sol\":13270:13282  uint256 temp */\n      0x00\n        /* \"contracts/Strings.sol\":13285:13290  value */\n      dup3\n        /* \"contracts/Strings.sol\":13270:13290  uint256 temp = value */\n      swap1\n      pop\n        /* \"contracts/Strings.sol\":13301:13315  uint256 digits */\n      0x00\n        /* \"contracts/Strings.sol\":13326:13404  while (temp != 0) {\r... */\n    tag_110:\n        /* \"contracts/Strings.sol\":13341:13342  0 */\n      0x00\n        /* \"contracts/Strings.sol\":13333:13337  temp */\n      dup3\n        /* \"contracts/Strings.sol\":13333:13342  temp != 0 */\n      eq\n        /* \"contracts/Strings.sol\":13326:13404  while (temp != 0) {\r... */\n      tag_111\n      jumpi\n        /* \"contracts/Strings.sol\":13359:13367  digits++ */\n      dup1\n      dup1\n      tag_112\n      swap1\n      tag_107\n      jump\t// in\n    tag_112:\n      swap2\n      pop\n      pop\n        /* \"contracts/Strings.sol\":13390:13392  10 */\n      0x0a\n        /* \"contracts/Strings.sol\":13382:13392  temp /= 10 */\n      dup3\n      tag_113\n      swap2\n      swap1\n      tag_87\n      jump\t// in\n    tag_113:\n      swap2\n      pop\n        /* \"contracts/Strings.sol\":13326:13404  while (temp != 0) {\r... */\n      jump(tag_110)\n    tag_111:\n        /* \"contracts/Strings.sol\":13414:13433  bytes memory buffer */\n      0x00\n        /* \"contracts/Strings.sol\":13446:13452  digits */\n      dup2\n        /* \"contracts/Strings.sol\":13436:13453  new bytes(digits) */\n      0xffffffffffffffff\n      dup2\n      gt\n      iszero\n      tag_114\n      jumpi\n      tag_115\n      tag_75\n      jump\t// in\n    tag_115:\n    tag_114:\n      mload(0x40)\n      swap1\n      dup1\n      dup3\n      mstore\n      dup1\n      0x1f\n      add\n      not(0x1f)\n      and\n      0x20\n      add\n      dup3\n      add\n      0x40\n      mstore\n      dup1\n      iszero\n      tag_116\n      jumpi\n      dup2\n      0x20\n      add\n      0x01\n      dup3\n      mul\n      dup1\n      calldatasize\n      dup4\n      calldatacopy\n      dup1\n      dup3\n      add\n      swap2\n      pop\n      pop\n      swap1\n      pop\n    tag_116:\n      pop\n        /* \"contracts/Strings.sol\":13414:13453  bytes memory buffer = new bytes(digits) */\n      swap1\n      pop\n        /* \"contracts/Strings.sol\":13464:13618  while (value != 0) {\r... */\n    tag_117:\n        /* \"contracts/Strings.sol\":13480:13481  0 */\n      0x00\n        /* \"contracts/Strings.sol\":13471:13476  value */\n      dup6\n        /* \"contracts/Strings.sol\":13471:13481  value != 0 */\n      eq\n        /* \"contracts/Strings.sol\":13464:13618  while (value != 0) {\r... */\n      tag_118\n      jumpi\n        /* \"contracts/Strings.sol\":13508:13509  1 */\n      0x01\n        /* \"contracts/Strings.sol\":13498:13509  digits -= 1 */\n      dup3\n      tag_119\n      swap2\n      swap1\n      tag_81\n      jump\t// in\n    tag_119:\n      swap2\n      pop\n        /* \"contracts/Strings.sol\":13575:13577  10 */\n      0x0a\n        /* \"contracts/Strings.sol\":13567:13572  value */\n      dup6\n        /* \"contracts/Strings.sol\":13567:13577  value % 10 */\n      tag_120\n      swap2\n      swap1\n      tag_121\n      jump\t// in\n    tag_120:\n        /* \"contracts/Strings.sol\":13554:13556  48 */\n      0x30\n        /* \"contracts/Strings.sol\":13554:13578  48 + uint256(value % 10) */\n      tag_122\n      swap2\n      swap1\n      tag_103\n      jump\t// in\n    tag_122:\n        /* \"contracts/Strings.sol\":13541:13580  bytes1(uint8(48 + uint256(value % 10))) */\n      0xf8\n      shl\n        /* \"contracts/Strings.sol\":13524:13530  buffer */\n      dup2\n        /* \"contracts/Strings.sol\":13531:13537  digits */\n      dup4\n        /* \"contracts/Strings.sol\":13524:13538  buffer[digits] */\n      dup2\n      mload\n      dup2\n      lt\n      tag_123\n      jumpi\n      tag_124\n      tag_99\n      jump\t// in\n    tag_124:\n    tag_123:\n      0x20\n      add\n      add\n        /* \"contracts/Strings.sol\":13524:13580  buffer[digits] = bytes1(uint8(48 + uint256(value % 10))) */\n      swap1\n      not(0xffffffffffffffffffffffffffffffffffffffffffffffffffffffffffffff)\n      and\n      swap1\n      dup2\n      0x00\n      byte\n      swap1\n      mstore8\n      pop\n        /* \"contracts/Strings.sol\":13604:13606  10 */\n      0x0a\n        /* \"contracts/Strings.sol\":13595:13606  value /= 10 */\n      dup6\n      tag_125\n      swap2\n      swap1\n      tag_87\n      jump\t// in\n    tag_125:\n      swap5\n      pop\n        /* \"contracts/Strings.sol\":13464:13618  while (value != 0) {\r... */\n      jump(tag_117)\n    tag_118:\n        /* \"contracts/Strings.sol\":13642:13648  buffer */\n      dup1\n        /* \"contracts/Strings.sol\":13628:13649  return string(buffer) */\n      swap4\n      pop\n      pop\n      pop\n      pop\n        /* \"contracts/Strings.sol\":13093:13657  function toString(uint256 value) \r... */\n    tag_108:\n      swap2\n      swap1\n      pop\n      jump\t// out\n        /* \"contracts/Authentification.sol\":1198:1321  function refresh_session(address _address) internal{\r... */\n    tag_69:\n        /* \"contracts/Authentification.sol\":1309:1313  1200 */\n      0x04b0\n        /* \"contracts/Authentification.sol\":1291:1306  block.timestamp */\n      timestamp\n        /* \"contracts/Authentification.sol\":1291:1313  block.timestamp + 1200 */\n      tag_127\n      swap2\n      swap1\n      tag_103\n      jump\t// in\n    tag_127:\n        /* \"contracts/Authentification.sol\":1260:1278  connection_timeout */\n      0x01\n        /* \"contracts/Authentification.sol\":1260:1288  connection_timeout[_address] */\n      0x00\n        /* \"contracts/Authentification.sol\":1279:1287  _address */\n      dup4\n        /* \"contracts/Authentification.sol\":1260:1288  connection_timeout[_address] */\n      0xffffffffffffffffffffffffffffffffffffffff\n      and\n      0xffffffffffffffffffffffffffffffffffffffff\n      and\n      dup2\n      mstore\n      0x20\n      add\n      swap1\n      dup2\n      mstore\n      0x20\n      add\n      0x00\n      keccak256\n        /* \"contracts/Authentification.sol\":1260:1313  connection_timeout[_address] = block.timestamp + 1200 */\n      dup2\n      swap1\n      sstore\n      pop\n        /* \"contracts/Authentification.sol\":1198:1321  function refresh_session(address _address) internal{\r... */\n      pop\n      jump\t// out\n        /* \"contracts/Strings.sol\":12426:12597  function char(bytes1 b) internal pure returns (bytes1 c) {\r... */\n    tag_95:\n        /* \"contracts/Strings.sol\":12473:12481  bytes1 c */\n      0x00\n        /* \"contracts/Strings.sol\":12509:12511  10 */\n      0x0a\n        /* \"contracts/Strings.sol\":12504:12505  b */\n      dup3\n        /* \"contracts/Strings.sol\":12498:12506  uint8(b) */\n      0xf8\n      shr\n        /* \"contracts/Strings.sol\":12498:12511  uint8(b) < 10 */\n      0xff\n      and\n      lt\n        /* \"contracts/Strings.sol\":12494:12589  if (uint8(b) < 10) return bytes1(uint8(b) + 0x30);\r... */\n      iszero\n      tag_129\n      jumpi\n        /* \"contracts/Strings.sol\":12538:12542  0x30 */\n      0x30\n        /* \"contracts/Strings.sol\":12533:12534  b */\n      dup3\n        /* \"contracts/Strings.sol\":12527:12535  uint8(b) */\n      0xf8\n      shr\n        /* \"contracts/Strings.sol\":12527:12542  uint8(b) + 0x30 */\n      tag_130\n      swap2\n      swap1\n      tag_131\n      jump\t// in\n    tag_130:\n        /* \"contracts/Strings.sol\":12520:12543  bytes1(uint8(b) + 0x30) */\n      0xf8\n      shl\n        /* \"contracts/Strings.sol\":12513:12543  return bytes1(uint8(b) + 0x30) */\n      swap1\n      pop\n      jump(tag_128)\n        /* \"contracts/Strings.sol\":12494:12589  if (uint8(b) < 10) return bytes1(uint8(b) + 0x30);\r... */\n    tag_129:\n        /* \"contracts/Strings.sol\":12584:12588  0x57 */\n      0x57\n        /* \"contracts/Strings.sol\":12579:12580  b */\n      dup3\n        /* \"contracts/Strings.sol\":12573:12581  uint8(b) */\n      0xf8\n      shr\n        /* \"contracts/Strings.sol\":12573:12588  uint8(b) + 0x57 */\n      tag_133\n      swap2\n      swap1\n      tag_131\n      jump\t// in\n    tag_133:\n        /* \"contracts/Strings.sol\":12566:12589  bytes1(uint8(b) + 0x57) */\n      0xf8\n      shl\n        /* \"contracts/Strings.sol\":12559:12589  return bytes1(uint8(b) + 0x57) */\n      swap1\n      pop\n        /* \"contracts/Strings.sol\":12426:12597  function char(bytes1 b) internal pure returns (bytes1 c) {\r... */\n    tag_128:\n      swap2\n      swap1\n      pop\n      jump\t// out\n    tag_52:\n      dup3\n      dup1\n      sload\n      tag_134\n      swap1\n      tag_135\n      jump\t// in\n    tag_134:\n      swap1\n      0x00\n      mstore\n      keccak256(0x00, 0x20)\n      swap1\n      0x1f\n      add\n      0x20\n      swap1\n      div\n      dup2\n      add\n      swap3\n      dup3\n      tag_137\n      jumpi\n      0x00\n      dup6\n      sstore\n      jump(tag_136)\n    tag_137:\n      dup3\n      0x1f\n      lt\n      tag_138\n      jumpi\n      dup1\n      mload\n      not(0xff)\n      and\n      dup4\n      dup1\n      add\n      or\n      dup6\n      sstore\n      jump(tag_136)\n    tag_138:\n      dup3\n      dup1\n      add\n      0x01\n      add\n      dup6\n      sstore\n      dup3\n      iszero\n      tag_136\n      jumpi\n      swap2\n      dup3\n      add\n    tag_139:\n      dup3\n      dup2\n      gt\n      iszero\n      tag_140\n      jumpi\n      dup3\n      mload\n      dup3\n      sstore\n      swap2\n      0x20\n      add\n      swap2\n      swap1\n      0x01\n      add\n      swap1\n      jump(tag_139)\n    tag_140:\n    tag_136:\n      pop\n      swap1\n      pop\n      tag_141\n      swap2\n      swap1\n      tag_142\n      jump\t// in\n    tag_141:\n      pop\n      swap1\n      jump\t// out\n    tag_142:\n    tag_143:\n      dup1\n      dup3\n      gt\n      iszero\n      tag_144\n      jumpi\n      0x00\n      dup2\n      0x00\n      swap1\n      sstore\n      pop\n      0x01\n      add\n      jump(tag_143)\n    tag_144:\n      pop\n      swap1\n      jump\t// out\n        /* \"#utility.yul\":7:419   */\n    tag_146:\n        /* \"#utility.yul\":85:90   */\n      0x00\n        /* \"#utility.yul\":110:176   */\n      tag_148\n        /* \"#utility.yul\":126:175   */\n      tag_149\n        /* \"#utility.yul\":168:174   */\n      dup5\n        /* \"#utility.yul\":126:175   */\n      tag_150\n      jump\t// in\n    tag_149:\n        /* \"#utility.yul\":110:176   */\n      tag_151\n      jump\t// in\n    tag_148:\n        /* \"#utility.yul\":101:176   */\n      swap1\n      pop\n        /* \"#utility.yul\":199:205   */\n      dup3\n        /* \"#utility.yul\":192:197   */\n      dup2\n        /* \"#utility.yul\":185:206   */\n      mstore\n        /* \"#utility.yul\":237:241   */\n      0x20\n        /* \"#utility.yul\":230:235   */\n      dup2\n        /* \"#utility.yul\":226:242   */\n      add\n        /* \"#utility.yul\":275:278   */\n      dup5\n        /* \"#utility.yul\":266:272   */\n      dup5\n        /* \"#utility.yul\":261:264   */\n      dup5\n        /* \"#utility.yul\":257:273   */\n      add\n        /* \"#utility.yul\":254:279   */\n      gt\n        /* \"#utility.yul\":251:363   */\n      iszero\n      tag_152\n      jumpi\n        /* \"#utility.yul\":282:361   */\n      tag_153\n      tag_154\n      jump\t// in\n    tag_153:\n        /* \"#utility.yul\":251:363   */\n    tag_152:\n        /* \"#utility.yul\":372:413   */\n      tag_155\n        /* \"#utility.yul\":406:412   */\n      dup5\n        /* \"#utility.yul\":401:404   */\n      dup3\n        /* \"#utility.yul\":396:399   */\n      dup6\n        /* \"#utility.yul\":372:413   */\n      tag_156\n      jump\t// in\n    tag_155:\n        /* \"#utility.yul\":91:419   */\n      pop\n        /* \"#utility.yul\":7:419   */\n      swap4\n      swap3\n      pop\n      pop\n      pop\n      jump\t// out\n        /* \"#utility.yul\":425:564   */\n    tag_157:\n        /* \"#utility.yul\":471:476   */\n      0x00\n        /* \"#utility.yul\":509:515   */\n      dup2\n        /* \"#utility.yul\":496:516   */\n      calldataload\n        /* \"#utility.yul\":487:516   */\n      swap1\n      pop\n        /* \"#utility.yul\":525:558   */\n      tag_159\n        /* \"#utility.yul\":552:557   */\n      dup2\n        /* \"#utility.yul\":525:558   */\n      tag_160\n      jump\t// in\n    tag_159:\n        /* \"#utility.yul\":425:564   */\n      swap3\n      swap2\n      pop\n      pop\n      jump\t// out\n        /* \"#utility.yul\":584:924   */\n    tag_161:\n        /* \"#utility.yul\":640:645   */\n      0x00\n        /* \"#utility.yul\":689:692   */\n      dup3\n        /* \"#utility.yul\":682:686   */\n      0x1f\n        /* \"#utility.yul\":674:680   */\n      dup4\n        /* \"#utility.yul\":670:687   */\n      add\n        /* \"#utility.yul\":666:693   */\n      slt\n        /* \"#utility.yul\":656:778   */\n      tag_163\n      jumpi\n        /* \"#utility.yul\":697:776   */\n      tag_164\n      tag_165\n      jump\t// in\n    tag_164:\n        /* \"#utility.yul\":656:778   */\n    tag_163:\n        /* \"#utility.yul\":814:820   */\n      dup2\n        /* \"#utility.yul\":801:821   */\n      calldataload\n        /* \"#utility.yul\":839:918   */\n      tag_166\n        /* \"#utility.yul\":914:917   */\n      dup5\n        /* \"#utility.yul\":906:912   */\n      dup3\n        /* \"#utility.yul\":899:903   */\n      0x20\n        /* \"#utility.yul\":891:897   */\n      dup7\n        /* \"#utility.yul\":887:904   */\n      add\n        /* \"#utility.yul\":839:918   */\n      tag_146\n      jump\t// in\n    tag_166:\n        /* \"#utility.yul\":830:918   */\n      swap2\n      pop\n        /* \"#utility.yul\":646:924   */\n      pop\n        /* \"#utility.yul\":584:924   */\n      swap3\n      swap2\n      pop\n      pop\n      jump\t// out\n        /* \"#utility.yul\":930:1259   */\n    tag_16:\n        /* \"#utility.yul\":989:995   */\n      0x00\n        /* \"#utility.yul\":1038:1040   */\n      0x20\n        /* \"#utility.yul\":1026:1035   */\n      dup3\n        /* \"#utility.yul\":1017:1024   */\n      dup5\n        /* \"#utility.yul\":1013:1036   */\n      sub\n        /* \"#utility.yul\":1009:1041   */\n      slt\n        /* \"#utility.yul\":1006:1125   */\n      iszero\n      tag_168\n      jumpi\n        /* \"#utility.yul\":1044:1123   */\n      tag_169\n      tag_170\n      jump\t// in\n    tag_169:\n        /* \"#utility.yul\":1006:1125   */\n    tag_168:\n        /* \"#utility.yul\":1164:1165   */\n      0x00\n        /* \"#utility.yul\":1189:1242   */\n      tag_171\n        /* \"#utility.yul\":1234:1241   */\n      dup5\n        /* \"#utility.yul\":1225:1231   */\n      dup3\n        /* \"#utility.yul\":1214:1223   */\n      dup6\n        /* \"#utility.yul\":1210:1232   */\n      add\n        /* \"#utility.yul\":1189:1242   */\n      tag_157\n      jump\t// in\n    tag_171:\n        /* \"#utility.yul\":1179:1242   */\n      swap2\n      pop\n        /* \"#utility.yul\":1135:1252   */\n      pop\n        /* \"#utility.yul\":930:1259   */\n      swap3\n      swap2\n      pop\n      pop\n      jump\t// out\n        /* \"#utility.yul\":1265:1919   */\n    tag_32:\n        /* \"#utility.yul\":1343:1349   */\n      0x00\n        /* \"#utility.yul\":1351:1357   */\n      dup1\n        /* \"#utility.yul\":1400:1402   */\n      0x40\n        /* \"#utility.yul\":1388:1397   */\n      dup4\n        /* \"#utility.yul\":1379:1386   */\n      dup6\n        /* \"#utility.yul\":1375:1398   */\n      sub\n        /* \"#utility.yul\":1371:1403   */\n      slt\n        /* \"#utility.yul\":1368:1487   */\n      iszero\n      tag_173\n      jumpi\n        /* \"#utility.yul\":1406:1485   */\n      tag_174\n      tag_170\n      jump\t// in\n    tag_174:\n        /* \"#utility.yul\":1368:1487   */\n    tag_173:\n        /* \"#utility.yul\":1526:1527   */\n      0x00\n        /* \"#utility.yul\":1551:1604   */\n      tag_175\n        /* \"#utility.yul\":1596:1603   */\n      dup6\n        /* \"#utility.yul\":1587:1593   */\n      dup3\n        /* \"#utility.yul\":1576:1585   */\n      dup7\n        /* \"#utility.yul\":1572:1594   */\n      add\n        /* \"#utility.yul\":1551:1604   */\n      tag_157\n      jump\t// in\n    tag_175:\n        /* \"#utility.yul\":1541:1604   */\n      swap3\n      pop\n        /* \"#utility.yul\":1497:1614   */\n      pop\n        /* \"#utility.yul\":1681:1683   */\n      0x20\n        /* \"#utility.yul\":1670:1679   */\n      dup4\n        /* \"#utility.yul\":1666:1684   */\n      add\n        /* \"#utility.yul\":1653:1685   */\n      calldataload\n        /* \"#utility.yul\":1712:1730   */\n      0xffffffffffffffff\n        /* \"#utility.yul\":1704:1710   */\n      dup2\n        /* \"#utility.yul\":1701:1731   */\n      gt\n        /* \"#utility.yul\":1698:1815   */\n      iszero\n      tag_176\n      jumpi\n        /* \"#utility.yul\":1734:1813   */\n      tag_177\n      tag_178\n      jump\t// in\n    tag_177:\n        /* \"#utility.yul\":1698:1815   */\n    tag_176:\n        /* \"#utility.yul\":1839:1902   */\n      tag_179\n        /* \"#utility.yul\":1894:1901   */\n      dup6\n        /* \"#utility.yul\":1885:1891   */\n      dup3\n        /* \"#utility.yul\":1874:1883   */\n      dup7\n        /* \"#utility.yul\":1870:1892   */\n      add\n        /* \"#utility.yul\":1839:1902   */\n      tag_161\n      jump\t// in\n    tag_179:\n        /* \"#utility.yul\":1829:1902   */\n      swap2\n      pop\n        /* \"#utility.yul\":1624:1912   */\n      pop\n        /* \"#utility.yul\":1265:1919   */\n      swap3\n      pop\n      swap3\n      swap1\n      pop\n      jump\t// out\n        /* \"#utility.yul\":1925:2434   */\n    tag_10:\n        /* \"#utility.yul\":1994:2000   */\n      0x00\n        /* \"#utility.yul\":2043:2045   */\n      0x20\n        /* \"#utility.yul\":2031:2040   */\n      dup3\n        /* \"#utility.yul\":2022:2029   */\n      dup5\n        /* \"#utility.yul\":2018:2041   */\n      sub\n        /* \"#utility.yul\":2014:2046   */\n      slt\n        /* \"#utility.yul\":2011:2130   */\n      iszero\n      tag_181\n      jumpi\n        /* \"#utility.yul\":2049:2128   */\n      tag_182\n      tag_170\n      jump\t// in\n    tag_182:\n        /* \"#utility.yul\":2011:2130   */\n    tag_181:\n        /* \"#utility.yul\":2197:2198   */\n      0x00\n        /* \"#utility.yul\":2186:2195   */\n      dup3\n        /* \"#utility.yul\":2182:2199   */\n      add\n        /* \"#utility.yul\":2169:2200   */\n      calldataload\n        /* \"#utility.yul\":2227:2245   */\n      0xffffffffffffffff\n        /* \"#utility.yul\":2219:2225   */\n      dup2\n        /* \"#utility.yul\":2216:2246   */\n      gt\n        /* \"#utility.yul\":2213:2330   */\n      iszero\n      tag_183\n      jumpi\n        /* \"#utility.yul\":2249:2328   */\n      tag_184\n      tag_178\n      jump\t// in\n    tag_184:\n        /* \"#utility.yul\":2213:2330   */\n    tag_183:\n        /* \"#utility.yul\":2354:2417   */\n      tag_185\n        /* \"#utility.yul\":2409:2416   */\n      dup5\n        /* \"#utility.yul\":2400:2406   */\n      dup3\n        /* \"#utility.yul\":2389:2398   */\n      dup6\n        /* \"#utility.yul\":2385:2407   */\n      add\n        /* \"#utility.yul\":2354:2417   */\n      tag_161\n      jump\t// in\n    tag_185:\n        /* \"#utility.yul\":2344:2417   */\n      swap2\n      pop\n        /* \"#utility.yul\":2140:2427   */\n      pop\n        /* \"#utility.yul\":1925:2434   */\n      swap3\n      swap2\n      pop\n      pop\n      jump\t// out\n        /* \"#utility.yul\":2440:3274   */\n    tag_27:\n        /* \"#utility.yul\":2528:2534   */\n      0x00\n        /* \"#utility.yul\":2536:2542   */\n      dup1\n        /* \"#utility.yul\":2585:2587   */\n      0x40\n        /* \"#utility.yul\":2573:2582   */\n      dup4\n        /* \"#utility.yul\":2564:2571   */\n      dup6\n        /* \"#utility.yul\":2560:2583   */\n      sub\n        /* \"#utility.yul\":2556:2588   */\n      slt\n        /* \"#utility.yul\":2553:2672   */\n      iszero\n      tag_187\n      jumpi\n        /* \"#utility.yul\":2591:2670   */\n      tag_188\n      tag_170\n      jump\t// in\n    tag_188:\n        /* \"#utility.yul\":2553:2672   */\n    tag_187:\n        /* \"#utility.yul\":2739:2740   */\n      0x00\n        /* \"#utility.yul\":2728:2737   */\n      dup4\n        /* \"#utility.yul\":2724:2741   */\n      add\n        /* \"#utility.yul\":2711:2742   */\n      calldataload\n        /* \"#utility.yul\":2769:2787   */\n      0xffffffffffffffff\n        /* \"#utility.yul\":2761:2767   */\n      dup2\n        /* \"#utility.yul\":2758:2788   */\n      gt\n        /* \"#utility.yul\":2755:2872   */\n      iszero\n      tag_189\n      jumpi\n        /* \"#utility.yul\":2791:2870   */\n      tag_190\n      tag_178\n      jump\t// in\n    tag_190:\n        /* \"#utility.yul\":2755:2872   */\n    tag_189:\n        /* \"#utility.yul\":2896:2959   */\n      tag_191\n        /* \"#utility.yul\":2951:2958   */\n      dup6\n        /* \"#utility.yul\":2942:2948   */\n      dup3\n        /* \"#utility.yul\":2931:2940   */\n      dup7\n        /* \"#utility.yul\":2927:2949   */\n      add\n        /* \"#utility.yul\":2896:2959   */\n      tag_161\n      jump\t// in\n    tag_191:\n        /* \"#utility.yul\":2886:2959   */\n      swap3\n      pop\n        /* \"#utility.yul\":2682:2969   */\n      pop\n        /* \"#utility.yul\":3036:3038   */\n      0x20\n        /* \"#utility.yul\":3025:3034   */\n      dup4\n        /* \"#utility.yul\":3021:3039   */\n      add\n        /* \"#utility.yul\":3008:3040   */\n      calldataload\n        /* \"#utility.yul\":3067:3085   */\n      0xffffffffffffffff\n        /* \"#utility.yul\":3059:3065   */\n      dup2\n        /* \"#utility.yul\":3056:3086   */\n      gt\n        /* \"#utility.yul\":3053:3170   */\n      iszero\n      tag_192\n      jumpi\n        /* \"#utility.yul\":3089:3168   */\n      tag_193\n      tag_178\n      jump\t// in\n    tag_193:\n        /* \"#utility.yul\":3053:3170   */\n    tag_192:\n        /* \"#utility.yul\":3194:3257   */\n      tag_194\n        /* \"#utility.yul\":3249:3256   */\n      dup6\n        /* \"#utility.yul\":3240:3246   */\n      dup3\n        /* \"#utility.yul\":3229:3238   */\n      dup7\n        /* \"#utility.yul\":3225:3247   */\n      add\n        /* \"#utility.yul\":3194:3257   */\n      tag_161\n      jump\t// in\n    tag_194:\n        /* \"#utility.yul\":3184:3257   */\n      swap2\n      pop\n        /* \"#utility.yul\":2979:3267   */\n      pop\n        /* \"#utility.yul\":2440:3274   */\n      swap3\n      pop\n      swap3\n      swap1\n      pop\n      jump\t// out\n        /* \"#utility.yul\":3280:3389   */\n    tag_195:\n        /* \"#utility.yul\":3361:3382   */\n      tag_197\n        /* \"#utility.yul\":3376:3381   */\n      dup2\n        /* \"#utility.yul\":3361:3382   */\n      tag_198\n      jump\t// in\n    tag_197:\n        /* \"#utility.yul\":3356:3359   */\n      dup3\n        /* \"#utility.yul\":3349:3383   */\n      mstore\n        /* \"#utility.yul\":3280:3389   */\n      pop\n      pop\n      jump\t// out\n        /* \"#utility.yul\":3395:3513   */\n    tag_199:\n        /* \"#utility.yul\":3482:3506   */\n      tag_201\n        /* \"#utility.yul\":3500:3505   */\n      dup2\n        /* \"#utility.yul\":3482:3506   */\n      tag_202\n      jump\t// in\n    tag_201:\n        /* \"#utility.yul\":3477:3480   */\n      dup3\n        /* \"#utility.yul\":3470:3507   */\n      mstore\n        /* \"#utility.yul\":3395:3513   */\n      pop\n      pop\n      jump\t// out\n        /* \"#utility.yul\":3519:3637   */\n    tag_203:\n        /* \"#utility.yul\":3606:3630   */\n      tag_205\n        /* \"#utility.yul\":3624:3629   */\n      dup2\n        /* \"#utility.yul\":3606:3630   */\n      tag_206\n      jump\t// in\n    tag_205:\n        /* \"#utility.yul\":3601:3604   */\n      dup3\n        /* \"#utility.yul\":3594:3631   */\n      mstore\n        /* \"#utility.yul\":3519:3637   */\n      pop\n      pop\n      jump\t// out\n        /* \"#utility.yul\":3643:4020   */\n    tag_207:\n        /* \"#utility.yul\":3749:3752   */\n      0x00\n        /* \"#utility.yul\":3777:3816   */\n      tag_209\n        /* \"#utility.yul\":3810:3815   */\n      dup3\n        /* \"#utility.yul\":3777:3816   */\n      tag_210\n      jump\t// in\n    tag_209:\n        /* \"#utility.yul\":3832:3921   */\n      tag_211\n        /* \"#utility.yul\":3914:3920   */\n      dup2\n        /* \"#utility.yul\":3909:3912   */\n      dup6\n        /* \"#utility.yul\":3832:3921   */\n      tag_212\n      jump\t// in\n    tag_211:\n        /* \"#utility.yul\":3825:3921   */\n      swap4\n      pop\n        /* \"#utility.yul\":3930:3982   */\n      tag_213\n        /* \"#utility.yul\":3975:3981   */\n      dup2\n        /* \"#utility.yul\":3970:3973   */\n      dup6\n        /* \"#utility.yul\":3963:3967   */\n      0x20\n        /* \"#utility.yul\":3956:3961   */\n      dup7\n        /* \"#utility.yul\":3952:3968   */\n      add\n        /* \"#utility.yul\":3930:3982   */\n      tag_214\n      jump\t// in\n    tag_213:\n        /* \"#utility.yul\":4007:4013   */\n      dup1\n        /* \"#utility.yul\":4002:4005   */\n      dup5\n        /* \"#utility.yul\":3998:4014   */\n      add\n        /* \"#utility.yul\":3991:4014   */\n      swap2\n      pop\n        /* \"#utility.yul\":3753:4020   */\n      pop\n        /* \"#utility.yul\":3643:4020   */\n      swap3\n      swap2\n      pop\n      pop\n      jump\t// out\n        /* \"#utility.yul\":4026:4392   */\n    tag_215:\n        /* \"#utility.yul\":4168:4171   */\n      0x00\n        /* \"#utility.yul\":4189:4256   */\n      tag_217\n        /* \"#utility.yul\":4253:4255   */\n      0x1b\n        /* \"#utility.yul\":4248:4251   */\n      dup4\n        /* \"#utility.yul\":4189:4256   */\n      tag_218\n      jump\t// in\n    tag_217:\n        /* \"#utility.yul\":4182:4256   */\n      swap2\n      pop\n        /* \"#utility.yul\":4265:4358   */\n      tag_219\n        /* \"#utility.yul\":4354:4357   */\n      dup3\n        /* \"#utility.yul\":4265:4358   */\n      tag_220\n      jump\t// in\n    tag_219:\n        /* \"#utility.yul\":4383:4385   */\n      0x20\n        /* \"#utility.yul\":4378:4381   */\n      dup3\n        /* \"#utility.yul\":4374:4386   */\n      add\n        /* \"#utility.yul\":4367:4386   */\n      swap1\n      pop\n        /* \"#utility.yul\":4026:4392   */\n      swap2\n      swap1\n      pop\n      jump\t// out\n        /* \"#utility.yul\":4398:4764   */\n    tag_221:\n        /* \"#utility.yul\":4540:4543   */\n      0x00\n        /* \"#utility.yul\":4561:4628   */\n      tag_223\n        /* \"#utility.yul\":4625:4627   */\n      0x20\n        /* \"#utility.yul\":4620:4623   */\n      dup4\n        /* \"#utility.yul\":4561:4628   */\n      tag_218\n      jump\t// in\n    tag_223:\n        /* \"#utility.yul\":4554:4628   */\n      swap2\n      pop\n        /* \"#utility.yul\":4637:4730   */\n      tag_224\n        /* \"#utility.yul\":4726:4729   */\n      dup3\n        /* \"#utility.yul\":4637:4730   */\n      tag_225\n      jump\t// in\n    tag_224:\n        /* \"#utility.yul\":4755:4757   */\n      0x20\n        /* \"#utility.yul\":4750:4753   */\n      dup3\n        /* \"#utility.yul\":4746:4758   */\n      add\n        /* \"#utility.yul\":4739:4758   */\n      swap1\n      pop\n        /* \"#utility.yul\":4398:4764   */\n      swap2\n      swap1\n      pop\n      jump\t// out\n        /* \"#utility.yul\":4770:5136   */\n    tag_226:\n        /* \"#utility.yul\":4912:4915   */\n      0x00\n        /* \"#utility.yul\":4933:5000   */\n      tag_228\n        /* \"#utility.yul\":4997:4999   */\n      0x1c\n        /* \"#utility.yul\":4992:4995   */\n      dup4\n        /* \"#utility.yul\":4933:5000   */\n      tag_218\n      jump\t// in\n    tag_228:\n        /* \"#utility.yul\":4926:5000   */\n      swap2\n      pop\n        /* \"#utility.yul\":5009:5102   */\n      tag_229\n        /* \"#utility.yul\":5098:5101   */\n      dup3\n        /* \"#utility.yul\":5009:5102   */\n      tag_230\n      jump\t// in\n    tag_229:\n        /* \"#utility.yul\":5127:5129   */\n      0x20\n        /* \"#utility.yul\":5122:5125   */\n      dup3\n        /* \"#utility.yul\":5118:5130   */\n      add\n        /* \"#utility.yul\":5111:5130   */\n      swap1\n      pop\n        /* \"#utility.yul\":4770:5136   */\n      swap2\n      swap1\n      pop\n      jump\t// out\n        /* \"#utility.yul\":5142:5508   */\n    tag_231:\n        /* \"#utility.yul\":5284:5287   */\n      0x00\n        /* \"#utility.yul\":5305:5372   */\n      tag_233\n        /* \"#utility.yul\":5369:5371   */\n      0x25\n        /* \"#utility.yul\":5364:5367   */\n      dup4\n        /* \"#utility.yul\":5305:5372   */\n      tag_218\n      jump\t// in\n    tag_233:\n        /* \"#utility.yul\":5298:5372   */\n      swap2\n      pop\n        /* \"#utility.yul\":5381:5474   */\n      tag_234\n        /* \"#utility.yul\":5470:5473   */\n      dup3\n        /* \"#utility.yul\":5381:5474   */\n      tag_235\n      jump\t// in\n    tag_234:\n        /* \"#utility.yul\":5499:5501   */\n      0x40\n        /* \"#utility.yul\":5494:5497   */\n      dup3\n        /* \"#utility.yul\":5490:5502   */\n      add\n        /* \"#utility.yul\":5483:5502   */\n      swap1\n      pop\n        /* \"#utility.yul\":5142:5508   */\n      swap2\n      swap1\n      pop\n      jump\t// out\n        /* \"#utility.yul\":5514:5789   */\n    tag_50:\n        /* \"#utility.yul\":5646:5649   */\n      0x00\n        /* \"#utility.yul\":5668:5763   */\n      tag_237\n        /* \"#utility.yul\":5759:5762   */\n      dup3\n        /* \"#utility.yul\":5750:5756   */\n      dup5\n        /* \"#utility.yul\":5668:5763   */\n      tag_207\n      jump\t// in\n    tag_237:\n        /* \"#utility.yul\":5661:5763   */\n      swap2\n      pop\n        /* \"#utility.yul\":5780:5783   */\n      dup2\n        /* \"#utility.yul\":5773:5783   */\n      swap1\n      pop\n        /* \"#utility.yul\":5514:5789   */\n      swap3\n      swap2\n      pop\n      pop\n      jump\t// out\n        /* \"#utility.yul\":5795:6390   */\n    tag_58:\n        /* \"#utility.yul\":6023:6026   */\n      0x00\n        /* \"#utility.yul\":6045:6140   */\n      tag_239\n        /* \"#utility.yul\":6136:6139   */\n      dup3\n        /* \"#utility.yul\":6127:6133   */\n      dup7\n        /* \"#utility.yul\":6045:6140   */\n      tag_207\n      jump\t// in\n    tag_239:\n        /* \"#utility.yul\":6038:6140   */\n      swap2\n      pop\n        /* \"#utility.yul\":6157:6252   */\n      tag_240\n        /* \"#utility.yul\":6248:6251   */\n      dup3\n        /* \"#utility.yul\":6239:6245   */\n      dup6\n        /* \"#utility.yul\":6157:6252   */\n      tag_207\n      jump\t// in\n    tag_240:\n        /* \"#utility.yul\":6150:6252   */\n      swap2\n      pop\n        /* \"#utility.yul\":6269:6364   */\n      tag_241\n        /* \"#utility.yul\":6360:6363   */\n      dup3\n        /* \"#utility.yul\":6351:6357   */\n      dup5\n        /* \"#utility.yul\":6269:6364   */\n      tag_207\n      jump\t// in\n    tag_241:\n        /* \"#utility.yul\":6262:6364   */\n      swap2\n      pop\n        /* \"#utility.yul\":6381:6384   */\n      dup2\n        /* \"#utility.yul\":6374:6384   */\n      swap1\n      pop\n        /* \"#utility.yul\":5795:6390   */\n      swap5\n      swap4\n      pop\n      pop\n      pop\n      pop\n      jump\t// out\n        /* \"#utility.yul\":6396:6606   */\n    tag_19:\n        /* \"#utility.yul\":6483:6487   */\n      0x00\n        /* \"#utility.yul\":6521:6523   */\n      0x20\n        /* \"#utility.yul\":6510:6519   */\n      dup3\n        /* \"#utility.yul\":6506:6524   */\n      add\n        /* \"#utility.yul\":6498:6524   */\n      swap1\n      pop\n        /* \"#utility.yul\":6534:6599   */\n      tag_243\n        /* \"#utility.yul\":6596:6597   */\n      0x00\n        /* \"#utility.yul\":6585:6594   */\n      dup4\n        /* \"#utility.yul\":6581:6598   */\n      add\n        /* \"#utility.yul\":6572:6578   */\n      dup5\n        /* \"#utility.yul\":6534:6599   */\n      tag_195\n      jump\t// in\n    tag_243:\n        /* \"#utility.yul\":6396:6606   */\n      swap3\n      swap2\n      pop\n      pop\n      jump\t// out\n        /* \"#utility.yul\":6612:6834   */\n    tag_13:\n        /* \"#utility.yul\":6705:6709   */\n      0x00\n        /* \"#utility.yul\":6743:6745   */\n      0x20\n        /* \"#utility.yul\":6732:6741   */\n      dup3\n        /* \"#utility.yul\":6728:6746   */\n      add\n        /* \"#utility.yul\":6720:6746   */\n      swap1\n      pop\n        /* \"#utility.yul\":6756:6827   */\n      tag_245\n        /* \"#utility.yul\":6824:6825   */\n      0x00\n        /* \"#utility.yul\":6813:6822   */\n      dup4\n        /* \"#utility.yul\":6809:6826   */\n      add\n        /* \"#utility.yul\":6800:6806   */\n      dup5\n        /* \"#utility.yul\":6756:6827   */\n      tag_199\n      jump\t// in\n    tag_245:\n        /* \"#utility.yul\":6612:6834   */\n      swap3\n      swap2\n      pop\n      pop\n      jump\t// out\n        /* \"#utility.yul\":6840:7062   */\n    tag_24:\n        /* \"#utility.yul\":6933:6937   */\n      0x00\n        /* \"#utility.yul\":6971:6973   */\n      0x20\n        /* \"#utility.yul\":6960:6969   */\n      dup3\n        /* \"#utility.yul\":6956:6974   */\n      add\n        /* \"#utility.yul\":6948:6974   */\n      swap1\n      pop\n        /* \"#utility.yul\":6984:7055   */\n      tag_247\n        /* \"#utility.yul\":7052:7053   */\n      0x00\n        /* \"#utility.yul\":7041:7050   */\n      dup4\n        /* \"#utility.yul\":7037:7054   */\n      add\n        /* \"#utility.yul\":7028:7034   */\n      dup5\n        /* \"#utility.yul\":6984:7055   */\n      tag_203\n      jump\t// in\n    tag_247:\n        /* \"#utility.yul\":6840:7062   */\n      swap3\n      swap2\n      pop\n      pop\n      jump\t// out\n        /* \"#utility.yul\":7068:7487   */\n    tag_67:\n        /* \"#utility.yul\":7234:7238   */\n      0x00\n        /* \"#utility.yul\":7272:7274   */\n      0x20\n        /* \"#utility.yul\":7261:7270   */\n      dup3\n        /* \"#utility.yul\":7257:7275   */\n      add\n        /* \"#utility.yul\":7249:7275   */\n      swap1\n      pop\n        /* \"#utility.yul\":7321:7330   */\n      dup2\n        /* \"#utility.yul\":7315:7319   */\n      dup2\n        /* \"#utility.yul\":7311:7331   */\n      sub\n        /* \"#utility.yul\":7307:7308   */\n      0x00\n        /* \"#utility.yul\":7296:7305   */\n      dup4\n        /* \"#utility.yul\":7292:7309   */\n      add\n        /* \"#utility.yul\":7285:7332   */\n      mstore\n        /* \"#utility.yul\":7349:7480   */\n      tag_249\n        /* \"#utility.yul\":7475:7479   */\n      dup2\n        /* \"#utility.yul\":7349:7480   */\n      tag_215\n      jump\t// in\n    tag_249:\n        /* \"#utility.yul\":7341:7480   */\n      swap1\n      pop\n        /* \"#utility.yul\":7068:7487   */\n      swap2\n      swap1\n      pop\n      jump\t// out\n        /* \"#utility.yul\":7493:7912   */\n    tag_41:\n        /* \"#utility.yul\":7659:7663   */\n      0x00\n        /* \"#utility.yul\":7697:7699   */\n      0x20\n        /* \"#utility.yul\":7686:7695   */\n      dup3\n        /* \"#utility.yul\":7682:7700   */\n      add\n        /* \"#utility.yul\":7674:7700   */\n      swap1\n      pop\n        /* \"#utility.yul\":7746:7755   */\n      dup2\n        /* \"#utility.yul\":7740:7744   */\n      dup2\n        /* \"#utility.yul\":7736:7756   */\n      sub\n        /* \"#utility.yul\":7732:7733   */\n      0x00\n        /* \"#utility.yul\":7721:7730   */\n      dup4\n        /* \"#utility.yul\":7717:7734   */\n      add\n        /* \"#utility.yul\":7710:7757   */\n      mstore\n        /* \"#utility.yul\":7774:7905   */\n      tag_251\n        /* \"#utility.yul\":7900:7904   */\n      dup2\n        /* \"#utility.yul\":7774:7905   */\n      tag_221\n      jump\t// in\n    tag_251:\n        /* \"#utility.yul\":7766:7905   */\n      swap1\n      pop\n        /* \"#utility.yul\":7493:7912   */\n      swap2\n      swap1\n      pop\n      jump\t// out\n        /* \"#utility.yul\":7918:8337   */\n    tag_63:\n        /* \"#utility.yul\":8084:8088   */\n      0x00\n        /* \"#utility.yul\":8122:8124   */\n      0x20\n        /* \"#utility.yul\":8111:8120   */\n      dup3\n        /* \"#utility.yul\":8107:8125   */\n      add\n        /* \"#utility.yul\":8099:8125   */\n      swap1\n      pop\n        /* \"#utility.yul\":8171:8180   */\n      dup2\n        /* \"#utility.yul\":8165:8169   */\n      dup2\n        /* \"#utility.yul\":8161:8181   */\n      sub\n        /* \"#utility.yul\":8157:8158   */\n      0x00\n        /* \"#utility.yul\":8146:8155   */\n      dup4\n        /* \"#utility.yul\":8142:8159   */\n      add\n        /* \"#utility.yul\":8135:8182   */\n      mstore\n        /* \"#utility.yul\":8199:8330   */\n      tag_253\n        /* \"#utility.yul\":8325:8329   */\n      dup2\n        /* \"#utility.yul\":8199:8330   */\n      tag_226\n      jump\t// in\n    tag_253:\n        /* \"#utility.yul\":8191:8330   */\n      swap1\n      pop\n        /* \"#utility.yul\":7918:8337   */\n      swap2\n      swap1\n      pop\n      jump\t// out\n        /* \"#utility.yul\":8343:8762   */\n    tag_48:\n        /* \"#utility.yul\":8509:8513   */\n      0x00\n        /* \"#utility.yul\":8547:8549   */\n      0x20\n        /* \"#utility.yul\":8536:8545   */\n      dup3\n        /* \"#utility.yul\":8532:8550   */\n      add\n        /* \"#utility.yul\":8524:8550   */\n      swap1\n      pop\n        /* \"#utility.yul\":8596:8605   */\n      dup2\n        /* \"#utility.yul\":8590:8594   */\n      dup2\n        /* \"#utility.yul\":8586:8606   */\n      sub\n        /* \"#utility.yul\":8582:8583   */\n      0x00\n        /* \"#utility.yul\":8571:8580   */\n      dup4\n        /* \"#utility.yul\":8567:8584   */\n      add\n        /* \"#utility.yul\":8560:8607   */\n      mstore\n        /* \"#utility.yul\":8624:8755   */\n      tag_255\n        /* \"#utility.yul\":8750:8754   */\n      dup2\n        /* \"#utility.yul\":8624:8755   */\n      tag_231\n      jump\t// in\n    tag_255:\n        /* \"#utility.yul\":8616:8755   */\n      swap1\n      pop\n        /* \"#utility.yul\":8343:8762   */\n      swap2\n      swap1\n      pop\n      jump\t// out\n        /* \"#utility.yul\":8768:8897   */\n    tag_151:\n        /* \"#utility.yul\":8802:8808   */\n      0x00\n        /* \"#utility.yul\":8829:8849   */\n      tag_257\n      tag_258\n      jump\t// in\n    tag_257:\n        /* \"#utility.yul\":8819:8849   */\n      swap1\n      pop\n        /* \"#utility.yul\":8858:8891   */\n      tag_259\n        /* \"#utility.yul\":8886:8890   */\n      dup3\n        /* \"#utility.yul\":8878:8884   */\n      dup3\n        /* \"#utility.yul\":8858:8891   */\n      tag_260\n      jump\t// in\n    tag_259:\n        /* \"#utility.yul\":8768:8897   */\n      swap2\n      swap1\n      pop\n      jump\t// out\n        /* \"#utility.yul\":8903:8978   */\n    tag_258:\n        /* \"#utility.yul\":8936:8942   */\n      0x00\n        /* \"#utility.yul\":8969:8971   */\n      0x40\n        /* \"#utility.yul\":8963:8972   */\n      mload\n        /* \"#utility.yul\":8953:8972   */\n      swap1\n      pop\n        /* \"#utility.yul\":8903:8978   */\n      swap1\n      jump\t// out\n        /* \"#utility.yul\":8984:9292   */\n    tag_150:\n        /* \"#utility.yul\":9046:9050   */\n      0x00\n        /* \"#utility.yul\":9136:9154   */\n      0xffffffffffffffff\n        /* \"#utility.yul\":9128:9134   */\n      dup3\n        /* \"#utility.yul\":9125:9155   */\n      gt\n        /* \"#utility.yul\":9122:9178   */\n      iszero\n      tag_263\n      jumpi\n        /* \"#utility.yul\":9158:9176   */\n      tag_264\n      tag_75\n      jump\t// in\n    tag_264:\n        /* \"#utility.yul\":9122:9178   */\n    tag_263:\n        /* \"#utility.yul\":9196:9225   */\n      tag_265\n        /* \"#utility.yul\":9218:9224   */\n      dup3\n        /* \"#utility.yul\":9196:9225   */\n      tag_266\n      jump\t// in\n    tag_265:\n        /* \"#utility.yul\":9188:9225   */\n      swap1\n      pop\n        /* \"#utility.yul\":9280:9284   */\n      0x20\n        /* \"#utility.yul\":9274:9278   */\n      dup2\n        /* \"#utility.yul\":9270:9285   */\n      add\n        /* \"#utility.yul\":9262:9285   */\n      swap1\n      pop\n        /* \"#utility.yul\":8984:9292   */\n      swap2\n      swap1\n      pop\n      jump\t// out\n        /* \"#utility.yul\":9298:9397   */\n    tag_210:\n        /* \"#utility.yul\":9350:9356   */\n      0x00\n        /* \"#utility.yul\":9384:9389   */\n      dup2\n        /* \"#utility.yul\":9378:9390   */\n      mload\n        /* \"#utility.yul\":9368:9390   */\n      swap1\n      pop\n        /* \"#utility.yul\":9298:9397   */\n      swap2\n      swap1\n      pop\n      jump\t// out\n        /* \"#utility.yul\":9403:9572   */\n    tag_218:\n        /* \"#utility.yul\":9487:9498   */\n      0x00\n        /* \"#utility.yul\":9521:9527   */\n      dup3\n        /* \"#utility.yul\":9516:9519   */\n      dup3\n        /* \"#utility.yul\":9509:9528   */\n      mstore\n        /* \"#utility.yul\":9561:9565   */\n      0x20\n        /* \"#utility.yul\":9556:9559   */\n      dup3\n        /* \"#utility.yul\":9552:9566   */\n      add\n        /* \"#utility.yul\":9537:9566   */\n      swap1\n      pop\n        /* \"#utility.yul\":9403:9572   */\n      swap3\n      swap2\n      pop\n      pop\n      jump\t// out\n        /* \"#utility.yul\":9578:9726   */\n    tag_212:\n        /* \"#utility.yul\":9680:9691   */\n      0x00\n        /* \"#utility.yul\":9717:9720   */\n      dup2\n        /* \"#utility.yul\":9702:9720   */\n      swap1\n      pop\n        /* \"#utility.yul\":9578:9726   */\n      swap3\n      swap2\n      pop\n      pop\n      jump\t// out\n        /* \"#utility.yul\":9732:10037   */\n    tag_103:\n        /* \"#utility.yul\":9772:9775   */\n      0x00\n        /* \"#utility.yul\":9791:9811   */\n      tag_271\n        /* \"#utility.yul\":9809:9810   */\n      dup3\n        /* \"#utility.yul\":9791:9811   */\n      tag_272\n      jump\t// in\n    tag_271:\n        /* \"#utility.yul\":9786:9811   */\n      swap2\n      pop\n        /* \"#utility.yul\":9825:9845   */\n      tag_273\n        /* \"#utility.yul\":9843:9844   */\n      dup4\n        /* \"#utility.yul\":9825:9845   */\n      tag_272\n      jump\t// in\n    tag_273:\n        /* \"#utility.yul\":9820:9845   */\n      swap3\n      pop\n        /* \"#utility.yul\":9979:9980   */\n      dup3\n        /* \"#utility.yul\":9911:9977   */\n      0xffffffffffffffffffffffffffffffffffffffffffffffffffffffffffffffff\n        /* \"#utility.yul\":9907:9981   */\n      sub\n        /* \"#utility.yul\":9904:9905   */\n      dup3\n        /* \"#utility.yul\":9901:9982   */\n      gt\n        /* \"#utility.yul\":9898:10005   */\n      iszero\n      tag_274\n      jumpi\n        /* \"#utility.yul\":9985:10003   */\n      tag_275\n      tag_276\n      jump\t// in\n    tag_275:\n        /* \"#utility.yul\":9898:10005   */\n    tag_274:\n        /* \"#utility.yul\":10029:10030   */\n      dup3\n        /* \"#utility.yul\":10026:10027   */\n      dup3\n        /* \"#utility.yul\":10022:10031   */\n      add\n        /* \"#utility.yul\":10015:10031   */\n      swap1\n      pop\n        /* \"#utility.yul\":9732:10037   */\n      swap3\n      swap2\n      pop\n      pop\n      jump\t// out\n        /* \"#utility.yul\":10043:10280   */\n    tag_131:\n        /* \"#utility.yul\":10081:10084   */\n      0x00\n        /* \"#utility.yul\":10100:10118   */\n      tag_278\n        /* \"#utility.yul\":10116:10117   */\n      dup3\n        /* \"#utility.yul\":10100:10118   */\n      tag_279\n      jump\t// in\n    tag_278:\n        /* \"#utility.yul\":10095:10118   */\n      swap2\n      pop\n        /* \"#utility.yul\":10132:10150   */\n      tag_280\n        /* \"#utility.yul\":10148:10149   */\n      dup4\n        /* \"#utility.yul\":10132:10150   */\n      tag_279\n      jump\t// in\n    tag_280:\n        /* \"#utility.yul\":10127:10150   */\n      swap3\n      pop\n        /* \"#utility.yul\":10222:10223   */\n      dup3\n        /* \"#utility.yul\":10216:10220   */\n      0xff\n        /* \"#utility.yul\":10212:10224   */\n      sub\n        /* \"#utility.yul\":10209:10210   */\n      dup3\n        /* \"#utility.yul\":10206:10225   */\n      gt\n        /* \"#utility.yul\":10203:10248   */\n      iszero\n      tag_281\n      jumpi\n        /* \"#utility.yul\":10228:10246   */\n      tag_282\n      tag_276\n      jump\t// in\n    tag_282:\n        /* \"#utility.yul\":10203:10248   */\n    tag_281:\n        /* \"#utility.yul\":10272:10273   */\n      dup3\n        /* \"#utility.yul\":10269:10270   */\n      dup3\n        /* \"#utility.yul\":10265:10274   */\n      add\n        /* \"#utility.yul\":10258:10274   */\n      swap1\n      pop\n        /* \"#utility.yul\":10043:10280   */\n      swap3\n      swap2\n      pop\n      pop\n      jump\t// out\n        /* \"#utility.yul\":10286:10471   */\n    tag_87:\n        /* \"#utility.yul\":10326:10327   */\n      0x00\n        /* \"#utility.yul\":10343:10363   */\n      tag_284\n        /* \"#utility.yul\":10361:10362   */\n      dup3\n        /* \"#utility.yul\":10343:10363   */\n      tag_272\n      jump\t// in\n    tag_284:\n        /* \"#utility.yul\":10338:10363   */\n      swap2\n      pop\n        /* \"#utility.yul\":10377:10397   */\n      tag_285\n        /* \"#utility.yul\":10395:10396   */\n      dup4\n        /* \"#utility.yul\":10377:10397   */\n      tag_272\n      jump\t// in\n    tag_285:\n        /* \"#utility.yul\":10372:10397   */\n      swap3\n      pop\n        /* \"#utility.yul\":10416:10417   */\n      dup3\n        /* \"#utility.yul\":10406:10441   */\n      tag_286\n      jumpi\n        /* \"#utility.yul\":10421:10439   */\n      tag_287\n      tag_288\n      jump\t// in\n    tag_287:\n        /* \"#utility.yul\":10406:10441   */\n    tag_286:\n        /* \"#utility.yul\":10463:10464   */\n      dup3\n        /* \"#utility.yul\":10460:10461   */\n      dup3\n        /* \"#utility.yul\":10456:10465   */\n      div\n        /* \"#utility.yul\":10451:10465   */\n      swap1\n      pop\n        /* \"#utility.yul\":10286:10471   */\n      swap3\n      swap2\n      pop\n      pop\n      jump\t// out\n        /* \"#utility.yul\":10477:10656   */\n    tag_89:\n        /* \"#utility.yul\":10515:10516   */\n      0x00\n        /* \"#utility.yul\":10532:10550   */\n      tag_290\n        /* \"#utility.yul\":10548:10549   */\n      dup3\n        /* \"#utility.yul\":10532:10550   */\n      tag_279\n      jump\t// in\n    tag_290:\n        /* \"#utility.yul\":10527:10550   */\n      swap2\n      pop\n        /* \"#utility.yul\":10564:10582   */\n      tag_291\n        /* \"#utility.yul\":10580:10581   */\n      dup4\n        /* \"#utility.yul\":10564:10582   */\n      tag_279\n      jump\t// in\n    tag_291:\n        /* \"#utility.yul\":10559:10582   */\n      swap3\n      pop\n        /* \"#utility.yul\":10601:10602   */\n      dup3\n        /* \"#utility.yul\":10591:10626   */\n      tag_292\n      jumpi\n        /* \"#utility.yul\":10606:10624   */\n      tag_293\n      tag_288\n      jump\t// in\n    tag_293:\n        /* \"#utility.yul\":10591:10626   */\n    tag_292:\n        /* \"#utility.yul\":10648:10649   */\n      dup3\n        /* \"#utility.yul\":10645:10646   */\n      dup3\n        /* \"#utility.yul\":10641:10650   */\n      div\n        /* \"#utility.yul\":10636:10650   */\n      swap1\n      pop\n        /* \"#utility.yul\":10477:10656   */\n      swap3\n      swap2\n      pop\n      pop\n      jump\t// out\n        /* \"#utility.yul\":10662:11510   */\n    tag_294:\n        /* \"#utility.yul\":10723:10728   */\n      0x00\n        /* \"#utility.yul\":10730:10734   */\n      dup1\n        /* \"#utility.yul\":10754:10760   */\n      dup3\n        /* \"#utility.yul\":10745:10760   */\n      swap2\n      pop\n        /* \"#utility.yul\":10778:10783   */\n      dup4\n        /* \"#utility.yul\":10769:10783   */\n      swap1\n      pop\n        /* \"#utility.yul\":10792:11504   */\n    tag_296:\n        /* \"#utility.yul\":10813:10814   */\n      0x01\n        /* \"#utility.yul\":10803:10811   */\n      dup6\n        /* \"#utility.yul\":10800:10815   */\n      gt\n        /* \"#utility.yul\":10792:11504   */\n      iszero\n      tag_298\n      jumpi\n        /* \"#utility.yul\":10908:10912   */\n      dup1\n        /* \"#utility.yul\":10903:10906   */\n      dup7\n        /* \"#utility.yul\":10899:10913   */\n      div\n        /* \"#utility.yul\":10893:10897   */\n      dup2\n        /* \"#utility.yul\":10890:10914   */\n      gt\n        /* \"#utility.yul\":10887:10937   */\n      iszero\n      tag_299\n      jumpi\n        /* \"#utility.yul\":10917:10935   */\n      tag_300\n      tag_276\n      jump\t// in\n    tag_300:\n        /* \"#utility.yul\":10887:10937   */\n    tag_299:\n        /* \"#utility.yul\":10967:10968   */\n      0x01\n        /* \"#utility.yul\":10957:10965   */\n      dup6\n        /* \"#utility.yul\":10953:10969   */\n      and\n        /* \"#utility.yul\":10950:11401   */\n      iszero\n      tag_301\n      jumpi\n        /* \"#utility.yul\":11382:11386   */\n      dup1\n        /* \"#utility.yul\":11375:11380   */\n      dup3\n        /* \"#utility.yul\":11371:11387   */\n      mul\n        /* \"#utility.yul\":11362:11387   */\n      swap2\n      pop\n        /* \"#utility.yul\":10950:11401   */\n    tag_301:\n        /* \"#utility.yul\":11432:11436   */\n      dup1\n        /* \"#utility.yul\":11426:11430   */\n      dup2\n        /* \"#utility.yul\":11422:11437   */\n      mul\n        /* \"#utility.yul\":11414:11437   */\n      swap1\n      pop\n        /* \"#utility.yul\":11462:11494   */\n      tag_302\n        /* \"#utility.yul\":11485:11493   */\n      dup6\n        /* \"#utility.yul\":11462:11494   */\n      tag_303\n      jump\t// in\n    tag_302:\n        /* \"#utility.yul\":11450:11494   */\n      swap5\n      pop\n        /* \"#utility.yul\":10792:11504   */\n      jump(tag_296)\n    tag_298:\n        /* \"#utility.yul\":10662:11510   */\n      swap5\n      pop\n      swap5\n      swap3\n      pop\n      pop\n      pop\n      jump\t// out\n        /* \"#utility.yul\":11516:11801   */\n    tag_85:\n        /* \"#utility.yul\":11576:11581   */\n      0x00\n        /* \"#utility.yul\":11600:11623   */\n      tag_305\n        /* \"#utility.yul\":11618:11622   */\n      dup3\n        /* \"#utility.yul\":11600:11623   */\n      tag_272\n      jump\t// in\n    tag_305:\n        /* \"#utility.yul\":11592:11623   */\n      swap2\n      pop\n        /* \"#utility.yul\":11644:11671   */\n      tag_306\n        /* \"#utility.yul\":11662:11670   */\n      dup4\n        /* \"#utility.yul\":11644:11671   */\n      tag_272\n      jump\t// in\n    tag_306:\n        /* \"#utility.yul\":11632:11671   */\n      swap3\n      pop\n        /* \"#utility.yul\":11690:11794   */\n      tag_307\n        /* \"#utility.yul\":11727:11793   */\n      0xffffffffffffffffffffffffffffffffffffffffffffffffffffffffffffffff\n        /* \"#utility.yul\":11717:11725   */\n      dup5\n        /* \"#utility.yul\":11711:11715   */\n      dup5\n        /* \"#utility.yul\":11690:11794   */\n      tag_308\n      jump\t// in\n    tag_307:\n        /* \"#utility.yul\":11681:11794   */\n      swap1\n      pop\n        /* \"#utility.yul\":11516:11801   */\n      swap3\n      swap2\n      pop\n      pop\n      jump\t// out\n        /* \"#utility.yul\":11807:12880   */\n    tag_308:\n        /* \"#utility.yul\":11861:11866   */\n      0x00\n        /* \"#utility.yul\":12052:12060   */\n      dup3\n        /* \"#utility.yul\":12042:12082   */\n      tag_310\n      jumpi\n        /* \"#utility.yul\":12073:12074   */\n      0x01\n        /* \"#utility.yul\":12064:12074   */\n      swap1\n      pop\n        /* \"#utility.yul\":12075:12080   */\n      jump(tag_309)\n        /* \"#utility.yul\":12042:12082   */\n    tag_310:\n        /* \"#utility.yul\":12101:12105   */\n      dup2\n        /* \"#utility.yul\":12091:12127   */\n      tag_311\n      jumpi\n        /* \"#utility.yul\":12118:12119   */\n      0x00\n        /* \"#utility.yul\":12109:12119   */\n      swap1\n      pop\n        /* \"#utility.yul\":12120:12125   */\n      jump(tag_309)\n        /* \"#utility.yul\":12091:12127   */\n    tag_311:\n        /* \"#utility.yul\":12187:12191   */\n      dup2\n        /* \"#utility.yul\":12235:12236   */\n      0x01\n        /* \"#utility.yul\":12230:12257   */\n      dup2\n      eq\n      tag_313\n      jumpi\n        /* \"#utility.yul\":12271:12272   */\n      0x02\n        /* \"#utility.yul\":12266:12457   */\n      dup2\n      eq\n      tag_314\n      jumpi\n        /* \"#utility.yul\":12180:12457   */\n      jump(tag_312)\n        /* \"#utility.yul\":12230:12257   */\n    tag_313:\n        /* \"#utility.yul\":12248:12249   */\n      0x01\n        /* \"#utility.yul\":12239:12249   */\n      swap2\n      pop\n        /* \"#utility.yul\":12250:12255   */\n      pop\n      jump(tag_309)\n        /* \"#utility.yul\":12266:12457   */\n    tag_314:\n        /* \"#utility.yul\":12311:12314   */\n      0xff\n        /* \"#utility.yul\":12301:12309   */\n      dup5\n        /* \"#utility.yul\":12298:12315   */\n      gt\n        /* \"#utility.yul\":12295:12338   */\n      iszero\n      tag_315\n      jumpi\n        /* \"#utility.yul\":12318:12336   */\n      tag_316\n      tag_276\n      jump\t// in\n    tag_316:\n        /* \"#utility.yul\":12295:12338   */\n    tag_315:\n        /* \"#utility.yul\":12367:12375   */\n      dup4\n        /* \"#utility.yul\":12364:12365   */\n      0x02\n        /* \"#utility.yul\":12360:12376   */\n      exp\n        /* \"#utility.yul\":12351:12376   */\n      swap2\n      pop\n        /* \"#utility.yul\":12402:12405   */\n      dup5\n        /* \"#utility.yul\":12395:12400   */\n      dup3\n        /* \"#utility.yul\":12392:12406   */\n      gt\n        /* \"#utility.yul\":12389:12429   */\n      iszero\n      tag_317\n      jumpi\n        /* \"#utility.yul\":12409:12427   */\n      tag_318\n      tag_276\n      jump\t// in\n    tag_318:\n        /* \"#utility.yul\":12389:12429   */\n    tag_317:\n        /* \"#utility.yul\":12442:12447   */\n      pop\n      jump(tag_309)\n        /* \"#utility.yul\":12180:12457   */\n    tag_312:\n      pop\n        /* \"#utility.yul\":12566:12568   */\n      0x20\n        /* \"#utility.yul\":12556:12564   */\n      dup4\n        /* \"#utility.yul\":12553:12569   */\n      lt\n        /* \"#utility.yul\":12547:12550   */\n      0x0133\n        /* \"#utility.yul\":12541:12545   */\n      dup4\n        /* \"#utility.yul\":12538:12551   */\n      lt\n        /* \"#utility.yul\":12534:12570   */\n      and\n        /* \"#utility.yul\":12516:12518   */\n      0x4e\n        /* \"#utility.yul\":12506:12514   */\n      dup5\n        /* \"#utility.yul\":12503:12519   */\n      lt\n        /* \"#utility.yul\":12498:12500   */\n      0x0b\n        /* \"#utility.yul\":12492:12496   */\n      dup5\n        /* \"#utility.yul\":12489:12501   */\n      lt\n        /* \"#utility.yul\":12485:12520   */\n      and\n        /* \"#utility.yul\":12469:12580   */\n      or\n        /* \"#utility.yul\":12466:12712   */\n      iszero\n      tag_319\n      jumpi\n        /* \"#utility.yul\":12622:12630   */\n      dup3\n        /* \"#utility.yul\":12616:12620   */\n      dup3\n        /* \"#utility.yul\":12612:12631   */\n      exp\n        /* \"#utility.yul\":12603:12631   */\n      swap1\n      pop\n        /* \"#utility.yul\":12657:12660   */\n      dup4\n        /* \"#utility.yul\":12650:12655   */\n      dup2\n        /* \"#utility.yul\":12647:12661   */\n      gt\n        /* \"#utility.yul\":12644:12684   */\n      iszero\n      tag_320\n      jumpi\n        /* \"#utility.yul\":12664:12682   */\n      tag_321\n      tag_276\n      jump\t// in\n    tag_321:\n        /* \"#utility.yul\":12644:12684   */\n    tag_320:\n        /* \"#utility.yul\":12697:12702   */\n      jump(tag_309)\n        /* \"#utility.yul\":12466:12712   */\n    tag_319:\n        /* \"#utility.yul\":12737:12779   */\n      tag_322\n        /* \"#utility.yul\":12775:12778   */\n      dup5\n        /* \"#utility.yul\":12765:12773   */\n      dup5\n        /* \"#utility.yul\":12759:12763   */\n      dup5\n        /* \"#utility.yul\":12756:12757   */\n      0x01\n        /* \"#utility.yul\":12737:12779   */\n      tag_294\n      jump\t// in\n    tag_322:\n        /* \"#utility.yul\":12722:12779   */\n      swap3\n      pop\n      swap1\n      pop\n        /* \"#utility.yul\":12811:12815   */\n      dup2\n        /* \"#utility.yul\":12806:12809   */\n      dup5\n        /* \"#utility.yul\":12802:12816   */\n      div\n        /* \"#utility.yul\":12795:12800   */\n      dup2\n        /* \"#utility.yul\":12792:12817   */\n      gt\n        /* \"#utility.yul\":12789:12840   */\n      iszero\n      tag_323\n      jumpi\n        /* \"#utility.yul\":12820:12838   */\n      tag_324\n      tag_276\n      jump\t// in\n    tag_324:\n        /* \"#utility.yul\":12789:12840   */\n    tag_323:\n        /* \"#utility.yul\":12869:12873   */\n      dup2\n        /* \"#utility.yul\":12862:12867   */\n      dup2\n        /* \"#utility.yul\":12858:12874   */\n      mul\n        /* \"#utility.yul\":12849:12874   */\n      swap1\n      pop\n        /* \"#utility.yul\":11807:12880   */\n    tag_309:\n      swap4\n      swap3\n      pop\n      pop\n      pop\n      jump\t// out\n        /* \"#utility.yul\":12886:13234   */\n    tag_83:\n        /* \"#utility.yul\":12926:12933   */\n      0x00\n        /* \"#utility.yul\":12949:12969   */\n      tag_326\n        /* \"#utility.yul\":12967:12968   */\n      dup3\n        /* \"#utility.yul\":12949:12969   */\n      tag_272\n      jump\t// in\n    tag_326:\n        /* \"#utility.yul\":12944:12969   */\n      swap2\n      pop\n        /* \"#utility.yul\":12983:13003   */\n      tag_327\n        /* \"#utility.yul\":13001:13002   */\n      dup4\n        /* \"#utility.yul\":12983:13003   */\n      tag_272\n      jump\t// in\n    tag_327:\n        /* \"#utility.yul\":12978:13003   */\n      swap3\n      pop\n        /* \"#utility.yul\":13171:13172   */\n      dup2\n        /* \"#utility.yul\":13103:13169   */\n      0xffffffffffffffffffffffffffffffffffffffffffffffffffffffffffffffff\n        /* \"#utility.yul\":13099:13173   */\n      div\n        /* \"#utility.yul\":13096:13097   */\n      dup4\n        /* \"#utility.yul\":13093:13174   */\n      gt\n        /* \"#utility.yul\":13088:13089   */\n      dup3\n        /* \"#utility.yul\":13081:13090   */\n      iszero\n        /* \"#utility.yul\":13074:13091   */\n      iszero\n        /* \"#utility.yul\":13070:13175   */\n      and\n        /* \"#utility.yul\":13067:13198   */\n      iszero\n      tag_328\n      jumpi\n        /* \"#utility.yul\":13178:13196   */\n      tag_329\n      tag_276\n      jump\t// in\n    tag_329:\n        /* \"#utility.yul\":13067:13198   */\n    tag_328:\n        /* \"#utility.yul\":13226:13227   */\n      dup3\n        /* \"#utility.yul\":13223:13224   */\n      dup3\n        /* \"#utility.yul\":13219:13228   */\n      mul\n        /* \"#utility.yul\":13208:13228   */\n      swap1\n      pop\n        /* \"#utility.yul\":12886:13234   */\n      swap3\n      swap2\n      pop\n      pop\n      jump\t// out\n        /* \"#utility.yul\":13240:13520   */\n    tag_91:\n        /* \"#utility.yul\":13278:13285   */\n      0x00\n        /* \"#utility.yul\":13301:13319   */\n      tag_331\n        /* \"#utility.yul\":13317:13318   */\n      dup3\n        /* \"#utility.yul\":13301:13319   */\n      tag_279\n      jump\t// in\n    tag_331:\n        /* \"#utility.yul\":13296:13319   */\n      swap2\n      pop\n        /* \"#utility.yul\":13333:13351   */\n      tag_332\n        /* \"#utility.yul\":13349:13350   */\n      dup4\n        /* \"#utility.yul\":13333:13351   */\n      tag_279\n      jump\t// in\n    tag_332:\n        /* \"#utility.yul\":13328:13351   */\n      swap3\n      pop\n        /* \"#utility.yul\":13457:13458   */\n      dup2\n        /* \"#utility.yul\":13451:13455   */\n      0xff\n        /* \"#utility.yul\":13447:13459   */\n      div\n        /* \"#utility.yul\":13444:13445   */\n      dup4\n        /* \"#utility.yul\":13441:13460   */\n      gt\n        /* \"#utility.yul\":13436:13437   */\n      dup3\n        /* \"#utility.yul\":13429:13438   */\n      iszero\n        /* \"#utility.yul\":13422:13439   */\n      iszero\n        /* \"#utility.yul\":13418:13461   */\n      and\n        /* \"#utility.yul\":13415:13484   */\n      iszero\n      tag_333\n      jumpi\n        /* \"#utility.yul\":13464:13482   */\n      tag_334\n      tag_276\n      jump\t// in\n    tag_334:\n        /* \"#utility.yul\":13415:13484   */\n    tag_333:\n        /* \"#utility.yul\":13512:13513   */\n      dup3\n        /* \"#utility.yul\":13509:13510   */\n      dup3\n        /* \"#utility.yul\":13505:13514   */\n      mul\n        /* \"#utility.yul\":13494:13514   */\n      swap1\n      pop\n        /* \"#utility.yul\":13240:13520   */\n      swap3\n      swap2\n      pop\n      pop\n      jump\t// out\n        /* \"#utility.yul\":13526:13717   */\n    tag_81:\n        /* \"#utility.yul\":13566:13570   */\n      0x00\n        /* \"#utility.yul\":13586:13606   */\n      tag_336\n        /* \"#utility.yul\":13604:13605   */\n      dup3\n        /* \"#utility.yul\":13586:13606   */\n      tag_272\n      jump\t// in\n    tag_336:\n        /* \"#utility.yul\":13581:13606   */\n      swap2\n      pop\n        /* \"#utility.yul\":13620:13640   */\n      tag_337\n        /* \"#utility.yul\":13638:13639   */\n      dup4\n        /* \"#utility.yul\":13620:13640   */\n      tag_272\n      jump\t// in\n    tag_337:\n        /* \"#utility.yul\":13615:13640   */\n      swap3\n      pop\n        /* \"#utility.yul\":13659:13660   */\n      dup3\n        /* \"#utility.yul\":13656:13657   */\n      dup3\n        /* \"#utility.yul\":13653:13661   */\n      lt\n        /* \"#utility.yul\":13650:13684   */\n      iszero\n      tag_338\n      jumpi\n        /* \"#utility.yul\":13664:13682   */\n      tag_339\n      tag_276\n      jump\t// in\n    tag_339:\n        /* \"#utility.yul\":13650:13684   */\n    tag_338:\n        /* \"#utility.yul\":13709:13710   */\n      dup3\n        /* \"#utility.yul\":13706:13707   */\n      dup3\n        /* \"#utility.yul\":13702:13711   */\n      sub\n        /* \"#utility.yul\":13694:13711   */\n      swap1\n      pop\n        /* \"#utility.yul\":13526:13717   */\n      swap3\n      swap2\n      pop\n      pop\n      jump\t// out\n        /* \"#utility.yul\":13723:13908   */\n    tag_93:\n        /* \"#utility.yul\":13761:13765   */\n      0x00\n        /* \"#utility.yul\":13781:13799   */\n      tag_341\n        /* \"#utility.yul\":13797:13798   */\n      dup3\n        /* \"#utility.yul\":13781:13799   */\n      tag_279\n      jump\t// in\n    tag_341:\n        /* \"#utility.yul\":13776:13799   */\n      swap2\n      pop\n        /* \"#utility.yul\":13813:13831   */\n      tag_342\n        /* \"#utility.yul\":13829:13830   */\n      dup4\n        /* \"#utility.yul\":13813:13831   */\n      tag_279\n      jump\t// in\n    tag_342:\n        /* \"#utility.yul\":13808:13831   */\n      swap3\n      pop\n        /* \"#utility.yul\":13850:13851   */\n      dup3\n        /* \"#utility.yul\":13847:13848   */\n      dup3\n        /* \"#utility.yul\":13844:13852   */\n      lt\n        /* \"#utility.yul\":13841:13875   */\n      iszero\n      tag_343\n      jumpi\n        /* \"#utility.yul\":13855:13873   */\n      tag_344\n      tag_276\n      jump\t// in\n    tag_344:\n        /* \"#utility.yul\":13841:13875   */\n    tag_343:\n        /* \"#utility.yul\":13900:13901   */\n      dup3\n        /* \"#utility.yul\":13897:13898   */\n      dup3\n        /* \"#utility.yul\":13893:13902   */\n      sub\n        /* \"#utility.yul\":13885:13902   */\n      swap1\n      pop\n        /* \"#utility.yul\":13723:13908   */\n      swap3\n      swap2\n      pop\n      pop\n      jump\t// out\n        /* \"#utility.yul\":13914:14010   */\n    tag_345:\n        /* \"#utility.yul\":13951:13958   */\n      0x00\n        /* \"#utility.yul\":13980:14004   */\n      tag_347\n        /* \"#utility.yul\":13998:14003   */\n      dup3\n        /* \"#utility.yul\":13980:14004   */\n      tag_348\n      jump\t// in\n    tag_347:\n        /* \"#utility.yul\":13969:14004   */\n      swap1\n      pop\n        /* \"#utility.yul\":13914:14010   */\n      swap2\n      swap1\n      pop\n      jump\t// out\n        /* \"#utility.yul\":14016:14106   */\n    tag_198:\n        /* \"#utility.yul\":14050:14057   */\n      0x00\n        /* \"#utility.yul\":14093:14098   */\n      dup2\n        /* \"#utility.yul\":14086:14099   */\n      iszero\n        /* \"#utility.yul\":14079:14100   */\n      iszero\n        /* \"#utility.yul\":14068:14100   */\n      swap1\n      pop\n        /* \"#utility.yul\":14016:14106   */\n      swap2\n      swap1\n      pop\n      jump\t// out\n        /* \"#utility.yul\":14112:14262   */\n    tag_202:\n        /* \"#utility.yul\":14149:14156   */\n      0x00\n        /* \"#utility.yul\":14189:14255   */\n      0xffffffffffffffffffffffffffffffff00000000000000000000000000000000\n        /* \"#utility.yul\":14182:14187   */\n      dup3\n        /* \"#utility.yul\":14178:14256   */\n      and\n        /* \"#utility.yul\":14167:14256   */\n      swap1\n      pop\n        /* \"#utility.yul\":14112:14262   */\n      swap2\n      swap1\n      pop\n      jump\t// out\n        /* \"#utility.yul\":14268:14345   */\n    tag_206:\n        /* \"#utility.yul\":14305:14312   */\n      0x00\n        /* \"#utility.yul\":14334:14339   */\n      dup2\n        /* \"#utility.yul\":14323:14339   */\n      swap1\n      pop\n        /* \"#utility.yul\":14268:14345   */\n      swap2\n      swap1\n      pop\n      jump\t// out\n        /* \"#utility.yul\":14351:14477   */\n    tag_348:\n        /* \"#utility.yul\":14388:14395   */\n      0x00\n        /* \"#utility.yul\":14428:14470   */\n      0xffffffffffffffffffffffffffffffffffffffff\n        /* \"#utility.yul\":14421:14426   */\n      dup3\n        /* \"#utility.yul\":14417:14471   */\n      and\n        /* \"#utility.yul\":14406:14471   */\n      swap1\n      pop\n        /* \"#utility.yul\":14351:14477   */\n      swap2\n      swap1\n      pop\n      jump\t// out\n        /* \"#utility.yul\":14483:14560   */\n    tag_272:\n        /* \"#utility.yul\":14520:14527   */\n      0x00\n        /* \"#utility.yul\":14549:14554   */\n      dup2\n        /* \"#utility.yul\":14538:14554   */\n      swap1\n      pop\n        /* \"#utility.yul\":14483:14560   */\n      swap2\n      swap1\n      pop\n      jump\t// out\n        /* \"#utility.yul\":14566:14652   */\n    tag_279:\n        /* \"#utility.yul\":14601:14608   */\n      0x00\n        /* \"#utility.yul\":14641:14645   */\n      0xff\n        /* \"#utility.yul\":14634:14639   */\n      dup3\n        /* \"#utility.yul\":14630:14646   */\n      and\n        /* \"#utility.yul\":14619:14646   */\n      swap1\n      pop\n        /* \"#utility.yul\":14566:14652   */\n      swap2\n      swap1\n      pop\n      jump\t// out\n        /* \"#utility.yul\":14658:14812   */\n    tag_156:\n        /* \"#utility.yul\":14742:14748   */\n      dup3\n        /* \"#utility.yul\":14737:14740   */\n      dup2\n        /* \"#utility.yul\":14732:14735   */\n      dup4\n        /* \"#utility.yul\":14719:14749   */\n      calldatacopy\n        /* \"#utility.yul\":14804:14805   */\n      0x00\n        /* \"#utility.yul\":14795:14801   */\n      dup4\n        /* \"#utility.yul\":14790:14793   */\n      dup4\n        /* \"#utility.yul\":14786:14802   */\n      add\n        /* \"#utility.yul\":14779:14806   */\n      mstore\n        /* \"#utility.yul\":14658:14812   */\n      pop\n      pop\n      pop\n      jump\t// out\n        /* \"#utility.yul\":14818:15125   */\n    tag_214:\n        /* \"#utility.yul\":14886:14887   */\n      0x00\n        /* \"#utility.yul\":14896:15009   */\n    tag_357:\n        /* \"#utility.yul\":14910:14916   */\n      dup4\n        /* \"#utility.yul\":14907:14908   */\n      dup2\n        /* \"#utility.yul\":14904:14917   */\n      lt\n        /* \"#utility.yul\":14896:15009   */\n      iszero\n      tag_359\n      jumpi\n        /* \"#utility.yul\":14995:14996   */\n      dup1\n        /* \"#utility.yul\":14990:14993   */\n      dup3\n        /* \"#utility.yul\":14986:14997   */\n      add\n        /* \"#utility.yul\":14980:14998   */\n      mload\n        /* \"#utility.yul\":14976:14977   */\n      dup2\n        /* \"#utility.yul\":14971:14974   */\n      dup5\n        /* \"#utility.yul\":14967:14978   */\n      add\n        /* \"#utility.yul\":14960:14999   */\n      mstore\n        /* \"#utility.yul\":14932:14934   */\n      0x20\n        /* \"#utility.yul\":14929:14930   */\n      dup2\n        /* \"#utility.yul\":14925:14935   */\n      add\n        /* \"#utility.yul\":14920:14935   */\n      swap1\n      pop\n        /* \"#utility.yul\":14896:15009   */\n      jump(tag_357)\n    tag_359:\n        /* \"#utility.yul\":15027:15033   */\n      dup4\n        /* \"#utility.yul\":15024:15025   */\n      dup2\n        /* \"#utility.yul\":15021:15034   */\n      gt\n        /* \"#utility.yul\":15018:15119   */\n      iszero\n      tag_360\n      jumpi\n        /* \"#utility.yul\":15107:15108   */\n      0x00\n        /* \"#utility.yul\":15098:15104   */\n      dup5\n        /* \"#utility.yul\":15093:15096   */\n      dup5\n        /* \"#utility.yul\":15089:15105   */\n      add\n        /* \"#utility.yul\":15082:15109   */\n      mstore\n        /* \"#utility.yul\":15018:15119   */\n    tag_360:\n        /* \"#utility.yul\":14867:15125   */\n      pop\n        /* \"#utility.yul\":14818:15125   */\n      pop\n      pop\n      pop\n      jump\t// out\n        /* \"#utility.yul\":15131:15451   */\n    tag_135:\n        /* \"#utility.yul\":15175:15181   */\n      0x00\n        /* \"#utility.yul\":15212:15213   */\n      0x02\n        /* \"#utility.yul\":15206:15210   */\n      dup3\n        /* \"#utility.yul\":15202:15214   */\n      div\n        /* \"#utility.yul\":15192:15214   */\n      swap1\n      pop\n        /* \"#utility.yul\":15259:15260   */\n      0x01\n        /* \"#utility.yul\":15253:15257   */\n      dup3\n        /* \"#utility.yul\":15249:15261   */\n      and\n        /* \"#utility.yul\":15280:15298   */\n      dup1\n        /* \"#utility.yul\":15270:15351   */\n      tag_362\n      jumpi\n        /* \"#utility.yul\":15336:15340   */\n      0x7f\n        /* \"#utility.yul\":15328:15334   */\n      dup3\n        /* \"#utility.yul\":15324:15341   */\n      and\n        /* \"#utility.yul\":15314:15341   */\n      swap2\n      pop\n        /* \"#utility.yul\":15270:15351   */\n    tag_362:\n        /* \"#utility.yul\":15398:15400   */\n      0x20\n        /* \"#utility.yul\":15390:15396   */\n      dup3\n        /* \"#utility.yul\":15387:15401   */\n      lt\n        /* \"#utility.yul\":15367:15385   */\n      dup2\n        /* \"#utility.yul\":15364:15402   */\n      eq\n        /* \"#utility.yul\":15361:15445   */\n      iszero\n      tag_363\n      jumpi\n        /* \"#utility.yul\":15417:15435   */\n      tag_364\n      tag_365\n      jump\t// in\n    tag_364:\n        /* \"#utility.yul\":15361:15445   */\n    tag_363:\n        /* \"#utility.yul\":15182:15451   */\n      pop\n        /* \"#utility.yul\":15131:15451   */\n      swap2\n      swap1\n      pop\n      jump\t// out\n        /* \"#utility.yul\":15457:15738   */\n    tag_260:\n        /* \"#utility.yul\":15540:15567   */\n      tag_367\n        /* \"#utility.yul\":15562:15566   */\n      dup3\n        /* \"#utility.yul\":15540:15567   */\n      tag_266\n      jump\t// in\n    tag_367:\n        /* \"#utility.yul\":15532:15538   */\n      dup2\n        /* \"#utility.yul\":15528:15568   */\n      add\n        /* \"#utility.yul\":15670:15676   */\n      dup2\n        /* \"#utility.yul\":15658:15668   */\n      dup2\n        /* \"#utility.yul\":15655:15677   */\n      lt\n        /* \"#utility.yul\":15634:15652   */\n      0xffffffffffffffff\n        /* \"#utility.yul\":15622:15632   */\n      dup3\n        /* \"#utility.yul\":15619:15653   */\n      gt\n        /* \"#utility.yul\":15616:15678   */\n      or\n        /* \"#utility.yul\":15613:15701   */\n      iszero\n      tag_368\n      jumpi\n        /* \"#utility.yul\":15681:15699   */\n      tag_369\n      tag_75\n      jump\t// in\n    tag_369:\n        /* \"#utility.yul\":15613:15701   */\n    tag_368:\n        /* \"#utility.yul\":15721:15731   */\n      dup1\n        /* \"#utility.yul\":15717:15719   */\n      0x40\n        /* \"#utility.yul\":15710:15732   */\n      mstore\n        /* \"#utility.yul\":15500:15738   */\n      pop\n        /* \"#utility.yul\":15457:15738   */\n      pop\n      pop\n      jump\t// out\n        /* \"#utility.yul\":15744:15977   */\n    tag_107:\n        /* \"#utility.yul\":15783:15786   */\n      0x00\n        /* \"#utility.yul\":15806:15830   */\n      tag_371\n        /* \"#utility.yul\":15824:15829   */\n      dup3\n        /* \"#utility.yul\":15806:15830   */\n      tag_272\n      jump\t// in\n    tag_371:\n        /* \"#utility.yul\":15797:15830   */\n      swap2\n      pop\n        /* \"#utility.yul\":15852:15918   */\n      0xffffffffffffffffffffffffffffffffffffffffffffffffffffffffffffffff\n        /* \"#utility.yul\":15845:15850   */\n      dup3\n        /* \"#utility.yul\":15842:15919   */\n      eq\n        /* \"#utility.yul\":15839:15942   */\n      iszero\n      tag_372\n      jumpi\n        /* \"#utility.yul\":15922:15940   */\n      tag_373\n      tag_276\n      jump\t// in\n    tag_373:\n        /* \"#utility.yul\":15839:15942   */\n    tag_372:\n        /* \"#utility.yul\":15969:15970   */\n      0x01\n        /* \"#utility.yul\":15962:15967   */\n      dup3\n        /* \"#utility.yul\":15958:15971   */\n      add\n        /* \"#utility.yul\":15951:15971   */\n      swap1\n      pop\n        /* \"#utility.yul\":15744:15977   */\n      swap2\n      swap1\n      pop\n      jump\t// out\n        /* \"#utility.yul\":15983:16159   */\n    tag_121:\n        /* \"#utility.yul\":16015:16016   */\n      0x00\n        /* \"#utility.yul\":16032:16052   */\n      tag_375\n        /* \"#utility.yul\":16050:16051   */\n      dup3\n        /* \"#utility.yul\":16032:16052   */\n      tag_272\n      jump\t// in\n    tag_375:\n        /* \"#utility.yul\":16027:16052   */\n      swap2\n      pop\n        /* \"#utility.yul\":16066:16086   */\n      tag_376\n        /* \"#utility.yul\":16084:16085   */\n      dup4\n        /* \"#utility.yul\":16066:16086   */\n      tag_272\n      jump\t// in\n    tag_376:\n        /* \"#utility.yul\":16061:16086   */\n      swap3\n      pop\n        /* \"#utility.yul\":16105:16106   */\n      dup3\n        /* \"#utility.yul\":16095:16130   */\n      tag_377\n      jumpi\n        /* \"#utility.yul\":16110:16128   */\n      tag_378\n      tag_288\n      jump\t// in\n    tag_378:\n        /* \"#utility.yul\":16095:16130   */\n    tag_377:\n        /* \"#utility.yul\":16151:16152   */\n      dup3\n        /* \"#utility.yul\":16148:16149   */\n      dup3\n        /* \"#utility.yul\":16144:16153   */\n      mod\n        /* \"#utility.yul\":16139:16153   */\n      swap1\n      pop\n        /* \"#utility.yul\":15983:16159   */\n      swap3\n      swap2\n      pop\n      pop\n      jump\t// out\n        /* \"#utility.yul\":16165:16345   */\n    tag_276:\n        /* \"#utility.yul\":16213:16290   */\n      0x4e487b7100000000000000000000000000000000000000000000000000000000\n        /* \"#utility.yul\":16210:16211   */\n      0x00\n        /* \"#utility.yul\":16203:16291   */\n      mstore\n        /* \"#utility.yul\":16310:16314   */\n      0x11\n        /* \"#utility.yul\":16307:16308   */\n      0x04\n        /* \"#utility.yul\":16300:16315   */\n      mstore\n        /* \"#utility.yul\":16334:16338   */\n      0x24\n        /* \"#utility.yul\":16331:16332   */\n      0x00\n        /* \"#utility.yul\":16324:16339   */\n      revert\n        /* \"#utility.yul\":16351:16531   */\n    tag_288:\n        /* \"#utility.yul\":16399:16476   */\n      0x4e487b7100000000000000000000000000000000000000000000000000000000\n        /* \"#utility.yul\":16396:16397   */\n      0x00\n        /* \"#utility.yul\":16389:16477   */\n      mstore\n        /* \"#utility.yul\":16496:16500   */\n      0x12\n        /* \"#utility.yul\":16493:16494   */\n      0x04\n        /* \"#utility.yul\":16486:16501   */\n      mstore\n        /* \"#utility.yul\":16520:16524   */\n      0x24\n        /* \"#utility.yul\":16517:16518   */\n      0x00\n        /* \"#utility.yul\":16510:16525   */\n      revert\n        /* \"#utility.yul\":16537:16717   */\n    tag_365:\n        /* \"#utility.yul\":16585:16662   */\n      0x4e487b7100000000000000000000000000000000000000000000000000000000\n        /* \"#utility.yul\":16582:16583   */\n      0x00\n        /* \"#utility.yul\":16575:16663   */\n      mstore\n        /* \"#utility.yul\":16682:16686   */\n      0x22\n        /* \"#utility.yul\":16679:16680   */\n      0x04\n        /* \"#utility.yul\":16672:16687   */\n      mstore\n        /* \"#utility.yul\":16706:16710   */\n      0x24\n        /* \"#utility.yul\":16703:16704   */\n      0x00\n        /* \"#utility.yul\":16696:16711   */\n      revert\n        /* \"#utility.yul\":16723:16903   */\n    tag_99:\n        /* \"#utility.yul\":16771:16848   */\n      0x4e487b7100000000000000000000000000000000000000000000000000000000\n        /* \"#utility.yul\":16768:16769   */\n      0x00\n        /* \"#utility.yul\":16761:16849   */\n      mstore\n        /* \"#utility.yul\":16868:16872   */\n      0x32\n        /* \"#utility.yul\":16865:16866   */\n      0x04\n        /* \"#utility.yul\":16858:16873   */\n      mstore\n        /* \"#utility.yul\":16892:16896   */\n      0x24\n        /* \"#utility.yul\":16889:16890   */\n      0x00\n        /* \"#utility.yul\":16882:16897   */\n      revert\n        /* \"#utility.yul\":16909:17089   */\n    tag_75:\n        /* \"#utility.yul\":16957:17034   */\n      0x4e487b7100000000000000000000000000000000000000000000000000000000\n        /* \"#utility.yul\":16954:16955   */\n      0x00\n        /* \"#utility.yul\":16947:17035   */\n      mstore\n        /* \"#utility.yul\":17054:17058   */\n      0x41\n        /* \"#utility.yul\":17051:17052   */\n      0x04\n        /* \"#utility.yul\":17044:17059   */\n      mstore\n        /* \"#utility.yul\":17078:17082   */\n      0x24\n        /* \"#utility.yul\":17075:17076   */\n      0x00\n        /* \"#utility.yul\":17068:17083   */\n      revert\n        /* \"#utility.yul\":17095:17212   */\n    tag_165:\n        /* \"#utility.yul\":17204:17205   */\n      0x00\n        /* \"#utility.yul\":17201:17202   */\n      dup1\n        /* \"#utility.yul\":17194:17206   */\n      revert\n        /* \"#utility.yul\":17218:17335   */\n    tag_154:\n        /* \"#utility.yul\":17327:17328   */\n      0x00\n        /* \"#utility.yul\":17324:17325   */\n      dup1\n        /* \"#utility.yul\":17317:17329   */\n      revert\n        /* \"#utility.yul\":17341:17458   */\n    tag_178:\n        /* \"#utility.yul\":17450:17451   */\n      0x00\n        /* \"#utility.yul\":17447:17448   */\n      dup1\n        /* \"#utility.yul\":17440:17452   */\n      revert\n        /* \"#utility.yul\":17464:17581   */\n    tag_170:\n        /* \"#utility.yul\":17573:17574   */\n      0x00\n        /* \"#utility.yul\":17570:17571   */\n      dup1\n        /* \"#utility.yul\":17563:17575   */\n      revert\n        /* \"#utility.yul\":17587:17689   */\n    tag_266:\n        /* \"#utility.yul\":17628:17634   */\n      0x00\n        /* \"#utility.yul\":17679:17681   */\n      0x1f\n        /* \"#utility.yul\":17675:17682   */\n      not\n        /* \"#utility.yul\":17670:17672   */\n      0x1f\n        /* \"#utility.yul\":17663:17668   */\n      dup4\n        /* \"#utility.yul\":17659:17673   */\n      add\n        /* \"#utility.yul\":17655:17683   */\n      and\n        /* \"#utility.yul\":17645:17683   */\n      swap1\n      pop\n        /* \"#utility.yul\":17587:17689   */\n      swap2\n      swap1\n      pop\n      jump\t// out\n        /* \"#utility.yul\":17695:17797   */\n    tag_303:\n        /* \"#utility.yul\":17737:17745   */\n      0x00\n        /* \"#utility.yul\":17784:17789   */\n      dup2\n        /* \"#utility.yul\":17781:17782   */\n      0x01\n        /* \"#utility.yul\":17777:17790   */\n      shr\n        /* \"#utility.yul\":17756:17790   */\n      swap1\n      pop\n        /* \"#utility.yul\":17695:17797   */\n      swap2\n      swap1\n      pop\n      jump\t// out\n        /* \"#utility.yul\":17803:17980   */\n    tag_220:\n        /* \"#utility.yul\":17943:17972   */\n      0x4d6f7420646520706173736520696e636f686572656e74202121210000000000\n        /* \"#utility.yul\":17939:17940   */\n      0x00\n        /* \"#utility.yul\":17931:17937   */\n      dup3\n        /* \"#utility.yul\":17927:17941   */\n      add\n        /* \"#utility.yul\":17920:17973   */\n      mstore\n        /* \"#utility.yul\":17803:17980   */\n      pop\n      jump\t// out\n        /* \"#utility.yul\":17986:18168   */\n    tag_225:\n        /* \"#utility.yul\":18126:18160   */\n      0x506172746965207072656e616e7465206e6f6e207265636f6e6e756520212121\n        /* \"#utility.yul\":18122:18123   */\n      0x00\n        /* \"#utility.yul\":18114:18120   */\n      dup3\n        /* \"#utility.yul\":18110:18124   */\n      add\n        /* \"#utility.yul\":18103:18161   */\n      mstore\n        /* \"#utility.yul\":17986:18168   */\n      pop\n      jump\t// out\n        /* \"#utility.yul\":18174:18352   */\n    tag_230:\n        /* \"#utility.yul\":18314:18344   */\n      0x4365742061647265737365206e27657869737465207061732021212100000000\n        /* \"#utility.yul\":18310:18311   */\n      0x00\n        /* \"#utility.yul\":18302:18308   */\n      dup3\n        /* \"#utility.yul\":18298:18312   */\n      add\n        /* \"#utility.yul\":18291:18345   */\n      mstore\n        /* \"#utility.yul\":18174:18352   */\n      pop\n      jump\t// out\n        /* \"#utility.yul\":18358:18582   */\n    tag_235:\n        /* \"#utility.yul\":18498:18532   */\n      0x436574746520706172746965207072656e616e7465206578697374652064656a\n        /* \"#utility.yul\":18494:18495   */\n      0x00\n        /* \"#utility.yul\":18486:18492   */\n      dup3\n        /* \"#utility.yul\":18482:18496   */\n      add\n        /* \"#utility.yul\":18475:18533   */\n      mstore\n        /* \"#utility.yul\":18567:18574   */\n      0x6120212121000000000000000000000000000000000000000000000000000000\n        /* \"#utility.yul\":18562:18564   */\n      0x20\n        /* \"#utility.yul\":18554:18560   */\n      dup3\n        /* \"#utility.yul\":18550:18565   */\n      add\n        /* \"#utility.yul\":18543:18575   */\n      mstore\n        /* \"#utility.yul\":18358:18582   */\n      pop\n      jump\t// out\n        /* \"#utility.yul\":18588:18710   */\n    tag_160:\n        /* \"#utility.yul\":18661:18685   */\n      tag_395\n        /* \"#utility.yul\":18679:18684   */\n      dup2\n        /* \"#utility.yul\":18661:18685   */\n      tag_345\n      jump\t// in\n    tag_395:\n        /* \"#utility.yul\":18654:18659   */\n      dup2\n        /* \"#utility.yul\":18651:18686   */\n      eq\n        /* \"#utility.yul\":18641:18704   */\n      tag_396\n      jumpi\n        /* \"#utility.yul\":18700:18701   */\n      0x00\n        /* \"#utility.yul\":18697:18698   */\n      dup1\n        /* \"#utility.yul\":18690:18702   */\n      revert\n        /* \"#utility.yul\":18641:18704   */\n    tag_396:\n        /* \"#utility.yul\":18588:18710   */\n      pop\n      jump\t// out\n\n    auxdata: 0xa264697066735822122002778e32f2ddb59920cd939e9993e918aad6a4005dc43361a16740a50c4d1f2e64736f6c63430008070033\n}\n",
				"bytecode": {
					"linkReferences": {},
					"object": "608060405234801561001057600080fd5b50611494806100206000396000f3fe608060405234801561001057600080fd5b50600436106100575760003560e01c806318b624fd1461005c5780631c0f6f2d1461008c57806327df8f2a146100bc578063385b81aa146100ec578063b10639b81461011c575b600080fd5b61007660048036038101906100719190610a18565b610138565b6040516100839190610c26565b60405180910390f35b6100a660048036038101906100a1919061098f565b610163565b6040516100b39190610c0b565b60405180910390f35b6100d660048036038101906100d19190610a18565b6101f6565b6040516100e39190610c41565b60405180910390f35b61010660048036038101906101019190610a61565b610220565b6040516101139190610c41565b60405180910390f35b610136600480360381019061013191906109bc565b610346565b005b60008082905060008151141561015557600060801b91505061015e565b60208301519150505b919050565b600061016e82610444565b6101ad576040517f08c379a00000000000000000000000000000000000000000000000000000000081526004016101a490610c7c565b60405180910390fd5b42600160008473ffffffffffffffffffffffffffffffffffffffff1673ffffffffffffffffffffffffffffffffffffffff16815260200190815260200160002054119050919050565b600080829050600081511415610212576000801b91505061021b565b60208301519150505b919050565b600061022b33610444565b1561026b576040517f08c379a000000000000000000000000000000000000000000000000000000000815260040161026290610cbc565b60405180910390fd5b60008060003373ffffffffffffffffffffffffffffffffffffffff1673ffffffffffffffffffffffffffffffffffffffff1681526020019081526020016000209050826040516020016102be9190610bc3565b604051602081830303815290604052805190602001208160010181905550838160020190805190602001906102f4929190610867565b506102fe336104a9565b836103084261066c565b60405160200161031a93929190610bda565b604051602081830303815290604052805190602001208160000181905550806000015491505092915050565b61034f82610444565b61038e576040517f08c379a000000000000000000000000000000000000000000000000000000000815260040161038590610c9c565b60405180910390fd5b8060405160200161039f9190610bc3565b604051602081830303815290604052805190602001206000808473ffffffffffffffffffffffffffffffffffffffff1673ffffffffffffffffffffffffffffffffffffffff1681526020019081526020016000206001015414610437576040517f08c379a000000000000000000000000000000000000000000000000000000000815260040161042e90610c5c565b60405180910390fd5b610440826107cd565b5050565b600061045e604051806020016040528060008152506101f6565b6000808473ffffffffffffffffffffffffffffffffffffffff1673ffffffffffffffffffffffffffffffffffffffff1681526020019081526020016000206000015414159050919050565b60606000602867ffffffffffffffff8111156104c8576104c761131c565b5b6040519080825280601f01601f1916602001820160405280156104fa5781602001600182028036833780820191505090505b50905060005b6014811015610662576000816013610518919061104e565b60086105249190610fb9565b60026105309190610e9b565b8573ffffffffffffffffffffffffffffffffffffffff166105519190610de6565b60f81b9050600060108260f81c6105689190610e17565b60f81b905060008160f81c601061057f9190611013565b8360f81c61058d9190611082565b60f81b905061059b82610821565b858560026105a99190610fb9565b815181106105ba576105b96112ed565b5b60200101907effffffffffffffffffffffffffffffffffffffffffffffffffffffffffffff1916908160001a9053506105f281610821565b8560018660026106029190610fb9565b61060c9190610d59565b8151811061061d5761061c6112ed565b5b60200101907effffffffffffffffffffffffffffffffffffffffffffffffffffffffffffff1916908160001a905350505050808061065a906111e6565b915050610500565b5080915050919050565b606060008214156106b4576040518060400160405280600181526020017f300000000000000000000000000000000000000000000000000000000000000081525090506107c8565b600082905060005b600082146106e65780806106cf906111e6565b915050600a826106df9190610de6565b91506106bc565b60008167ffffffffffffffff8111156107025761070161131c565b5b6040519080825280601f01601f1916602001820160405280156107345781602001600182028036833780820191505090505b5090505b600085146107c15760018261074d919061104e565b9150600a8561075c919061122f565b60306107689190610d59565b60f81b81838151811061077e5761077d6112ed565b5b60200101907effffffffffffffffffffffffffffffffffffffffffffffffffffffffffffff1916908160001a905350600a856107ba9190610de6565b9450610738565b8093505050505b919050565b6104b0426107db9190610d59565b600160008373ffffffffffffffffffffffffffffffffffffffff1673ffffffffffffffffffffffffffffffffffffffff1681526020019081526020016000208190555050565b6000600a8260f81c60ff16101561084c5760308260f81c6108429190610daf565b60f81b9050610862565b60578260f81c61085c9190610daf565b60f81b90505b919050565b82805461087390611183565b90600052602060002090601f01602090048101928261089557600085556108dc565b82601f106108ae57805160ff19168380011785556108dc565b828001600101855582156108dc579182015b828111156108db5782518255916020019190600101906108c0565b5b5090506108e991906108ed565b5090565b5b808211156109065760008160009055506001016108ee565b5090565b600061091d61091884610d01565b610cdc565b90508281526020810184848401111561093957610938611350565b5b610944848285611141565b509392505050565b60008135905061095b81611447565b92915050565b600082601f8301126109765761097561134b565b5b813561098684826020860161090a565b91505092915050565b6000602082840312156109a5576109a461135a565b5b60006109b38482850161094c565b91505092915050565b600080604083850312156109d3576109d261135a565b5b60006109e18582860161094c565b925050602083013567ffffffffffffffff811115610a0257610a01611355565b5b610a0e85828601610961565b9150509250929050565b600060208284031215610a2e57610a2d61135a565b5b600082013567ffffffffffffffff811115610a4c57610a4b611355565b5b610a5884828501610961565b91505092915050565b60008060408385031215610a7857610a7761135a565b5b600083013567ffffffffffffffff811115610a9657610a95611355565b5b610aa285828601610961565b925050602083013567ffffffffffffffff811115610ac357610ac2611355565b5b610acf85828601610961565b9150509250929050565b610ae2816110c8565b82525050565b610af1816110d4565b82525050565b610b0081611100565b82525050565b6000610b1182610d32565b610b1b8185610d4e565b9350610b2b818560208601611150565b80840191505092915050565b6000610b44601b83610d3d565b9150610b4f8261137d565b602082019050919050565b6000610b67602083610d3d565b9150610b72826113a6565b602082019050919050565b6000610b8a601c83610d3d565b9150610b95826113cf565b602082019050919050565b6000610bad602583610d3d565b9150610bb8826113f8565b604082019050919050565b6000610bcf8284610b06565b915081905092915050565b6000610be68286610b06565b9150610bf28285610b06565b9150610bfe8284610b06565b9150819050949350505050565b6000602082019050610c206000830184610ad9565b92915050565b6000602082019050610c3b6000830184610ae8565b92915050565b6000602082019050610c566000830184610af7565b92915050565b60006020820190508181036000830152610c7581610b37565b9050919050565b60006020820190508181036000830152610c9581610b5a565b9050919050565b60006020820190508181036000830152610cb581610b7d565b9050919050565b60006020820190508181036000830152610cd581610ba0565b9050919050565b6000610ce6610cf7565b9050610cf282826111b5565b919050565b6000604051905090565b600067ffffffffffffffff821115610d1c57610d1b61131c565b5b610d258261135f565b9050602081019050919050565b600081519050919050565b600082825260208201905092915050565b600081905092915050565b6000610d648261112a565b9150610d6f8361112a565b9250827fffffffffffffffffffffffffffffffffffffffffffffffffffffffffffffffff03821115610da457610da3611260565b5b828201905092915050565b6000610dba82611134565b9150610dc583611134565b92508260ff03821115610ddb57610dda611260565b5b828201905092915050565b6000610df18261112a565b9150610dfc8361112a565b925082610e0c57610e0b61128f565b5b828204905092915050565b6000610e2282611134565b9150610e2d83611134565b925082610e3d57610e3c61128f565b5b828204905092915050565b6000808291508390505b6001851115610e9257808604811115610e6e57610e6d611260565b5b6001851615610e7d5780820291505b8081029050610e8b85611370565b9450610e52565b94509492505050565b6000610ea68261112a565b9150610eb18361112a565b9250610ede7fffffffffffffffffffffffffffffffffffffffffffffffffffffffffffffffff8484610ee6565b905092915050565b600082610ef65760019050610fb2565b81610f045760009050610fb2565b8160018114610f1a5760028114610f2457610f53565b6001915050610fb2565b60ff841115610f3657610f35611260565b5b8360020a915084821115610f4d57610f4c611260565b5b50610fb2565b5060208310610133831016604e8410600b8410161715610f885782820a905083811115610f8357610f82611260565b5b610fb2565b610f958484846001610e48565b92509050818404811115610fac57610fab611260565b5b81810290505b9392505050565b6000610fc48261112a565b9150610fcf8361112a565b9250817fffffffffffffffffffffffffffffffffffffffffffffffffffffffffffffffff048311821515161561100857611007611260565b5b828202905092915050565b600061101e82611134565b915061102983611134565b92508160ff048311821515161561104357611042611260565b5b828202905092915050565b60006110598261112a565b91506110648361112a565b92508282101561107757611076611260565b5b828203905092915050565b600061108d82611134565b915061109883611134565b9250828210156110ab576110aa611260565b5b828203905092915050565b60006110c18261110a565b9050919050565b60008115159050919050565b60007fffffffffffffffffffffffffffffffff0000000000000000000000000000000082169050919050565b6000819050919050565b600073ffffffffffffffffffffffffffffffffffffffff82169050919050565b6000819050919050565b600060ff82169050919050565b82818337600083830152505050565b60005b8381101561116e578082015181840152602081019050611153565b8381111561117d576000848401525b50505050565b6000600282049050600182168061119b57607f821691505b602082108114156111af576111ae6112be565b5b50919050565b6111be8261135f565b810181811067ffffffffffffffff821117156111dd576111dc61131c565b5b80604052505050565b60006111f18261112a565b91507fffffffffffffffffffffffffffffffffffffffffffffffffffffffffffffffff82141561122457611223611260565b5b600182019050919050565b600061123a8261112a565b91506112458361112a565b9250826112555761125461128f565b5b828206905092915050565b7f4e487b7100000000000000000000000000000000000000000000000000000000600052601160045260246000fd5b7f4e487b7100000000000000000000000000000000000000000000000000000000600052601260045260246000fd5b7f4e487b7100000000000000000000000000000000000000000000000000000000600052602260045260246000fd5b7f4e487b7100000000000000000000000000000000000000000000000000000000600052603260045260246000fd5b7f4e487b7100000000000000000000000000000000000000000000000000000000600052604160045260246000fd5b600080fd5b600080fd5b600080fd5b600080fd5b6000601f19601f8301169050919050565b60008160011c9050919050565b7f4d6f7420646520706173736520696e636f686572656e74202121210000000000600082015250565b7f506172746965207072656e616e7465206e6f6e207265636f6e6e756520212121600082015250565b7f4365742061647265737365206e27657869737465207061732021212100000000600082015250565b7f436574746520706172746965207072656e616e7465206578697374652064656a60008201527f6120212121000000000000000000000000000000000000000000000000000000602082015250565b611450816110b6565b811461145b57600080fd5b5056fea264697066735822122002778e32f2ddb59920cd939e9993e918aad6a4005dc43361a16740a50c4d1f2e64736f6c63430008070033",
					"opcodes": "PUSH1 0x80 PUSH1 0x40 MSTORE CALLVALUE DUP1 ISZERO PUSH2 0x10 JUMPI PUSH1 0x0 DUP1 REVERT JUMPDEST POP PUSH2 0x1494 DUP1 PUSH2 0x20 PUSH1 0x0 CODECOPY PUSH1 0x0 RETURN INVALID PUSH1 0x80 PUSH1 0x40 MSTORE CALLVALUE DUP1 ISZERO PUSH2 0x10 JUMPI PUSH1 0x0 DUP1 REVERT JUMPDEST POP PUSH1 0x4 CALLDATASIZE LT PUSH2 0x57 JUMPI PUSH1 0x0 CALLDATALOAD PUSH1 0xE0 SHR DUP1 PUSH4 0x18B624FD EQ PUSH2 0x5C JUMPI DUP1 PUSH4 0x1C0F6F2D EQ PUSH2 0x8C JUMPI DUP1 PUSH4 0x27DF8F2A EQ PUSH2 0xBC JUMPI DUP1 PUSH4 0x385B81AA EQ PUSH2 0xEC JUMPI DUP1 PUSH4 0xB10639B8 EQ PUSH2 0x11C JUMPI JUMPDEST PUSH1 0x0 DUP1 REVERT JUMPDEST PUSH2 0x76 PUSH1 0x4 DUP1 CALLDATASIZE SUB DUP2 ADD SWAP1 PUSH2 0x71 SWAP2 SWAP1 PUSH2 0xA18 JUMP JUMPDEST PUSH2 0x138 JUMP JUMPDEST PUSH1 0x40 MLOAD PUSH2 0x83 SWAP2 SWAP1 PUSH2 0xC26 JUMP JUMPDEST PUSH1 0x40 MLOAD DUP1 SWAP2 SUB SWAP1 RETURN JUMPDEST PUSH2 0xA6 PUSH1 0x4 DUP1 CALLDATASIZE SUB DUP2 ADD SWAP1 PUSH2 0xA1 SWAP2 SWAP1 PUSH2 0x98F JUMP JUMPDEST PUSH2 0x163 JUMP JUMPDEST PUSH1 0x40 MLOAD PUSH2 0xB3 SWAP2 SWAP1 PUSH2 0xC0B JUMP JUMPDEST PUSH1 0x40 MLOAD DUP1 SWAP2 SUB SWAP1 RETURN JUMPDEST PUSH2 0xD6 PUSH1 0x4 DUP1 CALLDATASIZE SUB DUP2 ADD SWAP1 PUSH2 0xD1 SWAP2 SWAP1 PUSH2 0xA18 JUMP JUMPDEST PUSH2 0x1F6 JUMP JUMPDEST PUSH1 0x40 MLOAD PUSH2 0xE3 SWAP2 SWAP1 PUSH2 0xC41 JUMP JUMPDEST PUSH1 0x40 MLOAD DUP1 SWAP2 SUB SWAP1 RETURN JUMPDEST PUSH2 0x106 PUSH1 0x4 DUP1 CALLDATASIZE SUB DUP2 ADD SWAP1 PUSH2 0x101 SWAP2 SWAP1 PUSH2 0xA61 JUMP JUMPDEST PUSH2 0x220 JUMP JUMPDEST PUSH1 0x40 MLOAD PUSH2 0x113 SWAP2 SWAP1 PUSH2 0xC41 JUMP JUMPDEST PUSH1 0x40 MLOAD DUP1 SWAP2 SUB SWAP1 RETURN JUMPDEST PUSH2 0x136 PUSH1 0x4 DUP1 CALLDATASIZE SUB DUP2 ADD SWAP1 PUSH2 0x131 SWAP2 SWAP1 PUSH2 0x9BC JUMP JUMPDEST PUSH2 0x346 JUMP JUMPDEST STOP JUMPDEST PUSH1 0x0 DUP1 DUP3 SWAP1 POP PUSH1 0x0 DUP2 MLOAD EQ ISZERO PUSH2 0x155 JUMPI PUSH1 0x0 PUSH1 0x80 SHL SWAP2 POP POP PUSH2 0x15E JUMP JUMPDEST PUSH1 0x20 DUP4 ADD MLOAD SWAP2 POP POP JUMPDEST SWAP2 SWAP1 POP JUMP JUMPDEST PUSH1 0x0 PUSH2 0x16E DUP3 PUSH2 0x444 JUMP JUMPDEST PUSH2 0x1AD JUMPI PUSH1 0x40 MLOAD PUSH32 0x8C379A000000000000000000000000000000000000000000000000000000000 DUP2 MSTORE PUSH1 0x4 ADD PUSH2 0x1A4 SWAP1 PUSH2 0xC7C JUMP JUMPDEST PUSH1 0x40 MLOAD DUP1 SWAP2 SUB SWAP1 REVERT JUMPDEST TIMESTAMP PUSH1 0x1 PUSH1 0x0 DUP5 PUSH20 0xFFFFFFFFFFFFFFFFFFFFFFFFFFFFFFFFFFFFFFFF AND PUSH20 0xFFFFFFFFFFFFFFFFFFFFFFFFFFFFFFFFFFFFFFFF AND DUP2 MSTORE PUSH1 0x20 ADD SWAP1 DUP2 MSTORE PUSH1 0x20 ADD PUSH1 0x0 KECCAK256 SLOAD GT SWAP1 POP SWAP2 SWAP1 POP JUMP JUMPDEST PUSH1 0x0 DUP1 DUP3 SWAP1 POP PUSH1 0x0 DUP2 MLOAD EQ ISZERO PUSH2 0x212 JUMPI PUSH1 0x0 DUP1 SHL SWAP2 POP POP PUSH2 0x21B JUMP JUMPDEST PUSH1 0x20 DUP4 ADD MLOAD SWAP2 POP POP JUMPDEST SWAP2 SWAP1 POP JUMP JUMPDEST PUSH1 0x0 PUSH2 0x22B CALLER PUSH2 0x444 JUMP JUMPDEST ISZERO PUSH2 0x26B JUMPI PUSH1 0x40 MLOAD PUSH32 0x8C379A000000000000000000000000000000000000000000000000000000000 DUP2 MSTORE PUSH1 0x4 ADD PUSH2 0x262 SWAP1 PUSH2 0xCBC JUMP JUMPDEST PUSH1 0x40 MLOAD DUP1 SWAP2 SUB SWAP1 REVERT JUMPDEST PUSH1 0x0 DUP1 PUSH1 0x0 CALLER PUSH20 0xFFFFFFFFFFFFFFFFFFFFFFFFFFFFFFFFFFFFFFFF AND PUSH20 0xFFFFFFFFFFFFFFFFFFFFFFFFFFFFFFFFFFFFFFFF AND DUP2 MSTORE PUSH1 0x20 ADD SWAP1 DUP2 MSTORE PUSH1 0x20 ADD PUSH1 0x0 KECCAK256 SWAP1 POP DUP3 PUSH1 0x40 MLOAD PUSH1 0x20 ADD PUSH2 0x2BE SWAP2 SWAP1 PUSH2 0xBC3 JUMP JUMPDEST PUSH1 0x40 MLOAD PUSH1 0x20 DUP2 DUP4 SUB SUB DUP2 MSTORE SWAP1 PUSH1 0x40 MSTORE DUP1 MLOAD SWAP1 PUSH1 0x20 ADD KECCAK256 DUP2 PUSH1 0x1 ADD DUP2 SWAP1 SSTORE POP DUP4 DUP2 PUSH1 0x2 ADD SWAP1 DUP1 MLOAD SWAP1 PUSH1 0x20 ADD SWAP1 PUSH2 0x2F4 SWAP3 SWAP2 SWAP1 PUSH2 0x867 JUMP JUMPDEST POP PUSH2 0x2FE CALLER PUSH2 0x4A9 JUMP JUMPDEST DUP4 PUSH2 0x308 TIMESTAMP PUSH2 0x66C JUMP JUMPDEST PUSH1 0x40 MLOAD PUSH1 0x20 ADD PUSH2 0x31A SWAP4 SWAP3 SWAP2 SWAP1 PUSH2 0xBDA JUMP JUMPDEST PUSH1 0x40 MLOAD PUSH1 0x20 DUP2 DUP4 SUB SUB DUP2 MSTORE SWAP1 PUSH1 0x40 MSTORE DUP1 MLOAD SWAP1 PUSH1 0x20 ADD KECCAK256 DUP2 PUSH1 0x0 ADD DUP2 SWAP1 SSTORE POP DUP1 PUSH1 0x0 ADD SLOAD SWAP2 POP POP SWAP3 SWAP2 POP POP JUMP JUMPDEST PUSH2 0x34F DUP3 PUSH2 0x444 JUMP JUMPDEST PUSH2 0x38E JUMPI PUSH1 0x40 MLOAD PUSH32 0x8C379A000000000000000000000000000000000000000000000000000000000 DUP2 MSTORE PUSH1 0x4 ADD PUSH2 0x385 SWAP1 PUSH2 0xC9C JUMP JUMPDEST PUSH1 0x40 MLOAD DUP1 SWAP2 SUB SWAP1 REVERT JUMPDEST DUP1 PUSH1 0x40 MLOAD PUSH1 0x20 ADD PUSH2 0x39F SWAP2 SWAP1 PUSH2 0xBC3 JUMP JUMPDEST PUSH1 0x40 MLOAD PUSH1 0x20 DUP2 DUP4 SUB SUB DUP2 MSTORE SWAP1 PUSH1 0x40 MSTORE DUP1 MLOAD SWAP1 PUSH1 0x20 ADD KECCAK256 PUSH1 0x0 DUP1 DUP5 PUSH20 0xFFFFFFFFFFFFFFFFFFFFFFFFFFFFFFFFFFFFFFFF AND PUSH20 0xFFFFFFFFFFFFFFFFFFFFFFFFFFFFFFFFFFFFFFFF AND DUP2 MSTORE PUSH1 0x20 ADD SWAP1 DUP2 MSTORE PUSH1 0x20 ADD PUSH1 0x0 KECCAK256 PUSH1 0x1 ADD SLOAD EQ PUSH2 0x437 JUMPI PUSH1 0x40 MLOAD PUSH32 0x8C379A000000000000000000000000000000000000000000000000000000000 DUP2 MSTORE PUSH1 0x4 ADD PUSH2 0x42E SWAP1 PUSH2 0xC5C JUMP JUMPDEST PUSH1 0x40 MLOAD DUP1 SWAP2 SUB SWAP1 REVERT JUMPDEST PUSH2 0x440 DUP3 PUSH2 0x7CD JUMP JUMPDEST POP POP JUMP JUMPDEST PUSH1 0x0 PUSH2 0x45E PUSH1 0x40 MLOAD DUP1 PUSH1 0x20 ADD PUSH1 0x40 MSTORE DUP1 PUSH1 0x0 DUP2 MSTORE POP PUSH2 0x1F6 JUMP JUMPDEST PUSH1 0x0 DUP1 DUP5 PUSH20 0xFFFFFFFFFFFFFFFFFFFFFFFFFFFFFFFFFFFFFFFF AND PUSH20 0xFFFFFFFFFFFFFFFFFFFFFFFFFFFFFFFFFFFFFFFF AND DUP2 MSTORE PUSH1 0x20 ADD SWAP1 DUP2 MSTORE PUSH1 0x20 ADD PUSH1 0x0 KECCAK256 PUSH1 0x0 ADD SLOAD EQ ISZERO SWAP1 POP SWAP2 SWAP1 POP JUMP JUMPDEST PUSH1 0x60 PUSH1 0x0 PUSH1 0x28 PUSH8 0xFFFFFFFFFFFFFFFF DUP2 GT ISZERO PUSH2 0x4C8 JUMPI PUSH2 0x4C7 PUSH2 0x131C JUMP JUMPDEST JUMPDEST PUSH1 0x40 MLOAD SWAP1 DUP1 DUP3 MSTORE DUP1 PUSH1 0x1F ADD PUSH1 0x1F NOT AND PUSH1 0x20 ADD DUP3 ADD PUSH1 0x40 MSTORE DUP1 ISZERO PUSH2 0x4FA JUMPI DUP2 PUSH1 0x20 ADD PUSH1 0x1 DUP3 MUL DUP1 CALLDATASIZE DUP4 CALLDATACOPY DUP1 DUP3 ADD SWAP2 POP POP SWAP1 POP JUMPDEST POP SWAP1 POP PUSH1 0x0 JUMPDEST PUSH1 0x14 DUP2 LT ISZERO PUSH2 0x662 JUMPI PUSH1 0x0 DUP2 PUSH1 0x13 PUSH2 0x518 SWAP2 SWAP1 PUSH2 0x104E JUMP JUMPDEST PUSH1 0x8 PUSH2 0x524 SWAP2 SWAP1 PUSH2 0xFB9 JUMP JUMPDEST PUSH1 0x2 PUSH2 0x530 SWAP2 SWAP1 PUSH2 0xE9B JUMP JUMPDEST DUP6 PUSH20 0xFFFFFFFFFFFFFFFFFFFFFFFFFFFFFFFFFFFFFFFF AND PUSH2 0x551 SWAP2 SWAP1 PUSH2 0xDE6 JUMP JUMPDEST PUSH1 0xF8 SHL SWAP1 POP PUSH1 0x0 PUSH1 0x10 DUP3 PUSH1 0xF8 SHR PUSH2 0x568 SWAP2 SWAP1 PUSH2 0xE17 JUMP JUMPDEST PUSH1 0xF8 SHL SWAP1 POP PUSH1 0x0 DUP2 PUSH1 0xF8 SHR PUSH1 0x10 PUSH2 0x57F SWAP2 SWAP1 PUSH2 0x1013 JUMP JUMPDEST DUP4 PUSH1 0xF8 SHR PUSH2 0x58D SWAP2 SWAP1 PUSH2 0x1082 JUMP JUMPDEST PUSH1 0xF8 SHL SWAP1 POP PUSH2 0x59B DUP3 PUSH2 0x821 JUMP JUMPDEST DUP6 DUP6 PUSH1 0x2 PUSH2 0x5A9 SWAP2 SWAP1 PUSH2 0xFB9 JUMP JUMPDEST DUP2 MLOAD DUP2 LT PUSH2 0x5BA JUMPI PUSH2 0x5B9 PUSH2 0x12ED JUMP JUMPDEST JUMPDEST PUSH1 0x20 ADD ADD SWAP1 PUSH31 0xFFFFFFFFFFFFFFFFFFFFFFFFFFFFFFFFFFFFFFFFFFFFFFFFFFFFFFFFFFFFFF NOT AND SWAP1 DUP2 PUSH1 0x0 BYTE SWAP1 MSTORE8 POP PUSH2 0x5F2 DUP2 PUSH2 0x821 JUMP JUMPDEST DUP6 PUSH1 0x1 DUP7 PUSH1 0x2 PUSH2 0x602 SWAP2 SWAP1 PUSH2 0xFB9 JUMP JUMPDEST PUSH2 0x60C SWAP2 SWAP1 PUSH2 0xD59 JUMP JUMPDEST DUP2 MLOAD DUP2 LT PUSH2 0x61D JUMPI PUSH2 0x61C PUSH2 0x12ED JUMP JUMPDEST JUMPDEST PUSH1 0x20 ADD ADD SWAP1 PUSH31 0xFFFFFFFFFFFFFFFFFFFFFFFFFFFFFFFFFFFFFFFFFFFFFFFFFFFFFFFFFFFFFF NOT AND SWAP1 DUP2 PUSH1 0x0 BYTE SWAP1 MSTORE8 POP POP POP POP DUP1 DUP1 PUSH2 0x65A SWAP1 PUSH2 0x11E6 JUMP JUMPDEST SWAP2 POP POP PUSH2 0x500 JUMP JUMPDEST POP DUP1 SWAP2 POP POP SWAP2 SWAP1 POP JUMP JUMPDEST PUSH1 0x60 PUSH1 0x0 DUP3 EQ ISZERO PUSH2 0x6B4 JUMPI PUSH1 0x40 MLOAD DUP1 PUSH1 0x40 ADD PUSH1 0x40 MSTORE DUP1 PUSH1 0x1 DUP2 MSTORE PUSH1 0x20 ADD PUSH32 0x3000000000000000000000000000000000000000000000000000000000000000 DUP2 MSTORE POP SWAP1 POP PUSH2 0x7C8 JUMP JUMPDEST PUSH1 0x0 DUP3 SWAP1 POP PUSH1 0x0 JUMPDEST PUSH1 0x0 DUP3 EQ PUSH2 0x6E6 JUMPI DUP1 DUP1 PUSH2 0x6CF SWAP1 PUSH2 0x11E6 JUMP JUMPDEST SWAP2 POP POP PUSH1 0xA DUP3 PUSH2 0x6DF SWAP2 SWAP1 PUSH2 0xDE6 JUMP JUMPDEST SWAP2 POP PUSH2 0x6BC JUMP JUMPDEST PUSH1 0x0 DUP2 PUSH8 0xFFFFFFFFFFFFFFFF DUP2 GT ISZERO PUSH2 0x702 JUMPI PUSH2 0x701 PUSH2 0x131C JUMP JUMPDEST JUMPDEST PUSH1 0x40 MLOAD SWAP1 DUP1 DUP3 MSTORE DUP1 PUSH1 0x1F ADD PUSH1 0x1F NOT AND PUSH1 0x20 ADD DUP3 ADD PUSH1 0x40 MSTORE DUP1 ISZERO PUSH2 0x734 JUMPI DUP2 PUSH1 0x20 ADD PUSH1 0x1 DUP3 MUL DUP1 CALLDATASIZE DUP4 CALLDATACOPY DUP1 DUP3 ADD SWAP2 POP POP SWAP1 POP JUMPDEST POP SWAP1 POP JUMPDEST PUSH1 0x0 DUP6 EQ PUSH2 0x7C1 JUMPI PUSH1 0x1 DUP3 PUSH2 0x74D SWAP2 SWAP1 PUSH2 0x104E JUMP JUMPDEST SWAP2 POP PUSH1 0xA DUP6 PUSH2 0x75C SWAP2 SWAP1 PUSH2 0x122F JUMP JUMPDEST PUSH1 0x30 PUSH2 0x768 SWAP2 SWAP1 PUSH2 0xD59 JUMP JUMPDEST PUSH1 0xF8 SHL DUP2 DUP4 DUP2 MLOAD DUP2 LT PUSH2 0x77E JUMPI PUSH2 0x77D PUSH2 0x12ED JUMP JUMPDEST JUMPDEST PUSH1 0x20 ADD ADD SWAP1 PUSH31 0xFFFFFFFFFFFFFFFFFFFFFFFFFFFFFFFFFFFFFFFFFFFFFFFFFFFFFFFFFFFFFF NOT AND SWAP1 DUP2 PUSH1 0x0 BYTE SWAP1 MSTORE8 POP PUSH1 0xA DUP6 PUSH2 0x7BA SWAP2 SWAP1 PUSH2 0xDE6 JUMP JUMPDEST SWAP5 POP PUSH2 0x738 JUMP JUMPDEST DUP1 SWAP4 POP POP POP POP JUMPDEST SWAP2 SWAP1 POP JUMP JUMPDEST PUSH2 0x4B0 TIMESTAMP PUSH2 0x7DB SWAP2 SWAP1 PUSH2 0xD59 JUMP JUMPDEST PUSH1 0x1 PUSH1 0x0 DUP4 PUSH20 0xFFFFFFFFFFFFFFFFFFFFFFFFFFFFFFFFFFFFFFFF AND PUSH20 0xFFFFFFFFFFFFFFFFFFFFFFFFFFFFFFFFFFFFFFFF AND DUP2 MSTORE PUSH1 0x20 ADD SWAP1 DUP2 MSTORE PUSH1 0x20 ADD PUSH1 0x0 KECCAK256 DUP2 SWAP1 SSTORE POP POP JUMP JUMPDEST PUSH1 0x0 PUSH1 0xA DUP3 PUSH1 0xF8 SHR PUSH1 0xFF AND LT ISZERO PUSH2 0x84C JUMPI PUSH1 0x30 DUP3 PUSH1 0xF8 SHR PUSH2 0x842 SWAP2 SWAP1 PUSH2 0xDAF JUMP JUMPDEST PUSH1 0xF8 SHL SWAP1 POP PUSH2 0x862 JUMP JUMPDEST PUSH1 0x57 DUP3 PUSH1 0xF8 SHR PUSH2 0x85C SWAP2 SWAP1 PUSH2 0xDAF JUMP JUMPDEST PUSH1 0xF8 SHL SWAP1 POP JUMPDEST SWAP2 SWAP1 POP JUMP JUMPDEST DUP3 DUP1 SLOAD PUSH2 0x873 SWAP1 PUSH2 0x1183 JUMP JUMPDEST SWAP1 PUSH1 0x0 MSTORE PUSH1 0x20 PUSH1 0x0 KECCAK256 SWAP1 PUSH1 0x1F ADD PUSH1 0x20 SWAP1 DIV DUP2 ADD SWAP3 DUP3 PUSH2 0x895 JUMPI PUSH1 0x0 DUP6 SSTORE PUSH2 0x8DC JUMP JUMPDEST DUP3 PUSH1 0x1F LT PUSH2 0x8AE JUMPI DUP1 MLOAD PUSH1 0xFF NOT AND DUP4 DUP1 ADD OR DUP6 SSTORE PUSH2 0x8DC JUMP JUMPDEST DUP3 DUP1 ADD PUSH1 0x1 ADD DUP6 SSTORE DUP3 ISZERO PUSH2 0x8DC JUMPI SWAP2 DUP3 ADD JUMPDEST DUP3 DUP2 GT ISZERO PUSH2 0x8DB JUMPI DUP3 MLOAD DUP3 SSTORE SWAP2 PUSH1 0x20 ADD SWAP2 SWAP1 PUSH1 0x1 ADD SWAP1 PUSH2 0x8C0 JUMP JUMPDEST JUMPDEST POP SWAP1 POP PUSH2 0x8E9 SWAP2 SWAP1 PUSH2 0x8ED JUMP JUMPDEST POP SWAP1 JUMP JUMPDEST JUMPDEST DUP1 DUP3 GT ISZERO PUSH2 0x906 JUMPI PUSH1 0x0 DUP2 PUSH1 0x0 SWAP1 SSTORE POP PUSH1 0x1 ADD PUSH2 0x8EE JUMP JUMPDEST POP SWAP1 JUMP JUMPDEST PUSH1 0x0 PUSH2 0x91D PUSH2 0x918 DUP5 PUSH2 0xD01 JUMP JUMPDEST PUSH2 0xCDC JUMP JUMPDEST SWAP1 POP DUP3 DUP2 MSTORE PUSH1 0x20 DUP2 ADD DUP5 DUP5 DUP5 ADD GT ISZERO PUSH2 0x939 JUMPI PUSH2 0x938 PUSH2 0x1350 JUMP JUMPDEST JUMPDEST PUSH2 0x944 DUP5 DUP3 DUP6 PUSH2 0x1141 JUMP JUMPDEST POP SWAP4 SWAP3 POP POP POP JUMP JUMPDEST PUSH1 0x0 DUP2 CALLDATALOAD SWAP1 POP PUSH2 0x95B DUP2 PUSH2 0x1447 JUMP JUMPDEST SWAP3 SWAP2 POP POP JUMP JUMPDEST PUSH1 0x0 DUP3 PUSH1 0x1F DUP4 ADD SLT PUSH2 0x976 JUMPI PUSH2 0x975 PUSH2 0x134B JUMP JUMPDEST JUMPDEST DUP2 CALLDATALOAD PUSH2 0x986 DUP5 DUP3 PUSH1 0x20 DUP7 ADD PUSH2 0x90A JUMP JUMPDEST SWAP2 POP POP SWAP3 SWAP2 POP POP JUMP JUMPDEST PUSH1 0x0 PUSH1 0x20 DUP3 DUP5 SUB SLT ISZERO PUSH2 0x9A5 JUMPI PUSH2 0x9A4 PUSH2 0x135A JUMP JUMPDEST JUMPDEST PUSH1 0x0 PUSH2 0x9B3 DUP5 DUP3 DUP6 ADD PUSH2 0x94C JUMP JUMPDEST SWAP2 POP POP SWAP3 SWAP2 POP POP JUMP JUMPDEST PUSH1 0x0 DUP1 PUSH1 0x40 DUP4 DUP6 SUB SLT ISZERO PUSH2 0x9D3 JUMPI PUSH2 0x9D2 PUSH2 0x135A JUMP JUMPDEST JUMPDEST PUSH1 0x0 PUSH2 0x9E1 DUP6 DUP3 DUP7 ADD PUSH2 0x94C JUMP JUMPDEST SWAP3 POP POP PUSH1 0x20 DUP4 ADD CALLDATALOAD PUSH8 0xFFFFFFFFFFFFFFFF DUP2 GT ISZERO PUSH2 0xA02 JUMPI PUSH2 0xA01 PUSH2 0x1355 JUMP JUMPDEST JUMPDEST PUSH2 0xA0E DUP6 DUP3 DUP7 ADD PUSH2 0x961 JUMP JUMPDEST SWAP2 POP POP SWAP3 POP SWAP3 SWAP1 POP JUMP JUMPDEST PUSH1 0x0 PUSH1 0x20 DUP3 DUP5 SUB SLT ISZERO PUSH2 0xA2E JUMPI PUSH2 0xA2D PUSH2 0x135A JUMP JUMPDEST JUMPDEST PUSH1 0x0 DUP3 ADD CALLDATALOAD PUSH8 0xFFFFFFFFFFFFFFFF DUP2 GT ISZERO PUSH2 0xA4C JUMPI PUSH2 0xA4B PUSH2 0x1355 JUMP JUMPDEST JUMPDEST PUSH2 0xA58 DUP5 DUP3 DUP6 ADD PUSH2 0x961 JUMP JUMPDEST SWAP2 POP POP SWAP3 SWAP2 POP POP JUMP JUMPDEST PUSH1 0x0 DUP1 PUSH1 0x40 DUP4 DUP6 SUB SLT ISZERO PUSH2 0xA78 JUMPI PUSH2 0xA77 PUSH2 0x135A JUMP JUMPDEST JUMPDEST PUSH1 0x0 DUP4 ADD CALLDATALOAD PUSH8 0xFFFFFFFFFFFFFFFF DUP2 GT ISZERO PUSH2 0xA96 JUMPI PUSH2 0xA95 PUSH2 0x1355 JUMP JUMPDEST JUMPDEST PUSH2 0xAA2 DUP6 DUP3 DUP7 ADD PUSH2 0x961 JUMP JUMPDEST SWAP3 POP POP PUSH1 0x20 DUP4 ADD CALLDATALOAD PUSH8 0xFFFFFFFFFFFFFFFF DUP2 GT ISZERO PUSH2 0xAC3 JUMPI PUSH2 0xAC2 PUSH2 0x1355 JUMP JUMPDEST JUMPDEST PUSH2 0xACF DUP6 DUP3 DUP7 ADD PUSH2 0x961 JUMP JUMPDEST SWAP2 POP POP SWAP3 POP SWAP3 SWAP1 POP JUMP JUMPDEST PUSH2 0xAE2 DUP2 PUSH2 0x10C8 JUMP JUMPDEST DUP3 MSTORE POP POP JUMP JUMPDEST PUSH2 0xAF1 DUP2 PUSH2 0x10D4 JUMP JUMPDEST DUP3 MSTORE POP POP JUMP JUMPDEST PUSH2 0xB00 DUP2 PUSH2 0x1100 JUMP JUMPDEST DUP3 MSTORE POP POP JUMP JUMPDEST PUSH1 0x0 PUSH2 0xB11 DUP3 PUSH2 0xD32 JUMP JUMPDEST PUSH2 0xB1B DUP2 DUP6 PUSH2 0xD4E JUMP JUMPDEST SWAP4 POP PUSH2 0xB2B DUP2 DUP6 PUSH1 0x20 DUP7 ADD PUSH2 0x1150 JUMP JUMPDEST DUP1 DUP5 ADD SWAP2 POP POP SWAP3 SWAP2 POP POP JUMP JUMPDEST PUSH1 0x0 PUSH2 0xB44 PUSH1 0x1B DUP4 PUSH2 0xD3D JUMP JUMPDEST SWAP2 POP PUSH2 0xB4F DUP3 PUSH2 0x137D JUMP JUMPDEST PUSH1 0x20 DUP3 ADD SWAP1 POP SWAP2 SWAP1 POP JUMP JUMPDEST PUSH1 0x0 PUSH2 0xB67 PUSH1 0x20 DUP4 PUSH2 0xD3D JUMP JUMPDEST SWAP2 POP PUSH2 0xB72 DUP3 PUSH2 0x13A6 JUMP JUMPDEST PUSH1 0x20 DUP3 ADD SWAP1 POP SWAP2 SWAP1 POP JUMP JUMPDEST PUSH1 0x0 PUSH2 0xB8A PUSH1 0x1C DUP4 PUSH2 0xD3D JUMP JUMPDEST SWAP2 POP PUSH2 0xB95 DUP3 PUSH2 0x13CF JUMP JUMPDEST PUSH1 0x20 DUP3 ADD SWAP1 POP SWAP2 SWAP1 POP JUMP JUMPDEST PUSH1 0x0 PUSH2 0xBAD PUSH1 0x25 DUP4 PUSH2 0xD3D JUMP JUMPDEST SWAP2 POP PUSH2 0xBB8 DUP3 PUSH2 0x13F8 JUMP JUMPDEST PUSH1 0x40 DUP3 ADD SWAP1 POP SWAP2 SWAP1 POP JUMP JUMPDEST PUSH1 0x0 PUSH2 0xBCF DUP3 DUP5 PUSH2 0xB06 JUMP JUMPDEST SWAP2 POP DUP2 SWAP1 POP SWAP3 SWAP2 POP POP JUMP JUMPDEST PUSH1 0x0 PUSH2 0xBE6 DUP3 DUP7 PUSH2 0xB06 JUMP JUMPDEST SWAP2 POP PUSH2 0xBF2 DUP3 DUP6 PUSH2 0xB06 JUMP JUMPDEST SWAP2 POP PUSH2 0xBFE DUP3 DUP5 PUSH2 0xB06 JUMP JUMPDEST SWAP2 POP DUP2 SWAP1 POP SWAP5 SWAP4 POP POP POP POP JUMP JUMPDEST PUSH1 0x0 PUSH1 0x20 DUP3 ADD SWAP1 POP PUSH2 0xC20 PUSH1 0x0 DUP4 ADD DUP5 PUSH2 0xAD9 JUMP JUMPDEST SWAP3 SWAP2 POP POP JUMP JUMPDEST PUSH1 0x0 PUSH1 0x20 DUP3 ADD SWAP1 POP PUSH2 0xC3B PUSH1 0x0 DUP4 ADD DUP5 PUSH2 0xAE8 JUMP JUMPDEST SWAP3 SWAP2 POP POP JUMP JUMPDEST PUSH1 0x0 PUSH1 0x20 DUP3 ADD SWAP1 POP PUSH2 0xC56 PUSH1 0x0 DUP4 ADD DUP5 PUSH2 0xAF7 JUMP JUMPDEST SWAP3 SWAP2 POP POP JUMP JUMPDEST PUSH1 0x0 PUSH1 0x20 DUP3 ADD SWAP1 POP DUP2 DUP2 SUB PUSH1 0x0 DUP4 ADD MSTORE PUSH2 0xC75 DUP2 PUSH2 0xB37 JUMP JUMPDEST SWAP1 POP SWAP2 SWAP1 POP JUMP JUMPDEST PUSH1 0x0 PUSH1 0x20 DUP3 ADD SWAP1 POP DUP2 DUP2 SUB PUSH1 0x0 DUP4 ADD MSTORE PUSH2 0xC95 DUP2 PUSH2 0xB5A JUMP JUMPDEST SWAP1 POP SWAP2 SWAP1 POP JUMP JUMPDEST PUSH1 0x0 PUSH1 0x20 DUP3 ADD SWAP1 POP DUP2 DUP2 SUB PUSH1 0x0 DUP4 ADD MSTORE PUSH2 0xCB5 DUP2 PUSH2 0xB7D JUMP JUMPDEST SWAP1 POP SWAP2 SWAP1 POP JUMP JUMPDEST PUSH1 0x0 PUSH1 0x20 DUP3 ADD SWAP1 POP DUP2 DUP2 SUB PUSH1 0x0 DUP4 ADD MSTORE PUSH2 0xCD5 DUP2 PUSH2 0xBA0 JUMP JUMPDEST SWAP1 POP SWAP2 SWAP1 POP JUMP JUMPDEST PUSH1 0x0 PUSH2 0xCE6 PUSH2 0xCF7 JUMP JUMPDEST SWAP1 POP PUSH2 0xCF2 DUP3 DUP3 PUSH2 0x11B5 JUMP JUMPDEST SWAP2 SWAP1 POP JUMP JUMPDEST PUSH1 0x0 PUSH1 0x40 MLOAD SWAP1 POP SWAP1 JUMP JUMPDEST PUSH1 0x0 PUSH8 0xFFFFFFFFFFFFFFFF DUP3 GT ISZERO PUSH2 0xD1C JUMPI PUSH2 0xD1B PUSH2 0x131C JUMP JUMPDEST JUMPDEST PUSH2 0xD25 DUP3 PUSH2 0x135F JUMP JUMPDEST SWAP1 POP PUSH1 0x20 DUP2 ADD SWAP1 POP SWAP2 SWAP1 POP JUMP JUMPDEST PUSH1 0x0 DUP2 MLOAD SWAP1 POP SWAP2 SWAP1 POP JUMP JUMPDEST PUSH1 0x0 DUP3 DUP3 MSTORE PUSH1 0x20 DUP3 ADD SWAP1 POP SWAP3 SWAP2 POP POP JUMP JUMPDEST PUSH1 0x0 DUP2 SWAP1 POP SWAP3 SWAP2 POP POP JUMP JUMPDEST PUSH1 0x0 PUSH2 0xD64 DUP3 PUSH2 0x112A JUMP JUMPDEST SWAP2 POP PUSH2 0xD6F DUP4 PUSH2 0x112A JUMP JUMPDEST SWAP3 POP DUP3 PUSH32 0xFFFFFFFFFFFFFFFFFFFFFFFFFFFFFFFFFFFFFFFFFFFFFFFFFFFFFFFFFFFFFFFF SUB DUP3 GT ISZERO PUSH2 0xDA4 JUMPI PUSH2 0xDA3 PUSH2 0x1260 JUMP JUMPDEST JUMPDEST DUP3 DUP3 ADD SWAP1 POP SWAP3 SWAP2 POP POP JUMP JUMPDEST PUSH1 0x0 PUSH2 0xDBA DUP3 PUSH2 0x1134 JUMP JUMPDEST SWAP2 POP PUSH2 0xDC5 DUP4 PUSH2 0x1134 JUMP JUMPDEST SWAP3 POP DUP3 PUSH1 0xFF SUB DUP3 GT ISZERO PUSH2 0xDDB JUMPI PUSH2 0xDDA PUSH2 0x1260 JUMP JUMPDEST JUMPDEST DUP3 DUP3 ADD SWAP1 POP SWAP3 SWAP2 POP POP JUMP JUMPDEST PUSH1 0x0 PUSH2 0xDF1 DUP3 PUSH2 0x112A JUMP JUMPDEST SWAP2 POP PUSH2 0xDFC DUP4 PUSH2 0x112A JUMP JUMPDEST SWAP3 POP DUP3 PUSH2 0xE0C JUMPI PUSH2 0xE0B PUSH2 0x128F JUMP JUMPDEST JUMPDEST DUP3 DUP3 DIV SWAP1 POP SWAP3 SWAP2 POP POP JUMP JUMPDEST PUSH1 0x0 PUSH2 0xE22 DUP3 PUSH2 0x1134 JUMP JUMPDEST SWAP2 POP PUSH2 0xE2D DUP4 PUSH2 0x1134 JUMP JUMPDEST SWAP3 POP DUP3 PUSH2 0xE3D JUMPI PUSH2 0xE3C PUSH2 0x128F JUMP JUMPDEST JUMPDEST DUP3 DUP3 DIV SWAP1 POP SWAP3 SWAP2 POP POP JUMP JUMPDEST PUSH1 0x0 DUP1 DUP3 SWAP2 POP DUP4 SWAP1 POP JUMPDEST PUSH1 0x1 DUP6 GT ISZERO PUSH2 0xE92 JUMPI DUP1 DUP7 DIV DUP2 GT ISZERO PUSH2 0xE6E JUMPI PUSH2 0xE6D PUSH2 0x1260 JUMP JUMPDEST JUMPDEST PUSH1 0x1 DUP6 AND ISZERO PUSH2 0xE7D JUMPI DUP1 DUP3 MUL SWAP2 POP JUMPDEST DUP1 DUP2 MUL SWAP1 POP PUSH2 0xE8B DUP6 PUSH2 0x1370 JUMP JUMPDEST SWAP5 POP PUSH2 0xE52 JUMP JUMPDEST SWAP5 POP SWAP5 SWAP3 POP POP POP JUMP JUMPDEST PUSH1 0x0 PUSH2 0xEA6 DUP3 PUSH2 0x112A JUMP JUMPDEST SWAP2 POP PUSH2 0xEB1 DUP4 PUSH2 0x112A JUMP JUMPDEST SWAP3 POP PUSH2 0xEDE PUSH32 0xFFFFFFFFFFFFFFFFFFFFFFFFFFFFFFFFFFFFFFFFFFFFFFFFFFFFFFFFFFFFFFFF DUP5 DUP5 PUSH2 0xEE6 JUMP JUMPDEST SWAP1 POP SWAP3 SWAP2 POP POP JUMP JUMPDEST PUSH1 0x0 DUP3 PUSH2 0xEF6 JUMPI PUSH1 0x1 SWAP1 POP PUSH2 0xFB2 JUMP JUMPDEST DUP2 PUSH2 0xF04 JUMPI PUSH1 0x0 SWAP1 POP PUSH2 0xFB2 JUMP JUMPDEST DUP2 PUSH1 0x1 DUP2 EQ PUSH2 0xF1A JUMPI PUSH1 0x2 DUP2 EQ PUSH2 0xF24 JUMPI PUSH2 0xF53 JUMP JUMPDEST PUSH1 0x1 SWAP2 POP POP PUSH2 0xFB2 JUMP JUMPDEST PUSH1 0xFF DUP5 GT ISZERO PUSH2 0xF36 JUMPI PUSH2 0xF35 PUSH2 0x1260 JUMP JUMPDEST JUMPDEST DUP4 PUSH1 0x2 EXP SWAP2 POP DUP5 DUP3 GT ISZERO PUSH2 0xF4D JUMPI PUSH2 0xF4C PUSH2 0x1260 JUMP JUMPDEST JUMPDEST POP PUSH2 0xFB2 JUMP JUMPDEST POP PUSH1 0x20 DUP4 LT PUSH2 0x133 DUP4 LT AND PUSH1 0x4E DUP5 LT PUSH1 0xB DUP5 LT AND OR ISZERO PUSH2 0xF88 JUMPI DUP3 DUP3 EXP SWAP1 POP DUP4 DUP2 GT ISZERO PUSH2 0xF83 JUMPI PUSH2 0xF82 PUSH2 0x1260 JUMP JUMPDEST JUMPDEST PUSH2 0xFB2 JUMP JUMPDEST PUSH2 0xF95 DUP5 DUP5 DUP5 PUSH1 0x1 PUSH2 0xE48 JUMP JUMPDEST SWAP3 POP SWAP1 POP DUP2 DUP5 DIV DUP2 GT ISZERO PUSH2 0xFAC JUMPI PUSH2 0xFAB PUSH2 0x1260 JUMP JUMPDEST JUMPDEST DUP2 DUP2 MUL SWAP1 POP JUMPDEST SWAP4 SWAP3 POP POP POP JUMP JUMPDEST PUSH1 0x0 PUSH2 0xFC4 DUP3 PUSH2 0x112A JUMP JUMPDEST SWAP2 POP PUSH2 0xFCF DUP4 PUSH2 0x112A JUMP JUMPDEST SWAP3 POP DUP2 PUSH32 0xFFFFFFFFFFFFFFFFFFFFFFFFFFFFFFFFFFFFFFFFFFFFFFFFFFFFFFFFFFFFFFFF DIV DUP4 GT DUP3 ISZERO ISZERO AND ISZERO PUSH2 0x1008 JUMPI PUSH2 0x1007 PUSH2 0x1260 JUMP JUMPDEST JUMPDEST DUP3 DUP3 MUL SWAP1 POP SWAP3 SWAP2 POP POP JUMP JUMPDEST PUSH1 0x0 PUSH2 0x101E DUP3 PUSH2 0x1134 JUMP JUMPDEST SWAP2 POP PUSH2 0x1029 DUP4 PUSH2 0x1134 JUMP JUMPDEST SWAP3 POP DUP2 PUSH1 0xFF DIV DUP4 GT DUP3 ISZERO ISZERO AND ISZERO PUSH2 0x1043 JUMPI PUSH2 0x1042 PUSH2 0x1260 JUMP JUMPDEST JUMPDEST DUP3 DUP3 MUL SWAP1 POP SWAP3 SWAP2 POP POP JUMP JUMPDEST PUSH1 0x0 PUSH2 0x1059 DUP3 PUSH2 0x112A JUMP JUMPDEST SWAP2 POP PUSH2 0x1064 DUP4 PUSH2 0x112A JUMP JUMPDEST SWAP3 POP DUP3 DUP3 LT ISZERO PUSH2 0x1077 JUMPI PUSH2 0x1076 PUSH2 0x1260 JUMP JUMPDEST JUMPDEST DUP3 DUP3 SUB SWAP1 POP SWAP3 SWAP2 POP POP JUMP JUMPDEST PUSH1 0x0 PUSH2 0x108D DUP3 PUSH2 0x1134 JUMP JUMPDEST SWAP2 POP PUSH2 0x1098 DUP4 PUSH2 0x1134 JUMP JUMPDEST SWAP3 POP DUP3 DUP3 LT ISZERO PUSH2 0x10AB JUMPI PUSH2 0x10AA PUSH2 0x1260 JUMP JUMPDEST JUMPDEST DUP3 DUP3 SUB SWAP1 POP SWAP3 SWAP2 POP POP JUMP JUMPDEST PUSH1 0x0 PUSH2 0x10C1 DUP3 PUSH2 0x110A JUMP JUMPDEST SWAP1 POP SWAP2 SWAP1 POP JUMP JUMPDEST PUSH1 0x0 DUP2 ISZERO ISZERO SWAP1 POP SWAP2 SWAP1 POP JUMP JUMPDEST PUSH1 0x0 PUSH32 0xFFFFFFFFFFFFFFFFFFFFFFFFFFFFFFFF00000000000000000000000000000000 DUP3 AND SWAP1 POP SWAP2 SWAP1 POP JUMP JUMPDEST PUSH1 0x0 DUP2 SWAP1 POP SWAP2 SWAP1 POP JUMP JUMPDEST PUSH1 0x0 PUSH20 0xFFFFFFFFFFFFFFFFFFFFFFFFFFFFFFFFFFFFFFFF DUP3 AND SWAP1 POP SWAP2 SWAP1 POP JUMP JUMPDEST PUSH1 0x0 DUP2 SWAP1 POP SWAP2 SWAP1 POP JUMP JUMPDEST PUSH1 0x0 PUSH1 0xFF DUP3 AND SWAP1 POP SWAP2 SWAP1 POP JUMP JUMPDEST DUP3 DUP2 DUP4 CALLDATACOPY PUSH1 0x0 DUP4 DUP4 ADD MSTORE POP POP POP JUMP JUMPDEST PUSH1 0x0 JUMPDEST DUP4 DUP2 LT ISZERO PUSH2 0x116E JUMPI DUP1 DUP3 ADD MLOAD DUP2 DUP5 ADD MSTORE PUSH1 0x20 DUP2 ADD SWAP1 POP PUSH2 0x1153 JUMP JUMPDEST DUP4 DUP2 GT ISZERO PUSH2 0x117D JUMPI PUSH1 0x0 DUP5 DUP5 ADD MSTORE JUMPDEST POP POP POP POP JUMP JUMPDEST PUSH1 0x0 PUSH1 0x2 DUP3 DIV SWAP1 POP PUSH1 0x1 DUP3 AND DUP1 PUSH2 0x119B JUMPI PUSH1 0x7F DUP3 AND SWAP2 POP JUMPDEST PUSH1 0x20 DUP3 LT DUP2 EQ ISZERO PUSH2 0x11AF JUMPI PUSH2 0x11AE PUSH2 0x12BE JUMP JUMPDEST JUMPDEST POP SWAP2 SWAP1 POP JUMP JUMPDEST PUSH2 0x11BE DUP3 PUSH2 0x135F JUMP JUMPDEST DUP2 ADD DUP2 DUP2 LT PUSH8 0xFFFFFFFFFFFFFFFF DUP3 GT OR ISZERO PUSH2 0x11DD JUMPI PUSH2 0x11DC PUSH2 0x131C JUMP JUMPDEST JUMPDEST DUP1 PUSH1 0x40 MSTORE POP POP POP JUMP JUMPDEST PUSH1 0x0 PUSH2 0x11F1 DUP3 PUSH2 0x112A JUMP JUMPDEST SWAP2 POP PUSH32 0xFFFFFFFFFFFFFFFFFFFFFFFFFFFFFFFFFFFFFFFFFFFFFFFFFFFFFFFFFFFFFFFF DUP3 EQ ISZERO PUSH2 0x1224 JUMPI PUSH2 0x1223 PUSH2 0x1260 JUMP JUMPDEST JUMPDEST PUSH1 0x1 DUP3 ADD SWAP1 POP SWAP2 SWAP1 POP JUMP JUMPDEST PUSH1 0x0 PUSH2 0x123A DUP3 PUSH2 0x112A JUMP JUMPDEST SWAP2 POP PUSH2 0x1245 DUP4 PUSH2 0x112A JUMP JUMPDEST SWAP3 POP DUP3 PUSH2 0x1255 JUMPI PUSH2 0x1254 PUSH2 0x128F JUMP JUMPDEST JUMPDEST DUP3 DUP3 MOD SWAP1 POP SWAP3 SWAP2 POP POP JUMP JUMPDEST PUSH32 0x4E487B7100000000000000000000000000000000000000000000000000000000 PUSH1 0x0 MSTORE PUSH1 0x11 PUSH1 0x4 MSTORE PUSH1 0x24 PUSH1 0x0 REVERT JUMPDEST PUSH32 0x4E487B7100000000000000000000000000000000000000000000000000000000 PUSH1 0x0 MSTORE PUSH1 0x12 PUSH1 0x4 MSTORE PUSH1 0x24 PUSH1 0x0 REVERT JUMPDEST PUSH32 0x4E487B7100000000000000000000000000000000000000000000000000000000 PUSH1 0x0 MSTORE PUSH1 0x22 PUSH1 0x4 MSTORE PUSH1 0x24 PUSH1 0x0 REVERT JUMPDEST PUSH32 0x4E487B7100000000000000000000000000000000000000000000000000000000 PUSH1 0x0 MSTORE PUSH1 0x32 PUSH1 0x4 MSTORE PUSH1 0x24 PUSH1 0x0 REVERT JUMPDEST PUSH32 0x4E487B7100000000000000000000000000000000000000000000000000000000 PUSH1 0x0 MSTORE PUSH1 0x41 PUSH1 0x4 MSTORE PUSH1 0x24 PUSH1 0x0 REVERT JUMPDEST PUSH1 0x0 DUP1 REVERT JUMPDEST PUSH1 0x0 DUP1 REVERT JUMPDEST PUSH1 0x0 DUP1 REVERT JUMPDEST PUSH1 0x0 DUP1 REVERT JUMPDEST PUSH1 0x0 PUSH1 0x1F NOT PUSH1 0x1F DUP4 ADD AND SWAP1 POP SWAP2 SWAP1 POP JUMP JUMPDEST PUSH1 0x0 DUP2 PUSH1 0x1 SHR SWAP1 POP SWAP2 SWAP1 POP JUMP JUMPDEST PUSH32 0x4D6F7420646520706173736520696E636F686572656E74202121210000000000 PUSH1 0x0 DUP3 ADD MSTORE POP JUMP JUMPDEST PUSH32 0x506172746965207072656E616E7465206E6F6E207265636F6E6E756520212121 PUSH1 0x0 DUP3 ADD MSTORE POP JUMP JUMPDEST PUSH32 0x4365742061647265737365206E27657869737465207061732021212100000000 PUSH1 0x0 DUP3 ADD MSTORE POP JUMP JUMPDEST PUSH32 0x436574746520706172746965207072656E616E7465206578697374652064656A PUSH1 0x0 DUP3 ADD MSTORE PUSH32 0x6120212121000000000000000000000000000000000000000000000000000000 PUSH1 0x20 DUP3 ADD MSTORE POP JUMP JUMPDEST PUSH2 0x1450 DUP2 PUSH2 0x10B6 JUMP JUMPDEST DUP2 EQ PUSH2 0x145B JUMPI PUSH1 0x0 DUP1 REVERT JUMPDEST POP JUMP INVALID LOG2 PUSH5 0x6970667358 0x22 SLT KECCAK256 MUL PUSH24 0x8E32F2DDB59920CD939E9993E918AAD6A4005DC43361A167 BLOCKHASH 0xA5 0xC 0x4D 0x1F 0x2E PUSH5 0x736F6C6343 STOP ADDMOD SMOD STOP CALLER "
				},
				"gasEstimates": {
					"creation": {
						"codeDepositCost": "1053600",
						"executionCost": "1094",
						"totalCost": "1054694"
					},
					"external": {
						"add_stack_holder(string,string)": "infinite",
						"authentify(address,string)": "infinite",
						"has_on_time(address)": "5254",
						"toBytes16(string)": "infinite",
						"toBytes32(string)": "infinite"
					},
					"internal": {
						"is_already_exist(address)": "infinite",
						"refresh_session(address)": "infinite"
					}
				},
				"methodIdentifiers": {
					"add_stack_holder(string,string)": "385b81aa",
					"authentify(address,string)": "b10639b8",
					"has_on_time(address)": "1c0f6f2d",
					"toBytes16(string)": "18b624fd",
					"toBytes32(string)": "27df8f2a"
				}
			},
			"storageLayout": {
				"storage": [
					{
						"astId": 54,
						"contract": "contracts/Authentification.sol:Authentification",
						"label": "stack_holder_list",
						"offset": 0,
						"slot": "0",
						"type": "t_mapping(t_address,t_struct(Stack_holder)21_storage)"
					},
					{
						"astId": 58,
						"contract": "contracts/Authentification.sol:Authentification",
						"label": "connection_timeout",
						"offset": 0,
						"slot": "1",
						"type": "t_mapping(t_address,t_uint256)"
					}
				],
				"types": {
					"t_address": {
						"encoding": "inplace",
						"label": "address",
						"numberOfBytes": "20"
					},
					"t_bytes11": {
						"encoding": "inplace",
						"label": "bytes11",
						"numberOfBytes": "11"
					},
					"t_bytes2": {
						"encoding": "inplace",
						"label": "bytes2",
						"numberOfBytes": "2"
					},
					"t_bytes32": {
						"encoding": "inplace",
						"label": "bytes32",
						"numberOfBytes": "32"
					},
					"t_mapping(t_address,t_struct(Stack_holder)21_storage)": {
						"encoding": "mapping",
						"key": "t_address",
						"label": "mapping(address => struct Authentification.Stack_holder)",
						"numberOfBytes": "32",
						"value": "t_struct(Stack_holder)21_storage"
					},
					"t_mapping(t_address,t_uint256)": {
						"encoding": "mapping",
						"key": "t_address",
						"label": "mapping(address => uint256)",
						"numberOfBytes": "32",
						"value": "t_uint256"
					},
					"t_mapping(t_bytes32,t_struct(Section)49_storage)": {
						"encoding": "mapping",
						"key": "t_bytes32",
						"label": "mapping(bytes32 => struct Authentification.Section)",
						"numberOfBytes": "32",
						"value": "t_struct(Section)49_storage"
					},
					"t_string_storage": {
						"encoding": "bytes",
						"label": "string",
						"numberOfBytes": "32"
					},
					"t_struct(Business)33_storage": {
						"encoding": "inplace",
						"label": "struct Authentification.Business",
						"members": [
							{
								"astId": 23,
								"contract": "contracts/Authentification.sol:Authentification",
								"label": "country_code",
								"offset": 0,
								"slot": "0",
								"type": "t_bytes2"
							},
							{
								"astId": 25,
								"contract": "contracts/Authentification.sol:Authentification",
								"label": "business_number",
								"offset": 2,
								"slot": "0",
								"type": "t_bytes11"
							},
							{
								"astId": 27,
								"contract": "contracts/Authentification.sol:Authentification",
								"label": "name",
								"offset": 0,
								"slot": "1",
								"type": "t_string_storage"
							},
							{
								"astId": 29,
								"contract": "contracts/Authentification.sol:Authentification",
								"label": "description",
								"offset": 0,
								"slot": "2",
								"type": "t_string_storage"
							},
							{
								"astId": 32,
								"contract": "contracts/Authentification.sol:Authentification",
								"label": "root_section",
								"offset": 0,
								"slot": "3",
								"type": "t_struct(Section)49_storage"
							}
						],
						"numberOfBytes": "288"
					},
					"t_struct(Section)49_storage": {
						"encoding": "inplace",
						"label": "struct Authentification.Section",
						"members": [
							{
								"astId": 35,
								"contract": "contracts/Authentification.sol:Authentification",
								"label": "id",
								"offset": 0,
								"slot": "0",
								"type": "t_bytes32"
							},
							{
								"astId": 37,
								"contract": "contracts/Authentification.sol:Authentification",
								"label": "over_section",
								"offset": 0,
								"slot": "1",
								"type": "t_bytes32"
							},
							{
								"astId": 39,
								"contract": "contracts/Authentification.sol:Authentification",
								"label": "name",
								"offset": 0,
								"slot": "2",
								"type": "t_string_storage"
							},
							{
								"astId": 41,
								"contract": "contracts/Authentification.sol:Authentification",
								"label": "description",
								"offset": 0,
								"slot": "3",
								"type": "t_string_storage"
							},
							{
								"astId": 43,
								"contract": "contracts/Authentification.sol:Authentification",
								"label": "level",
								"offset": 0,
								"slot": "4",
								"type": "t_uint256"
							},
							{
								"astId": 48,
								"contract": "contracts/Authentification.sol:Authentification",
								"label": "sub_sections",
								"offset": 0,
								"slot": "5",
								"type": "t_mapping(t_bytes32,t_struct(Section)49_storage)"
							}
						],
						"numberOfBytes": "192"
					},
					"t_struct(Stack_holder)21_storage": {
						"encoding": "inplace",
						"label": "struct Authentification.Stack_holder",
						"members": [
							{
								"astId": 6,
								"contract": "contracts/Authentification.sol:Authentification",
								"label": "id",
								"offset": 0,
								"slot": "0",
								"type": "t_bytes32"
							},
							{
								"astId": 8,
								"contract": "contracts/Authentification.sol:Authentification",
								"label": "pass",
								"offset": 0,
								"slot": "1",
								"type": "t_bytes32"
							},
							{
								"astId": 10,
								"contract": "contracts/Authentification.sol:Authentification",
								"label": "email",
								"offset": 0,
								"slot": "2",
								"type": "t_string_storage"
							},
							{
								"astId": 12,
								"contract": "contracts/Authentification.sol:Authentification",
								"label": "s_address",
								"offset": 0,
								"slot": "3",
								"type": "t_address"
							},
							{
								"astId": 15,
								"contract": "contracts/Authentification.sol:Authentification",
								"label": "business",
								"offset": 0,
								"slot": "4",
								"type": "t_struct(Business)33_storage"
							},
							{
								"astId": 20,
								"contract": "contracts/Authentification.sol:Authentification",
								"label": "sub_stack_holder",
								"offset": 0,
								"slot": "13",
								"type": "t_mapping(t_address,t_struct(Stack_holder)21_storage)"
							}
						],
						"numberOfBytes": "448"
					},
					"t_uint256": {
						"encoding": "inplace",
						"label": "uint256",
						"numberOfBytes": "32"
					}
				}
			},
			"userdoc": {
				"kind": "user",
				"methods": {},
				"version": 1
			}
		}
	}
}