{
	"data": {
		"bytecode": {
			"linkReferences": {},
			"object": "608060405234801561001057600080fd5b50611494806100206000396000f3fe608060405234801561001057600080fd5b50600436106100575760003560e01c806318b624fd1461005c5780631c0f6f2d1461008c57806327df8f2a146100bc578063385b81aa146100ec578063b10639b81461011c575b600080fd5b61007660048036038101906100719190610a18565b610138565b6040516100839190610c26565b60405180910390f35b6100a660048036038101906100a1919061098f565b610163565b6040516100b39190610c0b565b60405180910390f35b6100d660048036038101906100d19190610a18565b6101f6565b6040516100e39190610c41565b60405180910390f35b61010660048036038101906101019190610a61565b610220565b6040516101139190610c41565b60405180910390f35b610136600480360381019061013191906109bc565b610346565b005b60008082905060008151141561015557600060801b91505061015e565b60208301519150505b919050565b600061016e82610444565b6101ad576040517f08c379a00000000000000000000000000000000000000000000000000000000081526004016101a490610c7c565b60405180910390fd5b42600160008473ffffffffffffffffffffffffffffffffffffffff1673ffffffffffffffffffffffffffffffffffffffff16815260200190815260200160002054119050919050565b600080829050600081511415610212576000801b91505061021b565b60208301519150505b919050565b600061022b33610444565b1561026b576040517f08c379a000000000000000000000000000000000000000000000000000000000815260040161026290610cbc565b60405180910390fd5b60008060003373ffffffffffffffffffffffffffffffffffffffff1673ffffffffffffffffffffffffffffffffffffffff1681526020019081526020016000209050826040516020016102be9190610bc3565b604051602081830303815290604052805190602001208160010181905550838160020190805190602001906102f4929190610867565b506102fe336104a9565b836103084261066c565b60405160200161031a93929190610bda565b604051602081830303815290604052805190602001208160000181905550806000015491505092915050565b61034f82610444565b61038e576040517f08c379a000000000000000000000000000000000000000000000000000000000815260040161038590610c9c565b60405180910390fd5b8060405160200161039f9190610bc3565b604051602081830303815290604052805190602001206000808473ffffffffffffffffffffffffffffffffffffffff1673ffffffffffffffffffffffffffffffffffffffff1681526020019081526020016000206001015414610437576040517f08c379a000000000000000000000000000000000000000000000000000000000815260040161042e90610c5c565b60405180910390fd5b610440826107cd565b5050565b600061045e604051806020016040528060008152506101f6565b6000808473ffffffffffffffffffffffffffffffffffffffff1673ffffffffffffffffffffffffffffffffffffffff1681526020019081526020016000206000015414159050919050565b60606000602867ffffffffffffffff8111156104c8576104c761131c565b5b6040519080825280601f01601f1916602001820160405280156104fa5781602001600182028036833780820191505090505b50905060005b6014811015610662576000816013610518919061104e565b60086105249190610fb9565b60026105309190610e9b565b8573ffffffffffffffffffffffffffffffffffffffff166105519190610de6565b60f81b9050600060108260f81c6105689190610e17565b60f81b905060008160f81c601061057f9190611013565b8360f81c61058d9190611082565b60f81b905061059b82610821565b858560026105a99190610fb9565b815181106105ba576105b96112ed565b5b60200101907effffffffffffffffffffffffffffffffffffffffffffffffffffffffffffff1916908160001a9053506105f281610821565b8560018660026106029190610fb9565b61060c9190610d59565b8151811061061d5761061c6112ed565b5b60200101907effffffffffffffffffffffffffffffffffffffffffffffffffffffffffffff1916908160001a905350505050808061065a906111e6565b915050610500565b5080915050919050565b606060008214156106b4576040518060400160405280600181526020017f300000000000000000000000000000000000000000000000000000000000000081525090506107c8565b600082905060005b600082146106e65780806106cf906111e6565b915050600a826106df9190610de6565b91506106bc565b60008167ffffffffffffffff8111156107025761070161131c565b5b6040519080825280601f01601f1916602001820160405280156107345781602001600182028036833780820191505090505b5090505b600085146107c15760018261074d919061104e565b9150600a8561075c919061122f565b60306107689190610d59565b60f81b81838151811061077e5761077d6112ed565b5b60200101907effffffffffffffffffffffffffffffffffffffffffffffffffffffffffffff1916908160001a905350600a856107ba9190610de6565b9450610738565b8093505050505b919050565b6104b0426107db9190610d59565b600160008373ffffffffffffffffffffffffffffffffffffffff1673ffffffffffffffffffffffffffffffffffffffff1681526020019081526020016000208190555050565b6000600a8260f81c60ff16101561084c5760308260f81c6108429190610daf565b60f81b9050610862565b60578260f81c61085c9190610daf565b60f81b90505b919050565b82805461087390611183565b90600052602060002090601f01602090048101928261089557600085556108dc565b82601f106108ae57805160ff19168380011785556108dc565b828001600101855582156108dc579182015b828111156108db5782518255916020019190600101906108c0565b5b5090506108e991906108ed565b5090565b5b808211156109065760008160009055506001016108ee565b5090565b600061091d61091884610d01565b610cdc565b90508281526020810184848401111561093957610938611350565b5b610944848285611141565b509392505050565b60008135905061095b81611447565b92915050565b600082601f8301126109765761097561134b565b5b813561098684826020860161090a565b91505092915050565b6000602082840312156109a5576109a461135a565b5b60006109b38482850161094c565b91505092915050565b600080604083850312156109d3576109d261135a565b5b60006109e18582860161094c565b925050602083013567ffffffffffffffff811115610a0257610a01611355565b5b610a0e85828601610961565b9150509250929050565b600060208284031215610a2e57610a2d61135a565b5b600082013567ffffffffffffffff811115610a4c57610a4b611355565b5b610a5884828501610961565b91505092915050565b60008060408385031215610a7857610a7761135a565b5b600083013567ffffffffffffffff811115610a9657610a95611355565b5b610aa285828601610961565b925050602083013567ffffffffffffffff811115610ac357610ac2611355565b5b610acf85828601610961565b9150509250929050565b610ae2816110c8565b82525050565b610af1816110d4565b82525050565b610b0081611100565b82525050565b6000610b1182610d32565b610b1b8185610d4e565b9350610b2b818560208601611150565b80840191505092915050565b6000610b44601b83610d3d565b9150610b4f8261137d565b602082019050919050565b6000610b67602083610d3d565b9150610b72826113a6565b602082019050919050565b6000610b8a601c83610d3d565b9150610b95826113cf565b602082019050919050565b6000610bad602583610d3d565b9150610bb8826113f8565b604082019050919050565b6000610bcf8284610b06565b915081905092915050565b6000610be68286610b06565b9150610bf28285610b06565b9150610bfe8284610b06565b9150819050949350505050565b6000602082019050610c206000830184610ad9565b92915050565b6000602082019050610c3b6000830184610ae8565b92915050565b6000602082019050610c566000830184610af7565b92915050565b60006020820190508181036000830152610c7581610b37565b9050919050565b60006020820190508181036000830152610c9581610b5a565b9050919050565b60006020820190508181036000830152610cb581610b7d565b9050919050565b60006020820190508181036000830152610cd581610ba0565b9050919050565b6000610ce6610cf7565b9050610cf282826111b5565b919050565b6000604051905090565b600067ffffffffffffffff821115610d1c57610d1b61131c565b5b610d258261135f565b9050602081019050919050565b600081519050919050565b600082825260208201905092915050565b600081905092915050565b6000610d648261112a565b9150610d6f8361112a565b9250827fffffffffffffffffffffffffffffffffffffffffffffffffffffffffffffffff03821115610da457610da3611260565b5b828201905092915050565b6000610dba82611134565b9150610dc583611134565b92508260ff03821115610ddb57610dda611260565b5b828201905092915050565b6000610df18261112a565b9150610dfc8361112a565b925082610e0c57610e0b61128f565b5b828204905092915050565b6000610e2282611134565b9150610e2d83611134565b925082610e3d57610e3c61128f565b5b828204905092915050565b6000808291508390505b6001851115610e9257808604811115610e6e57610e6d611260565b5b6001851615610e7d5780820291505b8081029050610e8b85611370565b9450610e52565b94509492505050565b6000610ea68261112a565b9150610eb18361112a565b9250610ede7fffffffffffffffffffffffffffffffffffffffffffffffffffffffffffffffff8484610ee6565b905092915050565b600082610ef65760019050610fb2565b81610f045760009050610fb2565b8160018114610f1a5760028114610f2457610f53565b6001915050610fb2565b60ff841115610f3657610f35611260565b5b8360020a915084821115610f4d57610f4c611260565b5b50610fb2565b5060208310610133831016604e8410600b8410161715610f885782820a905083811115610f8357610f82611260565b5b610fb2565b610f958484846001610e48565b92509050818404811115610fac57610fab611260565b5b81810290505b9392505050565b6000610fc48261112a565b9150610fcf8361112a565b9250817fffffffffffffffffffffffffffffffffffffffffffffffffffffffffffffffff048311821515161561100857611007611260565b5b828202905092915050565b600061101e82611134565b915061102983611134565b92508160ff048311821515161561104357611042611260565b5b828202905092915050565b60006110598261112a565b91506110648361112a565b92508282101561107757611076611260565b5b828203905092915050565b600061108d82611134565b915061109883611134565b9250828210156110ab576110aa611260565b5b828203905092915050565b60006110c18261110a565b9050919050565b60008115159050919050565b60007fffffffffffffffffffffffffffffffff0000000000000000000000000000000082169050919050565b6000819050919050565b600073ffffffffffffffffffffffffffffffffffffffff82169050919050565b6000819050919050565b600060ff82169050919050565b82818337600083830152505050565b60005b8381101561116e578082015181840152602081019050611153565b8381111561117d576000848401525b50505050565b6000600282049050600182168061119b57607f821691505b602082108114156111af576111ae6112be565b5b50919050565b6111be8261135f565b810181811067ffffffffffffffff821117156111dd576111dc61131c565b5b80604052505050565b60006111f18261112a565b91507fffffffffffffffffffffffffffffffffffffffffffffffffffffffffffffffff82141561122457611223611260565b5b600182019050919050565b600061123a8261112a565b91506112458361112a565b9250826112555761125461128f565b5b828206905092915050565b7f4e487b7100000000000000000000000000000000000000000000000000000000600052601160045260246000fd5b7f4e487b7100000000000000000000000000000000000000000000000000000000600052601260045260246000fd5b7f4e487b7100000000000000000000000000000000000000000000000000000000600052602260045260246000fd5b7f4e487b7100000000000000000000000000000000000000000000000000000000600052603260045260246000fd5b7f4e487b7100000000000000000000000000000000000000000000000000000000600052604160045260246000fd5b600080fd5b600080fd5b600080fd5b600080fd5b6000601f19601f8301169050919050565b60008160011c9050919050565b7f4d6f7420646520706173736520696e636f686572656e74202121210000000000600082015250565b7f506172746965207072656e616e7465206e6f6e207265636f6e6e756520212121600082015250565b7f4365742061647265737365206e27657869737465207061732021212100000000600082015250565b7f436574746520706172746965207072656e616e7465206578697374652064656a60008201527f6120212121000000000000000000000000000000000000000000000000000000602082015250565b611450816110b6565b811461145b57600080fd5b5056fea264697066735822122002778e32f2ddb59920cd939e9993e918aad6a4005dc43361a16740a50c4d1f2e64736f6c63430008070033",
			"opcodes": "PUSH1 0x80 PUSH1 0x40 MSTORE CALLVALUE DUP1 ISZERO PUSH2 0x10 JUMPI PUSH1 0x0 DUP1 REVERT JUMPDEST POP PUSH2 0x1494 DUP1 PUSH2 0x20 PUSH1 0x0 CODECOPY PUSH1 0x0 RETURN INVALID PUSH1 0x80 PUSH1 0x40 MSTORE CALLVALUE DUP1 ISZERO PUSH2 0x10 JUMPI PUSH1 0x0 DUP1 REVERT JUMPDEST POP PUSH1 0x4 CALLDATASIZE LT PUSH2 0x57 JUMPI PUSH1 0x0 CALLDATALOAD PUSH1 0xE0 SHR DUP1 PUSH4 0x18B624FD EQ PUSH2 0x5C JUMPI DUP1 PUSH4 0x1C0F6F2D EQ PUSH2 0x8C JUMPI DUP1 PUSH4 0x27DF8F2A EQ PUSH2 0xBC JUMPI DUP1 PUSH4 0x385B81AA EQ PUSH2 0xEC JUMPI DUP1 PUSH4 0xB10639B8 EQ PUSH2 0x11C JUMPI JUMPDEST PUSH1 0x0 DUP1 REVERT JUMPDEST PUSH2 0x76 PUSH1 0x4 DUP1 CALLDATASIZE SUB DUP2 ADD SWAP1 PUSH2 0x71 SWAP2 SWAP1 PUSH2 0xA18 JUMP JUMPDEST PUSH2 0x138 JUMP JUMPDEST PUSH1 0x40 MLOAD PUSH2 0x83 SWAP2 SWAP1 PUSH2 0xC26 JUMP JUMPDEST PUSH1 0x40 MLOAD DUP1 SWAP2 SUB SWAP1 RETURN JUMPDEST PUSH2 0xA6 PUSH1 0x4 DUP1 CALLDATASIZE SUB DUP2 ADD SWAP1 PUSH2 0xA1 SWAP2 SWAP1 PUSH2 0x98F JUMP JUMPDEST PUSH2 0x163 JUMP JUMPDEST PUSH1 0x40 MLOAD PUSH2 0xB3 SWAP2 SWAP1 PUSH2 0xC0B JUMP JUMPDEST PUSH1 0x40 MLOAD DUP1 SWAP2 SUB SWAP1 RETURN JUMPDEST PUSH2 0xD6 PUSH1 0x4 DUP1 CALLDATASIZE SUB DUP2 ADD SWAP1 PUSH2 0xD1 SWAP2 SWAP1 PUSH2 0xA18 JUMP JUMPDEST PUSH2 0x1F6 JUMP JUMPDEST PUSH1 0x40 MLOAD PUSH2 0xE3 SWAP2 SWAP1 PUSH2 0xC41 JUMP JUMPDEST PUSH1 0x40 MLOAD DUP1 SWAP2 SUB SWAP1 RETURN JUMPDEST PUSH2 0x106 PUSH1 0x4 DUP1 CALLDATASIZE SUB DUP2 ADD SWAP1 PUSH2 0x101 SWAP2 SWAP1 PUSH2 0xA61 JUMP JUMPDEST PUSH2 0x220 JUMP JUMPDEST PUSH1 0x40 MLOAD PUSH2 0x113 SWAP2 SWAP1 PUSH2 0xC41 JUMP JUMPDEST PUSH1 0x40 MLOAD DUP1 SWAP2 SUB SWAP1 RETURN JUMPDEST PUSH2 0x136 PUSH1 0x4 DUP1 CALLDATASIZE SUB DUP2 ADD SWAP1 PUSH2 0x131 SWAP2 SWAP1 PUSH2 0x9BC JUMP JUMPDEST PUSH2 0x346 JUMP JUMPDEST STOP JUMPDEST PUSH1 0x0 DUP1 DUP3 SWAP1 POP PUSH1 0x0 DUP2 MLOAD EQ ISZERO PUSH2 0x155 JUMPI PUSH1 0x0 PUSH1 0x80 SHL SWAP2 POP POP PUSH2 0x15E JUMP JUMPDEST PUSH1 0x20 DUP4 ADD MLOAD SWAP2 POP POP JUMPDEST SWAP2 SWAP1 POP JUMP JUMPDEST PUSH1 0x0 PUSH2 0x16E DUP3 PUSH2 0x444 JUMP JUMPDEST PUSH2 0x1AD JUMPI PUSH1 0x40 MLOAD PUSH32 0x8C379A000000000000000000000000000000000000000000000000000000000 DUP2 MSTORE PUSH1 0x4 ADD PUSH2 0x1A4 SWAP1 PUSH2 0xC7C JUMP JUMPDEST PUSH1 0x40 MLOAD DUP1 SWAP2 SUB SWAP1 REVERT JUMPDEST TIMESTAMP PUSH1 0x1 PUSH1 0x0 DUP5 PUSH20 0xFFFFFFFFFFFFFFFFFFFFFFFFFFFFFFFFFFFFFFFF AND PUSH20 0xFFFFFFFFFFFFFFFFFFFFFFFFFFFFFFFFFFFFFFFF AND DUP2 MSTORE PUSH1 0x20 ADD SWAP1 DUP2 MSTORE PUSH1 0x20 ADD PUSH1 0x0 KECCAK256 SLOAD GT SWAP1 POP SWAP2 SWAP1 POP JUMP JUMPDEST PUSH1 0x0 DUP1 DUP3 SWAP1 POP PUSH1 0x0 DUP2 MLOAD EQ ISZERO PUSH2 0x212 JUMPI PUSH1 0x0 DUP1 SHL SWAP2 POP POP PUSH2 0x21B JUMP JUMPDEST PUSH1 0x20 DUP4 ADD MLOAD SWAP2 POP POP JUMPDEST SWAP2 SWAP1 POP JUMP JUMPDEST PUSH1 0x0 PUSH2 0x22B CALLER PUSH2 0x444 JUMP JUMPDEST ISZERO PUSH2 0x26B JUMPI PUSH1 0x40 MLOAD PUSH32 0x8C379A000000000000000000000000000000000000000000000000000000000 DUP2 MSTORE PUSH1 0x4 ADD PUSH2 0x262 SWAP1 PUSH2 0xCBC JUMP JUMPDEST PUSH1 0x40 MLOAD DUP1 SWAP2 SUB SWAP1 REVERT JUMPDEST PUSH1 0x0 DUP1 PUSH1 0x0 CALLER PUSH20 0xFFFFFFFFFFFFFFFFFFFFFFFFFFFFFFFFFFFFFFFF AND PUSH20 0xFFFFFFFFFFFFFFFFFFFFFFFFFFFFFFFFFFFFFFFF AND DUP2 MSTORE PUSH1 0x20 ADD SWAP1 DUP2 MSTORE PUSH1 0x20 ADD PUSH1 0x0 KECCAK256 SWAP1 POP DUP3 PUSH1 0x40 MLOAD PUSH1 0x20 ADD PUSH2 0x2BE SWAP2 SWAP1 PUSH2 0xBC3 JUMP JUMPDEST PUSH1 0x40 MLOAD PUSH1 0x20 DUP2 DUP4 SUB SUB DUP2 MSTORE SWAP1 PUSH1 0x40 MSTORE DUP1 MLOAD SWAP1 PUSH1 0x20 ADD KECCAK256 DUP2 PUSH1 0x1 ADD DUP2 SWAP1 SSTORE POP DUP4 DUP2 PUSH1 0x2 ADD SWAP1 DUP1 MLOAD SWAP1 PUSH1 0x20 ADD SWAP1 PUSH2 0x2F4 SWAP3 SWAP2 SWAP1 PUSH2 0x867 JUMP JUMPDEST POP PUSH2 0x2FE CALLER PUSH2 0x4A9 JUMP JUMPDEST DUP4 PUSH2 0x308 TIMESTAMP PUSH2 0x66C JUMP JUMPDEST PUSH1 0x40 MLOAD PUSH1 0x20 ADD PUSH2 0x31A SWAP4 SWAP3 SWAP2 SWAP1 PUSH2 0xBDA JUMP JUMPDEST PUSH1 0x40 MLOAD PUSH1 0x20 DUP2 DUP4 SUB SUB DUP2 MSTORE SWAP1 PUSH1 0x40 MSTORE DUP1 MLOAD SWAP1 PUSH1 0x20 ADD KECCAK256 DUP2 PUSH1 0x0 ADD DUP2 SWAP1 SSTORE POP DUP1 PUSH1 0x0 ADD SLOAD SWAP2 POP POP SWAP3 SWAP2 POP POP JUMP JUMPDEST PUSH2 0x34F DUP3 PUSH2 0x444 JUMP JUMPDEST PUSH2 0x38E JUMPI PUSH1 0x40 MLOAD PUSH32 0x8C379A000000000000000000000000000000000000000000000000000000000 DUP2 MSTORE PUSH1 0x4 ADD PUSH2 0x385 SWAP1 PUSH2 0xC9C JUMP JUMPDEST PUSH1 0x40 MLOAD DUP1 SWAP2 SUB SWAP1 REVERT JUMPDEST DUP1 PUSH1 0x40 MLOAD PUSH1 0x20 ADD PUSH2 0x39F SWAP2 SWAP1 PUSH2 0xBC3 JUMP JUMPDEST PUSH1 0x40 MLOAD PUSH1 0x20 DUP2 DUP4 SUB SUB DUP2 MSTORE SWAP1 PUSH1 0x40 MSTORE DUP1 MLOAD SWAP1 PUSH1 0x20 ADD KECCAK256 PUSH1 0x0 DUP1 DUP5 PUSH20 0xFFFFFFFFFFFFFFFFFFFFFFFFFFFFFFFFFFFFFFFF AND PUSH20 0xFFFFFFFFFFFFFFFFFFFFFFFFFFFFFFFFFFFFFFFF AND DUP2 MSTORE PUSH1 0x20 ADD SWAP1 DUP2 MSTORE PUSH1 0x20 ADD PUSH1 0x0 KECCAK256 PUSH1 0x1 ADD SLOAD EQ PUSH2 0x437 JUMPI PUSH1 0x40 MLOAD PUSH32 0x8C379A000000000000000000000000000000000000000000000000000000000 DUP2 MSTORE PUSH1 0x4 ADD PUSH2 0x42E SWAP1 PUSH2 0xC5C JUMP JUMPDEST PUSH1 0x40 MLOAD DUP1 SWAP2 SUB SWAP1 REVERT JUMPDEST PUSH2 0x440 DUP3 PUSH2 0x7CD JUMP JUMPDEST POP POP JUMP JUMPDEST PUSH1 0x0 PUSH2 0x45E PUSH1 0x40 MLOAD DUP1 PUSH1 0x20 ADD PUSH1 0x40 MSTORE DUP1 PUSH1 0x0 DUP2 MSTORE POP PUSH2 0x1F6 JUMP JUMPDEST PUSH1 0x0 DUP1 DUP5 PUSH20 0xFFFFFFFFFFFFFFFFFFFFFFFFFFFFFFFFFFFFFFFF AND PUSH20 0xFFFFFFFFFFFFFFFFFFFFFFFFFFFFFFFFFFFFFFFF AND DUP2 MSTORE PUSH1 0x20 ADD SWAP1 DUP2 MSTORE PUSH1 0x20 ADD PUSH1 0x0 KECCAK256 PUSH1 0x0 ADD SLOAD EQ ISZERO SWAP1 POP SWAP2 SWAP1 POP JUMP JUMPDEST PUSH1 0x60 PUSH1 0x0 PUSH1 0x28 PUSH8 0xFFFFFFFFFFFFFFFF DUP2 GT ISZERO PUSH2 0x4C8 JUMPI PUSH2 0x4C7 PUSH2 0x131C JUMP JUMPDEST JUMPDEST PUSH1 0x40 MLOAD SWAP1 DUP1 DUP3 MSTORE DUP1 PUSH1 0x1F ADD PUSH1 0x1F NOT AND PUSH1 0x20 ADD DUP3 ADD PUSH1 0x40 MSTORE DUP1 ISZERO PUSH2 0x4FA JUMPI DUP2 PUSH1 0x20 ADD PUSH1 0x1 DUP3 MUL DUP1 CALLDATASIZE DUP4 CALLDATACOPY DUP1 DUP3 ADD SWAP2 POP POP SWAP1 POP JUMPDEST POP SWAP1 POP PUSH1 0x0 JUMPDEST PUSH1 0x14 DUP2 LT ISZERO PUSH2 0x662 JUMPI PUSH1 0x0 DUP2 PUSH1 0x13 PUSH2 0x518 SWAP2 SWAP1 PUSH2 0x104E JUMP JUMPDEST PUSH1 0x8 PUSH2 0x524 SWAP2 SWAP1 PUSH2 0xFB9 JUMP JUMPDEST PUSH1 0x2 PUSH2 0x530 SWAP2 SWAP1 PUSH2 0xE9B JUMP JUMPDEST DUP6 PUSH20 0xFFFFFFFFFFFFFFFFFFFFFFFFFFFFFFFFFFFFFFFF AND PUSH2 0x551 SWAP2 SWAP1 PUSH2 0xDE6 JUMP JUMPDEST PUSH1 0xF8 SHL SWAP1 POP PUSH1 0x0 PUSH1 0x10 DUP3 PUSH1 0xF8 SHR PUSH2 0x568 SWAP2 SWAP1 PUSH2 0xE17 JUMP JUMPDEST PUSH1 0xF8 SHL SWAP1 POP PUSH1 0x0 DUP2 PUSH1 0xF8 SHR PUSH1 0x10 PUSH2 0x57F SWAP2 SWAP1 PUSH2 0x1013 JUMP JUMPDEST DUP4 PUSH1 0xF8 SHR PUSH2 0x58D SWAP2 SWAP1 PUSH2 0x1082 JUMP JUMPDEST PUSH1 0xF8 SHL SWAP1 POP PUSH2 0x59B DUP3 PUSH2 0x821 JUMP JUMPDEST DUP6 DUP6 PUSH1 0x2 PUSH2 0x5A9 SWAP2 SWAP1 PUSH2 0xFB9 JUMP JUMPDEST DUP2 MLOAD DUP2 LT PUSH2 0x5BA JUMPI PUSH2 0x5B9 PUSH2 0x12ED JUMP JUMPDEST JUMPDEST PUSH1 0x20 ADD ADD SWAP1 PUSH31 0xFFFFFFFFFFFFFFFFFFFFFFFFFFFFFFFFFFFFFFFFFFFFFFFFFFFFFFFFFFFFFF NOT AND SWAP1 DUP2 PUSH1 0x0 BYTE SWAP1 MSTORE8 POP PUSH2 0x5F2 DUP2 PUSH2 0x821 JUMP JUMPDEST DUP6 PUSH1 0x1 DUP7 PUSH1 0x2 PUSH2 0x602 SWAP2 SWAP1 PUSH2 0xFB9 JUMP JUMPDEST PUSH2 0x60C SWAP2 SWAP1 PUSH2 0xD59 JUMP JUMPDEST DUP2 MLOAD DUP2 LT PUSH2 0x61D JUMPI PUSH2 0x61C PUSH2 0x12ED JUMP JUMPDEST JUMPDEST PUSH1 0x20 ADD ADD SWAP1 PUSH31 0xFFFFFFFFFFFFFFFFFFFFFFFFFFFFFFFFFFFFFFFFFFFFFFFFFFFFFFFFFFFFFF NOT AND SWAP1 DUP2 PUSH1 0x0 BYTE SWAP1 MSTORE8 POP POP POP POP DUP1 DUP1 PUSH2 0x65A SWAP1 PUSH2 0x11E6 JUMP JUMPDEST SWAP2 POP POP PUSH2 0x500 JUMP JUMPDEST POP DUP1 SWAP2 POP POP SWAP2 SWAP1 POP JUMP JUMPDEST PUSH1 0x60 PUSH1 0x0 DUP3 EQ ISZERO PUSH2 0x6B4 JUMPI PUSH1 0x40 MLOAD DUP1 PUSH1 0x40 ADD PUSH1 0x40 MSTORE DUP1 PUSH1 0x1 DUP2 MSTORE PUSH1 0x20 ADD PUSH32 0x3000000000000000000000000000000000000000000000000000000000000000 DUP2 MSTORE POP SWAP1 POP PUSH2 0x7C8 JUMP JUMPDEST PUSH1 0x0 DUP3 SWAP1 POP PUSH1 0x0 JUMPDEST PUSH1 0x0 DUP3 EQ PUSH2 0x6E6 JUMPI DUP1 DUP1 PUSH2 0x6CF SWAP1 PUSH2 0x11E6 JUMP JUMPDEST SWAP2 POP POP PUSH1 0xA DUP3 PUSH2 0x6DF SWAP2 SWAP1 PUSH2 0xDE6 JUMP JUMPDEST SWAP2 POP PUSH2 0x6BC JUMP JUMPDEST PUSH1 0x0 DUP2 PUSH8 0xFFFFFFFFFFFFFFFF DUP2 GT ISZERO PUSH2 0x702 JUMPI PUSH2 0x701 PUSH2 0x131C JUMP JUMPDEST JUMPDEST PUSH1 0x40 MLOAD SWAP1 DUP1 DUP3 MSTORE DUP1 PUSH1 0x1F ADD PUSH1 0x1F NOT AND PUSH1 0x20 ADD DUP3 ADD PUSH1 0x40 MSTORE DUP1 ISZERO PUSH2 0x734 JUMPI DUP2 PUSH1 0x20 ADD PUSH1 0x1 DUP3 MUL DUP1 CALLDATASIZE DUP4 CALLDATACOPY DUP1 DUP3 ADD SWAP2 POP POP SWAP1 POP JUMPDEST POP SWAP1 POP JUMPDEST PUSH1 0x0 DUP6 EQ PUSH2 0x7C1 JUMPI PUSH1 0x1 DUP3 PUSH2 0x74D SWAP2 SWAP1 PUSH2 0x104E JUMP JUMPDEST SWAP2 POP PUSH1 0xA DUP6 PUSH2 0x75C SWAP2 SWAP1 PUSH2 0x122F JUMP JUMPDEST PUSH1 0x30 PUSH2 0x768 SWAP2 SWAP1 PUSH2 0xD59 JUMP JUMPDEST PUSH1 0xF8 SHL DUP2 DUP4 DUP2 MLOAD DUP2 LT PUSH2 0x77E JUMPI PUSH2 0x77D PUSH2 0x12ED JUMP JUMPDEST JUMPDEST PUSH1 0x20 ADD ADD SWAP1 PUSH31 0xFFFFFFFFFFFFFFFFFFFFFFFFFFFFFFFFFFFFFFFFFFFFFFFFFFFFFFFFFFFFFF NOT AND SWAP1 DUP2 PUSH1 0x0 BYTE SWAP1 MSTORE8 POP PUSH1 0xA DUP6 PUSH2 0x7BA SWAP2 SWAP1 PUSH2 0xDE6 JUMP JUMPDEST SWAP5 POP PUSH2 0x738 JUMP JUMPDEST DUP1 SWAP4 POP POP POP POP JUMPDEST SWAP2 SWAP1 POP JUMP JUMPDEST PUSH2 0x4B0 TIMESTAMP PUSH2 0x7DB SWAP2 SWAP1 PUSH2 0xD59 JUMP JUMPDEST PUSH1 0x1 PUSH1 0x0 DUP4 PUSH20 0xFFFFFFFFFFFFFFFFFFFFFFFFFFFFFFFFFFFFFFFF AND PUSH20 0xFFFFFFFFFFFFFFFFFFFFFFFFFFFFFFFFFFFFFFFF AND DUP2 MSTORE PUSH1 0x20 ADD SWAP1 DUP2 MSTORE PUSH1 0x20 ADD PUSH1 0x0 KECCAK256 DUP2 SWAP1 SSTORE POP POP JUMP JUMPDEST PUSH1 0x0 PUSH1 0xA DUP3 PUSH1 0xF8 SHR PUSH1 0xFF AND LT ISZERO PUSH2 0x84C JUMPI PUSH1 0x30 DUP3 PUSH1 0xF8 SHR PUSH2 0x842 SWAP2 SWAP1 PUSH2 0xDAF JUMP JUMPDEST PUSH1 0xF8 SHL SWAP1 POP PUSH2 0x862 JUMP JUMPDEST PUSH1 0x57 DUP3 PUSH1 0xF8 SHR PUSH2 0x85C SWAP2 SWAP1 PUSH2 0xDAF JUMP JUMPDEST PUSH1 0xF8 SHL SWAP1 POP JUMPDEST SWAP2 SWAP1 POP JUMP JUMPDEST DUP3 DUP1 SLOAD PUSH2 0x873 SWAP1 PUSH2 0x1183 JUMP JUMPDEST SWAP1 PUSH1 0x0 MSTORE PUSH1 0x20 PUSH1 0x0 KECCAK256 SWAP1 PUSH1 0x1F ADD PUSH1 0x20 SWAP1 DIV DUP2 ADD SWAP3 DUP3 PUSH2 0x895 JUMPI PUSH1 0x0 DUP6 SSTORE PUSH2 0x8DC JUMP JUMPDEST DUP3 PUSH1 0x1F LT PUSH2 0x8AE JUMPI DUP1 MLOAD PUSH1 0xFF NOT AND DUP4 DUP1 ADD OR DUP6 SSTORE PUSH2 0x8DC JUMP JUMPDEST DUP3 DUP1 ADD PUSH1 0x1 ADD DUP6 SSTORE DUP3 ISZERO PUSH2 0x8DC JUMPI SWAP2 DUP3 ADD JUMPDEST DUP3 DUP2 GT ISZERO PUSH2 0x8DB JUMPI DUP3 MLOAD DUP3 SSTORE SWAP2 PUSH1 0x20 ADD SWAP2 SWAP1 PUSH1 0x1 ADD SWAP1 PUSH2 0x8C0 JUMP JUMPDEST JUMPDEST POP SWAP1 POP PUSH2 0x8E9 SWAP2 SWAP1 PUSH2 0x8ED JUMP JUMPDEST POP SWAP1 JUMP JUMPDEST JUMPDEST DUP1 DUP3 GT ISZERO PUSH2 0x906 JUMPI PUSH1 0x0 DUP2 PUSH1 0x0 SWAP1 SSTORE POP PUSH1 0x1 ADD PUSH2 0x8EE JUMP JUMPDEST POP SWAP1 JUMP JUMPDEST PUSH1 0x0 PUSH2 0x91D PUSH2 0x918 DUP5 PUSH2 0xD01 JUMP JUMPDEST PUSH2 0xCDC JUMP JUMPDEST SWAP1 POP DUP3 DUP2 MSTORE PUSH1 0x20 DUP2 ADD DUP5 DUP5 DUP5 ADD GT ISZERO PUSH2 0x939 JUMPI PUSH2 0x938 PUSH2 0x1350 JUMP JUMPDEST JUMPDEST PUSH2 0x944 DUP5 DUP3 DUP6 PUSH2 0x1141 JUMP JUMPDEST POP SWAP4 SWAP3 POP POP POP JUMP JUMPDEST PUSH1 0x0 DUP2 CALLDATALOAD SWAP1 POP PUSH2 0x95B DUP2 PUSH2 0x1447 JUMP JUMPDEST SWAP3 SWAP2 POP POP JUMP JUMPDEST PUSH1 0x0 DUP3 PUSH1 0x1F DUP4 ADD SLT PUSH2 0x976 JUMPI PUSH2 0x975 PUSH2 0x134B JUMP JUMPDEST JUMPDEST DUP2 CALLDATALOAD PUSH2 0x986 DUP5 DUP3 PUSH1 0x20 DUP7 ADD PUSH2 0x90A JUMP JUMPDEST SWAP2 POP POP SWAP3 SWAP2 POP POP JUMP JUMPDEST PUSH1 0x0 PUSH1 0x20 DUP3 DUP5 SUB SLT ISZERO PUSH2 0x9A5 JUMPI PUSH2 0x9A4 PUSH2 0x135A JUMP JUMPDEST JUMPDEST PUSH1 0x0 PUSH2 0x9B3 DUP5 DUP3 DUP6 ADD PUSH2 0x94C JUMP JUMPDEST SWAP2 POP POP SWAP3 SWAP2 POP POP JUMP JUMPDEST PUSH1 0x0 DUP1 PUSH1 0x40 DUP4 DUP6 SUB SLT ISZERO PUSH2 0x9D3 JUMPI PUSH2 0x9D2 PUSH2 0x135A JUMP JUMPDEST JUMPDEST PUSH1 0x0 PUSH2 0x9E1 DUP6 DUP3 DUP7 ADD PUSH2 0x94C JUMP JUMPDEST SWAP3 POP POP PUSH1 0x20 DUP4 ADD CALLDATALOAD PUSH8 0xFFFFFFFFFFFFFFFF DUP2 GT ISZERO PUSH2 0xA02 JUMPI PUSH2 0xA01 PUSH2 0x1355 JUMP JUMPDEST JUMPDEST PUSH2 0xA0E DUP6 DUP3 DUP7 ADD PUSH2 0x961 JUMP JUMPDEST SWAP2 POP POP SWAP3 POP SWAP3 SWAP1 POP JUMP JUMPDEST PUSH1 0x0 PUSH1 0x20 DUP3 DUP5 SUB SLT ISZERO PUSH2 0xA2E JUMPI PUSH2 0xA2D PUSH2 0x135A JUMP JUMPDEST JUMPDEST PUSH1 0x0 DUP3 ADD CALLDATALOAD PUSH8 0xFFFFFFFFFFFFFFFF DUP2 GT ISZERO PUSH2 0xA4C JUMPI PUSH2 0xA4B PUSH2 0x1355 JUMP JUMPDEST JUMPDEST PUSH2 0xA58 DUP5 DUP3 DUP6 ADD PUSH2 0x961 JUMP JUMPDEST SWAP2 POP POP SWAP3 SWAP2 POP POP JUMP JUMPDEST PUSH1 0x0 DUP1 PUSH1 0x40 DUP4 DUP6 SUB SLT ISZERO PUSH2 0xA78 JUMPI PUSH2 0xA77 PUSH2 0x135A JUMP JUMPDEST JUMPDEST PUSH1 0x0 DUP4 ADD CALLDATALOAD PUSH8 0xFFFFFFFFFFFFFFFF DUP2 GT ISZERO PUSH2 0xA96 JUMPI PUSH2 0xA95 PUSH2 0x1355 JUMP JUMPDEST JUMPDEST PUSH2 0xAA2 DUP6 DUP3 DUP7 ADD PUSH2 0x961 JUMP JUMPDEST SWAP3 POP POP PUSH1 0x20 DUP4 ADD CALLDATALOAD PUSH8 0xFFFFFFFFFFFFFFFF DUP2 GT ISZERO PUSH2 0xAC3 JUMPI PUSH2 0xAC2 PUSH2 0x1355 JUMP JUMPDEST JUMPDEST PUSH2 0xACF DUP6 DUP3 DUP7 ADD PUSH2 0x961 JUMP JUMPDEST SWAP2 POP POP SWAP3 POP SWAP3 SWAP1 POP JUMP JUMPDEST PUSH2 0xAE2 DUP2 PUSH2 0x10C8 JUMP JUMPDEST DUP3 MSTORE POP POP JUMP JUMPDEST PUSH2 0xAF1 DUP2 PUSH2 0x10D4 JUMP JUMPDEST DUP3 MSTORE POP POP JUMP JUMPDEST PUSH2 0xB00 DUP2 PUSH2 0x1100 JUMP JUMPDEST DUP3 MSTORE POP POP JUMP JUMPDEST PUSH1 0x0 PUSH2 0xB11 DUP3 PUSH2 0xD32 JUMP JUMPDEST PUSH2 0xB1B DUP2 DUP6 PUSH2 0xD4E JUMP JUMPDEST SWAP4 POP PUSH2 0xB2B DUP2 DUP6 PUSH1 0x20 DUP7 ADD PUSH2 0x1150 JUMP JUMPDEST DUP1 DUP5 ADD SWAP2 POP POP SWAP3 SWAP2 POP POP JUMP JUMPDEST PUSH1 0x0 PUSH2 0xB44 PUSH1 0x1B DUP4 PUSH2 0xD3D JUMP JUMPDEST SWAP2 POP PUSH2 0xB4F DUP3 PUSH2 0x137D JUMP JUMPDEST PUSH1 0x20 DUP3 ADD SWAP1 POP SWAP2 SWAP1 POP JUMP JUMPDEST PUSH1 0x0 PUSH2 0xB67 PUSH1 0x20 DUP4 PUSH2 0xD3D JUMP JUMPDEST SWAP2 POP PUSH2 0xB72 DUP3 PUSH2 0x13A6 JUMP JUMPDEST PUSH1 0x20 DUP3 ADD SWAP1 POP SWAP2 SWAP1 POP JUMP JUMPDEST PUSH1 0x0 PUSH2 0xB8A PUSH1 0x1C DUP4 PUSH2 0xD3D JUMP JUMPDEST SWAP2 POP PUSH2 0xB95 DUP3 PUSH2 0x13CF JUMP JUMPDEST PUSH1 0x20 DUP3 ADD SWAP1 POP SWAP2 SWAP1 POP JUMP JUMPDEST PUSH1 0x0 PUSH2 0xBAD PUSH1 0x25 DUP4 PUSH2 0xD3D JUMP JUMPDEST SWAP2 POP PUSH2 0xBB8 DUP3 PUSH2 0x13F8 JUMP JUMPDEST PUSH1 0x40 DUP3 ADD SWAP1 POP SWAP2 SWAP1 POP JUMP JUMPDEST PUSH1 0x0 PUSH2 0xBCF DUP3 DUP5 PUSH2 0xB06 JUMP JUMPDEST SWAP2 POP DUP2 SWAP1 POP SWAP3 SWAP2 POP POP JUMP JUMPDEST PUSH1 0x0 PUSH2 0xBE6 DUP3 DUP7 PUSH2 0xB06 JUMP JUMPDEST SWAP2 POP PUSH2 0xBF2 DUP3 DUP6 PUSH2 0xB06 JUMP JUMPDEST SWAP2 POP PUSH2 0xBFE DUP3 DUP5 PUSH2 0xB06 JUMP JUMPDEST SWAP2 POP DUP2 SWAP1 POP SWAP5 SWAP4 POP POP POP POP JUMP JUMPDEST PUSH1 0x0 PUSH1 0x20 DUP3 ADD SWAP1 POP PUSH2 0xC20 PUSH1 0x0 DUP4 ADD DUP5 PUSH2 0xAD9 JUMP JUMPDEST SWAP3 SWAP2 POP POP JUMP JUMPDEST PUSH1 0x0 PUSH1 0x20 DUP3 ADD SWAP1 POP PUSH2 0xC3B PUSH1 0x0 DUP4 ADD DUP5 PUSH2 0xAE8 JUMP JUMPDEST SWAP3 SWAP2 POP POP JUMP JUMPDEST PUSH1 0x0 PUSH1 0x20 DUP3 ADD SWAP1 POP PUSH2 0xC56 PUSH1 0x0 DUP4 ADD DUP5 PUSH2 0xAF7 JUMP JUMPDEST SWAP3 SWAP2 POP POP JUMP JUMPDEST PUSH1 0x0 PUSH1 0x20 DUP3 ADD SWAP1 POP DUP2 DUP2 SUB PUSH1 0x0 DUP4 ADD MSTORE PUSH2 0xC75 DUP2 PUSH2 0xB37 JUMP JUMPDEST SWAP1 POP SWAP2 SWAP1 POP JUMP JUMPDEST PUSH1 0x0 PUSH1 0x20 DUP3 ADD SWAP1 POP DUP2 DUP2 SUB PUSH1 0x0 DUP4 ADD MSTORE PUSH2 0xC95 DUP2 PUSH2 0xB5A JUMP JUMPDEST SWAP1 POP SWAP2 SWAP1 POP JUMP JUMPDEST PUSH1 0x0 PUSH1 0x20 DUP3 ADD SWAP1 POP DUP2 DUP2 SUB PUSH1 0x0 DUP4 ADD MSTORE PUSH2 0xCB5 DUP2 PUSH2 0xB7D JUMP JUMPDEST SWAP1 POP SWAP2 SWAP1 POP JUMP JUMPDEST PUSH1 0x0 PUSH1 0x20 DUP3 ADD SWAP1 POP DUP2 DUP2 SUB PUSH1 0x0 DUP4 ADD MSTORE PUSH2 0xCD5 DUP2 PUSH2 0xBA0 JUMP JUMPDEST SWAP1 POP SWAP2 SWAP1 POP JUMP JUMPDEST PUSH1 0x0 PUSH2 0xCE6 PUSH2 0xCF7 JUMP JUMPDEST SWAP1 POP PUSH2 0xCF2 DUP3 DUP3 PUSH2 0x11B5 JUMP JUMPDEST SWAP2 SWAP1 POP JUMP JUMPDEST PUSH1 0x0 PUSH1 0x40 MLOAD SWAP1 POP SWAP1 JUMP JUMPDEST PUSH1 0x0 PUSH8 0xFFFFFFFFFFFFFFFF DUP3 GT ISZERO PUSH2 0xD1C JUMPI PUSH2 0xD1B PUSH2 0x131C JUMP JUMPDEST JUMPDEST PUSH2 0xD25 DUP3 PUSH2 0x135F JUMP JUMPDEST SWAP1 POP PUSH1 0x20 DUP2 ADD SWAP1 POP SWAP2 SWAP1 POP JUMP JUMPDEST PUSH1 0x0 DUP2 MLOAD SWAP1 POP SWAP2 SWAP1 POP JUMP JUMPDEST PUSH1 0x0 DUP3 DUP3 MSTORE PUSH1 0x20 DUP3 ADD SWAP1 POP SWAP3 SWAP2 POP POP JUMP JUMPDEST PUSH1 0x0 DUP2 SWAP1 POP SWAP3 SWAP2 POP POP JUMP JUMPDEST PUSH1 0x0 PUSH2 0xD64 DUP3 PUSH2 0x112A JUMP JUMPDEST SWAP2 POP PUSH2 0xD6F DUP4 PUSH2 0x112A JUMP JUMPDEST SWAP3 POP DUP3 PUSH32 0xFFFFFFFFFFFFFFFFFFFFFFFFFFFFFFFFFFFFFFFFFFFFFFFFFFFFFFFFFFFFFFFF SUB DUP3 GT ISZERO PUSH2 0xDA4 JUMPI PUSH2 0xDA3 PUSH2 0x1260 JUMP JUMPDEST JUMPDEST DUP3 DUP3 ADD SWAP1 POP SWAP3 SWAP2 POP POP JUMP JUMPDEST PUSH1 0x0 PUSH2 0xDBA DUP3 PUSH2 0x1134 JUMP JUMPDEST SWAP2 POP PUSH2 0xDC5 DUP4 PUSH2 0x1134 JUMP JUMPDEST SWAP3 POP DUP3 PUSH1 0xFF SUB DUP3 GT ISZERO PUSH2 0xDDB JUMPI PUSH2 0xDDA PUSH2 0x1260 JUMP JUMPDEST JUMPDEST DUP3 DUP3 ADD SWAP1 POP SWAP3 SWAP2 POP POP JUMP JUMPDEST PUSH1 0x0 PUSH2 0xDF1 DUP3 PUSH2 0x112A JUMP JUMPDEST SWAP2 POP PUSH2 0xDFC DUP4 PUSH2 0x112A JUMP JUMPDEST SWAP3 POP DUP3 PUSH2 0xE0C JUMPI PUSH2 0xE0B PUSH2 0x128F JUMP JUMPDEST JUMPDEST DUP3 DUP3 DIV SWAP1 POP SWAP3 SWAP2 POP POP JUMP JUMPDEST PUSH1 0x0 PUSH2 0xE22 DUP3 PUSH2 0x1134 JUMP JUMPDEST SWAP2 POP PUSH2 0xE2D DUP4 PUSH2 0x1134 JUMP JUMPDEST SWAP3 POP DUP3 PUSH2 0xE3D JUMPI PUSH2 0xE3C PUSH2 0x128F JUMP JUMPDEST JUMPDEST DUP3 DUP3 DIV SWAP1 POP SWAP3 SWAP2 POP POP JUMP JUMPDEST PUSH1 0x0 DUP1 DUP3 SWAP2 POP DUP4 SWAP1 POP JUMPDEST PUSH1 0x1 DUP6 GT ISZERO PUSH2 0xE92 JUMPI DUP1 DUP7 DIV DUP2 GT ISZERO PUSH2 0xE6E JUMPI PUSH2 0xE6D PUSH2 0x1260 JUMP JUMPDEST JUMPDEST PUSH1 0x1 DUP6 AND ISZERO PUSH2 0xE7D JUMPI DUP1 DUP3 MUL SWAP2 POP JUMPDEST DUP1 DUP2 MUL SWAP1 POP PUSH2 0xE8B DUP6 PUSH2 0x1370 JUMP JUMPDEST SWAP5 POP PUSH2 0xE52 JUMP JUMPDEST SWAP5 POP SWAP5 SWAP3 POP POP POP JUMP JUMPDEST PUSH1 0x0 PUSH2 0xEA6 DUP3 PUSH2 0x112A JUMP JUMPDEST SWAP2 POP PUSH2 0xEB1 DUP4 PUSH2 0x112A JUMP JUMPDEST SWAP3 POP PUSH2 0xEDE PUSH32 0xFFFFFFFFFFFFFFFFFFFFFFFFFFFFFFFFFFFFFFFFFFFFFFFFFFFFFFFFFFFFFFFF DUP5 DUP5 PUSH2 0xEE6 JUMP JUMPDEST SWAP1 POP SWAP3 SWAP2 POP POP JUMP JUMPDEST PUSH1 0x0 DUP3 PUSH2 0xEF6 JUMPI PUSH1 0x1 SWAP1 POP PUSH2 0xFB2 JUMP JUMPDEST DUP2 PUSH2 0xF04 JUMPI PUSH1 0x0 SWAP1 POP PUSH2 0xFB2 JUMP JUMPDEST DUP2 PUSH1 0x1 DUP2 EQ PUSH2 0xF1A JUMPI PUSH1 0x2 DUP2 EQ PUSH2 0xF24 JUMPI PUSH2 0xF53 JUMP JUMPDEST PUSH1 0x1 SWAP2 POP POP PUSH2 0xFB2 JUMP JUMPDEST PUSH1 0xFF DUP5 GT ISZERO PUSH2 0xF36 JUMPI PUSH2 0xF35 PUSH2 0x1260 JUMP JUMPDEST JUMPDEST DUP4 PUSH1 0x2 EXP SWAP2 POP DUP5 DUP3 GT ISZERO PUSH2 0xF4D JUMPI PUSH2 0xF4C PUSH2 0x1260 JUMP JUMPDEST JUMPDEST POP PUSH2 0xFB2 JUMP JUMPDEST POP PUSH1 0x20 DUP4 LT PUSH2 0x133 DUP4 LT AND PUSH1 0x4E DUP5 LT PUSH1 0xB DUP5 LT AND OR ISZERO PUSH2 0xF88 JUMPI DUP3 DUP3 EXP SWAP1 POP DUP4 DUP2 GT ISZERO PUSH2 0xF83 JUMPI PUSH2 0xF82 PUSH2 0x1260 JUMP JUMPDEST JUMPDEST PUSH2 0xFB2 JUMP JUMPDEST PUSH2 0xF95 DUP5 DUP5 DUP5 PUSH1 0x1 PUSH2 0xE48 JUMP JUMPDEST SWAP3 POP SWAP1 POP DUP2 DUP5 DIV DUP2 GT ISZERO PUSH2 0xFAC JUMPI PUSH2 0xFAB PUSH2 0x1260 JUMP JUMPDEST JUMPDEST DUP2 DUP2 MUL SWAP1 POP JUMPDEST SWAP4 SWAP3 POP POP POP JUMP JUMPDEST PUSH1 0x0 PUSH2 0xFC4 DUP3 PUSH2 0x112A JUMP JUMPDEST SWAP2 POP PUSH2 0xFCF DUP4 PUSH2 0x112A JUMP JUMPDEST SWAP3 POP DUP2 PUSH32 0xFFFFFFFFFFFFFFFFFFFFFFFFFFFFFFFFFFFFFFFFFFFFFFFFFFFFFFFFFFFFFFFF DIV DUP4 GT DUP3 ISZERO ISZERO AND ISZERO PUSH2 0x1008 JUMPI PUSH2 0x1007 PUSH2 0x1260 JUMP JUMPDEST JUMPDEST DUP3 DUP3 MUL SWAP1 POP SWAP3 SWAP2 POP POP JUMP JUMPDEST PUSH1 0x0 PUSH2 0x101E DUP3 PUSH2 0x1134 JUMP JUMPDEST SWAP2 POP PUSH2 0x1029 DUP4 PUSH2 0x1134 JUMP JUMPDEST SWAP3 POP DUP2 PUSH1 0xFF DIV DUP4 GT DUP3 ISZERO ISZERO AND ISZERO PUSH2 0x1043 JUMPI PUSH2 0x1042 PUSH2 0x1260 JUMP JUMPDEST JUMPDEST DUP3 DUP3 MUL SWAP1 POP SWAP3 SWAP2 POP POP JUMP JUMPDEST PUSH1 0x0 PUSH2 0x1059 DUP3 PUSH2 0x112A JUMP JUMPDEST SWAP2 POP PUSH2 0x1064 DUP4 PUSH2 0x112A JUMP JUMPDEST SWAP3 POP DUP3 DUP3 LT ISZERO PUSH2 0x1077 JUMPI PUSH2 0x1076 PUSH2 0x1260 JUMP JUMPDEST JUMPDEST DUP3 DUP3 SUB SWAP1 POP SWAP3 SWAP2 POP POP JUMP JUMPDEST PUSH1 0x0 PUSH2 0x108D DUP3 PUSH2 0x1134 JUMP JUMPDEST SWAP2 POP PUSH2 0x1098 DUP4 PUSH2 0x1134 JUMP JUMPDEST SWAP3 POP DUP3 DUP3 LT ISZERO PUSH2 0x10AB JUMPI PUSH2 0x10AA PUSH2 0x1260 JUMP JUMPDEST JUMPDEST DUP3 DUP3 SUB SWAP1 POP SWAP3 SWAP2 POP POP JUMP JUMPDEST PUSH1 0x0 PUSH2 0x10C1 DUP3 PUSH2 0x110A JUMP JUMPDEST SWAP1 POP SWAP2 SWAP1 POP JUMP JUMPDEST PUSH1 0x0 DUP2 ISZERO ISZERO SWAP1 POP SWAP2 SWAP1 POP JUMP JUMPDEST PUSH1 0x0 PUSH32 0xFFFFFFFFFFFFFFFFFFFFFFFFFFFFFFFF00000000000000000000000000000000 DUP3 AND SWAP1 POP SWAP2 SWAP1 POP JUMP JUMPDEST PUSH1 0x0 DUP2 SWAP1 POP SWAP2 SWAP1 POP JUMP JUMPDEST PUSH1 0x0 PUSH20 0xFFFFFFFFFFFFFFFFFFFFFFFFFFFFFFFFFFFFFFFF DUP3 AND SWAP1 POP SWAP2 SWAP1 POP JUMP JUMPDEST PUSH1 0x0 DUP2 SWAP1 POP SWAP2 SWAP1 POP JUMP JUMPDEST PUSH1 0x0 PUSH1 0xFF DUP3 AND SWAP1 POP SWAP2 SWAP1 POP JUMP JUMPDEST DUP3 DUP2 DUP4 CALLDATACOPY PUSH1 0x0 DUP4 DUP4 ADD MSTORE POP POP POP JUMP JUMPDEST PUSH1 0x0 JUMPDEST DUP4 DUP2 LT ISZERO PUSH2 0x116E JUMPI DUP1 DUP3 ADD MLOAD DUP2 DUP5 ADD MSTORE PUSH1 0x20 DUP2 ADD SWAP1 POP PUSH2 0x1153 JUMP JUMPDEST DUP4 DUP2 GT ISZERO PUSH2 0x117D JUMPI PUSH1 0x0 DUP5 DUP5 ADD MSTORE JUMPDEST POP POP POP POP JUMP JUMPDEST PUSH1 0x0 PUSH1 0x2 DUP3 DIV SWAP1 POP PUSH1 0x1 DUP3 AND DUP1 PUSH2 0x119B JUMPI PUSH1 0x7F DUP3 AND SWAP2 POP JUMPDEST PUSH1 0x20 DUP3 LT DUP2 EQ ISZERO PUSH2 0x11AF JUMPI PUSH2 0x11AE PUSH2 0x12BE JUMP JUMPDEST JUMPDEST POP SWAP2 SWAP1 POP JUMP JUMPDEST PUSH2 0x11BE DUP3 PUSH2 0x135F JUMP JUMPDEST DUP2 ADD DUP2 DUP2 LT PUSH8 0xFFFFFFFFFFFFFFFF DUP3 GT OR ISZERO PUSH2 0x11DD JUMPI PUSH2 0x11DC PUSH2 0x131C JUMP JUMPDEST JUMPDEST DUP1 PUSH1 0x40 MSTORE POP POP POP JUMP JUMPDEST PUSH1 0x0 PUSH2 0x11F1 DUP3 PUSH2 0x112A JUMP JUMPDEST SWAP2 POP PUSH32 0xFFFFFFFFFFFFFFFFFFFFFFFFFFFFFFFFFFFFFFFFFFFFFFFFFFFFFFFFFFFFFFFF DUP3 EQ ISZERO PUSH2 0x1224 JUMPI PUSH2 0x1223 PUSH2 0x1260 JUMP JUMPDEST JUMPDEST PUSH1 0x1 DUP3 ADD SWAP1 POP SWAP2 SWAP1 POP JUMP JUMPDEST PUSH1 0x0 PUSH2 0x123A DUP3 PUSH2 0x112A JUMP JUMPDEST SWAP2 POP PUSH2 0x1245 DUP4 PUSH2 0x112A JUMP JUMPDEST SWAP3 POP DUP3 PUSH2 0x1255 JUMPI PUSH2 0x1254 PUSH2 0x128F JUMP JUMPDEST JUMPDEST DUP3 DUP3 MOD SWAP1 POP SWAP3 SWAP2 POP POP JUMP JUMPDEST PUSH32 0x4E487B7100000000000000000000000000000000000000000000000000000000 PUSH1 0x0 MSTORE PUSH1 0x11 PUSH1 0x4 MSTORE PUSH1 0x24 PUSH1 0x0 REVERT JUMPDEST PUSH32 0x4E487B7100000000000000000000000000000000000000000000000000000000 PUSH1 0x0 MSTORE PUSH1 0x12 PUSH1 0x4 MSTORE PUSH1 0x24 PUSH1 0x0 REVERT JUMPDEST PUSH32 0x4E487B7100000000000000000000000000000000000000000000000000000000 PUSH1 0x0 MSTORE PUSH1 0x22 PUSH1 0x4 MSTORE PUSH1 0x24 PUSH1 0x0 REVERT JUMPDEST PUSH32 0x4E487B7100000000000000000000000000000000000000000000000000000000 PUSH1 0x0 MSTORE PUSH1 0x32 PUSH1 0x4 MSTORE PUSH1 0x24 PUSH1 0x0 REVERT JUMPDEST PUSH32 0x4E487B7100000000000000000000000000000000000000000000000000000000 PUSH1 0x0 MSTORE PUSH1 0x41 PUSH1 0x4 MSTORE PUSH1 0x24 PUSH1 0x0 REVERT JUMPDEST PUSH1 0x0 DUP1 REVERT JUMPDEST PUSH1 0x0 DUP1 REVERT JUMPDEST PUSH1 0x0 DUP1 REVERT JUMPDEST PUSH1 0x0 DUP1 REVERT JUMPDEST PUSH1 0x0 PUSH1 0x1F NOT PUSH1 0x1F DUP4 ADD AND SWAP1 POP SWAP2 SWAP1 POP JUMP JUMPDEST PUSH1 0x0 DUP2 PUSH1 0x1 SHR SWAP1 POP SWAP2 SWAP1 POP JUMP JUMPDEST PUSH32 0x4D6F7420646520706173736520696E636F686572656E74202121210000000000 PUSH1 0x0 DUP3 ADD MSTORE POP JUMP JUMPDEST PUSH32 0x506172746965207072656E616E7465206E6F6E207265636F6E6E756520212121 PUSH1 0x0 DUP3 ADD MSTORE POP JUMP JUMPDEST PUSH32 0x4365742061647265737365206E27657869737465207061732021212100000000 PUSH1 0x0 DUP3 ADD MSTORE POP JUMP JUMPDEST PUSH32 0x436574746520706172746965207072656E616E7465206578697374652064656A PUSH1 0x0 DUP3 ADD MSTORE PUSH32 0x6120212121000000000000000000000000000000000000000000000000000000 PUSH1 0x20 DUP3 ADD MSTORE POP JUMP JUMPDEST PUSH2 0x1450 DUP2 PUSH2 0x10B6 JUMP JUMPDEST DUP2 EQ PUSH2 0x145B JUMPI PUSH1 0x0 DUP1 REVERT JUMPDEST POP JUMP INVALID LOG2 PUSH5 0x6970667358 0x22 SLT KECCAK256 MUL PUSH24 0x8E32F2DDB59920CD939E9993E918AAD6A4005DC43361A167 BLOCKHASH 0xA5 0xC 0x4D 0x1F 0x2E PUSH5 0x736F6C6343 STOP ADDMOD SMOD STOP CALLER "
		},
		"gasEstimates": {
			"creation": {
				"codeDepositCost": "1053600",
				"executionCost": "1094",
				"totalCost": "1054694"
			},
			"external": {
				"add_stack_holder(string,string)": "infinite",
				"authentify(address,string)": "infinite",
				"has_on_time(address)": "5254",
				"toBytes16(string)": "infinite",
				"toBytes32(string)": "infinite"
			},
			"internal": {
				"is_already_exist(address)": "infinite",
				"refresh_session(address)": "infinite"
			}
		},
		"methodIdentifiers": {
			"add_stack_holder(string,string)": "385b81aa",
			"authentify(address,string)": "b10639b8",
			"has_on_time(address)": "1c0f6f2d",
			"toBytes16(string)": "18b624fd",
			"toBytes32(string)": "27df8f2a"
		}
	},
	"abi": [
		{
			"inputs": [
				{
					"internalType": "string",
					"name": "_email",
					"type": "string"
				},
				{
					"internalType": "string",
					"name": "_pass",
					"type": "string"
				}
			],
			"name": "add_stack_holder",
			"outputs": [
				{
					"internalType": "bytes32",
					"name": "",
					"type": "bytes32"
				}
			],
			"stateMutability": "nonpayable",
			"type": "function"
		},
		{
			"inputs": [
				{
					"internalType": "address",
					"name": "_address",
					"type": "address"
				},
				{
					"internalType": "string",
					"name": "_pass",
					"type": "string"
				}
			],
			"name": "authentify",
			"outputs": [],
			"stateMutability": "nonpayable",
			"type": "function"
		},
		{
			"inputs": [
				{
					"internalType": "address",
					"name": "_address",
					"type": "address"
				}
			],
			"name": "has_on_time",
			"outputs": [
				{
					"internalType": "bool",
					"name": "",
					"type": "bool"
				}
			],
			"stateMutability": "view",
			"type": "function"
		},
		{
			"inputs": [
				{
					"internalType": "string",
					"name": "source",
					"type": "string"
				}
			],
			"name": "toBytes16",
			"outputs": [
				{
					"internalType": "bytes16",
					"name": "result",
					"type": "bytes16"
				}
			],
			"stateMutability": "pure",
			"type": "function"
		},
		{
			"inputs": [
				{
					"internalType": "string",
					"name": "source",
					"type": "string"
				}
			],
			"name": "toBytes32",
			"outputs": [
				{
					"internalType": "bytes32",
					"name": "result",
					"type": "bytes32"
				}
			],
			"stateMutability": "pure",
			"type": "function"
		}
	]
}