{
	"data": {
		"bytecode": {
			"linkReferences": {
				"contracts/Strings.sol": {
					"Strings": [
						{
							"length": 20,
							"start": 5595
						},
						{
							"length": 20,
							"start": 5818
						},
						{
							"length": 20,
							"start": 6025
						},
						{
							"length": 20,
							"start": 6248
						}
					]
				}
			},
			"object": "60806040523480156200001157600080fd5b506001600960006200005e6040518060400160405280600681526020017f535452494e4700000000000000000000000000000000000000000000000000008152506200041660201b60201c565b6fffffffffffffffffffffffffffffffff19166fffffffffffffffffffffffffffffffff1916815260200190815260200160002060006101000a81548160ff02191690836003811115620000b757620000b662000443565b5b0217905550600260096000620001086040518060400160405280600481526020017f55494e54000000000000000000000000000000000000000000000000000000008152506200041660201b60201c565b6fffffffffffffffffffffffffffffffff19166fffffffffffffffffffffffffffffffff1916815260200190815260200160002060006101000a81548160ff0219169083600381111562000161576200016062000443565b5b0217905550600360096000620001b26040518060400160405280600481526020017f44415445000000000000000000000000000000000000000000000000000000008152506200041660201b60201c565b6fffffffffffffffffffffffffffffffff19166fffffffffffffffffffffffffffffffff1916815260200190815260200160002060006101000a81548160ff021916908360038111156200020b576200020a62000443565b5b0217905550620002566040518060400160405280600681526020017f535452494e4700000000000000000000000000000000000000000000000000008152506200041660201b60201c565b600a60006001600381111562000271576200027062000443565b5b600381111562000286576200028562000443565b5b815260200190815260200160002060006101000a8154816fffffffffffffffffffffffffffffffff021916908360801c0217905550620003016040518060400160405280600481526020017f55494e54000000000000000000000000000000000000000000000000000000008152506200041660201b60201c565b600a6000600260038111156200031c576200031b62000443565b5b600381111562000331576200033062000443565b5b815260200190815260200160002060006101000a8154816fffffffffffffffffffffffffffffffff021916908360801c0217905550620003ac6040518060400160405280600481526020017f44415445000000000000000000000000000000000000000000000000000000008152506200041660201b60201c565b600a6000600380811115620003c657620003c562000443565b5b6003811115620003db57620003da62000443565b5b815260200190815260200160002060006101000a8154816fffffffffffffffffffffffffffffffff021916908360801c021790555062000472565b6000808290506000815114156200043557600060801b9150506200043e565b60208301519150505b919050565b7f4e487b7100000000000000000000000000000000000000000000000000000000600052602160045260246000fd5b6156a480620004826000396000f3fe608060405234801561001057600080fd5b50600436106101005760003560e01c80635ad2e444116100975780639fe2c845116100665780639fe2c845146102cd578063d2738a49146102e9578063fdf9b2b514610305578063feb7fe4e1461032157610100565b80635ad2e4441461025d578063600c40d41461027957806372714ab0146102955780637931b820146102b157610100565b806327df8f2a116100d357806327df8f2a146101b1578063310df0f6146101e157806346d81627146101fd57806355c6d1911461022d57610100565b80630d62942b1461010557806318b624fd1461012157806322dd1a911461015157806327424aaa14610181575b600080fd5b61011f600480360381019061011a91906139fb565b61033f565b005b61013b6004803603810190610136919061393a565b610471565b60405161014891906142f4565b60405180910390f35b61016b600480360381019061016691906138fa565b61049c565b60405161017891906142d2565b60405180910390f35b61019b600480360381019061019691906137f4565b610572565b6040516101a8919061430f565b60405180910390f35b6101cb60048036038101906101c6919061393a565b6105f9565b6040516101d8919061430f565b60405180910390f35b6101fb60048036038101906101f691906138fa565b610623565b005b6102176004803603810190610212919061393a565b610651565b60405161022491906143e4565b60405180910390f35b61024760048036038101906102429190613863565b610b6c565b604051610254919061430f565b60405180910390f35b610277600480360381019061027291906137f4565b610ca4565b005b610293600480360381019061028e91906137f4565b610cb6565b005b6102af60048036038101906102aa919061375d565b610cc8565b005b6102cb60048036038101906102c691906139fb565b610cde565b005b6102e760048036038101906102e2919061375d565b610e10565b005b61030360048036038101906102fe9190613983565b610e26565b005b61031f600480360381019061031a919061393a565b610ef1565b005b610329610fd5565b60405161033691906143e4565b60405180910390f35b6000600384604051610351919061414f565b9081526020016040518091039020600101805461036d90614c3a565b905014156103b0576040517f08c379a00000000000000000000000000000000000000000000000000000000081526004016103a790614489565b60405180910390fd5b3373ffffffffffffffffffffffffffffffffffffffff166003846040516103d7919061414f565b908152602001604051809103902060000160009054906101000a900473ffffffffffffffffffffffffffffffffffffffff1673ffffffffffffffffffffffffffffffffffffffff161461045f576040517f08c379a0000000000000000000000000000000000000000000000000000000008152600401610456906146c9565b60405180910390fd5b61046c8383836001611057565b505050565b60008082905060008151141561048e57600060801b915050610497565b60208301519150505b919050565b60608167ffffffffffffffff8111156104b8576104b7614e0c565b5b6040519080825280602002602001820160405280156104eb57816020015b60608152602001906001900390816104d65790505b50905060005b828110156105345761050384336114d3565b82828151811061051657610515614ddd565b5b6020026020010181905250808061052c90614c9d565b9150506104f1565b507f374a8fb6e2e51e9effe060b54375b5f7563dbaeb8dac1dc2c68f85c1d96cc6ee8160405161056491906142d2565b60405180910390a192915050565b600061058c604051806020016040528060008152506105f9565b6007600086815260200190815260200160002060010154146105e3576040517f08c379a00000000000000000000000000000000000000000000000000000000081526004016105da906145c9565b60405180910390fd5b6105f084848460016116cd565b90509392505050565b600080829050600081511415610615576000801b91505061061e565b60208301519150505b919050565b60005b8181101561064c576106388333611a38565b50808061064490614c9d565b915050610626565b505050565b60606000600383604051610665919061414f565b90815260200160405180910390206040518060c00160405290816000820160009054906101000a900473ffffffffffffffffffffffffffffffffffffffff1673ffffffffffffffffffffffffffffffffffffffff1673ffffffffffffffffffffffffffffffffffffffff1681526020016001820180546106e490614c3a565b80601f016020809104026020016040519081016040528092919081815260200182805461071090614c3a565b801561075d5780601f106107325761010080835404028352916020019161075d565b820191906000526020600020905b81548152906001019060200180831161074057829003601f168201915b505050505081526020016002820154815260200160038201805461078090614c3a565b80601f01602080910402602001604051908101604052809291908181526020018280546107ac90614c3a565b80156107f95780601f106107ce576101008083540402835291602001916107f9565b820191906000526020600020905b8154815290600101906020018083116107dc57829003601f168201915b505050505081526020016004820160009054906101000a900460ff161515151581526020016004820160019054906101000a900460ff16151515158152505090506108478160000151611c50565b8160400151826060015160405160200161086393929190614233565b60405160208183030381529060405291506000600584604051610886919061414f565b9081526020016040518091039020905060005b8160000180549050811015610b6457838260000182815481106108bf576108be614ddd565b5b9060005260206000209060020201600001546040516020016108e2929190614294565b60405160208183030381529060405293506001600381111561090757610906614d7f565b5b82600001828154811061091d5761091c614ddd565b5b906000526020600020906002020160010160009054906101000a900460ff16600381111561094e5761094d614d7f565b5b14156109b8578382600101600084600001848154811061097157610970614ddd565b5b90600052602060002090600202016000015481526020019081526020016000206040516020016109a292919061418a565b6040516020818303038152906040529350610b51565b600260038111156109cc576109cb614d7f565b5b8260000182815481106109e2576109e1614ddd565b5b906000526020600020906002020160010160009054906101000a900460ff166003811115610a1357610a12614d7f565b5b1415610a865783610a5f836002016000856000018581548110610a3957610a38614ddd565b5b906000526020600020906002020160000154815260200190815260200160002054611e13565b604051602001610a70929190614166565b6040516020818303038152906040529350610b50565b600380811115610a9957610a98614d7f565b5b826000018281548110610aaf57610aae614ddd565b5b906000526020600020906002020160010160009054906101000a900460ff166003811115610ae057610adf614d7f565b5b1415610b4f5783610b2c836003016000856000018581548110610b0657610b05614ddd565b5b906000526020600020906002020160000154815260200190815260200160002054611e13565b604051602001610b3d929190614166565b60405160208183030381529060405293505b5b5b8080610b5c90614c9d565b915050610899565b505050919050565b6000610b86604051806020016040528060008152506105f9565b600860008881526020019081526020016000206002015414610bdd576040517f08c379a0000000000000000000000000000000000000000000000000000000008152600401610bd490614629565b60405180910390fd5b610bea86848460006116cd565b50846008600088815260200190815260200160002060010181905550610c9885610c486040518060400160405280600f81526020017f50726f6475697420706172206c6f7400000000000000000000000000000000008152506105f9565b610c866040518060400160405280600481526020017f55494e5400000000000000000000000000000000000000000000000000000000815250610471565b6001610c9189611e13565b6000611f74565b85905095945050505050565b610cb183838360016123f7565b505050565b610cc383838360006123f7565b505050565b610cd785858585856001611f74565b5050505050565b6000600484604051610cf0919061414f565b90815260200160405180910390206001018054610d0c90614c3a565b90501415610d4f576040517f08c379a0000000000000000000000000000000000000000000000000000000008152600401610d46906146e9565b60405180910390fd5b3373ffffffffffffffffffffffffffffffffffffffff16600484604051610d76919061414f565b908152602001604051809103902060000160009054906101000a900473ffffffffffffffffffffffffffffffffffffffff1673ffffffffffffffffffffffffffffffffffffffff1614610dfe576040517f08c379a0000000000000000000000000000000000000000000000000000000008152600401610df5906146c9565b60405180910390fd5b610e0b8383836000611057565b505050565b610e1f85858585856000611f74565b5050505050565b60005b8151811015610ea857610e5683838381518110610e4957610e48614ddd565b5b60200260200101516125f1565b610e95576040517f08c379a0000000000000000000000000000000000000000000000000000000008152600401610e8c906144e9565b60405180910390fd5b8080610ea090614c9d565b915050610e29565b5060005b8151811015610eec57610ed983838381518110610ecc57610ecb614ddd565b5b6020026020010151612d14565b8080610ee490614c9d565b915050610eac565b505050565b610efc816001612dfa565b15610f40576001600382604051610f13919061414f565b908152602001604051809103902060040160016101000a81548160ff021916908315150217905550610fd2565b610f4b816000612dfa565b15610f8f576001600482604051610f62919061414f565b908152602001604051809103902060060160016101000a81548160ff021916908315150217905550610fd1565b6000610fd0576040517f08c379a0000000000000000000000000000000000000000000000000000000008152600401610fc790614709565b60405180910390fd5b5b5b50565b6060600060405180602001604052806000815250905060005b60018054905081101561104f576001818154811061100f5761100e614ddd565b5b906000526020600020018260405160200161102b9291906141ae565b6040516020818303038152906040529150808061104790614c9d565b915050610fee565b508091505090565b600060069050811561106857600590505b6000611075868685612e76565b90506001600381111561108b5761108a614d7f565b5b81600381111561109e5761109d614d7f565b5b141561112a578382876040516110b4919061414f565b9081526020016040518091039020600101600087815260200190815260200160002090805190602001906110e9929190613525565b507f7f6a8a30c281639ac101896c913fc822b5604b2c5a268a47597f5e0d66bddbf686868660405161111d93929190614406565b60405180910390a16114cb565b6002600381111561113e5761113d614d7f565b5b81600381111561115157611150614d7f565b5b14156112d95773__$7b2a8354ec0764d0cb81ee98618437d34b$__6342346c5e856040518263ffffffff1660e01b815260040161118e91906143c2565b60206040518083038186803b1580156111a657600080fd5b505af41580156111ba573d6000803e3d6000fd5b505050506040513d601f19601f820116820180604052508101906111de9190613a86565b82876040516111ed919061414f565b90815260200160405180910390206002016000878152602001908152602001600020819055507f0145a939c5bf11315fa59d5f07d207f5f3222cbb9114b805b9349e30bdf4fffa868673__$7b2a8354ec0764d0cb81ee98618437d34b$__6342346c5e886040518263ffffffff1660e01b815260040161126d91906143c2565b60206040518083038186803b15801561128557600080fd5b505af4158015611299573d6000803e3d6000fd5b505050506040513d601f19601f820116820180604052508101906112bd9190613a86565b6040516112cc9392919061444b565b60405180910390a16114ca565b6003808111156112ec576112eb614d7f565b5b8160038111156112ff576112fe614d7f565b5b14156114875773__$7b2a8354ec0764d0cb81ee98618437d34b$__6342346c5e856040518263ffffffff1660e01b815260040161133c91906143c2565b60206040518083038186803b15801561135457600080fd5b505af4158015611368573d6000803e3d6000fd5b505050506040513d601f19601f8201168201806040525081019061138c9190613a86565b828760405161139b919061414f565b90815260200160405180910390206003016000878152602001908152602001600020819055507fdca7e05d3976eb24b1ea07522a893b8378d8d381ab2aac95abe9820b02f457c0868673__$7b2a8354ec0764d0cb81ee98618437d34b$__6342346c5e886040518263ffffffff1660e01b815260040161141b91906143c2565b60206040518083038186803b15801561143357600080fd5b505af4158015611447573d6000803e3d6000fd5b505050506040513d601f19601f8201168201806040525081019061146b9190613a86565b60405161147a9392919061444b565b60405180910390a16114c9565b60006114c8576040517f08c379a00000000000000000000000000000000000000000000000000000000081526004016114bf90614529565b60405180910390fd5b5b5b5b505050505050565b60606114ed604051806020016040528060008152506105f9565b60076000858152602001908152602001600020600101541415611545576040517f08c379a000000000000000000000000000000000000000000000000000000000815260040161153c90614649565b60405180910390fd5b8261156e6001600b6000878152602001908152602001600020546115699190614842565b611e13565b61157784611c50565b60405160200161158993929190614104565b6040516020818303038152906040529050816003826040516115ab919061414f565b908152602001604051809103902060000160006101000a81548173ffffffffffffffffffffffffffffffffffffffff021916908373ffffffffffffffffffffffffffffffffffffffff1602179055508060038260405161160b919061414f565b9081526020016040518091039020600101908051906020019061162f929190613525565b5082600382604051611641919061414f565b9081526020016040518091039020600201819055506001600b6000858152602001908152602001600020600082825461167a9190614842565b925050819055506001819080600181540180825580915050600190039060005260206000200160009091909190915090805190602001906116bc929190613525565b506116c78382612f60565b92915050565b6000806008905082156116df57600790505b3381600088815260200190815260200160002060000160006101000a81548173ffffffffffffffffffffffffffffffffffffffff021916908373ffffffffffffffffffffffffffffffffffffffff16021790555085816000888152602001908152602001600020600101819055508481600088815260200190815260200160002060020181905550838160008881526020019081526020016000206003019080519060200190611790929190613525565b50611829866117d36040518060400160405280601881526020017f656e74726570726973652064652070726f64756374696f6e00000000000000008152506105f9565b6118116040518060400160405280600681526020017f535452494e470000000000000000000000000000000000000000000000000000815250610471565b60006040518060200160405280600081525088611f74565b6118c18661186b6040518060400160405280601481526020017f6574617065206465206661627269636174696f6e0000000000000000000000008152506105f9565b6118a96040518060400160405280600681526020017f535452494e470000000000000000000000000000000000000000000000000000815250610471565b60006040518060200160405280600081525088611f74565b611959866119036040518060400160405280601381526020017f64617465206465206661627269636174696f6e000000000000000000000000008152506105f9565b6119416040518060400160405280600481526020017f4441544500000000000000000000000000000000000000000000000000000000815250610471565b60006040518060200160405280600081525088611f74565b6119f18661199b6040518060400160405280601181526020017f6461746520642765787069726174696f6e0000000000000000000000000000008152506105f9565b6119d96040518060400160405280600481526020017f4441544500000000000000000000000000000000000000000000000000000000815250610471565b60006040518060200160405280600081525088611f74565b7f29816586876316cda307014ed4fdd9176cf10c6126e438220bf334b74cb580f1868686604051611a2493929190614384565b60405180910390a185915050949350505050565b6060611a52604051806020016040528060008152506105f9565b60086000858152602001908152602001600020600201541415611aaa576040517f08c379a0000000000000000000000000000000000000000000000000000000008152600401611aa1906146e9565b60405180910390fd5b6000611b0784611ad86001600c600089815260200190815260200160002054611ad39190614842565b611e13565b611ae186611c50565b604051602001611af3939291906141dd565b604051602081830303815290604052612f70565b905082600482604051611b1a919061414f565b908152602001604051809103902060000160006101000a81548173ffffffffffffffffffffffffffffffffffffffff021916908373ffffffffffffffffffffffffffffffffffffffff16021790555080600482604051611b7a919061414f565b90815260200160405180910390206001019080519060200190611b9e929190613525565b5080600482604051611bb0919061414f565b90815260200160405180910390206001019080519060200190611bd4929190613525565b506001600c60008681526020019081526020016000206000828254611bf99190614842565b92505081905550600281908060018154018082558091505060019003906000526020600020016000909190919091509080519060200190611c3b929190613525565b50611c468482613008565b8091505092915050565b60606000602867ffffffffffffffff811115611c6f57611c6e614e0c565b5b6040519080825280601f01601f191660200182016040528015611ca15781602001600182028036833780820191505090505b50905060005b6014811015611e09576000816013611cbf9190614b37565b6008611ccb9190614aa2565b6002611cd79190614984565b8573ffffffffffffffffffffffffffffffffffffffff16611cf891906148cf565b60f81b9050600060108260f81c611d0f9190614900565b60f81b905060008160f81c6010611d269190614afc565b8360f81c611d349190614b6b565b60f81b9050611d4282613018565b85856002611d509190614aa2565b81518110611d6157611d60614ddd565b5b60200101907effffffffffffffffffffffffffffffffffffffffffffffffffffffffffffff1916908160001a905350611d9981613018565b856001866002611da99190614aa2565b611db39190614842565b81518110611dc457611dc3614ddd565b5b60200101907effffffffffffffffffffffffffffffffffffffffffffffffffffffffffffff1916908160001a9053505050508080611e0190614c9d565b915050611ca7565b5080915050919050565b60606000821415611e5b576040518060400160405280600181526020017f30000000000000000000000000000000000000000000000000000000000000008152509050611f6f565b600082905060005b60008214611e8d578080611e7690614c9d565b915050600a82611e8691906148cf565b9150611e63565b60008167ffffffffffffffff811115611ea957611ea8614e0c565b5b6040519080825280601f01601f191660200182016040528015611edb5781602001600182028036833780820191505090505b5090505b60008514611f6857600182611ef49190614b37565b9150600a85611f039190614cf0565b6030611f0f9190614842565b60f81b818381518110611f2557611f24614ddd565b5b60200101907effffffffffffffffffffffffffffffffffffffffffffffffffffffffffffff1916908160001a905350600a85611f6191906148cf565b9450611edf565b8093505050505b919050565b6000600890508115611f8557600790505b3373ffffffffffffffffffffffffffffffffffffffff1681600089815260200190815260200160002060000160009054906101000a900473ffffffffffffffffffffffffffffffffffffffff1673ffffffffffffffffffffffffffffffffffffffff1614612028576040517f08c379a000000000000000000000000000000000000000000000000000000000815260040161201f90614589565b60405180910390fd5b6001600381111561203c5761203b614d7f565b5b60096000876fffffffffffffffffffffffffffffffff19166fffffffffffffffffffffffffffffffff1916815260200190815260200160002060009054906101000a900460ff16600381111561209557612094614d7f565b5b148061210b5750600260038111156120b0576120af614d7f565b5b60096000876fffffffffffffffffffffffffffffffff19166fffffffffffffffffffffffffffffffff1916815260200190815260200160002060009054906101000a900460ff16600381111561210957612108614d7f565b5b145b8061217f575060038081111561212457612123614d7f565b5b60096000876fffffffffffffffffffffffffffffffff19166fffffffffffffffffffffffffffffffff1916815260200190815260200160002060009054906101000a900460ff16600381111561217d5761217c614d7f565b5b145b6121be576040517f08c379a00000000000000000000000000000000000000000000000000000000081526004016121b590614569565b60405180910390fd5b8115612213576121ce878761305e565b1561220e576040517f08c379a000000000000000000000000000000000000000000000000000000000815260040161220590614509565b60405180910390fd5b61225e565b61221d87876130f1565b1561225d576040517f08c379a000000000000000000000000000000000000000000000000000000000815260040161225490614509565b60405180910390fd5b5b806000888152602001908152602001600020600401604051806060016040528088815260200160096000896fffffffffffffffffffffffffffffffff19166fffffffffffffffffffffffffffffffff1916815260200190815260200160002060009054906101000a900460ff1660038111156122dd576122dc614d7f565b5b815260200186151581525090806001815401808255809150506001900390600052602060002090600202016000909190919091506000820151816000015560208201518160010160006101000a81548160ff0219169083600381111561234657612345614d7f565b5b021790555060408201518160010160016101000a81548160ff021916908315150217905550505083156123af5782816000898152602001908152602001600020600501600088815260200190815260200160002090805190602001906123ad929190613525565b505b7f5ea221c19f36d0b181a8cb2442eff75a150ebf7d5f05bd9d651c0c10fe067cb887878787876040516123e695949392919061432a565b60405180910390a150505050505050565b600060089050811561240857600790505b3373ffffffffffffffffffffffffffffffffffffffff1681600087815260200190815260200160002060000160009054906101000a900473ffffffffffffffffffffffffffffffffffffffff1673ffffffffffffffffffffffffffffffffffffffff16146124ab576040517f08c379a00000000000000000000000000000000000000000000000000000000081526004016124a290614589565b60405180910390fd5b60005b816000878152602001908152602001600020600401805490508110156125e8578482600088815260200190815260200160002060040182815481106124f6576124f5614ddd565b5b90600052602060002090600202016000015414156125d557816000878152602001908152602001600020600401818154811061253557612534614ddd565b5b906000526020600020906002020160010160019054906101000a900460ff16612593576040517f08c379a000000000000000000000000000000000000000000000000000000000815260040161258a906145e9565b60405180910390fd5b83826000888152602001908152602001600020600501600087815260200190815260200160002090805190602001906125cd929190613525565b5050506125eb565b80806125e090614c9d565b9150506124ae565b50505b50505050565b60006125fe836001612dfa565b1561295d5761260e826001612dfa565b1561278c57600382604051612623919061414f565b908152602001604051809103902060000160009054906101000a900473ffffffffffffffffffffffffffffffffffffffff1673ffffffffffffffffffffffffffffffffffffffff1660038460405161267b919061414f565b908152602001604051809103902060000160009054906101000a900473ffffffffffffffffffffffffffffffffffffffff1673ffffffffffffffffffffffffffffffffffffffff1614612703576040517f08c379a00000000000000000000000000000000000000000000000000000000081526004016126fa906146a9565b60405180910390fd5b600382604051612713919061414f565b908152602001604051809103902060020154600384604051612735919061414f565b90815260200160405180910390206002015414612787576040517f08c379a000000000000000000000000000000000000000000000000000000000815260040161277e906144c9565b60405180910390fd5b612958565b612797826000612dfa565b15612915576004826040516127ac919061414f565b908152602001604051809103902060000160009054906101000a900473ffffffffffffffffffffffffffffffffffffffff1673ffffffffffffffffffffffffffffffffffffffff16600384604051612804919061414f565b908152602001604051809103902060000160009054906101000a900473ffffffffffffffffffffffffffffffffffffffff1673ffffffffffffffffffffffffffffffffffffffff161461288c576040517f08c379a0000000000000000000000000000000000000000000000000000000008152600401612883906144a9565b60405180910390fd5b60048260405161289c919061414f565b9081526020016040518091039020600201546003846040516128be919061414f565b90815260200160405180910390206002015414612910576040517f08c379a0000000000000000000000000000000000000000000000000000000008152600401612907906145a9565b60405180910390fd5b612957565b6000612956576040517f08c379a000000000000000000000000000000000000000000000000000000000815260040161294d90614689565b60405180910390fd5b5b5b612d0a565b612968836000612dfa565b15612cc757612978826000612dfa565b15612af65760038260405161298d919061414f565b908152602001604051809103902060000160009054906101000a900473ffffffffffffffffffffffffffffffffffffffff1673ffffffffffffffffffffffffffffffffffffffff166004846040516129e5919061414f565b908152602001604051809103902060000160009054906101000a900473ffffffffffffffffffffffffffffffffffffffff1673ffffffffffffffffffffffffffffffffffffffff1614612a6d576040517f08c379a0000000000000000000000000000000000000000000000000000000008152600401612a64906146a9565b60405180910390fd5b600382604051612a7d919061414f565b908152602001604051809103902060020154600484604051612a9f919061414f565b90815260200160405180910390206002015414612af1576040517f08c379a0000000000000000000000000000000000000000000000000000000008152600401612ae890614669565b60405180910390fd5b612cc2565b612b01826000612dfa565b15612c7f57600482604051612b16919061414f565b908152602001604051809103902060000160009054906101000a900473ffffffffffffffffffffffffffffffffffffffff1673ffffffffffffffffffffffffffffffffffffffff16600484604051612b6e919061414f565b908152602001604051809103902060000160009054906101000a900473ffffffffffffffffffffffffffffffffffffffff1673ffffffffffffffffffffffffffffffffffffffff1614612bf6576040517f08c379a0000000000000000000000000000000000000000000000000000000008152600401612bed906144a9565b60405180910390fd5b600482604051612c06919061414f565b908152602001604051809103902060020154600484604051612c28919061414f565b90815260200160405180910390206002015414612c7a576040517f08c379a0000000000000000000000000000000000000000000000000000000008152600401612c7190614549565b60405180910390fd5b612cc1565b6000612cc0576040517f08c379a0000000000000000000000000000000000000000000000000000000008152600401612cb790614689565b60405180910390fd5b5b5b612d09565b6000612d08576040517f08c379a0000000000000000000000000000000000000000000000000000000008152600401612cff90614609565b60405180910390fd5b5b5b6001905092915050565b600082604051612d24919061414f565b908152602001604051809103902081908060018154018082558091505060019003906000526020600020016000909190919091509080519060200190612d6b929190613525565b50612d77826001612dfa565b15612dbb576001600382604051612d8e919061414f565b908152602001604051809103902060040160006101000a81548160ff021916908315150217905550612df6565b6001600482604051612dcd919061414f565b908152602001604051809103902060060160006101000a81548160ff0219169083151502179055505b5050565b60008115612e3b576000600384604051612e14919061414f565b90815260200160405180910390206001018054612e3090614c3a565b905014159050612e70565b6000600484604051612e4d919061414f565b90815260200160405180910390206001018054612e6990614c3a565b9050141590505b92915050565b600080600685604051612e89919061414f565b908152602001604051809103902090508215612ec057600585604051612eaf919061414f565b908152602001604051809103902090505b60005b8160000180549050811015612f525784826000018281548110612ee957612ee8614ddd565b5b9060005260206000209060020201600001541415612f3f57816000018181548110612f1757612f16614ddd565b5b906000526020600020906002020160010160009054906101000a900460ff1692505050612f59565b8080612f4a90614c9d565b915050612ec3565b5060009150505b9392505050565b612f6c82826001613184565b5050565b6060600082905060005b8151811015612ffe57612fa9828281518110612f9957612f98614ddd565b5b602001015160f81c60f81b61349f565b828281518110612fbc57612fbb614ddd565b5b60200101907effffffffffffffffffffffffffffffffffffffffffffffffffffffffffffff1916908160001a9053508080612ff690614c9d565b915050612f7a565b5080915050919050565b61301482826000613184565b5050565b6000600a8260f81c60ff1610156130435760308260f81c6130399190614898565b60f81b9050613059565b60578260f81c6130539190614898565b60f81b90505b919050565b600080600090505b60076000858152602001908152602001600020600401805490508110156130e557826007600086815260200190815260200160002060040182815481106130b0576130af614ddd565b5b90600052602060002090600202016000015414156130d25760019150506130eb565b80806130dd90614c9d565b915050613066565b50600090505b92915050565b600080600090505b6008600085815260200190815260200160002060040180549050811015613178578260086000868152602001908152602001600020600401828154811061314357613142614ddd565b5b906000526020600020906002020160000154141561316557600191505061317e565b808061317090614c9d565b9150506130f9565b50600090505b92915050565b600060086000858152602001908152602001600020905060006006846040516131ad919061414f565b9081526020016040518091039020905082156131f9576007600086815260200190815260200160002091506005846040516131e8919061414f565b908152602001604051809103902090505b60005b8260040180549050811015613497578160000160405180606001604052808560040184815481106132305761322f614ddd565b5b906000526020600020906002020160000154815260200185600401848154811061325d5761325c614ddd565b5b906000526020600020906002020160010160009054906101000a900460ff16600381111561328e5761328d614d7f565b5b81526020018560040184815481106132a9576132a8614ddd565b5b906000526020600020906002020160010160019054906101000a900460ff16151581525090806001815401808255809150506001900390600052602060002090600202016000909190919091506000820151816000015560208201518160010160006101000a81548160ff0219169083600381111561332b5761332a614d7f565b5b021790555060408201518160010160016101000a81548160ff021916908315150217905550505082600401818154811061336857613367614ddd565b5b906000526020600020906002020160010160019054906101000a900460ff161561348457613483858460040183815481106133a6576133a5614ddd565b5b9060005260206000209060020201600001548560050160008760040186815481106133d4576133d3614ddd565b5b906000526020600020906002020160000154815260200190815260200160002080546133ff90614c3a565b80601f016020809104026020016040519081016040528092919081815260200182805461342b90614c3a565b80156134785780601f1061344d57610100808354040283529160200191613478565b820191906000526020600020905b81548152906001019060200180831161345b57829003601f168201915b505050505087611057565b5b808061348f90614c9d565b9150506131fc565b505050505050565b6000606160f81b827effffffffffffffffffffffffffffffffffffffffffffffffffffffffffffff1916101580156134fd5750607a60f81b827effffffffffffffffffffffffffffffffffffffffffffffffffffffffffffff191611155b1561351c5760208260f81c6135129190614b6b565b60f81b9050613520565b8190505b919050565b82805461353190614c3a565b90600052602060002090601f016020900481019282613553576000855561359a565b82601f1061356c57805160ff191683800117855561359a565b8280016001018555821561359a579182015b8281111561359957825182559160200191906001019061357e565b5b5090506135a791906135ab565b5090565b5b808211156135c45760008160009055506001016135ac565b5090565b60006135db6135d68461474e565b614729565b905080838252602082019050828560208602820111156135fe576135fd614e40565b5b60005b8581101561364c57813567ffffffffffffffff81111561362457613623614e3b565b5b8086016136318982613705565b85526020850194506020840193505050600181019050613601565b5050509392505050565b60006136696136648461477a565b614729565b90508281526020810184848401111561368557613684614e45565b5b613690848285614bf8565b509392505050565b600082601f8301126136ad576136ac614e3b565b5b81356136bd8482602086016135c8565b91505092915050565b6000813590506136d581615612565b92915050565b6000813590506136ea81615629565b92915050565b6000813590506136ff81615640565b92915050565b600082601f83011261371a57613719614e3b565b5b813561372a848260208601613656565b91505092915050565b60008135905061374281615657565b92915050565b60008151905061375781615657565b92915050565b600080600080600060a0868803121561377957613778614e4f565b5b6000613787888289016136f0565b9550506020613798888289016136f0565b94505060406137a9888289016136db565b93505060606137ba888289016136c6565b925050608086013567ffffffffffffffff8111156137db576137da614e4a565b5b6137e788828901613705565b9150509295509295909350565b60008060006060848603121561380d5761380c614e4f565b5b600061381b868287016136f0565b935050602061382c868287016136f0565b925050604084013567ffffffffffffffff81111561384d5761384c614e4a565b5b61385986828701613705565b9150509250925092565b600080600080600060a0868803121561387f5761387e614e4f565b5b600061388d888289016136f0565b955050602061389e888289016136f0565b94505060406138af88828901613733565b93505060606138c0888289016136f0565b925050608086013567ffffffffffffffff8111156138e1576138e0614e4a565b5b6138ed88828901613705565b9150509295509295909350565b6000806040838503121561391157613910614e4f565b5b600061391f858286016136f0565b925050602061393085828601613733565b9150509250929050565b6000602082840312156139505761394f614e4f565b5b600082013567ffffffffffffffff81111561396e5761396d614e4a565b5b61397a84828501613705565b91505092915050565b6000806040838503121561399a57613999614e4f565b5b600083013567ffffffffffffffff8111156139b8576139b7614e4a565b5b6139c485828601613705565b925050602083013567ffffffffffffffff8111156139e5576139e4614e4a565b5b6139f185828601613698565b9150509250929050565b600080600060608486031215613a1457613a13614e4f565b5b600084013567ffffffffffffffff811115613a3257613a31614e4a565b5b613a3e86828701613705565b9350506020613a4f868287016136f0565b925050604084013567ffffffffffffffff811115613a7057613a6f614e4a565b5b613a7c86828701613705565b9150509250925092565b600060208284031215613a9c57613a9b614e4f565b5b6000613aaa84828501613748565b91505092915050565b6000613abf8383613b80565b905092915050565b6000613ad2826147d0565b613adc81856147f3565b935083602082028501613aee856147ab565b8060005b85811015613b2a5784840389528151613b0b8582613ab3565b9450613b16836147e6565b925060208a01995050600181019050613af2565b50829750879550505050505092915050565b613b4581614b9f565b82525050565b613b5481614bab565b82525050565b613b6381614bd7565b82525050565b613b7a613b7582614bd7565b614ce6565b82525050565b6000613b8b826147db565b613b958185614804565b9350613ba5818560208601614c07565b613bae81614e54565b840191505092915050565b6000613bc4826147db565b613bce8185614815565b9350613bde818560208601614c07565b613be781614e54565b840191505092915050565b6000613bfd826147db565b613c078185614826565b9350613c17818560208601614c07565b613c2081614e54565b840191505092915050565b6000613c36826147db565b613c408185614837565b9350613c50818560208601614c07565b80840191505092915050565b60008154613c6981614c3a565b613c738186614837565b94506001821660008114613c8e5760018114613c9f57613cd2565b60ff19831686528186019350613cd2565b613ca8856147bb565b60005b83811015613cca57815481890152600182019150602081019050613cab565b838801955050505b50505092915050565b6000613ce8600483614837565b9150613cf382614e72565b600482019050919050565b6000613d0b601683614815565b9150613d1682614e9b565b602082019050919050565b6000613d2e603683614815565b9150613d3982614ec4565b604082019050919050565b6000613d51604183614815565b9150613d5c82614f13565b606082019050919050565b6000613d74601d83614815565b9150613d7f82614f88565b602082019050919050565b6000613d97601083614815565b9150613da282614fb1565b602082019050919050565b6000613dba601383614815565b9150613dc582614fda565b602082019050919050565b6000613ddd605783614815565b9150613de882615003565b606082019050919050565b6000613e00602083614815565b9150613e0b82615078565b602082019050919050565b6000613e23603583614815565b9150613e2e826150a1565b604082019050919050565b6000613e46601483614837565b9150613e51826150f0565b601482019050919050565b6000613e69604d83614815565b9150613e7482615119565b606082019050919050565b6000613e8c602483614815565b9150613e978261518e565b604082019050919050565b6000613eaf600283614837565b9150613eba826151dd565b600282019050919050565b6000613ed2601e83614815565b9150613edd82615206565b602082019050919050565b6000613ef5604c83614815565b9150613f008261522f565b606082019050919050565b6000613f18601683614815565b9150613f23826152a4565b602082019050919050565b6000613f3b601d83614815565b9150613f46826152cd565b602082019050919050565b6000613f5e605f83614815565b9150613f69826152f6565b606082019050919050565b6000613f81600e83614837565b9150613f8c8261536b565b600e82019050919050565b6000613fa4600183614837565b9150613faf82615394565b600182019050919050565b6000613fc7601383614837565b9150613fd2826153bd565b601382019050919050565b6000613fea600183614837565b9150613ff5826153e6565b600182019050919050565b600061400d603483614815565b91506140188261540f565b604082019050919050565b6000614030600283614837565b915061403b8261545e565b600282019050919050565b6000614053603a83614815565b915061405e82615487565b604082019050919050565b6000614076602f83614815565b9150614081826154d6565b604082019050919050565b6000614099602283614815565b91506140a482615525565b604082019050919050565b60006140bc604683614815565b91506140c782615574565b606082019050919050565b60006140df600583614837565b91506140ea826155e9565b600582019050919050565b6140fe81614be1565b82525050565b60006141108286613b69565b60208201915061411f82613f97565b915061412b8285613c2b565b915061413682613f97565b91506141428284613c2b565b9150819050949350505050565b600061415b8284613c2b565b915081905092915050565b60006141728285613c2b565b915061417e8284613c2b565b91508190509392505050565b60006141968285613c2b565b91506141a28284613c5c565b91508190509392505050565b60006141ba8285613c5c565b91506141c5826140d2565b91506141d18284613c2b565b91508190509392505050565b60006141e882613cdb565b91506141f48286613b69565b60208201915061420382613ea2565b915061420f8285613c2b565b915061421a82613fdd565b91506142268284613c2b565b9150819050949350505050565b600061423e82613f74565b915061424a8286613c2b565b915061425582613fba565b91506142618285613b69565b60208201915061427082613e39565b915061427c8284613c2b565b9150614287826140d2565b9150819050949350505050565b600061429f826140d2565b91506142ab8285613c2b565b91506142b78284613b69565b6020820191506142c682614023565b91508190509392505050565b600060208201905081810360008301526142ec8184613ac7565b905092915050565b60006020820190506143096000830184613b4b565b92915050565b60006020820190506143246000830184613b5a565b92915050565b600060a08201905061433f6000830188613b5a565b61434c6020830187613b5a565b6143596040830186613b4b565b6143666060830185613b3c565b81810360808301526143788184613bb9565b90509695505050505050565b60006060820190506143996000830186613b5a565b6143a66020830185613b5a565b81810360408301526143b88184613bb9565b9050949350505050565b600060208201905081810360008301526143dc8184613bf2565b905092915050565b600060208201905081810360008301526143fe8184613bb9565b905092915050565b600060608201905081810360008301526144208186613bb9565b905061442f6020830185613b5a565b81810360408301526144418184613bb9565b9050949350505050565b600060608201905081810360008301526144658186613bb9565b90506144746020830185613b5a565b61448160408301846140f5565b949350505050565b600060208201905081810360008301526144a281613cfe565b9050919050565b600060208201905081810360008301526144c281613d21565b9050919050565b600060208201905081810360008301526144e281613d44565b9050919050565b6000602082019050818103600083015261450281613d67565b9050919050565b6000602082019050818103600083015261452281613d8a565b9050919050565b6000602082019050818103600083015261454281613dad565b9050919050565b6000602082019050818103600083015261456281613dd0565b9050919050565b6000602082019050818103600083015261458281613df3565b9050919050565b600060208201905081810360008301526145a281613e16565b9050919050565b600060208201905081810360008301526145c281613e5c565b9050919050565b600060208201905081810360008301526145e281613e7f565b9050919050565b6000602082019050818103600083015261460281613ec5565b9050919050565b6000602082019050818103600083015261462281613ee8565b9050919050565b6000602082019050818103600083015261464281613f0b565b9050919050565b6000602082019050818103600083015261466281613f2e565b9050919050565b6000602082019050818103600083015261468281613f51565b9050919050565b600060208201905081810360008301526146a281614000565b9050919050565b600060208201905081810360008301526146c281614046565b9050919050565b600060208201905081810360008301526146e281614069565b9050919050565b600060208201905081810360008301526147028161408c565b9050919050565b60006020820190508181036000830152614722816140af565b9050919050565b6000614733614744565b905061473f8282614c6c565b919050565b6000604051905090565b600067ffffffffffffffff82111561476957614768614e0c565b5b602082029050602081019050919050565b600067ffffffffffffffff82111561479557614794614e0c565b5b61479e82614e54565b9050602081019050919050565b6000819050602082019050919050565b60008190508160005260206000209050919050565b600081519050919050565b600081519050919050565b6000602082019050919050565b600082825260208201905092915050565b600082825260208201905092915050565b600082825260208201905092915050565b600082825260208201905092915050565b600081905092915050565b600061484d82614be1565b915061485883614be1565b9250827fffffffffffffffffffffffffffffffffffffffffffffffffffffffffffffffff0382111561488d5761488c614d21565b5b828201905092915050565b60006148a382614beb565b91506148ae83614beb565b92508260ff038211156148c4576148c3614d21565b5b828201905092915050565b60006148da82614be1565b91506148e583614be1565b9250826148f5576148f4614d50565b5b828204905092915050565b600061490b82614beb565b915061491683614beb565b92508261492657614925614d50565b5b828204905092915050565b6000808291508390505b600185111561497b5780860481111561495757614956614d21565b5b60018516156149665780820291505b808102905061497485614e65565b945061493b565b94509492505050565b600061498f82614be1565b915061499a83614be1565b92506149c77fffffffffffffffffffffffffffffffffffffffffffffffffffffffffffffffff84846149cf565b905092915050565b6000826149df5760019050614a9b565b816149ed5760009050614a9b565b8160018114614a035760028114614a0d57614a3c565b6001915050614a9b565b60ff841115614a1f57614a1e614d21565b5b8360020a915084821115614a3657614a35614d21565b5b50614a9b565b5060208310610133831016604e8410600b8410161715614a715782820a905083811115614a6c57614a6b614d21565b5b614a9b565b614a7e8484846001614931565b92509050818404811115614a9557614a94614d21565b5b81810290505b9392505050565b6000614aad82614be1565b9150614ab883614be1565b9250817fffffffffffffffffffffffffffffffffffffffffffffffffffffffffffffffff0483118215151615614af157614af0614d21565b5b828202905092915050565b6000614b0782614beb565b9150614b1283614beb565b92508160ff0483118215151615614b2c57614b2b614d21565b5b828202905092915050565b6000614b4282614be1565b9150614b4d83614be1565b925082821015614b6057614b5f614d21565b5b828203905092915050565b6000614b7682614beb565b9150614b8183614beb565b925082821015614b9457614b93614d21565b5b828203905092915050565b60008115159050919050565b60007fffffffffffffffffffffffffffffffff0000000000000000000000000000000082169050919050565b6000819050919050565b6000819050919050565b600060ff82169050919050565b82818337600083830152505050565b60005b83811015614c25578082015181840152602081019050614c0a565b83811115614c34576000848401525b50505050565b60006002820490506001821680614c5257607f821691505b60208210811415614c6657614c65614dae565b5b50919050565b614c7582614e54565b810181811067ffffffffffffffff82111715614c9457614c93614e0c565b5b80604052505050565b6000614ca882614be1565b91507fffffffffffffffffffffffffffffffffffffffffffffffffffffffffffffffff821415614cdb57614cda614d21565b5b600182019050919050565b6000819050919050565b6000614cfb82614be1565b9150614d0683614be1565b925082614d1657614d15614d50565b5b828206905092915050565b7f4e487b7100000000000000000000000000000000000000000000000000000000600052601160045260246000fd5b7f4e487b7100000000000000000000000000000000000000000000000000000000600052601260045260246000fd5b7f4e487b7100000000000000000000000000000000000000000000000000000000600052602160045260246000fd5b7f4e487b7100000000000000000000000000000000000000000000000000000000600052602260045260246000fd5b7f4e487b7100000000000000000000000000000000000000000000000000000000600052603260045260246000fd5b7f4e487b7100000000000000000000000000000000000000000000000000000000600052604160045260246000fd5b600080fd5b600080fd5b600080fd5b600080fd5b600080fd5b6000601f19601f8301169050919050565b60008160011c9050919050565b7f4c4f542000000000000000000000000000000000000000000000000000000000600082015250565b7f50726f6475697420696e6578697374616e742021212100000000000000000000600082015250565b7f566f7573206e276574657320706173206c652070726f7072696574616972652060008201527f6427756e206c6f7420646520636f757665727475726500000000000000000000602082015250565b7f566f7573206573736179657220646520636f757672697220756e2070726f647560008201527f6974206176656320756e206175747265206475206d656d65207479706520212160208201527f2100000000000000000000000000000000000000000000000000000000000000604082015250565b7f4563686563206465206c696169736f6e206465732070726f6475697473000000600082015250565b7f4368616d70206578697374616e74202100000000000000000000000000000000600082015250565b7f4368616d707320696e6578697374616e74202100000000000000000000000000600082015250565b7f566f7573206573736179657220646520636f757672697220756e206c6f74206460008201527f652070726f64756974206176656320756e206175747265206c6f74206465207060208201527f726f64756974206475206d656d65207479706520212121000000000000000000604082015250565b7f5479706520646520646f6e6e656573206e6f6e206175746f7269736520212121600082015250565b7f54697472652070726f707269657461697265204d6f64656c207265717569742060008201527f706f757220636574746520616374696f6e202121210000000000000000000000602082015250565b7f205f5f5f204e756d65726f206465206c6f743a20000000000000000000000000600082015250565b7f566f7573206573736179657220646520636f757672697220756e2070726f647560008201527f6974206176656320756e206c6f74206475206d656d652061757472652064752060208201527f6d656d6520747970652021212100000000000000000000000000000000000000604082015250565b7f436f64652070726f64756974206573742064656a6120656e207365727669636560008201527f2021212100000000000000000000000000000000000000000000000000000000602082015250565b7f2d23000000000000000000000000000000000000000000000000000000000000600082015250565b7f4365206368616d7073206e276573742070617320737461746963202121210000600082015250565b7f4c652070726f64756974206f75206c65206c6f742064652070726f647569742060008201527f71756520766f7573206173736579657a20646520636f7576726972206e27657860208201527f6973746520706173202121210000000000000000000000000000000000000000604082015250565b7f4365206c6f74206578697374652064656a612021212100000000000000000000600082015250565b7f436f64652070726f64756974206e6f6e207265636f6e6e756520212121000000600082015250565b7f566f7573206573736179657220646520636f757672697220756e206c6f74206460008201527f652070726f64756974206176656320756e2070726f64756974206465206d656d60208201527f6520747970652071756520636575782064616e73206c65206c6f742021212100604082015250565b7f50726f7072696574616972653a20000000000000000000000000000000000000600082015250565b7f5f00000000000000000000000000000000000000000000000000000000000000600082015250565b7f205f5f5f20436f64652070726f647569743a2000000000000000000000000000600082015250565b7f2d00000000000000000000000000000000000000000000000000000000000000600082015250565b7f4964656e74696669616e742064652070726f6475697420646520636f7576657260008201527f74757265206e6f6e207265636f6e6e7520212121000000000000000000000000602082015250565b7f3a20000000000000000000000000000000000000000000000000000000000000600082015250565b7f566f7573206e276574657320706173206c652070726f7072696574616972652060008201527f6427756e2070726f6475697420646520636f7576657274757265000000000000602082015250565b7f54697472652070726f7072696574616972652072657175697420706f7572206360008201527f6574746520616374696f6e202121210000000000000000000000000000000000602082015250565b7f4365206c6f742064652070726f64756974206e2765786973746520706173202160008201527f2121000000000000000000000000000000000000000000000000000000000000602082015250565b7f4c652070726f64756974206f75206c6f742064652070726f647569742071756560008201527f20766f757320617373657a657a2064652072617070656c6572206e276578697360208201527f7465207061730000000000000000000000000000000000000000000000000000604082015250565b7f205f5f5f20000000000000000000000000000000000000000000000000000000600082015250565b61561b81614b9f565b811461562657600080fd5b50565b61563281614bab565b811461563d57600080fd5b50565b61564981614bd7565b811461565457600080fd5b50565b61566081614be1565b811461566b57600080fd5b5056fea26469706673582212208268264b26a50f3321235bb08404678834e2184726b65892e2b3438930f6683a64736f6c63430008070033",
			"opcodes": "PUSH1 0x80 PUSH1 0x40 MSTORE CALLVALUE DUP1 ISZERO PUSH3 0x11 JUMPI PUSH1 0x0 DUP1 REVERT JUMPDEST POP PUSH1 0x1 PUSH1 0x9 PUSH1 0x0 PUSH3 0x5E PUSH1 0x40 MLOAD DUP1 PUSH1 0x40 ADD PUSH1 0x40 MSTORE DUP1 PUSH1 0x6 DUP2 MSTORE PUSH1 0x20 ADD PUSH32 0x535452494E470000000000000000000000000000000000000000000000000000 DUP2 MSTORE POP PUSH3 0x416 PUSH1 0x20 SHL PUSH1 0x20 SHR JUMP JUMPDEST PUSH16 0xFFFFFFFFFFFFFFFFFFFFFFFFFFFFFFFF NOT AND PUSH16 0xFFFFFFFFFFFFFFFFFFFFFFFFFFFFFFFF NOT AND DUP2 MSTORE PUSH1 0x20 ADD SWAP1 DUP2 MSTORE PUSH1 0x20 ADD PUSH1 0x0 KECCAK256 PUSH1 0x0 PUSH2 0x100 EXP DUP2 SLOAD DUP2 PUSH1 0xFF MUL NOT AND SWAP1 DUP4 PUSH1 0x3 DUP2 GT ISZERO PUSH3 0xB7 JUMPI PUSH3 0xB6 PUSH3 0x443 JUMP JUMPDEST JUMPDEST MUL OR SWAP1 SSTORE POP PUSH1 0x2 PUSH1 0x9 PUSH1 0x0 PUSH3 0x108 PUSH1 0x40 MLOAD DUP1 PUSH1 0x40 ADD PUSH1 0x40 MSTORE DUP1 PUSH1 0x4 DUP2 MSTORE PUSH1 0x20 ADD PUSH32 0x55494E5400000000000000000000000000000000000000000000000000000000 DUP2 MSTORE POP PUSH3 0x416 PUSH1 0x20 SHL PUSH1 0x20 SHR JUMP JUMPDEST PUSH16 0xFFFFFFFFFFFFFFFFFFFFFFFFFFFFFFFF NOT AND PUSH16 0xFFFFFFFFFFFFFFFFFFFFFFFFFFFFFFFF NOT AND DUP2 MSTORE PUSH1 0x20 ADD SWAP1 DUP2 MSTORE PUSH1 0x20 ADD PUSH1 0x0 KECCAK256 PUSH1 0x0 PUSH2 0x100 EXP DUP2 SLOAD DUP2 PUSH1 0xFF MUL NOT AND SWAP1 DUP4 PUSH1 0x3 DUP2 GT ISZERO PUSH3 0x161 JUMPI PUSH3 0x160 PUSH3 0x443 JUMP JUMPDEST JUMPDEST MUL OR SWAP1 SSTORE POP PUSH1 0x3 PUSH1 0x9 PUSH1 0x0 PUSH3 0x1B2 PUSH1 0x40 MLOAD DUP1 PUSH1 0x40 ADD PUSH1 0x40 MSTORE DUP1 PUSH1 0x4 DUP2 MSTORE PUSH1 0x20 ADD PUSH32 0x4441544500000000000000000000000000000000000000000000000000000000 DUP2 MSTORE POP PUSH3 0x416 PUSH1 0x20 SHL PUSH1 0x20 SHR JUMP JUMPDEST PUSH16 0xFFFFFFFFFFFFFFFFFFFFFFFFFFFFFFFF NOT AND PUSH16 0xFFFFFFFFFFFFFFFFFFFFFFFFFFFFFFFF NOT AND DUP2 MSTORE PUSH1 0x20 ADD SWAP1 DUP2 MSTORE PUSH1 0x20 ADD PUSH1 0x0 KECCAK256 PUSH1 0x0 PUSH2 0x100 EXP DUP2 SLOAD DUP2 PUSH1 0xFF MUL NOT AND SWAP1 DUP4 PUSH1 0x3 DUP2 GT ISZERO PUSH3 0x20B JUMPI PUSH3 0x20A PUSH3 0x443 JUMP JUMPDEST JUMPDEST MUL OR SWAP1 SSTORE POP PUSH3 0x256 PUSH1 0x40 MLOAD DUP1 PUSH1 0x40 ADD PUSH1 0x40 MSTORE DUP1 PUSH1 0x6 DUP2 MSTORE PUSH1 0x20 ADD PUSH32 0x535452494E470000000000000000000000000000000000000000000000000000 DUP2 MSTORE POP PUSH3 0x416 PUSH1 0x20 SHL PUSH1 0x20 SHR JUMP JUMPDEST PUSH1 0xA PUSH1 0x0 PUSH1 0x1 PUSH1 0x3 DUP2 GT ISZERO PUSH3 0x271 JUMPI PUSH3 0x270 PUSH3 0x443 JUMP JUMPDEST JUMPDEST PUSH1 0x3 DUP2 GT ISZERO PUSH3 0x286 JUMPI PUSH3 0x285 PUSH3 0x443 JUMP JUMPDEST JUMPDEST DUP2 MSTORE PUSH1 0x20 ADD SWAP1 DUP2 MSTORE PUSH1 0x20 ADD PUSH1 0x0 KECCAK256 PUSH1 0x0 PUSH2 0x100 EXP DUP2 SLOAD DUP2 PUSH16 0xFFFFFFFFFFFFFFFFFFFFFFFFFFFFFFFF MUL NOT AND SWAP1 DUP4 PUSH1 0x80 SHR MUL OR SWAP1 SSTORE POP PUSH3 0x301 PUSH1 0x40 MLOAD DUP1 PUSH1 0x40 ADD PUSH1 0x40 MSTORE DUP1 PUSH1 0x4 DUP2 MSTORE PUSH1 0x20 ADD PUSH32 0x55494E5400000000000000000000000000000000000000000000000000000000 DUP2 MSTORE POP PUSH3 0x416 PUSH1 0x20 SHL PUSH1 0x20 SHR JUMP JUMPDEST PUSH1 0xA PUSH1 0x0 PUSH1 0x2 PUSH1 0x3 DUP2 GT ISZERO PUSH3 0x31C JUMPI PUSH3 0x31B PUSH3 0x443 JUMP JUMPDEST JUMPDEST PUSH1 0x3 DUP2 GT ISZERO PUSH3 0x331 JUMPI PUSH3 0x330 PUSH3 0x443 JUMP JUMPDEST JUMPDEST DUP2 MSTORE PUSH1 0x20 ADD SWAP1 DUP2 MSTORE PUSH1 0x20 ADD PUSH1 0x0 KECCAK256 PUSH1 0x0 PUSH2 0x100 EXP DUP2 SLOAD DUP2 PUSH16 0xFFFFFFFFFFFFFFFFFFFFFFFFFFFFFFFF MUL NOT AND SWAP1 DUP4 PUSH1 0x80 SHR MUL OR SWAP1 SSTORE POP PUSH3 0x3AC PUSH1 0x40 MLOAD DUP1 PUSH1 0x40 ADD PUSH1 0x40 MSTORE DUP1 PUSH1 0x4 DUP2 MSTORE PUSH1 0x20 ADD PUSH32 0x4441544500000000000000000000000000000000000000000000000000000000 DUP2 MSTORE POP PUSH3 0x416 PUSH1 0x20 SHL PUSH1 0x20 SHR JUMP JUMPDEST PUSH1 0xA PUSH1 0x0 PUSH1 0x3 DUP1 DUP2 GT ISZERO PUSH3 0x3C6 JUMPI PUSH3 0x3C5 PUSH3 0x443 JUMP JUMPDEST JUMPDEST PUSH1 0x3 DUP2 GT ISZERO PUSH3 0x3DB JUMPI PUSH3 0x3DA PUSH3 0x443 JUMP JUMPDEST JUMPDEST DUP2 MSTORE PUSH1 0x20 ADD SWAP1 DUP2 MSTORE PUSH1 0x20 ADD PUSH1 0x0 KECCAK256 PUSH1 0x0 PUSH2 0x100 EXP DUP2 SLOAD DUP2 PUSH16 0xFFFFFFFFFFFFFFFFFFFFFFFFFFFFFFFF MUL NOT AND SWAP1 DUP4 PUSH1 0x80 SHR MUL OR SWAP1 SSTORE POP PUSH3 0x472 JUMP JUMPDEST PUSH1 0x0 DUP1 DUP3 SWAP1 POP PUSH1 0x0 DUP2 MLOAD EQ ISZERO PUSH3 0x435 JUMPI PUSH1 0x0 PUSH1 0x80 SHL SWAP2 POP POP PUSH3 0x43E JUMP JUMPDEST PUSH1 0x20 DUP4 ADD MLOAD SWAP2 POP POP JUMPDEST SWAP2 SWAP1 POP JUMP JUMPDEST PUSH32 0x4E487B7100000000000000000000000000000000000000000000000000000000 PUSH1 0x0 MSTORE PUSH1 0x21 PUSH1 0x4 MSTORE PUSH1 0x24 PUSH1 0x0 REVERT JUMPDEST PUSH2 0x56A4 DUP1 PUSH3 0x482 PUSH1 0x0 CODECOPY PUSH1 0x0 RETURN INVALID PUSH1 0x80 PUSH1 0x40 MSTORE CALLVALUE DUP1 ISZERO PUSH2 0x10 JUMPI PUSH1 0x0 DUP1 REVERT JUMPDEST POP PUSH1 0x4 CALLDATASIZE LT PUSH2 0x100 JUMPI PUSH1 0x0 CALLDATALOAD PUSH1 0xE0 SHR DUP1 PUSH4 0x5AD2E444 GT PUSH2 0x97 JUMPI DUP1 PUSH4 0x9FE2C845 GT PUSH2 0x66 JUMPI DUP1 PUSH4 0x9FE2C845 EQ PUSH2 0x2CD JUMPI DUP1 PUSH4 0xD2738A49 EQ PUSH2 0x2E9 JUMPI DUP1 PUSH4 0xFDF9B2B5 EQ PUSH2 0x305 JUMPI DUP1 PUSH4 0xFEB7FE4E EQ PUSH2 0x321 JUMPI PUSH2 0x100 JUMP JUMPDEST DUP1 PUSH4 0x5AD2E444 EQ PUSH2 0x25D JUMPI DUP1 PUSH4 0x600C40D4 EQ PUSH2 0x279 JUMPI DUP1 PUSH4 0x72714AB0 EQ PUSH2 0x295 JUMPI DUP1 PUSH4 0x7931B820 EQ PUSH2 0x2B1 JUMPI PUSH2 0x100 JUMP JUMPDEST DUP1 PUSH4 0x27DF8F2A GT PUSH2 0xD3 JUMPI DUP1 PUSH4 0x27DF8F2A EQ PUSH2 0x1B1 JUMPI DUP1 PUSH4 0x310DF0F6 EQ PUSH2 0x1E1 JUMPI DUP1 PUSH4 0x46D81627 EQ PUSH2 0x1FD JUMPI DUP1 PUSH4 0x55C6D191 EQ PUSH2 0x22D JUMPI PUSH2 0x100 JUMP JUMPDEST DUP1 PUSH4 0xD62942B EQ PUSH2 0x105 JUMPI DUP1 PUSH4 0x18B624FD EQ PUSH2 0x121 JUMPI DUP1 PUSH4 0x22DD1A91 EQ PUSH2 0x151 JUMPI DUP1 PUSH4 0x27424AAA EQ PUSH2 0x181 JUMPI JUMPDEST PUSH1 0x0 DUP1 REVERT JUMPDEST PUSH2 0x11F PUSH1 0x4 DUP1 CALLDATASIZE SUB DUP2 ADD SWAP1 PUSH2 0x11A SWAP2 SWAP1 PUSH2 0x39FB JUMP JUMPDEST PUSH2 0x33F JUMP JUMPDEST STOP JUMPDEST PUSH2 0x13B PUSH1 0x4 DUP1 CALLDATASIZE SUB DUP2 ADD SWAP1 PUSH2 0x136 SWAP2 SWAP1 PUSH2 0x393A JUMP JUMPDEST PUSH2 0x471 JUMP JUMPDEST PUSH1 0x40 MLOAD PUSH2 0x148 SWAP2 SWAP1 PUSH2 0x42F4 JUMP JUMPDEST PUSH1 0x40 MLOAD DUP1 SWAP2 SUB SWAP1 RETURN JUMPDEST PUSH2 0x16B PUSH1 0x4 DUP1 CALLDATASIZE SUB DUP2 ADD SWAP1 PUSH2 0x166 SWAP2 SWAP1 PUSH2 0x38FA JUMP JUMPDEST PUSH2 0x49C JUMP JUMPDEST PUSH1 0x40 MLOAD PUSH2 0x178 SWAP2 SWAP1 PUSH2 0x42D2 JUMP JUMPDEST PUSH1 0x40 MLOAD DUP1 SWAP2 SUB SWAP1 RETURN JUMPDEST PUSH2 0x19B PUSH1 0x4 DUP1 CALLDATASIZE SUB DUP2 ADD SWAP1 PUSH2 0x196 SWAP2 SWAP1 PUSH2 0x37F4 JUMP JUMPDEST PUSH2 0x572 JUMP JUMPDEST PUSH1 0x40 MLOAD PUSH2 0x1A8 SWAP2 SWAP1 PUSH2 0x430F JUMP JUMPDEST PUSH1 0x40 MLOAD DUP1 SWAP2 SUB SWAP1 RETURN JUMPDEST PUSH2 0x1CB PUSH1 0x4 DUP1 CALLDATASIZE SUB DUP2 ADD SWAP1 PUSH2 0x1C6 SWAP2 SWAP1 PUSH2 0x393A JUMP JUMPDEST PUSH2 0x5F9 JUMP JUMPDEST PUSH1 0x40 MLOAD PUSH2 0x1D8 SWAP2 SWAP1 PUSH2 0x430F JUMP JUMPDEST PUSH1 0x40 MLOAD DUP1 SWAP2 SUB SWAP1 RETURN JUMPDEST PUSH2 0x1FB PUSH1 0x4 DUP1 CALLDATASIZE SUB DUP2 ADD SWAP1 PUSH2 0x1F6 SWAP2 SWAP1 PUSH2 0x38FA JUMP JUMPDEST PUSH2 0x623 JUMP JUMPDEST STOP JUMPDEST PUSH2 0x217 PUSH1 0x4 DUP1 CALLDATASIZE SUB DUP2 ADD SWAP1 PUSH2 0x212 SWAP2 SWAP1 PUSH2 0x393A JUMP JUMPDEST PUSH2 0x651 JUMP JUMPDEST PUSH1 0x40 MLOAD PUSH2 0x224 SWAP2 SWAP1 PUSH2 0x43E4 JUMP JUMPDEST PUSH1 0x40 MLOAD DUP1 SWAP2 SUB SWAP1 RETURN JUMPDEST PUSH2 0x247 PUSH1 0x4 DUP1 CALLDATASIZE SUB DUP2 ADD SWAP1 PUSH2 0x242 SWAP2 SWAP1 PUSH2 0x3863 JUMP JUMPDEST PUSH2 0xB6C JUMP JUMPDEST PUSH1 0x40 MLOAD PUSH2 0x254 SWAP2 SWAP1 PUSH2 0x430F JUMP JUMPDEST PUSH1 0x40 MLOAD DUP1 SWAP2 SUB SWAP1 RETURN JUMPDEST PUSH2 0x277 PUSH1 0x4 DUP1 CALLDATASIZE SUB DUP2 ADD SWAP1 PUSH2 0x272 SWAP2 SWAP1 PUSH2 0x37F4 JUMP JUMPDEST PUSH2 0xCA4 JUMP JUMPDEST STOP JUMPDEST PUSH2 0x293 PUSH1 0x4 DUP1 CALLDATASIZE SUB DUP2 ADD SWAP1 PUSH2 0x28E SWAP2 SWAP1 PUSH2 0x37F4 JUMP JUMPDEST PUSH2 0xCB6 JUMP JUMPDEST STOP JUMPDEST PUSH2 0x2AF PUSH1 0x4 DUP1 CALLDATASIZE SUB DUP2 ADD SWAP1 PUSH2 0x2AA SWAP2 SWAP1 PUSH2 0x375D JUMP JUMPDEST PUSH2 0xCC8 JUMP JUMPDEST STOP JUMPDEST PUSH2 0x2CB PUSH1 0x4 DUP1 CALLDATASIZE SUB DUP2 ADD SWAP1 PUSH2 0x2C6 SWAP2 SWAP1 PUSH2 0x39FB JUMP JUMPDEST PUSH2 0xCDE JUMP JUMPDEST STOP JUMPDEST PUSH2 0x2E7 PUSH1 0x4 DUP1 CALLDATASIZE SUB DUP2 ADD SWAP1 PUSH2 0x2E2 SWAP2 SWAP1 PUSH2 0x375D JUMP JUMPDEST PUSH2 0xE10 JUMP JUMPDEST STOP JUMPDEST PUSH2 0x303 PUSH1 0x4 DUP1 CALLDATASIZE SUB DUP2 ADD SWAP1 PUSH2 0x2FE SWAP2 SWAP1 PUSH2 0x3983 JUMP JUMPDEST PUSH2 0xE26 JUMP JUMPDEST STOP JUMPDEST PUSH2 0x31F PUSH1 0x4 DUP1 CALLDATASIZE SUB DUP2 ADD SWAP1 PUSH2 0x31A SWAP2 SWAP1 PUSH2 0x393A JUMP JUMPDEST PUSH2 0xEF1 JUMP JUMPDEST STOP JUMPDEST PUSH2 0x329 PUSH2 0xFD5 JUMP JUMPDEST PUSH1 0x40 MLOAD PUSH2 0x336 SWAP2 SWAP1 PUSH2 0x43E4 JUMP JUMPDEST PUSH1 0x40 MLOAD DUP1 SWAP2 SUB SWAP1 RETURN JUMPDEST PUSH1 0x0 PUSH1 0x3 DUP5 PUSH1 0x40 MLOAD PUSH2 0x351 SWAP2 SWAP1 PUSH2 0x414F JUMP JUMPDEST SWAP1 DUP2 MSTORE PUSH1 0x20 ADD PUSH1 0x40 MLOAD DUP1 SWAP2 SUB SWAP1 KECCAK256 PUSH1 0x1 ADD DUP1 SLOAD PUSH2 0x36D SWAP1 PUSH2 0x4C3A JUMP JUMPDEST SWAP1 POP EQ ISZERO PUSH2 0x3B0 JUMPI PUSH1 0x40 MLOAD PUSH32 0x8C379A000000000000000000000000000000000000000000000000000000000 DUP2 MSTORE PUSH1 0x4 ADD PUSH2 0x3A7 SWAP1 PUSH2 0x4489 JUMP JUMPDEST PUSH1 0x40 MLOAD DUP1 SWAP2 SUB SWAP1 REVERT JUMPDEST CALLER PUSH20 0xFFFFFFFFFFFFFFFFFFFFFFFFFFFFFFFFFFFFFFFF AND PUSH1 0x3 DUP5 PUSH1 0x40 MLOAD PUSH2 0x3D7 SWAP2 SWAP1 PUSH2 0x414F JUMP JUMPDEST SWAP1 DUP2 MSTORE PUSH1 0x20 ADD PUSH1 0x40 MLOAD DUP1 SWAP2 SUB SWAP1 KECCAK256 PUSH1 0x0 ADD PUSH1 0x0 SWAP1 SLOAD SWAP1 PUSH2 0x100 EXP SWAP1 DIV PUSH20 0xFFFFFFFFFFFFFFFFFFFFFFFFFFFFFFFFFFFFFFFF AND PUSH20 0xFFFFFFFFFFFFFFFFFFFFFFFFFFFFFFFFFFFFFFFF AND EQ PUSH2 0x45F JUMPI PUSH1 0x40 MLOAD PUSH32 0x8C379A000000000000000000000000000000000000000000000000000000000 DUP2 MSTORE PUSH1 0x4 ADD PUSH2 0x456 SWAP1 PUSH2 0x46C9 JUMP JUMPDEST PUSH1 0x40 MLOAD DUP1 SWAP2 SUB SWAP1 REVERT JUMPDEST PUSH2 0x46C DUP4 DUP4 DUP4 PUSH1 0x1 PUSH2 0x1057 JUMP JUMPDEST POP POP POP JUMP JUMPDEST PUSH1 0x0 DUP1 DUP3 SWAP1 POP PUSH1 0x0 DUP2 MLOAD EQ ISZERO PUSH2 0x48E JUMPI PUSH1 0x0 PUSH1 0x80 SHL SWAP2 POP POP PUSH2 0x497 JUMP JUMPDEST PUSH1 0x20 DUP4 ADD MLOAD SWAP2 POP POP JUMPDEST SWAP2 SWAP1 POP JUMP JUMPDEST PUSH1 0x60 DUP2 PUSH8 0xFFFFFFFFFFFFFFFF DUP2 GT ISZERO PUSH2 0x4B8 JUMPI PUSH2 0x4B7 PUSH2 0x4E0C JUMP JUMPDEST JUMPDEST PUSH1 0x40 MLOAD SWAP1 DUP1 DUP3 MSTORE DUP1 PUSH1 0x20 MUL PUSH1 0x20 ADD DUP3 ADD PUSH1 0x40 MSTORE DUP1 ISZERO PUSH2 0x4EB JUMPI DUP2 PUSH1 0x20 ADD JUMPDEST PUSH1 0x60 DUP2 MSTORE PUSH1 0x20 ADD SWAP1 PUSH1 0x1 SWAP1 SUB SWAP1 DUP2 PUSH2 0x4D6 JUMPI SWAP1 POP JUMPDEST POP SWAP1 POP PUSH1 0x0 JUMPDEST DUP3 DUP2 LT ISZERO PUSH2 0x534 JUMPI PUSH2 0x503 DUP5 CALLER PUSH2 0x14D3 JUMP JUMPDEST DUP3 DUP3 DUP2 MLOAD DUP2 LT PUSH2 0x516 JUMPI PUSH2 0x515 PUSH2 0x4DDD JUMP JUMPDEST JUMPDEST PUSH1 0x20 MUL PUSH1 0x20 ADD ADD DUP2 SWAP1 MSTORE POP DUP1 DUP1 PUSH2 0x52C SWAP1 PUSH2 0x4C9D JUMP JUMPDEST SWAP2 POP POP PUSH2 0x4F1 JUMP JUMPDEST POP PUSH32 0x374A8FB6E2E51E9EFFE060B54375B5F7563DBAEB8DAC1DC2C68F85C1D96CC6EE DUP2 PUSH1 0x40 MLOAD PUSH2 0x564 SWAP2 SWAP1 PUSH2 0x42D2 JUMP JUMPDEST PUSH1 0x40 MLOAD DUP1 SWAP2 SUB SWAP1 LOG1 SWAP3 SWAP2 POP POP JUMP JUMPDEST PUSH1 0x0 PUSH2 0x58C PUSH1 0x40 MLOAD DUP1 PUSH1 0x20 ADD PUSH1 0x40 MSTORE DUP1 PUSH1 0x0 DUP2 MSTORE POP PUSH2 0x5F9 JUMP JUMPDEST PUSH1 0x7 PUSH1 0x0 DUP7 DUP2 MSTORE PUSH1 0x20 ADD SWAP1 DUP2 MSTORE PUSH1 0x20 ADD PUSH1 0x0 KECCAK256 PUSH1 0x1 ADD SLOAD EQ PUSH2 0x5E3 JUMPI PUSH1 0x40 MLOAD PUSH32 0x8C379A000000000000000000000000000000000000000000000000000000000 DUP2 MSTORE PUSH1 0x4 ADD PUSH2 0x5DA SWAP1 PUSH2 0x45C9 JUMP JUMPDEST PUSH1 0x40 MLOAD DUP1 SWAP2 SUB SWAP1 REVERT JUMPDEST PUSH2 0x5F0 DUP5 DUP5 DUP5 PUSH1 0x1 PUSH2 0x16CD JUMP JUMPDEST SWAP1 POP SWAP4 SWAP3 POP POP POP JUMP JUMPDEST PUSH1 0x0 DUP1 DUP3 SWAP1 POP PUSH1 0x0 DUP2 MLOAD EQ ISZERO PUSH2 0x615 JUMPI PUSH1 0x0 DUP1 SHL SWAP2 POP POP PUSH2 0x61E JUMP JUMPDEST PUSH1 0x20 DUP4 ADD MLOAD SWAP2 POP POP JUMPDEST SWAP2 SWAP1 POP JUMP JUMPDEST PUSH1 0x0 JUMPDEST DUP2 DUP2 LT ISZERO PUSH2 0x64C JUMPI PUSH2 0x638 DUP4 CALLER PUSH2 0x1A38 JUMP JUMPDEST POP DUP1 DUP1 PUSH2 0x644 SWAP1 PUSH2 0x4C9D JUMP JUMPDEST SWAP2 POP POP PUSH2 0x626 JUMP JUMPDEST POP POP POP JUMP JUMPDEST PUSH1 0x60 PUSH1 0x0 PUSH1 0x3 DUP4 PUSH1 0x40 MLOAD PUSH2 0x665 SWAP2 SWAP1 PUSH2 0x414F JUMP JUMPDEST SWAP1 DUP2 MSTORE PUSH1 0x20 ADD PUSH1 0x40 MLOAD DUP1 SWAP2 SUB SWAP1 KECCAK256 PUSH1 0x40 MLOAD DUP1 PUSH1 0xC0 ADD PUSH1 0x40 MSTORE SWAP1 DUP2 PUSH1 0x0 DUP3 ADD PUSH1 0x0 SWAP1 SLOAD SWAP1 PUSH2 0x100 EXP SWAP1 DIV PUSH20 0xFFFFFFFFFFFFFFFFFFFFFFFFFFFFFFFFFFFFFFFF AND PUSH20 0xFFFFFFFFFFFFFFFFFFFFFFFFFFFFFFFFFFFFFFFF AND PUSH20 0xFFFFFFFFFFFFFFFFFFFFFFFFFFFFFFFFFFFFFFFF AND DUP2 MSTORE PUSH1 0x20 ADD PUSH1 0x1 DUP3 ADD DUP1 SLOAD PUSH2 0x6E4 SWAP1 PUSH2 0x4C3A JUMP JUMPDEST DUP1 PUSH1 0x1F ADD PUSH1 0x20 DUP1 SWAP2 DIV MUL PUSH1 0x20 ADD PUSH1 0x40 MLOAD SWAP1 DUP2 ADD PUSH1 0x40 MSTORE DUP1 SWAP3 SWAP2 SWAP1 DUP2 DUP2 MSTORE PUSH1 0x20 ADD DUP3 DUP1 SLOAD PUSH2 0x710 SWAP1 PUSH2 0x4C3A JUMP JUMPDEST DUP1 ISZERO PUSH2 0x75D JUMPI DUP1 PUSH1 0x1F LT PUSH2 0x732 JUMPI PUSH2 0x100 DUP1 DUP4 SLOAD DIV MUL DUP4 MSTORE SWAP2 PUSH1 0x20 ADD SWAP2 PUSH2 0x75D JUMP JUMPDEST DUP3 ADD SWAP2 SWAP1 PUSH1 0x0 MSTORE PUSH1 0x20 PUSH1 0x0 KECCAK256 SWAP1 JUMPDEST DUP2 SLOAD DUP2 MSTORE SWAP1 PUSH1 0x1 ADD SWAP1 PUSH1 0x20 ADD DUP1 DUP4 GT PUSH2 0x740 JUMPI DUP3 SWAP1 SUB PUSH1 0x1F AND DUP3 ADD SWAP2 JUMPDEST POP POP POP POP POP DUP2 MSTORE PUSH1 0x20 ADD PUSH1 0x2 DUP3 ADD SLOAD DUP2 MSTORE PUSH1 0x20 ADD PUSH1 0x3 DUP3 ADD DUP1 SLOAD PUSH2 0x780 SWAP1 PUSH2 0x4C3A JUMP JUMPDEST DUP1 PUSH1 0x1F ADD PUSH1 0x20 DUP1 SWAP2 DIV MUL PUSH1 0x20 ADD PUSH1 0x40 MLOAD SWAP1 DUP2 ADD PUSH1 0x40 MSTORE DUP1 SWAP3 SWAP2 SWAP1 DUP2 DUP2 MSTORE PUSH1 0x20 ADD DUP3 DUP1 SLOAD PUSH2 0x7AC SWAP1 PUSH2 0x4C3A JUMP JUMPDEST DUP1 ISZERO PUSH2 0x7F9 JUMPI DUP1 PUSH1 0x1F LT PUSH2 0x7CE JUMPI PUSH2 0x100 DUP1 DUP4 SLOAD DIV MUL DUP4 MSTORE SWAP2 PUSH1 0x20 ADD SWAP2 PUSH2 0x7F9 JUMP JUMPDEST DUP3 ADD SWAP2 SWAP1 PUSH1 0x0 MSTORE PUSH1 0x20 PUSH1 0x0 KECCAK256 SWAP1 JUMPDEST DUP2 SLOAD DUP2 MSTORE SWAP1 PUSH1 0x1 ADD SWAP1 PUSH1 0x20 ADD DUP1 DUP4 GT PUSH2 0x7DC JUMPI DUP3 SWAP1 SUB PUSH1 0x1F AND DUP3 ADD SWAP2 JUMPDEST POP POP POP POP POP DUP2 MSTORE PUSH1 0x20 ADD PUSH1 0x4 DUP3 ADD PUSH1 0x0 SWAP1 SLOAD SWAP1 PUSH2 0x100 EXP SWAP1 DIV PUSH1 0xFF AND ISZERO ISZERO ISZERO ISZERO DUP2 MSTORE PUSH1 0x20 ADD PUSH1 0x4 DUP3 ADD PUSH1 0x1 SWAP1 SLOAD SWAP1 PUSH2 0x100 EXP SWAP1 DIV PUSH1 0xFF AND ISZERO ISZERO ISZERO ISZERO DUP2 MSTORE POP POP SWAP1 POP PUSH2 0x847 DUP2 PUSH1 0x0 ADD MLOAD PUSH2 0x1C50 JUMP JUMPDEST DUP2 PUSH1 0x40 ADD MLOAD DUP3 PUSH1 0x60 ADD MLOAD PUSH1 0x40 MLOAD PUSH1 0x20 ADD PUSH2 0x863 SWAP4 SWAP3 SWAP2 SWAP1 PUSH2 0x4233 JUMP JUMPDEST PUSH1 0x40 MLOAD PUSH1 0x20 DUP2 DUP4 SUB SUB DUP2 MSTORE SWAP1 PUSH1 0x40 MSTORE SWAP2 POP PUSH1 0x0 PUSH1 0x5 DUP5 PUSH1 0x40 MLOAD PUSH2 0x886 SWAP2 SWAP1 PUSH2 0x414F JUMP JUMPDEST SWAP1 DUP2 MSTORE PUSH1 0x20 ADD PUSH1 0x40 MLOAD DUP1 SWAP2 SUB SWAP1 KECCAK256 SWAP1 POP PUSH1 0x0 JUMPDEST DUP2 PUSH1 0x0 ADD DUP1 SLOAD SWAP1 POP DUP2 LT ISZERO PUSH2 0xB64 JUMPI DUP4 DUP3 PUSH1 0x0 ADD DUP3 DUP2 SLOAD DUP2 LT PUSH2 0x8BF JUMPI PUSH2 0x8BE PUSH2 0x4DDD JUMP JUMPDEST JUMPDEST SWAP1 PUSH1 0x0 MSTORE PUSH1 0x20 PUSH1 0x0 KECCAK256 SWAP1 PUSH1 0x2 MUL ADD PUSH1 0x0 ADD SLOAD PUSH1 0x40 MLOAD PUSH1 0x20 ADD PUSH2 0x8E2 SWAP3 SWAP2 SWAP1 PUSH2 0x4294 JUMP JUMPDEST PUSH1 0x40 MLOAD PUSH1 0x20 DUP2 DUP4 SUB SUB DUP2 MSTORE SWAP1 PUSH1 0x40 MSTORE SWAP4 POP PUSH1 0x1 PUSH1 0x3 DUP2 GT ISZERO PUSH2 0x907 JUMPI PUSH2 0x906 PUSH2 0x4D7F JUMP JUMPDEST JUMPDEST DUP3 PUSH1 0x0 ADD DUP3 DUP2 SLOAD DUP2 LT PUSH2 0x91D JUMPI PUSH2 0x91C PUSH2 0x4DDD JUMP JUMPDEST JUMPDEST SWAP1 PUSH1 0x0 MSTORE PUSH1 0x20 PUSH1 0x0 KECCAK256 SWAP1 PUSH1 0x2 MUL ADD PUSH1 0x1 ADD PUSH1 0x0 SWAP1 SLOAD SWAP1 PUSH2 0x100 EXP SWAP1 DIV PUSH1 0xFF AND PUSH1 0x3 DUP2 GT ISZERO PUSH2 0x94E JUMPI PUSH2 0x94D PUSH2 0x4D7F JUMP JUMPDEST JUMPDEST EQ ISZERO PUSH2 0x9B8 JUMPI DUP4 DUP3 PUSH1 0x1 ADD PUSH1 0x0 DUP5 PUSH1 0x0 ADD DUP5 DUP2 SLOAD DUP2 LT PUSH2 0x971 JUMPI PUSH2 0x970 PUSH2 0x4DDD JUMP JUMPDEST JUMPDEST SWAP1 PUSH1 0x0 MSTORE PUSH1 0x20 PUSH1 0x0 KECCAK256 SWAP1 PUSH1 0x2 MUL ADD PUSH1 0x0 ADD SLOAD DUP2 MSTORE PUSH1 0x20 ADD SWAP1 DUP2 MSTORE PUSH1 0x20 ADD PUSH1 0x0 KECCAK256 PUSH1 0x40 MLOAD PUSH1 0x20 ADD PUSH2 0x9A2 SWAP3 SWAP2 SWAP1 PUSH2 0x418A JUMP JUMPDEST PUSH1 0x40 MLOAD PUSH1 0x20 DUP2 DUP4 SUB SUB DUP2 MSTORE SWAP1 PUSH1 0x40 MSTORE SWAP4 POP PUSH2 0xB51 JUMP JUMPDEST PUSH1 0x2 PUSH1 0x3 DUP2 GT ISZERO PUSH2 0x9CC JUMPI PUSH2 0x9CB PUSH2 0x4D7F JUMP JUMPDEST JUMPDEST DUP3 PUSH1 0x0 ADD DUP3 DUP2 SLOAD DUP2 LT PUSH2 0x9E2 JUMPI PUSH2 0x9E1 PUSH2 0x4DDD JUMP JUMPDEST JUMPDEST SWAP1 PUSH1 0x0 MSTORE PUSH1 0x20 PUSH1 0x0 KECCAK256 SWAP1 PUSH1 0x2 MUL ADD PUSH1 0x1 ADD PUSH1 0x0 SWAP1 SLOAD SWAP1 PUSH2 0x100 EXP SWAP1 DIV PUSH1 0xFF AND PUSH1 0x3 DUP2 GT ISZERO PUSH2 0xA13 JUMPI PUSH2 0xA12 PUSH2 0x4D7F JUMP JUMPDEST JUMPDEST EQ ISZERO PUSH2 0xA86 JUMPI DUP4 PUSH2 0xA5F DUP4 PUSH1 0x2 ADD PUSH1 0x0 DUP6 PUSH1 0x0 ADD DUP6 DUP2 SLOAD DUP2 LT PUSH2 0xA39 JUMPI PUSH2 0xA38 PUSH2 0x4DDD JUMP JUMPDEST JUMPDEST SWAP1 PUSH1 0x0 MSTORE PUSH1 0x20 PUSH1 0x0 KECCAK256 SWAP1 PUSH1 0x2 MUL ADD PUSH1 0x0 ADD SLOAD DUP2 MSTORE PUSH1 0x20 ADD SWAP1 DUP2 MSTORE PUSH1 0x20 ADD PUSH1 0x0 KECCAK256 SLOAD PUSH2 0x1E13 JUMP JUMPDEST PUSH1 0x40 MLOAD PUSH1 0x20 ADD PUSH2 0xA70 SWAP3 SWAP2 SWAP1 PUSH2 0x4166 JUMP JUMPDEST PUSH1 0x40 MLOAD PUSH1 0x20 DUP2 DUP4 SUB SUB DUP2 MSTORE SWAP1 PUSH1 0x40 MSTORE SWAP4 POP PUSH2 0xB50 JUMP JUMPDEST PUSH1 0x3 DUP1 DUP2 GT ISZERO PUSH2 0xA99 JUMPI PUSH2 0xA98 PUSH2 0x4D7F JUMP JUMPDEST JUMPDEST DUP3 PUSH1 0x0 ADD DUP3 DUP2 SLOAD DUP2 LT PUSH2 0xAAF JUMPI PUSH2 0xAAE PUSH2 0x4DDD JUMP JUMPDEST JUMPDEST SWAP1 PUSH1 0x0 MSTORE PUSH1 0x20 PUSH1 0x0 KECCAK256 SWAP1 PUSH1 0x2 MUL ADD PUSH1 0x1 ADD PUSH1 0x0 SWAP1 SLOAD SWAP1 PUSH2 0x100 EXP SWAP1 DIV PUSH1 0xFF AND PUSH1 0x3 DUP2 GT ISZERO PUSH2 0xAE0 JUMPI PUSH2 0xADF PUSH2 0x4D7F JUMP JUMPDEST JUMPDEST EQ ISZERO PUSH2 0xB4F JUMPI DUP4 PUSH2 0xB2C DUP4 PUSH1 0x3 ADD PUSH1 0x0 DUP6 PUSH1 0x0 ADD DUP6 DUP2 SLOAD DUP2 LT PUSH2 0xB06 JUMPI PUSH2 0xB05 PUSH2 0x4DDD JUMP JUMPDEST JUMPDEST SWAP1 PUSH1 0x0 MSTORE PUSH1 0x20 PUSH1 0x0 KECCAK256 SWAP1 PUSH1 0x2 MUL ADD PUSH1 0x0 ADD SLOAD DUP2 MSTORE PUSH1 0x20 ADD SWAP1 DUP2 MSTORE PUSH1 0x20 ADD PUSH1 0x0 KECCAK256 SLOAD PUSH2 0x1E13 JUMP JUMPDEST PUSH1 0x40 MLOAD PUSH1 0x20 ADD PUSH2 0xB3D SWAP3 SWAP2 SWAP1 PUSH2 0x4166 JUMP JUMPDEST PUSH1 0x40 MLOAD PUSH1 0x20 DUP2 DUP4 SUB SUB DUP2 MSTORE SWAP1 PUSH1 0x40 MSTORE SWAP4 POP JUMPDEST JUMPDEST JUMPDEST DUP1 DUP1 PUSH2 0xB5C SWAP1 PUSH2 0x4C9D JUMP JUMPDEST SWAP2 POP POP PUSH2 0x899 JUMP JUMPDEST POP POP POP SWAP2 SWAP1 POP JUMP JUMPDEST PUSH1 0x0 PUSH2 0xB86 PUSH1 0x40 MLOAD DUP1 PUSH1 0x20 ADD PUSH1 0x40 MSTORE DUP1 PUSH1 0x0 DUP2 MSTORE POP PUSH2 0x5F9 JUMP JUMPDEST PUSH1 0x8 PUSH1 0x0 DUP9 DUP2 MSTORE PUSH1 0x20 ADD SWAP1 DUP2 MSTORE PUSH1 0x20 ADD PUSH1 0x0 KECCAK256 PUSH1 0x2 ADD SLOAD EQ PUSH2 0xBDD JUMPI PUSH1 0x40 MLOAD PUSH32 0x8C379A000000000000000000000000000000000000000000000000000000000 DUP2 MSTORE PUSH1 0x4 ADD PUSH2 0xBD4 SWAP1 PUSH2 0x4629 JUMP JUMPDEST PUSH1 0x40 MLOAD DUP1 SWAP2 SUB SWAP1 REVERT JUMPDEST PUSH2 0xBEA DUP7 DUP5 DUP5 PUSH1 0x0 PUSH2 0x16CD JUMP JUMPDEST POP DUP5 PUSH1 0x8 PUSH1 0x0 DUP9 DUP2 MSTORE PUSH1 0x20 ADD SWAP1 DUP2 MSTORE PUSH1 0x20 ADD PUSH1 0x0 KECCAK256 PUSH1 0x1 ADD DUP2 SWAP1 SSTORE POP PUSH2 0xC98 DUP6 PUSH2 0xC48 PUSH1 0x40 MLOAD DUP1 PUSH1 0x40 ADD PUSH1 0x40 MSTORE DUP1 PUSH1 0xF DUP2 MSTORE PUSH1 0x20 ADD PUSH32 0x50726F6475697420706172206C6F740000000000000000000000000000000000 DUP2 MSTORE POP PUSH2 0x5F9 JUMP JUMPDEST PUSH2 0xC86 PUSH1 0x40 MLOAD DUP1 PUSH1 0x40 ADD PUSH1 0x40 MSTORE DUP1 PUSH1 0x4 DUP2 MSTORE PUSH1 0x20 ADD PUSH32 0x55494E5400000000000000000000000000000000000000000000000000000000 DUP2 MSTORE POP PUSH2 0x471 JUMP JUMPDEST PUSH1 0x1 PUSH2 0xC91 DUP10 PUSH2 0x1E13 JUMP JUMPDEST PUSH1 0x0 PUSH2 0x1F74 JUMP JUMPDEST DUP6 SWAP1 POP SWAP6 SWAP5 POP POP POP POP POP JUMP JUMPDEST PUSH2 0xCB1 DUP4 DUP4 DUP4 PUSH1 0x1 PUSH2 0x23F7 JUMP JUMPDEST POP POP POP JUMP JUMPDEST PUSH2 0xCC3 DUP4 DUP4 DUP4 PUSH1 0x0 PUSH2 0x23F7 JUMP JUMPDEST POP POP POP JUMP JUMPDEST PUSH2 0xCD7 DUP6 DUP6 DUP6 DUP6 DUP6 PUSH1 0x1 PUSH2 0x1F74 JUMP JUMPDEST POP POP POP POP POP JUMP JUMPDEST PUSH1 0x0 PUSH1 0x4 DUP5 PUSH1 0x40 MLOAD PUSH2 0xCF0 SWAP2 SWAP1 PUSH2 0x414F JUMP JUMPDEST SWAP1 DUP2 MSTORE PUSH1 0x20 ADD PUSH1 0x40 MLOAD DUP1 SWAP2 SUB SWAP1 KECCAK256 PUSH1 0x1 ADD DUP1 SLOAD PUSH2 0xD0C SWAP1 PUSH2 0x4C3A JUMP JUMPDEST SWAP1 POP EQ ISZERO PUSH2 0xD4F JUMPI PUSH1 0x40 MLOAD PUSH32 0x8C379A000000000000000000000000000000000000000000000000000000000 DUP2 MSTORE PUSH1 0x4 ADD PUSH2 0xD46 SWAP1 PUSH2 0x46E9 JUMP JUMPDEST PUSH1 0x40 MLOAD DUP1 SWAP2 SUB SWAP1 REVERT JUMPDEST CALLER PUSH20 0xFFFFFFFFFFFFFFFFFFFFFFFFFFFFFFFFFFFFFFFF AND PUSH1 0x4 DUP5 PUSH1 0x40 MLOAD PUSH2 0xD76 SWAP2 SWAP1 PUSH2 0x414F JUMP JUMPDEST SWAP1 DUP2 MSTORE PUSH1 0x20 ADD PUSH1 0x40 MLOAD DUP1 SWAP2 SUB SWAP1 KECCAK256 PUSH1 0x0 ADD PUSH1 0x0 SWAP1 SLOAD SWAP1 PUSH2 0x100 EXP SWAP1 DIV PUSH20 0xFFFFFFFFFFFFFFFFFFFFFFFFFFFFFFFFFFFFFFFF AND PUSH20 0xFFFFFFFFFFFFFFFFFFFFFFFFFFFFFFFFFFFFFFFF AND EQ PUSH2 0xDFE JUMPI PUSH1 0x40 MLOAD PUSH32 0x8C379A000000000000000000000000000000000000000000000000000000000 DUP2 MSTORE PUSH1 0x4 ADD PUSH2 0xDF5 SWAP1 PUSH2 0x46C9 JUMP JUMPDEST PUSH1 0x40 MLOAD DUP1 SWAP2 SUB SWAP1 REVERT JUMPDEST PUSH2 0xE0B DUP4 DUP4 DUP4 PUSH1 0x0 PUSH2 0x1057 JUMP JUMPDEST POP POP POP JUMP JUMPDEST PUSH2 0xE1F DUP6 DUP6 DUP6 DUP6 DUP6 PUSH1 0x0 PUSH2 0x1F74 JUMP JUMPDEST POP POP POP POP POP JUMP JUMPDEST PUSH1 0x0 JUMPDEST DUP2 MLOAD DUP2 LT ISZERO PUSH2 0xEA8 JUMPI PUSH2 0xE56 DUP4 DUP4 DUP4 DUP2 MLOAD DUP2 LT PUSH2 0xE49 JUMPI PUSH2 0xE48 PUSH2 0x4DDD JUMP JUMPDEST JUMPDEST PUSH1 0x20 MUL PUSH1 0x20 ADD ADD MLOAD PUSH2 0x25F1 JUMP JUMPDEST PUSH2 0xE95 JUMPI PUSH1 0x40 MLOAD PUSH32 0x8C379A000000000000000000000000000000000000000000000000000000000 DUP2 MSTORE PUSH1 0x4 ADD PUSH2 0xE8C SWAP1 PUSH2 0x44E9 JUMP JUMPDEST PUSH1 0x40 MLOAD DUP1 SWAP2 SUB SWAP1 REVERT JUMPDEST DUP1 DUP1 PUSH2 0xEA0 SWAP1 PUSH2 0x4C9D JUMP JUMPDEST SWAP2 POP POP PUSH2 0xE29 JUMP JUMPDEST POP PUSH1 0x0 JUMPDEST DUP2 MLOAD DUP2 LT ISZERO PUSH2 0xEEC JUMPI PUSH2 0xED9 DUP4 DUP4 DUP4 DUP2 MLOAD DUP2 LT PUSH2 0xECC JUMPI PUSH2 0xECB PUSH2 0x4DDD JUMP JUMPDEST JUMPDEST PUSH1 0x20 MUL PUSH1 0x20 ADD ADD MLOAD PUSH2 0x2D14 JUMP JUMPDEST DUP1 DUP1 PUSH2 0xEE4 SWAP1 PUSH2 0x4C9D JUMP JUMPDEST SWAP2 POP POP PUSH2 0xEAC JUMP JUMPDEST POP POP POP JUMP JUMPDEST PUSH2 0xEFC DUP2 PUSH1 0x1 PUSH2 0x2DFA JUMP JUMPDEST ISZERO PUSH2 0xF40 JUMPI PUSH1 0x1 PUSH1 0x3 DUP3 PUSH1 0x40 MLOAD PUSH2 0xF13 SWAP2 SWAP1 PUSH2 0x414F JUMP JUMPDEST SWAP1 DUP2 MSTORE PUSH1 0x20 ADD PUSH1 0x40 MLOAD DUP1 SWAP2 SUB SWAP1 KECCAK256 PUSH1 0x4 ADD PUSH1 0x1 PUSH2 0x100 EXP DUP2 SLOAD DUP2 PUSH1 0xFF MUL NOT AND SWAP1 DUP4 ISZERO ISZERO MUL OR SWAP1 SSTORE POP PUSH2 0xFD2 JUMP JUMPDEST PUSH2 0xF4B DUP2 PUSH1 0x0 PUSH2 0x2DFA JUMP JUMPDEST ISZERO PUSH2 0xF8F JUMPI PUSH1 0x1 PUSH1 0x4 DUP3 PUSH1 0x40 MLOAD PUSH2 0xF62 SWAP2 SWAP1 PUSH2 0x414F JUMP JUMPDEST SWAP1 DUP2 MSTORE PUSH1 0x20 ADD PUSH1 0x40 MLOAD DUP1 SWAP2 SUB SWAP1 KECCAK256 PUSH1 0x6 ADD PUSH1 0x1 PUSH2 0x100 EXP DUP2 SLOAD DUP2 PUSH1 0xFF MUL NOT AND SWAP1 DUP4 ISZERO ISZERO MUL OR SWAP1 SSTORE POP PUSH2 0xFD1 JUMP JUMPDEST PUSH1 0x0 PUSH2 0xFD0 JUMPI PUSH1 0x40 MLOAD PUSH32 0x8C379A000000000000000000000000000000000000000000000000000000000 DUP2 MSTORE PUSH1 0x4 ADD PUSH2 0xFC7 SWAP1 PUSH2 0x4709 JUMP JUMPDEST PUSH1 0x40 MLOAD DUP1 SWAP2 SUB SWAP1 REVERT JUMPDEST JUMPDEST JUMPDEST POP JUMP JUMPDEST PUSH1 0x60 PUSH1 0x0 PUSH1 0x40 MLOAD DUP1 PUSH1 0x20 ADD PUSH1 0x40 MSTORE DUP1 PUSH1 0x0 DUP2 MSTORE POP SWAP1 POP PUSH1 0x0 JUMPDEST PUSH1 0x1 DUP1 SLOAD SWAP1 POP DUP2 LT ISZERO PUSH2 0x104F JUMPI PUSH1 0x1 DUP2 DUP2 SLOAD DUP2 LT PUSH2 0x100F JUMPI PUSH2 0x100E PUSH2 0x4DDD JUMP JUMPDEST JUMPDEST SWAP1 PUSH1 0x0 MSTORE PUSH1 0x20 PUSH1 0x0 KECCAK256 ADD DUP3 PUSH1 0x40 MLOAD PUSH1 0x20 ADD PUSH2 0x102B SWAP3 SWAP2 SWAP1 PUSH2 0x41AE JUMP JUMPDEST PUSH1 0x40 MLOAD PUSH1 0x20 DUP2 DUP4 SUB SUB DUP2 MSTORE SWAP1 PUSH1 0x40 MSTORE SWAP2 POP DUP1 DUP1 PUSH2 0x1047 SWAP1 PUSH2 0x4C9D JUMP JUMPDEST SWAP2 POP POP PUSH2 0xFEE JUMP JUMPDEST POP DUP1 SWAP2 POP POP SWAP1 JUMP JUMPDEST PUSH1 0x0 PUSH1 0x6 SWAP1 POP DUP2 ISZERO PUSH2 0x1068 JUMPI PUSH1 0x5 SWAP1 POP JUMPDEST PUSH1 0x0 PUSH2 0x1075 DUP7 DUP7 DUP6 PUSH2 0x2E76 JUMP JUMPDEST SWAP1 POP PUSH1 0x1 PUSH1 0x3 DUP2 GT ISZERO PUSH2 0x108B JUMPI PUSH2 0x108A PUSH2 0x4D7F JUMP JUMPDEST JUMPDEST DUP2 PUSH1 0x3 DUP2 GT ISZERO PUSH2 0x109E JUMPI PUSH2 0x109D PUSH2 0x4D7F JUMP JUMPDEST JUMPDEST EQ ISZERO PUSH2 0x112A JUMPI DUP4 DUP3 DUP8 PUSH1 0x40 MLOAD PUSH2 0x10B4 SWAP2 SWAP1 PUSH2 0x414F JUMP JUMPDEST SWAP1 DUP2 MSTORE PUSH1 0x20 ADD PUSH1 0x40 MLOAD DUP1 SWAP2 SUB SWAP1 KECCAK256 PUSH1 0x1 ADD PUSH1 0x0 DUP8 DUP2 MSTORE PUSH1 0x20 ADD SWAP1 DUP2 MSTORE PUSH1 0x20 ADD PUSH1 0x0 KECCAK256 SWAP1 DUP1 MLOAD SWAP1 PUSH1 0x20 ADD SWAP1 PUSH2 0x10E9 SWAP3 SWAP2 SWAP1 PUSH2 0x3525 JUMP JUMPDEST POP PUSH32 0x7F6A8A30C281639AC101896C913FC822B5604B2C5A268A47597F5E0D66BDDBF6 DUP7 DUP7 DUP7 PUSH1 0x40 MLOAD PUSH2 0x111D SWAP4 SWAP3 SWAP2 SWAP1 PUSH2 0x4406 JUMP JUMPDEST PUSH1 0x40 MLOAD DUP1 SWAP2 SUB SWAP1 LOG1 PUSH2 0x14CB JUMP JUMPDEST PUSH1 0x2 PUSH1 0x3 DUP2 GT ISZERO PUSH2 0x113E JUMPI PUSH2 0x113D PUSH2 0x4D7F JUMP JUMPDEST JUMPDEST DUP2 PUSH1 0x3 DUP2 GT ISZERO PUSH2 0x1151 JUMPI PUSH2 0x1150 PUSH2 0x4D7F JUMP JUMPDEST JUMPDEST EQ ISZERO PUSH2 0x12D9 JUMPI PUSH20 0x0 PUSH4 0x42346C5E DUP6 PUSH1 0x40 MLOAD DUP3 PUSH4 0xFFFFFFFF AND PUSH1 0xE0 SHL DUP2 MSTORE PUSH1 0x4 ADD PUSH2 0x118E SWAP2 SWAP1 PUSH2 0x43C2 JUMP JUMPDEST PUSH1 0x20 PUSH1 0x40 MLOAD DUP1 DUP4 SUB DUP2 DUP7 DUP1 EXTCODESIZE ISZERO DUP1 ISZERO PUSH2 0x11A6 JUMPI PUSH1 0x0 DUP1 REVERT JUMPDEST POP GAS DELEGATECALL ISZERO DUP1 ISZERO PUSH2 0x11BA JUMPI RETURNDATASIZE PUSH1 0x0 DUP1 RETURNDATACOPY RETURNDATASIZE PUSH1 0x0 REVERT JUMPDEST POP POP POP POP PUSH1 0x40 MLOAD RETURNDATASIZE PUSH1 0x1F NOT PUSH1 0x1F DUP3 ADD AND DUP3 ADD DUP1 PUSH1 0x40 MSTORE POP DUP2 ADD SWAP1 PUSH2 0x11DE SWAP2 SWAP1 PUSH2 0x3A86 JUMP JUMPDEST DUP3 DUP8 PUSH1 0x40 MLOAD PUSH2 0x11ED SWAP2 SWAP1 PUSH2 0x414F JUMP JUMPDEST SWAP1 DUP2 MSTORE PUSH1 0x20 ADD PUSH1 0x40 MLOAD DUP1 SWAP2 SUB SWAP1 KECCAK256 PUSH1 0x2 ADD PUSH1 0x0 DUP8 DUP2 MSTORE PUSH1 0x20 ADD SWAP1 DUP2 MSTORE PUSH1 0x20 ADD PUSH1 0x0 KECCAK256 DUP2 SWAP1 SSTORE POP PUSH32 0x145A939C5BF11315FA59D5F07D207F5F3222CBB9114B805B9349E30BDF4FFFA DUP7 DUP7 PUSH20 0x0 PUSH4 0x42346C5E DUP9 PUSH1 0x40 MLOAD DUP3 PUSH4 0xFFFFFFFF AND PUSH1 0xE0 SHL DUP2 MSTORE PUSH1 0x4 ADD PUSH2 0x126D SWAP2 SWAP1 PUSH2 0x43C2 JUMP JUMPDEST PUSH1 0x20 PUSH1 0x40 MLOAD DUP1 DUP4 SUB DUP2 DUP7 DUP1 EXTCODESIZE ISZERO DUP1 ISZERO PUSH2 0x1285 JUMPI PUSH1 0x0 DUP1 REVERT JUMPDEST POP GAS DELEGATECALL ISZERO DUP1 ISZERO PUSH2 0x1299 JUMPI RETURNDATASIZE PUSH1 0x0 DUP1 RETURNDATACOPY RETURNDATASIZE PUSH1 0x0 REVERT JUMPDEST POP POP POP POP PUSH1 0x40 MLOAD RETURNDATASIZE PUSH1 0x1F NOT PUSH1 0x1F DUP3 ADD AND DUP3 ADD DUP1 PUSH1 0x40 MSTORE POP DUP2 ADD SWAP1 PUSH2 0x12BD SWAP2 SWAP1 PUSH2 0x3A86 JUMP JUMPDEST PUSH1 0x40 MLOAD PUSH2 0x12CC SWAP4 SWAP3 SWAP2 SWAP1 PUSH2 0x444B JUMP JUMPDEST PUSH1 0x40 MLOAD DUP1 SWAP2 SUB SWAP1 LOG1 PUSH2 0x14CA JUMP JUMPDEST PUSH1 0x3 DUP1 DUP2 GT ISZERO PUSH2 0x12EC JUMPI PUSH2 0x12EB PUSH2 0x4D7F JUMP JUMPDEST JUMPDEST DUP2 PUSH1 0x3 DUP2 GT ISZERO PUSH2 0x12FF JUMPI PUSH2 0x12FE PUSH2 0x4D7F JUMP JUMPDEST JUMPDEST EQ ISZERO PUSH2 0x1487 JUMPI PUSH20 0x0 PUSH4 0x42346C5E DUP6 PUSH1 0x40 MLOAD DUP3 PUSH4 0xFFFFFFFF AND PUSH1 0xE0 SHL DUP2 MSTORE PUSH1 0x4 ADD PUSH2 0x133C SWAP2 SWAP1 PUSH2 0x43C2 JUMP JUMPDEST PUSH1 0x20 PUSH1 0x40 MLOAD DUP1 DUP4 SUB DUP2 DUP7 DUP1 EXTCODESIZE ISZERO DUP1 ISZERO PUSH2 0x1354 JUMPI PUSH1 0x0 DUP1 REVERT JUMPDEST POP GAS DELEGATECALL ISZERO DUP1 ISZERO PUSH2 0x1368 JUMPI RETURNDATASIZE PUSH1 0x0 DUP1 RETURNDATACOPY RETURNDATASIZE PUSH1 0x0 REVERT JUMPDEST POP POP POP POP PUSH1 0x40 MLOAD RETURNDATASIZE PUSH1 0x1F NOT PUSH1 0x1F DUP3 ADD AND DUP3 ADD DUP1 PUSH1 0x40 MSTORE POP DUP2 ADD SWAP1 PUSH2 0x138C SWAP2 SWAP1 PUSH2 0x3A86 JUMP JUMPDEST DUP3 DUP8 PUSH1 0x40 MLOAD PUSH2 0x139B SWAP2 SWAP1 PUSH2 0x414F JUMP JUMPDEST SWAP1 DUP2 MSTORE PUSH1 0x20 ADD PUSH1 0x40 MLOAD DUP1 SWAP2 SUB SWAP1 KECCAK256 PUSH1 0x3 ADD PUSH1 0x0 DUP8 DUP2 MSTORE PUSH1 0x20 ADD SWAP1 DUP2 MSTORE PUSH1 0x20 ADD PUSH1 0x0 KECCAK256 DUP2 SWAP1 SSTORE POP PUSH32 0xDCA7E05D3976EB24B1EA07522A893B8378D8D381AB2AAC95ABE9820B02F457C0 DUP7 DUP7 PUSH20 0x0 PUSH4 0x42346C5E DUP9 PUSH1 0x40 MLOAD DUP3 PUSH4 0xFFFFFFFF AND PUSH1 0xE0 SHL DUP2 MSTORE PUSH1 0x4 ADD PUSH2 0x141B SWAP2 SWAP1 PUSH2 0x43C2 JUMP JUMPDEST PUSH1 0x20 PUSH1 0x40 MLOAD DUP1 DUP4 SUB DUP2 DUP7 DUP1 EXTCODESIZE ISZERO DUP1 ISZERO PUSH2 0x1433 JUMPI PUSH1 0x0 DUP1 REVERT JUMPDEST POP GAS DELEGATECALL ISZERO DUP1 ISZERO PUSH2 0x1447 JUMPI RETURNDATASIZE PUSH1 0x0 DUP1 RETURNDATACOPY RETURNDATASIZE PUSH1 0x0 REVERT JUMPDEST POP POP POP POP PUSH1 0x40 MLOAD RETURNDATASIZE PUSH1 0x1F NOT PUSH1 0x1F DUP3 ADD AND DUP3 ADD DUP1 PUSH1 0x40 MSTORE POP DUP2 ADD SWAP1 PUSH2 0x146B SWAP2 SWAP1 PUSH2 0x3A86 JUMP JUMPDEST PUSH1 0x40 MLOAD PUSH2 0x147A SWAP4 SWAP3 SWAP2 SWAP1 PUSH2 0x444B JUMP JUMPDEST PUSH1 0x40 MLOAD DUP1 SWAP2 SUB SWAP1 LOG1 PUSH2 0x14C9 JUMP JUMPDEST PUSH1 0x0 PUSH2 0x14C8 JUMPI PUSH1 0x40 MLOAD PUSH32 0x8C379A000000000000000000000000000000000000000000000000000000000 DUP2 MSTORE PUSH1 0x4 ADD PUSH2 0x14BF SWAP1 PUSH2 0x4529 JUMP JUMPDEST PUSH1 0x40 MLOAD DUP1 SWAP2 SUB SWAP1 REVERT JUMPDEST JUMPDEST JUMPDEST JUMPDEST POP POP POP POP POP POP JUMP JUMPDEST PUSH1 0x60 PUSH2 0x14ED PUSH1 0x40 MLOAD DUP1 PUSH1 0x20 ADD PUSH1 0x40 MSTORE DUP1 PUSH1 0x0 DUP2 MSTORE POP PUSH2 0x5F9 JUMP JUMPDEST PUSH1 0x7 PUSH1 0x0 DUP6 DUP2 MSTORE PUSH1 0x20 ADD SWAP1 DUP2 MSTORE PUSH1 0x20 ADD PUSH1 0x0 KECCAK256 PUSH1 0x1 ADD SLOAD EQ ISZERO PUSH2 0x1545 JUMPI PUSH1 0x40 MLOAD PUSH32 0x8C379A000000000000000000000000000000000000000000000000000000000 DUP2 MSTORE PUSH1 0x4 ADD PUSH2 0x153C SWAP1 PUSH2 0x4649 JUMP JUMPDEST PUSH1 0x40 MLOAD DUP1 SWAP2 SUB SWAP1 REVERT JUMPDEST DUP3 PUSH2 0x156E PUSH1 0x1 PUSH1 0xB PUSH1 0x0 DUP8 DUP2 MSTORE PUSH1 0x20 ADD SWAP1 DUP2 MSTORE PUSH1 0x20 ADD PUSH1 0x0 KECCAK256 SLOAD PUSH2 0x1569 SWAP2 SWAP1 PUSH2 0x4842 JUMP JUMPDEST PUSH2 0x1E13 JUMP JUMPDEST PUSH2 0x1577 DUP5 PUSH2 0x1C50 JUMP JUMPDEST PUSH1 0x40 MLOAD PUSH1 0x20 ADD PUSH2 0x1589 SWAP4 SWAP3 SWAP2 SWAP1 PUSH2 0x4104 JUMP JUMPDEST PUSH1 0x40 MLOAD PUSH1 0x20 DUP2 DUP4 SUB SUB DUP2 MSTORE SWAP1 PUSH1 0x40 MSTORE SWAP1 POP DUP2 PUSH1 0x3 DUP3 PUSH1 0x40 MLOAD PUSH2 0x15AB SWAP2 SWAP1 PUSH2 0x414F JUMP JUMPDEST SWAP1 DUP2 MSTORE PUSH1 0x20 ADD PUSH1 0x40 MLOAD DUP1 SWAP2 SUB SWAP1 KECCAK256 PUSH1 0x0 ADD PUSH1 0x0 PUSH2 0x100 EXP DUP2 SLOAD DUP2 PUSH20 0xFFFFFFFFFFFFFFFFFFFFFFFFFFFFFFFFFFFFFFFF MUL NOT AND SWAP1 DUP4 PUSH20 0xFFFFFFFFFFFFFFFFFFFFFFFFFFFFFFFFFFFFFFFF AND MUL OR SWAP1 SSTORE POP DUP1 PUSH1 0x3 DUP3 PUSH1 0x40 MLOAD PUSH2 0x160B SWAP2 SWAP1 PUSH2 0x414F JUMP JUMPDEST SWAP1 DUP2 MSTORE PUSH1 0x20 ADD PUSH1 0x40 MLOAD DUP1 SWAP2 SUB SWAP1 KECCAK256 PUSH1 0x1 ADD SWAP1 DUP1 MLOAD SWAP1 PUSH1 0x20 ADD SWAP1 PUSH2 0x162F SWAP3 SWAP2 SWAP1 PUSH2 0x3525 JUMP JUMPDEST POP DUP3 PUSH1 0x3 DUP3 PUSH1 0x40 MLOAD PUSH2 0x1641 SWAP2 SWAP1 PUSH2 0x414F JUMP JUMPDEST SWAP1 DUP2 MSTORE PUSH1 0x20 ADD PUSH1 0x40 MLOAD DUP1 SWAP2 SUB SWAP1 KECCAK256 PUSH1 0x2 ADD DUP2 SWAP1 SSTORE POP PUSH1 0x1 PUSH1 0xB PUSH1 0x0 DUP6 DUP2 MSTORE PUSH1 0x20 ADD SWAP1 DUP2 MSTORE PUSH1 0x20 ADD PUSH1 0x0 KECCAK256 PUSH1 0x0 DUP3 DUP3 SLOAD PUSH2 0x167A SWAP2 SWAP1 PUSH2 0x4842 JUMP JUMPDEST SWAP3 POP POP DUP2 SWAP1 SSTORE POP PUSH1 0x1 DUP2 SWAP1 DUP1 PUSH1 0x1 DUP2 SLOAD ADD DUP1 DUP3 SSTORE DUP1 SWAP2 POP POP PUSH1 0x1 SWAP1 SUB SWAP1 PUSH1 0x0 MSTORE PUSH1 0x20 PUSH1 0x0 KECCAK256 ADD PUSH1 0x0 SWAP1 SWAP2 SWAP1 SWAP2 SWAP1 SWAP2 POP SWAP1 DUP1 MLOAD SWAP1 PUSH1 0x20 ADD SWAP1 PUSH2 0x16BC SWAP3 SWAP2 SWAP1 PUSH2 0x3525 JUMP JUMPDEST POP PUSH2 0x16C7 DUP4 DUP3 PUSH2 0x2F60 JUMP JUMPDEST SWAP3 SWAP2 POP POP JUMP JUMPDEST PUSH1 0x0 DUP1 PUSH1 0x8 SWAP1 POP DUP3 ISZERO PUSH2 0x16DF JUMPI PUSH1 0x7 SWAP1 POP JUMPDEST CALLER DUP2 PUSH1 0x0 DUP9 DUP2 MSTORE PUSH1 0x20 ADD SWAP1 DUP2 MSTORE PUSH1 0x20 ADD PUSH1 0x0 KECCAK256 PUSH1 0x0 ADD PUSH1 0x0 PUSH2 0x100 EXP DUP2 SLOAD DUP2 PUSH20 0xFFFFFFFFFFFFFFFFFFFFFFFFFFFFFFFFFFFFFFFF MUL NOT AND SWAP1 DUP4 PUSH20 0xFFFFFFFFFFFFFFFFFFFFFFFFFFFFFFFFFFFFFFFF AND MUL OR SWAP1 SSTORE POP DUP6 DUP2 PUSH1 0x0 DUP9 DUP2 MSTORE PUSH1 0x20 ADD SWAP1 DUP2 MSTORE PUSH1 0x20 ADD PUSH1 0x0 KECCAK256 PUSH1 0x1 ADD DUP2 SWAP1 SSTORE POP DUP5 DUP2 PUSH1 0x0 DUP9 DUP2 MSTORE PUSH1 0x20 ADD SWAP1 DUP2 MSTORE PUSH1 0x20 ADD PUSH1 0x0 KECCAK256 PUSH1 0x2 ADD DUP2 SWAP1 SSTORE POP DUP4 DUP2 PUSH1 0x0 DUP9 DUP2 MSTORE PUSH1 0x20 ADD SWAP1 DUP2 MSTORE PUSH1 0x20 ADD PUSH1 0x0 KECCAK256 PUSH1 0x3 ADD SWAP1 DUP1 MLOAD SWAP1 PUSH1 0x20 ADD SWAP1 PUSH2 0x1790 SWAP3 SWAP2 SWAP1 PUSH2 0x3525 JUMP JUMPDEST POP PUSH2 0x1829 DUP7 PUSH2 0x17D3 PUSH1 0x40 MLOAD DUP1 PUSH1 0x40 ADD PUSH1 0x40 MSTORE DUP1 PUSH1 0x18 DUP2 MSTORE PUSH1 0x20 ADD PUSH32 0x656E74726570726973652064652070726F64756374696F6E0000000000000000 DUP2 MSTORE POP PUSH2 0x5F9 JUMP JUMPDEST PUSH2 0x1811 PUSH1 0x40 MLOAD DUP1 PUSH1 0x40 ADD PUSH1 0x40 MSTORE DUP1 PUSH1 0x6 DUP2 MSTORE PUSH1 0x20 ADD PUSH32 0x535452494E470000000000000000000000000000000000000000000000000000 DUP2 MSTORE POP PUSH2 0x471 JUMP JUMPDEST PUSH1 0x0 PUSH1 0x40 MLOAD DUP1 PUSH1 0x20 ADD PUSH1 0x40 MSTORE DUP1 PUSH1 0x0 DUP2 MSTORE POP DUP9 PUSH2 0x1F74 JUMP JUMPDEST PUSH2 0x18C1 DUP7 PUSH2 0x186B PUSH1 0x40 MLOAD DUP1 PUSH1 0x40 ADD PUSH1 0x40 MSTORE DUP1 PUSH1 0x14 DUP2 MSTORE PUSH1 0x20 ADD PUSH32 0x6574617065206465206661627269636174696F6E000000000000000000000000 DUP2 MSTORE POP PUSH2 0x5F9 JUMP JUMPDEST PUSH2 0x18A9 PUSH1 0x40 MLOAD DUP1 PUSH1 0x40 ADD PUSH1 0x40 MSTORE DUP1 PUSH1 0x6 DUP2 MSTORE PUSH1 0x20 ADD PUSH32 0x535452494E470000000000000000000000000000000000000000000000000000 DUP2 MSTORE POP PUSH2 0x471 JUMP JUMPDEST PUSH1 0x0 PUSH1 0x40 MLOAD DUP1 PUSH1 0x20 ADD PUSH1 0x40 MSTORE DUP1 PUSH1 0x0 DUP2 MSTORE POP DUP9 PUSH2 0x1F74 JUMP JUMPDEST PUSH2 0x1959 DUP7 PUSH2 0x1903 PUSH1 0x40 MLOAD DUP1 PUSH1 0x40 ADD PUSH1 0x40 MSTORE DUP1 PUSH1 0x13 DUP2 MSTORE PUSH1 0x20 ADD PUSH32 0x64617465206465206661627269636174696F6E00000000000000000000000000 DUP2 MSTORE POP PUSH2 0x5F9 JUMP JUMPDEST PUSH2 0x1941 PUSH1 0x40 MLOAD DUP1 PUSH1 0x40 ADD PUSH1 0x40 MSTORE DUP1 PUSH1 0x4 DUP2 MSTORE PUSH1 0x20 ADD PUSH32 0x4441544500000000000000000000000000000000000000000000000000000000 DUP2 MSTORE POP PUSH2 0x471 JUMP JUMPDEST PUSH1 0x0 PUSH1 0x40 MLOAD DUP1 PUSH1 0x20 ADD PUSH1 0x40 MSTORE DUP1 PUSH1 0x0 DUP2 MSTORE POP DUP9 PUSH2 0x1F74 JUMP JUMPDEST PUSH2 0x19F1 DUP7 PUSH2 0x199B PUSH1 0x40 MLOAD DUP1 PUSH1 0x40 ADD PUSH1 0x40 MSTORE DUP1 PUSH1 0x11 DUP2 MSTORE PUSH1 0x20 ADD PUSH32 0x6461746520642765787069726174696F6E000000000000000000000000000000 DUP2 MSTORE POP PUSH2 0x5F9 JUMP JUMPDEST PUSH2 0x19D9 PUSH1 0x40 MLOAD DUP1 PUSH1 0x40 ADD PUSH1 0x40 MSTORE DUP1 PUSH1 0x4 DUP2 MSTORE PUSH1 0x20 ADD PUSH32 0x4441544500000000000000000000000000000000000000000000000000000000 DUP2 MSTORE POP PUSH2 0x471 JUMP JUMPDEST PUSH1 0x0 PUSH1 0x40 MLOAD DUP1 PUSH1 0x20 ADD PUSH1 0x40 MSTORE DUP1 PUSH1 0x0 DUP2 MSTORE POP DUP9 PUSH2 0x1F74 JUMP JUMPDEST PUSH32 0x29816586876316CDA307014ED4FDD9176CF10C6126E438220BF334B74CB580F1 DUP7 DUP7 DUP7 PUSH1 0x40 MLOAD PUSH2 0x1A24 SWAP4 SWAP3 SWAP2 SWAP1 PUSH2 0x4384 JUMP JUMPDEST PUSH1 0x40 MLOAD DUP1 SWAP2 SUB SWAP1 LOG1 DUP6 SWAP2 POP POP SWAP5 SWAP4 POP POP POP POP JUMP JUMPDEST PUSH1 0x60 PUSH2 0x1A52 PUSH1 0x40 MLOAD DUP1 PUSH1 0x20 ADD PUSH1 0x40 MSTORE DUP1 PUSH1 0x0 DUP2 MSTORE POP PUSH2 0x5F9 JUMP JUMPDEST PUSH1 0x8 PUSH1 0x0 DUP6 DUP2 MSTORE PUSH1 0x20 ADD SWAP1 DUP2 MSTORE PUSH1 0x20 ADD PUSH1 0x0 KECCAK256 PUSH1 0x2 ADD SLOAD EQ ISZERO PUSH2 0x1AAA JUMPI PUSH1 0x40 MLOAD PUSH32 0x8C379A000000000000000000000000000000000000000000000000000000000 DUP2 MSTORE PUSH1 0x4 ADD PUSH2 0x1AA1 SWAP1 PUSH2 0x46E9 JUMP JUMPDEST PUSH1 0x40 MLOAD DUP1 SWAP2 SUB SWAP1 REVERT JUMPDEST PUSH1 0x0 PUSH2 0x1B07 DUP5 PUSH2 0x1AD8 PUSH1 0x1 PUSH1 0xC PUSH1 0x0 DUP10 DUP2 MSTORE PUSH1 0x20 ADD SWAP1 DUP2 MSTORE PUSH1 0x20 ADD PUSH1 0x0 KECCAK256 SLOAD PUSH2 0x1AD3 SWAP2 SWAP1 PUSH2 0x4842 JUMP JUMPDEST PUSH2 0x1E13 JUMP JUMPDEST PUSH2 0x1AE1 DUP7 PUSH2 0x1C50 JUMP JUMPDEST PUSH1 0x40 MLOAD PUSH1 0x20 ADD PUSH2 0x1AF3 SWAP4 SWAP3 SWAP2 SWAP1 PUSH2 0x41DD JUMP JUMPDEST PUSH1 0x40 MLOAD PUSH1 0x20 DUP2 DUP4 SUB SUB DUP2 MSTORE SWAP1 PUSH1 0x40 MSTORE PUSH2 0x2F70 JUMP JUMPDEST SWAP1 POP DUP3 PUSH1 0x4 DUP3 PUSH1 0x40 MLOAD PUSH2 0x1B1A SWAP2 SWAP1 PUSH2 0x414F JUMP JUMPDEST SWAP1 DUP2 MSTORE PUSH1 0x20 ADD PUSH1 0x40 MLOAD DUP1 SWAP2 SUB SWAP1 KECCAK256 PUSH1 0x0 ADD PUSH1 0x0 PUSH2 0x100 EXP DUP2 SLOAD DUP2 PUSH20 0xFFFFFFFFFFFFFFFFFFFFFFFFFFFFFFFFFFFFFFFF MUL NOT AND SWAP1 DUP4 PUSH20 0xFFFFFFFFFFFFFFFFFFFFFFFFFFFFFFFFFFFFFFFF AND MUL OR SWAP1 SSTORE POP DUP1 PUSH1 0x4 DUP3 PUSH1 0x40 MLOAD PUSH2 0x1B7A SWAP2 SWAP1 PUSH2 0x414F JUMP JUMPDEST SWAP1 DUP2 MSTORE PUSH1 0x20 ADD PUSH1 0x40 MLOAD DUP1 SWAP2 SUB SWAP1 KECCAK256 PUSH1 0x1 ADD SWAP1 DUP1 MLOAD SWAP1 PUSH1 0x20 ADD SWAP1 PUSH2 0x1B9E SWAP3 SWAP2 SWAP1 PUSH2 0x3525 JUMP JUMPDEST POP DUP1 PUSH1 0x4 DUP3 PUSH1 0x40 MLOAD PUSH2 0x1BB0 SWAP2 SWAP1 PUSH2 0x414F JUMP JUMPDEST SWAP1 DUP2 MSTORE PUSH1 0x20 ADD PUSH1 0x40 MLOAD DUP1 SWAP2 SUB SWAP1 KECCAK256 PUSH1 0x1 ADD SWAP1 DUP1 MLOAD SWAP1 PUSH1 0x20 ADD SWAP1 PUSH2 0x1BD4 SWAP3 SWAP2 SWAP1 PUSH2 0x3525 JUMP JUMPDEST POP PUSH1 0x1 PUSH1 0xC PUSH1 0x0 DUP7 DUP2 MSTORE PUSH1 0x20 ADD SWAP1 DUP2 MSTORE PUSH1 0x20 ADD PUSH1 0x0 KECCAK256 PUSH1 0x0 DUP3 DUP3 SLOAD PUSH2 0x1BF9 SWAP2 SWAP1 PUSH2 0x4842 JUMP JUMPDEST SWAP3 POP POP DUP2 SWAP1 SSTORE POP PUSH1 0x2 DUP2 SWAP1 DUP1 PUSH1 0x1 DUP2 SLOAD ADD DUP1 DUP3 SSTORE DUP1 SWAP2 POP POP PUSH1 0x1 SWAP1 SUB SWAP1 PUSH1 0x0 MSTORE PUSH1 0x20 PUSH1 0x0 KECCAK256 ADD PUSH1 0x0 SWAP1 SWAP2 SWAP1 SWAP2 SWAP1 SWAP2 POP SWAP1 DUP1 MLOAD SWAP1 PUSH1 0x20 ADD SWAP1 PUSH2 0x1C3B SWAP3 SWAP2 SWAP1 PUSH2 0x3525 JUMP JUMPDEST POP PUSH2 0x1C46 DUP5 DUP3 PUSH2 0x3008 JUMP JUMPDEST DUP1 SWAP2 POP POP SWAP3 SWAP2 POP POP JUMP JUMPDEST PUSH1 0x60 PUSH1 0x0 PUSH1 0x28 PUSH8 0xFFFFFFFFFFFFFFFF DUP2 GT ISZERO PUSH2 0x1C6F JUMPI PUSH2 0x1C6E PUSH2 0x4E0C JUMP JUMPDEST JUMPDEST PUSH1 0x40 MLOAD SWAP1 DUP1 DUP3 MSTORE DUP1 PUSH1 0x1F ADD PUSH1 0x1F NOT AND PUSH1 0x20 ADD DUP3 ADD PUSH1 0x40 MSTORE DUP1 ISZERO PUSH2 0x1CA1 JUMPI DUP2 PUSH1 0x20 ADD PUSH1 0x1 DUP3 MUL DUP1 CALLDATASIZE DUP4 CALLDATACOPY DUP1 DUP3 ADD SWAP2 POP POP SWAP1 POP JUMPDEST POP SWAP1 POP PUSH1 0x0 JUMPDEST PUSH1 0x14 DUP2 LT ISZERO PUSH2 0x1E09 JUMPI PUSH1 0x0 DUP2 PUSH1 0x13 PUSH2 0x1CBF SWAP2 SWAP1 PUSH2 0x4B37 JUMP JUMPDEST PUSH1 0x8 PUSH2 0x1CCB SWAP2 SWAP1 PUSH2 0x4AA2 JUMP JUMPDEST PUSH1 0x2 PUSH2 0x1CD7 SWAP2 SWAP1 PUSH2 0x4984 JUMP JUMPDEST DUP6 PUSH20 0xFFFFFFFFFFFFFFFFFFFFFFFFFFFFFFFFFFFFFFFF AND PUSH2 0x1CF8 SWAP2 SWAP1 PUSH2 0x48CF JUMP JUMPDEST PUSH1 0xF8 SHL SWAP1 POP PUSH1 0x0 PUSH1 0x10 DUP3 PUSH1 0xF8 SHR PUSH2 0x1D0F SWAP2 SWAP1 PUSH2 0x4900 JUMP JUMPDEST PUSH1 0xF8 SHL SWAP1 POP PUSH1 0x0 DUP2 PUSH1 0xF8 SHR PUSH1 0x10 PUSH2 0x1D26 SWAP2 SWAP1 PUSH2 0x4AFC JUMP JUMPDEST DUP4 PUSH1 0xF8 SHR PUSH2 0x1D34 SWAP2 SWAP1 PUSH2 0x4B6B JUMP JUMPDEST PUSH1 0xF8 SHL SWAP1 POP PUSH2 0x1D42 DUP3 PUSH2 0x3018 JUMP JUMPDEST DUP6 DUP6 PUSH1 0x2 PUSH2 0x1D50 SWAP2 SWAP1 PUSH2 0x4AA2 JUMP JUMPDEST DUP2 MLOAD DUP2 LT PUSH2 0x1D61 JUMPI PUSH2 0x1D60 PUSH2 0x4DDD JUMP JUMPDEST JUMPDEST PUSH1 0x20 ADD ADD SWAP1 PUSH31 0xFFFFFFFFFFFFFFFFFFFFFFFFFFFFFFFFFFFFFFFFFFFFFFFFFFFFFFFFFFFFFF NOT AND SWAP1 DUP2 PUSH1 0x0 BYTE SWAP1 MSTORE8 POP PUSH2 0x1D99 DUP2 PUSH2 0x3018 JUMP JUMPDEST DUP6 PUSH1 0x1 DUP7 PUSH1 0x2 PUSH2 0x1DA9 SWAP2 SWAP1 PUSH2 0x4AA2 JUMP JUMPDEST PUSH2 0x1DB3 SWAP2 SWAP1 PUSH2 0x4842 JUMP JUMPDEST DUP2 MLOAD DUP2 LT PUSH2 0x1DC4 JUMPI PUSH2 0x1DC3 PUSH2 0x4DDD JUMP JUMPDEST JUMPDEST PUSH1 0x20 ADD ADD SWAP1 PUSH31 0xFFFFFFFFFFFFFFFFFFFFFFFFFFFFFFFFFFFFFFFFFFFFFFFFFFFFFFFFFFFFFF NOT AND SWAP1 DUP2 PUSH1 0x0 BYTE SWAP1 MSTORE8 POP POP POP POP DUP1 DUP1 PUSH2 0x1E01 SWAP1 PUSH2 0x4C9D JUMP JUMPDEST SWAP2 POP POP PUSH2 0x1CA7 JUMP JUMPDEST POP DUP1 SWAP2 POP POP SWAP2 SWAP1 POP JUMP JUMPDEST PUSH1 0x60 PUSH1 0x0 DUP3 EQ ISZERO PUSH2 0x1E5B JUMPI PUSH1 0x40 MLOAD DUP1 PUSH1 0x40 ADD PUSH1 0x40 MSTORE DUP1 PUSH1 0x1 DUP2 MSTORE PUSH1 0x20 ADD PUSH32 0x3000000000000000000000000000000000000000000000000000000000000000 DUP2 MSTORE POP SWAP1 POP PUSH2 0x1F6F JUMP JUMPDEST PUSH1 0x0 DUP3 SWAP1 POP PUSH1 0x0 JUMPDEST PUSH1 0x0 DUP3 EQ PUSH2 0x1E8D JUMPI DUP1 DUP1 PUSH2 0x1E76 SWAP1 PUSH2 0x4C9D JUMP JUMPDEST SWAP2 POP POP PUSH1 0xA DUP3 PUSH2 0x1E86 SWAP2 SWAP1 PUSH2 0x48CF JUMP JUMPDEST SWAP2 POP PUSH2 0x1E63 JUMP JUMPDEST PUSH1 0x0 DUP2 PUSH8 0xFFFFFFFFFFFFFFFF DUP2 GT ISZERO PUSH2 0x1EA9 JUMPI PUSH2 0x1EA8 PUSH2 0x4E0C JUMP JUMPDEST JUMPDEST PUSH1 0x40 MLOAD SWAP1 DUP1 DUP3 MSTORE DUP1 PUSH1 0x1F ADD PUSH1 0x1F NOT AND PUSH1 0x20 ADD DUP3 ADD PUSH1 0x40 MSTORE DUP1 ISZERO PUSH2 0x1EDB JUMPI DUP2 PUSH1 0x20 ADD PUSH1 0x1 DUP3 MUL DUP1 CALLDATASIZE DUP4 CALLDATACOPY DUP1 DUP3 ADD SWAP2 POP POP SWAP1 POP JUMPDEST POP SWAP1 POP JUMPDEST PUSH1 0x0 DUP6 EQ PUSH2 0x1F68 JUMPI PUSH1 0x1 DUP3 PUSH2 0x1EF4 SWAP2 SWAP1 PUSH2 0x4B37 JUMP JUMPDEST SWAP2 POP PUSH1 0xA DUP6 PUSH2 0x1F03 SWAP2 SWAP1 PUSH2 0x4CF0 JUMP JUMPDEST PUSH1 0x30 PUSH2 0x1F0F SWAP2 SWAP1 PUSH2 0x4842 JUMP JUMPDEST PUSH1 0xF8 SHL DUP2 DUP4 DUP2 MLOAD DUP2 LT PUSH2 0x1F25 JUMPI PUSH2 0x1F24 PUSH2 0x4DDD JUMP JUMPDEST JUMPDEST PUSH1 0x20 ADD ADD SWAP1 PUSH31 0xFFFFFFFFFFFFFFFFFFFFFFFFFFFFFFFFFFFFFFFFFFFFFFFFFFFFFFFFFFFFFF NOT AND SWAP1 DUP2 PUSH1 0x0 BYTE SWAP1 MSTORE8 POP PUSH1 0xA DUP6 PUSH2 0x1F61 SWAP2 SWAP1 PUSH2 0x48CF JUMP JUMPDEST SWAP5 POP PUSH2 0x1EDF JUMP JUMPDEST DUP1 SWAP4 POP POP POP POP JUMPDEST SWAP2 SWAP1 POP JUMP JUMPDEST PUSH1 0x0 PUSH1 0x8 SWAP1 POP DUP2 ISZERO PUSH2 0x1F85 JUMPI PUSH1 0x7 SWAP1 POP JUMPDEST CALLER PUSH20 0xFFFFFFFFFFFFFFFFFFFFFFFFFFFFFFFFFFFFFFFF AND DUP2 PUSH1 0x0 DUP10 DUP2 MSTORE PUSH1 0x20 ADD SWAP1 DUP2 MSTORE PUSH1 0x20 ADD PUSH1 0x0 KECCAK256 PUSH1 0x0 ADD PUSH1 0x0 SWAP1 SLOAD SWAP1 PUSH2 0x100 EXP SWAP1 DIV PUSH20 0xFFFFFFFFFFFFFFFFFFFFFFFFFFFFFFFFFFFFFFFF AND PUSH20 0xFFFFFFFFFFFFFFFFFFFFFFFFFFFFFFFFFFFFFFFF AND EQ PUSH2 0x2028 JUMPI PUSH1 0x40 MLOAD PUSH32 0x8C379A000000000000000000000000000000000000000000000000000000000 DUP2 MSTORE PUSH1 0x4 ADD PUSH2 0x201F SWAP1 PUSH2 0x4589 JUMP JUMPDEST PUSH1 0x40 MLOAD DUP1 SWAP2 SUB SWAP1 REVERT JUMPDEST PUSH1 0x1 PUSH1 0x3 DUP2 GT ISZERO PUSH2 0x203C JUMPI PUSH2 0x203B PUSH2 0x4D7F JUMP JUMPDEST JUMPDEST PUSH1 0x9 PUSH1 0x0 DUP8 PUSH16 0xFFFFFFFFFFFFFFFFFFFFFFFFFFFFFFFF NOT AND PUSH16 0xFFFFFFFFFFFFFFFFFFFFFFFFFFFFFFFF NOT AND DUP2 MSTORE PUSH1 0x20 ADD SWAP1 DUP2 MSTORE PUSH1 0x20 ADD PUSH1 0x0 KECCAK256 PUSH1 0x0 SWAP1 SLOAD SWAP1 PUSH2 0x100 EXP SWAP1 DIV PUSH1 0xFF AND PUSH1 0x3 DUP2 GT ISZERO PUSH2 0x2095 JUMPI PUSH2 0x2094 PUSH2 0x4D7F JUMP JUMPDEST JUMPDEST EQ DUP1 PUSH2 0x210B JUMPI POP PUSH1 0x2 PUSH1 0x3 DUP2 GT ISZERO PUSH2 0x20B0 JUMPI PUSH2 0x20AF PUSH2 0x4D7F JUMP JUMPDEST JUMPDEST PUSH1 0x9 PUSH1 0x0 DUP8 PUSH16 0xFFFFFFFFFFFFFFFFFFFFFFFFFFFFFFFF NOT AND PUSH16 0xFFFFFFFFFFFFFFFFFFFFFFFFFFFFFFFF NOT AND DUP2 MSTORE PUSH1 0x20 ADD SWAP1 DUP2 MSTORE PUSH1 0x20 ADD PUSH1 0x0 KECCAK256 PUSH1 0x0 SWAP1 SLOAD SWAP1 PUSH2 0x100 EXP SWAP1 DIV PUSH1 0xFF AND PUSH1 0x3 DUP2 GT ISZERO PUSH2 0x2109 JUMPI PUSH2 0x2108 PUSH2 0x4D7F JUMP JUMPDEST JUMPDEST EQ JUMPDEST DUP1 PUSH2 0x217F JUMPI POP PUSH1 0x3 DUP1 DUP2 GT ISZERO PUSH2 0x2124 JUMPI PUSH2 0x2123 PUSH2 0x4D7F JUMP JUMPDEST JUMPDEST PUSH1 0x9 PUSH1 0x0 DUP8 PUSH16 0xFFFFFFFFFFFFFFFFFFFFFFFFFFFFFFFF NOT AND PUSH16 0xFFFFFFFFFFFFFFFFFFFFFFFFFFFFFFFF NOT AND DUP2 MSTORE PUSH1 0x20 ADD SWAP1 DUP2 MSTORE PUSH1 0x20 ADD PUSH1 0x0 KECCAK256 PUSH1 0x0 SWAP1 SLOAD SWAP1 PUSH2 0x100 EXP SWAP1 DIV PUSH1 0xFF AND PUSH1 0x3 DUP2 GT ISZERO PUSH2 0x217D JUMPI PUSH2 0x217C PUSH2 0x4D7F JUMP JUMPDEST JUMPDEST EQ JUMPDEST PUSH2 0x21BE JUMPI PUSH1 0x40 MLOAD PUSH32 0x8C379A000000000000000000000000000000000000000000000000000000000 DUP2 MSTORE PUSH1 0x4 ADD PUSH2 0x21B5 SWAP1 PUSH2 0x4569 JUMP JUMPDEST PUSH1 0x40 MLOAD DUP1 SWAP2 SUB SWAP1 REVERT JUMPDEST DUP2 ISZERO PUSH2 0x2213 JUMPI PUSH2 0x21CE DUP8 DUP8 PUSH2 0x305E JUMP JUMPDEST ISZERO PUSH2 0x220E JUMPI PUSH1 0x40 MLOAD PUSH32 0x8C379A000000000000000000000000000000000000000000000000000000000 DUP2 MSTORE PUSH1 0x4 ADD PUSH2 0x2205 SWAP1 PUSH2 0x4509 JUMP JUMPDEST PUSH1 0x40 MLOAD DUP1 SWAP2 SUB SWAP1 REVERT JUMPDEST PUSH2 0x225E JUMP JUMPDEST PUSH2 0x221D DUP8 DUP8 PUSH2 0x30F1 JUMP JUMPDEST ISZERO PUSH2 0x225D JUMPI PUSH1 0x40 MLOAD PUSH32 0x8C379A000000000000000000000000000000000000000000000000000000000 DUP2 MSTORE PUSH1 0x4 ADD PUSH2 0x2254 SWAP1 PUSH2 0x4509 JUMP JUMPDEST PUSH1 0x40 MLOAD DUP1 SWAP2 SUB SWAP1 REVERT JUMPDEST JUMPDEST DUP1 PUSH1 0x0 DUP9 DUP2 MSTORE PUSH1 0x20 ADD SWAP1 DUP2 MSTORE PUSH1 0x20 ADD PUSH1 0x0 KECCAK256 PUSH1 0x4 ADD PUSH1 0x40 MLOAD DUP1 PUSH1 0x60 ADD PUSH1 0x40 MSTORE DUP1 DUP9 DUP2 MSTORE PUSH1 0x20 ADD PUSH1 0x9 PUSH1 0x0 DUP10 PUSH16 0xFFFFFFFFFFFFFFFFFFFFFFFFFFFFFFFF NOT AND PUSH16 0xFFFFFFFFFFFFFFFFFFFFFFFFFFFFFFFF NOT AND DUP2 MSTORE PUSH1 0x20 ADD SWAP1 DUP2 MSTORE PUSH1 0x20 ADD PUSH1 0x0 KECCAK256 PUSH1 0x0 SWAP1 SLOAD SWAP1 PUSH2 0x100 EXP SWAP1 DIV PUSH1 0xFF AND PUSH1 0x3 DUP2 GT ISZERO PUSH2 0x22DD JUMPI PUSH2 0x22DC PUSH2 0x4D7F JUMP JUMPDEST JUMPDEST DUP2 MSTORE PUSH1 0x20 ADD DUP7 ISZERO ISZERO DUP2 MSTORE POP SWAP1 DUP1 PUSH1 0x1 DUP2 SLOAD ADD DUP1 DUP3 SSTORE DUP1 SWAP2 POP POP PUSH1 0x1 SWAP1 SUB SWAP1 PUSH1 0x0 MSTORE PUSH1 0x20 PUSH1 0x0 KECCAK256 SWAP1 PUSH1 0x2 MUL ADD PUSH1 0x0 SWAP1 SWAP2 SWAP1 SWAP2 SWAP1 SWAP2 POP PUSH1 0x0 DUP3 ADD MLOAD DUP2 PUSH1 0x0 ADD SSTORE PUSH1 0x20 DUP3 ADD MLOAD DUP2 PUSH1 0x1 ADD PUSH1 0x0 PUSH2 0x100 EXP DUP2 SLOAD DUP2 PUSH1 0xFF MUL NOT AND SWAP1 DUP4 PUSH1 0x3 DUP2 GT ISZERO PUSH2 0x2346 JUMPI PUSH2 0x2345 PUSH2 0x4D7F JUMP JUMPDEST JUMPDEST MUL OR SWAP1 SSTORE POP PUSH1 0x40 DUP3 ADD MLOAD DUP2 PUSH1 0x1 ADD PUSH1 0x1 PUSH2 0x100 EXP DUP2 SLOAD DUP2 PUSH1 0xFF MUL NOT AND SWAP1 DUP4 ISZERO ISZERO MUL OR SWAP1 SSTORE POP POP POP DUP4 ISZERO PUSH2 0x23AF JUMPI DUP3 DUP2 PUSH1 0x0 DUP10 DUP2 MSTORE PUSH1 0x20 ADD SWAP1 DUP2 MSTORE PUSH1 0x20 ADD PUSH1 0x0 KECCAK256 PUSH1 0x5 ADD PUSH1 0x0 DUP9 DUP2 MSTORE PUSH1 0x20 ADD SWAP1 DUP2 MSTORE PUSH1 0x20 ADD PUSH1 0x0 KECCAK256 SWAP1 DUP1 MLOAD SWAP1 PUSH1 0x20 ADD SWAP1 PUSH2 0x23AD SWAP3 SWAP2 SWAP1 PUSH2 0x3525 JUMP JUMPDEST POP JUMPDEST PUSH32 0x5EA221C19F36D0B181A8CB2442EFF75A150EBF7D5F05BD9D651C0C10FE067CB8 DUP8 DUP8 DUP8 DUP8 DUP8 PUSH1 0x40 MLOAD PUSH2 0x23E6 SWAP6 SWAP5 SWAP4 SWAP3 SWAP2 SWAP1 PUSH2 0x432A JUMP JUMPDEST PUSH1 0x40 MLOAD DUP1 SWAP2 SUB SWAP1 LOG1 POP POP POP POP POP POP POP JUMP JUMPDEST PUSH1 0x0 PUSH1 0x8 SWAP1 POP DUP2 ISZERO PUSH2 0x2408 JUMPI PUSH1 0x7 SWAP1 POP JUMPDEST CALLER PUSH20 0xFFFFFFFFFFFFFFFFFFFFFFFFFFFFFFFFFFFFFFFF AND DUP2 PUSH1 0x0 DUP8 DUP2 MSTORE PUSH1 0x20 ADD SWAP1 DUP2 MSTORE PUSH1 0x20 ADD PUSH1 0x0 KECCAK256 PUSH1 0x0 ADD PUSH1 0x0 SWAP1 SLOAD SWAP1 PUSH2 0x100 EXP SWAP1 DIV PUSH20 0xFFFFFFFFFFFFFFFFFFFFFFFFFFFFFFFFFFFFFFFF AND PUSH20 0xFFFFFFFFFFFFFFFFFFFFFFFFFFFFFFFFFFFFFFFF AND EQ PUSH2 0x24AB JUMPI PUSH1 0x40 MLOAD PUSH32 0x8C379A000000000000000000000000000000000000000000000000000000000 DUP2 MSTORE PUSH1 0x4 ADD PUSH2 0x24A2 SWAP1 PUSH2 0x4589 JUMP JUMPDEST PUSH1 0x40 MLOAD DUP1 SWAP2 SUB SWAP1 REVERT JUMPDEST PUSH1 0x0 JUMPDEST DUP2 PUSH1 0x0 DUP8 DUP2 MSTORE PUSH1 0x20 ADD SWAP1 DUP2 MSTORE PUSH1 0x20 ADD PUSH1 0x0 KECCAK256 PUSH1 0x4 ADD DUP1 SLOAD SWAP1 POP DUP2 LT ISZERO PUSH2 0x25E8 JUMPI DUP5 DUP3 PUSH1 0x0 DUP9 DUP2 MSTORE PUSH1 0x20 ADD SWAP1 DUP2 MSTORE PUSH1 0x20 ADD PUSH1 0x0 KECCAK256 PUSH1 0x4 ADD DUP3 DUP2 SLOAD DUP2 LT PUSH2 0x24F6 JUMPI PUSH2 0x24F5 PUSH2 0x4DDD JUMP JUMPDEST JUMPDEST SWAP1 PUSH1 0x0 MSTORE PUSH1 0x20 PUSH1 0x0 KECCAK256 SWAP1 PUSH1 0x2 MUL ADD PUSH1 0x0 ADD SLOAD EQ ISZERO PUSH2 0x25D5 JUMPI DUP2 PUSH1 0x0 DUP8 DUP2 MSTORE PUSH1 0x20 ADD SWAP1 DUP2 MSTORE PUSH1 0x20 ADD PUSH1 0x0 KECCAK256 PUSH1 0x4 ADD DUP2 DUP2 SLOAD DUP2 LT PUSH2 0x2535 JUMPI PUSH2 0x2534 PUSH2 0x4DDD JUMP JUMPDEST JUMPDEST SWAP1 PUSH1 0x0 MSTORE PUSH1 0x20 PUSH1 0x0 KECCAK256 SWAP1 PUSH1 0x2 MUL ADD PUSH1 0x1 ADD PUSH1 0x1 SWAP1 SLOAD SWAP1 PUSH2 0x100 EXP SWAP1 DIV PUSH1 0xFF AND PUSH2 0x2593 JUMPI PUSH1 0x40 MLOAD PUSH32 0x8C379A000000000000000000000000000000000000000000000000000000000 DUP2 MSTORE PUSH1 0x4 ADD PUSH2 0x258A SWAP1 PUSH2 0x45E9 JUMP JUMPDEST PUSH1 0x40 MLOAD DUP1 SWAP2 SUB SWAP1 REVERT JUMPDEST DUP4 DUP3 PUSH1 0x0 DUP9 DUP2 MSTORE PUSH1 0x20 ADD SWAP1 DUP2 MSTORE PUSH1 0x20 ADD PUSH1 0x0 KECCAK256 PUSH1 0x5 ADD PUSH1 0x0 DUP8 DUP2 MSTORE PUSH1 0x20 ADD SWAP1 DUP2 MSTORE PUSH1 0x20 ADD PUSH1 0x0 KECCAK256 SWAP1 DUP1 MLOAD SWAP1 PUSH1 0x20 ADD SWAP1 PUSH2 0x25CD SWAP3 SWAP2 SWAP1 PUSH2 0x3525 JUMP JUMPDEST POP POP POP PUSH2 0x25EB JUMP JUMPDEST DUP1 DUP1 PUSH2 0x25E0 SWAP1 PUSH2 0x4C9D JUMP JUMPDEST SWAP2 POP POP PUSH2 0x24AE JUMP JUMPDEST POP POP JUMPDEST POP POP POP POP JUMP JUMPDEST PUSH1 0x0 PUSH2 0x25FE DUP4 PUSH1 0x1 PUSH2 0x2DFA JUMP JUMPDEST ISZERO PUSH2 0x295D JUMPI PUSH2 0x260E DUP3 PUSH1 0x1 PUSH2 0x2DFA JUMP JUMPDEST ISZERO PUSH2 0x278C JUMPI PUSH1 0x3 DUP3 PUSH1 0x40 MLOAD PUSH2 0x2623 SWAP2 SWAP1 PUSH2 0x414F JUMP JUMPDEST SWAP1 DUP2 MSTORE PUSH1 0x20 ADD PUSH1 0x40 MLOAD DUP1 SWAP2 SUB SWAP1 KECCAK256 PUSH1 0x0 ADD PUSH1 0x0 SWAP1 SLOAD SWAP1 PUSH2 0x100 EXP SWAP1 DIV PUSH20 0xFFFFFFFFFFFFFFFFFFFFFFFFFFFFFFFFFFFFFFFF AND PUSH20 0xFFFFFFFFFFFFFFFFFFFFFFFFFFFFFFFFFFFFFFFF AND PUSH1 0x3 DUP5 PUSH1 0x40 MLOAD PUSH2 0x267B SWAP2 SWAP1 PUSH2 0x414F JUMP JUMPDEST SWAP1 DUP2 MSTORE PUSH1 0x20 ADD PUSH1 0x40 MLOAD DUP1 SWAP2 SUB SWAP1 KECCAK256 PUSH1 0x0 ADD PUSH1 0x0 SWAP1 SLOAD SWAP1 PUSH2 0x100 EXP SWAP1 DIV PUSH20 0xFFFFFFFFFFFFFFFFFFFFFFFFFFFFFFFFFFFFFFFF AND PUSH20 0xFFFFFFFFFFFFFFFFFFFFFFFFFFFFFFFFFFFFFFFF AND EQ PUSH2 0x2703 JUMPI PUSH1 0x40 MLOAD PUSH32 0x8C379A000000000000000000000000000000000000000000000000000000000 DUP2 MSTORE PUSH1 0x4 ADD PUSH2 0x26FA SWAP1 PUSH2 0x46A9 JUMP JUMPDEST PUSH1 0x40 MLOAD DUP1 SWAP2 SUB SWAP1 REVERT JUMPDEST PUSH1 0x3 DUP3 PUSH1 0x40 MLOAD PUSH2 0x2713 SWAP2 SWAP1 PUSH2 0x414F JUMP JUMPDEST SWAP1 DUP2 MSTORE PUSH1 0x20 ADD PUSH1 0x40 MLOAD DUP1 SWAP2 SUB SWAP1 KECCAK256 PUSH1 0x2 ADD SLOAD PUSH1 0x3 DUP5 PUSH1 0x40 MLOAD PUSH2 0x2735 SWAP2 SWAP1 PUSH2 0x414F JUMP JUMPDEST SWAP1 DUP2 MSTORE PUSH1 0x20 ADD PUSH1 0x40 MLOAD DUP1 SWAP2 SUB SWAP1 KECCAK256 PUSH1 0x2 ADD SLOAD EQ PUSH2 0x2787 JUMPI PUSH1 0x40 MLOAD PUSH32 0x8C379A000000000000000000000000000000000000000000000000000000000 DUP2 MSTORE PUSH1 0x4 ADD PUSH2 0x277E SWAP1 PUSH2 0x44C9 JUMP JUMPDEST PUSH1 0x40 MLOAD DUP1 SWAP2 SUB SWAP1 REVERT JUMPDEST PUSH2 0x2958 JUMP JUMPDEST PUSH2 0x2797 DUP3 PUSH1 0x0 PUSH2 0x2DFA JUMP JUMPDEST ISZERO PUSH2 0x2915 JUMPI PUSH1 0x4 DUP3 PUSH1 0x40 MLOAD PUSH2 0x27AC SWAP2 SWAP1 PUSH2 0x414F JUMP JUMPDEST SWAP1 DUP2 MSTORE PUSH1 0x20 ADD PUSH1 0x40 MLOAD DUP1 SWAP2 SUB SWAP1 KECCAK256 PUSH1 0x0 ADD PUSH1 0x0 SWAP1 SLOAD SWAP1 PUSH2 0x100 EXP SWAP1 DIV PUSH20 0xFFFFFFFFFFFFFFFFFFFFFFFFFFFFFFFFFFFFFFFF AND PUSH20 0xFFFFFFFFFFFFFFFFFFFFFFFFFFFFFFFFFFFFFFFF AND PUSH1 0x3 DUP5 PUSH1 0x40 MLOAD PUSH2 0x2804 SWAP2 SWAP1 PUSH2 0x414F JUMP JUMPDEST SWAP1 DUP2 MSTORE PUSH1 0x20 ADD PUSH1 0x40 MLOAD DUP1 SWAP2 SUB SWAP1 KECCAK256 PUSH1 0x0 ADD PUSH1 0x0 SWAP1 SLOAD SWAP1 PUSH2 0x100 EXP SWAP1 DIV PUSH20 0xFFFFFFFFFFFFFFFFFFFFFFFFFFFFFFFFFFFFFFFF AND PUSH20 0xFFFFFFFFFFFFFFFFFFFFFFFFFFFFFFFFFFFFFFFF AND EQ PUSH2 0x288C JUMPI PUSH1 0x40 MLOAD PUSH32 0x8C379A000000000000000000000000000000000000000000000000000000000 DUP2 MSTORE PUSH1 0x4 ADD PUSH2 0x2883 SWAP1 PUSH2 0x44A9 JUMP JUMPDEST PUSH1 0x40 MLOAD DUP1 SWAP2 SUB SWAP1 REVERT JUMPDEST PUSH1 0x4 DUP3 PUSH1 0x40 MLOAD PUSH2 0x289C SWAP2 SWAP1 PUSH2 0x414F JUMP JUMPDEST SWAP1 DUP2 MSTORE PUSH1 0x20 ADD PUSH1 0x40 MLOAD DUP1 SWAP2 SUB SWAP1 KECCAK256 PUSH1 0x2 ADD SLOAD PUSH1 0x3 DUP5 PUSH1 0x40 MLOAD PUSH2 0x28BE SWAP2 SWAP1 PUSH2 0x414F JUMP JUMPDEST SWAP1 DUP2 MSTORE PUSH1 0x20 ADD PUSH1 0x40 MLOAD DUP1 SWAP2 SUB SWAP1 KECCAK256 PUSH1 0x2 ADD SLOAD EQ PUSH2 0x2910 JUMPI PUSH1 0x40 MLOAD PUSH32 0x8C379A000000000000000000000000000000000000000000000000000000000 DUP2 MSTORE PUSH1 0x4 ADD PUSH2 0x2907 SWAP1 PUSH2 0x45A9 JUMP JUMPDEST PUSH1 0x40 MLOAD DUP1 SWAP2 SUB SWAP1 REVERT JUMPDEST PUSH2 0x2957 JUMP JUMPDEST PUSH1 0x0 PUSH2 0x2956 JUMPI PUSH1 0x40 MLOAD PUSH32 0x8C379A000000000000000000000000000000000000000000000000000000000 DUP2 MSTORE PUSH1 0x4 ADD PUSH2 0x294D SWAP1 PUSH2 0x4689 JUMP JUMPDEST PUSH1 0x40 MLOAD DUP1 SWAP2 SUB SWAP1 REVERT JUMPDEST JUMPDEST JUMPDEST PUSH2 0x2D0A JUMP JUMPDEST PUSH2 0x2968 DUP4 PUSH1 0x0 PUSH2 0x2DFA JUMP JUMPDEST ISZERO PUSH2 0x2CC7 JUMPI PUSH2 0x2978 DUP3 PUSH1 0x0 PUSH2 0x2DFA JUMP JUMPDEST ISZERO PUSH2 0x2AF6 JUMPI PUSH1 0x3 DUP3 PUSH1 0x40 MLOAD PUSH2 0x298D SWAP2 SWAP1 PUSH2 0x414F JUMP JUMPDEST SWAP1 DUP2 MSTORE PUSH1 0x20 ADD PUSH1 0x40 MLOAD DUP1 SWAP2 SUB SWAP1 KECCAK256 PUSH1 0x0 ADD PUSH1 0x0 SWAP1 SLOAD SWAP1 PUSH2 0x100 EXP SWAP1 DIV PUSH20 0xFFFFFFFFFFFFFFFFFFFFFFFFFFFFFFFFFFFFFFFF AND PUSH20 0xFFFFFFFFFFFFFFFFFFFFFFFFFFFFFFFFFFFFFFFF AND PUSH1 0x4 DUP5 PUSH1 0x40 MLOAD PUSH2 0x29E5 SWAP2 SWAP1 PUSH2 0x414F JUMP JUMPDEST SWAP1 DUP2 MSTORE PUSH1 0x20 ADD PUSH1 0x40 MLOAD DUP1 SWAP2 SUB SWAP1 KECCAK256 PUSH1 0x0 ADD PUSH1 0x0 SWAP1 SLOAD SWAP1 PUSH2 0x100 EXP SWAP1 DIV PUSH20 0xFFFFFFFFFFFFFFFFFFFFFFFFFFFFFFFFFFFFFFFF AND PUSH20 0xFFFFFFFFFFFFFFFFFFFFFFFFFFFFFFFFFFFFFFFF AND EQ PUSH2 0x2A6D JUMPI PUSH1 0x40 MLOAD PUSH32 0x8C379A000000000000000000000000000000000000000000000000000000000 DUP2 MSTORE PUSH1 0x4 ADD PUSH2 0x2A64 SWAP1 PUSH2 0x46A9 JUMP JUMPDEST PUSH1 0x40 MLOAD DUP1 SWAP2 SUB SWAP1 REVERT JUMPDEST PUSH1 0x3 DUP3 PUSH1 0x40 MLOAD PUSH2 0x2A7D SWAP2 SWAP1 PUSH2 0x414F JUMP JUMPDEST SWAP1 DUP2 MSTORE PUSH1 0x20 ADD PUSH1 0x40 MLOAD DUP1 SWAP2 SUB SWAP1 KECCAK256 PUSH1 0x2 ADD SLOAD PUSH1 0x4 DUP5 PUSH1 0x40 MLOAD PUSH2 0x2A9F SWAP2 SWAP1 PUSH2 0x414F JUMP JUMPDEST SWAP1 DUP2 MSTORE PUSH1 0x20 ADD PUSH1 0x40 MLOAD DUP1 SWAP2 SUB SWAP1 KECCAK256 PUSH1 0x2 ADD SLOAD EQ PUSH2 0x2AF1 JUMPI PUSH1 0x40 MLOAD PUSH32 0x8C379A000000000000000000000000000000000000000000000000000000000 DUP2 MSTORE PUSH1 0x4 ADD PUSH2 0x2AE8 SWAP1 PUSH2 0x4669 JUMP JUMPDEST PUSH1 0x40 MLOAD DUP1 SWAP2 SUB SWAP1 REVERT JUMPDEST PUSH2 0x2CC2 JUMP JUMPDEST PUSH2 0x2B01 DUP3 PUSH1 0x0 PUSH2 0x2DFA JUMP JUMPDEST ISZERO PUSH2 0x2C7F JUMPI PUSH1 0x4 DUP3 PUSH1 0x40 MLOAD PUSH2 0x2B16 SWAP2 SWAP1 PUSH2 0x414F JUMP JUMPDEST SWAP1 DUP2 MSTORE PUSH1 0x20 ADD PUSH1 0x40 MLOAD DUP1 SWAP2 SUB SWAP1 KECCAK256 PUSH1 0x0 ADD PUSH1 0x0 SWAP1 SLOAD SWAP1 PUSH2 0x100 EXP SWAP1 DIV PUSH20 0xFFFFFFFFFFFFFFFFFFFFFFFFFFFFFFFFFFFFFFFF AND PUSH20 0xFFFFFFFFFFFFFFFFFFFFFFFFFFFFFFFFFFFFFFFF AND PUSH1 0x4 DUP5 PUSH1 0x40 MLOAD PUSH2 0x2B6E SWAP2 SWAP1 PUSH2 0x414F JUMP JUMPDEST SWAP1 DUP2 MSTORE PUSH1 0x20 ADD PUSH1 0x40 MLOAD DUP1 SWAP2 SUB SWAP1 KECCAK256 PUSH1 0x0 ADD PUSH1 0x0 SWAP1 SLOAD SWAP1 PUSH2 0x100 EXP SWAP1 DIV PUSH20 0xFFFFFFFFFFFFFFFFFFFFFFFFFFFFFFFFFFFFFFFF AND PUSH20 0xFFFFFFFFFFFFFFFFFFFFFFFFFFFFFFFFFFFFFFFF AND EQ PUSH2 0x2BF6 JUMPI PUSH1 0x40 MLOAD PUSH32 0x8C379A000000000000000000000000000000000000000000000000000000000 DUP2 MSTORE PUSH1 0x4 ADD PUSH2 0x2BED SWAP1 PUSH2 0x44A9 JUMP JUMPDEST PUSH1 0x40 MLOAD DUP1 SWAP2 SUB SWAP1 REVERT JUMPDEST PUSH1 0x4 DUP3 PUSH1 0x40 MLOAD PUSH2 0x2C06 SWAP2 SWAP1 PUSH2 0x414F JUMP JUMPDEST SWAP1 DUP2 MSTORE PUSH1 0x20 ADD PUSH1 0x40 MLOAD DUP1 SWAP2 SUB SWAP1 KECCAK256 PUSH1 0x2 ADD SLOAD PUSH1 0x4 DUP5 PUSH1 0x40 MLOAD PUSH2 0x2C28 SWAP2 SWAP1 PUSH2 0x414F JUMP JUMPDEST SWAP1 DUP2 MSTORE PUSH1 0x20 ADD PUSH1 0x40 MLOAD DUP1 SWAP2 SUB SWAP1 KECCAK256 PUSH1 0x2 ADD SLOAD EQ PUSH2 0x2C7A JUMPI PUSH1 0x40 MLOAD PUSH32 0x8C379A000000000000000000000000000000000000000000000000000000000 DUP2 MSTORE PUSH1 0x4 ADD PUSH2 0x2C71 SWAP1 PUSH2 0x4549 JUMP JUMPDEST PUSH1 0x40 MLOAD DUP1 SWAP2 SUB SWAP1 REVERT JUMPDEST PUSH2 0x2CC1 JUMP JUMPDEST PUSH1 0x0 PUSH2 0x2CC0 JUMPI PUSH1 0x40 MLOAD PUSH32 0x8C379A000000000000000000000000000000000000000000000000000000000 DUP2 MSTORE PUSH1 0x4 ADD PUSH2 0x2CB7 SWAP1 PUSH2 0x4689 JUMP JUMPDEST PUSH1 0x40 MLOAD DUP1 SWAP2 SUB SWAP1 REVERT JUMPDEST JUMPDEST JUMPDEST PUSH2 0x2D09 JUMP JUMPDEST PUSH1 0x0 PUSH2 0x2D08 JUMPI PUSH1 0x40 MLOAD PUSH32 0x8C379A000000000000000000000000000000000000000000000000000000000 DUP2 MSTORE PUSH1 0x4 ADD PUSH2 0x2CFF SWAP1 PUSH2 0x4609 JUMP JUMPDEST PUSH1 0x40 MLOAD DUP1 SWAP2 SUB SWAP1 REVERT JUMPDEST JUMPDEST JUMPDEST PUSH1 0x1 SWAP1 POP SWAP3 SWAP2 POP POP JUMP JUMPDEST PUSH1 0x0 DUP3 PUSH1 0x40 MLOAD PUSH2 0x2D24 SWAP2 SWAP1 PUSH2 0x414F JUMP JUMPDEST SWAP1 DUP2 MSTORE PUSH1 0x20 ADD PUSH1 0x40 MLOAD DUP1 SWAP2 SUB SWAP1 KECCAK256 DUP2 SWAP1 DUP1 PUSH1 0x1 DUP2 SLOAD ADD DUP1 DUP3 SSTORE DUP1 SWAP2 POP POP PUSH1 0x1 SWAP1 SUB SWAP1 PUSH1 0x0 MSTORE PUSH1 0x20 PUSH1 0x0 KECCAK256 ADD PUSH1 0x0 SWAP1 SWAP2 SWAP1 SWAP2 SWAP1 SWAP2 POP SWAP1 DUP1 MLOAD SWAP1 PUSH1 0x20 ADD SWAP1 PUSH2 0x2D6B SWAP3 SWAP2 SWAP1 PUSH2 0x3525 JUMP JUMPDEST POP PUSH2 0x2D77 DUP3 PUSH1 0x1 PUSH2 0x2DFA JUMP JUMPDEST ISZERO PUSH2 0x2DBB JUMPI PUSH1 0x1 PUSH1 0x3 DUP3 PUSH1 0x40 MLOAD PUSH2 0x2D8E SWAP2 SWAP1 PUSH2 0x414F JUMP JUMPDEST SWAP1 DUP2 MSTORE PUSH1 0x20 ADD PUSH1 0x40 MLOAD DUP1 SWAP2 SUB SWAP1 KECCAK256 PUSH1 0x4 ADD PUSH1 0x0 PUSH2 0x100 EXP DUP2 SLOAD DUP2 PUSH1 0xFF MUL NOT AND SWAP1 DUP4 ISZERO ISZERO MUL OR SWAP1 SSTORE POP PUSH2 0x2DF6 JUMP JUMPDEST PUSH1 0x1 PUSH1 0x4 DUP3 PUSH1 0x40 MLOAD PUSH2 0x2DCD SWAP2 SWAP1 PUSH2 0x414F JUMP JUMPDEST SWAP1 DUP2 MSTORE PUSH1 0x20 ADD PUSH1 0x40 MLOAD DUP1 SWAP2 SUB SWAP1 KECCAK256 PUSH1 0x6 ADD PUSH1 0x0 PUSH2 0x100 EXP DUP2 SLOAD DUP2 PUSH1 0xFF MUL NOT AND SWAP1 DUP4 ISZERO ISZERO MUL OR SWAP1 SSTORE POP JUMPDEST POP POP JUMP JUMPDEST PUSH1 0x0 DUP2 ISZERO PUSH2 0x2E3B JUMPI PUSH1 0x0 PUSH1 0x3 DUP5 PUSH1 0x40 MLOAD PUSH2 0x2E14 SWAP2 SWAP1 PUSH2 0x414F JUMP JUMPDEST SWAP1 DUP2 MSTORE PUSH1 0x20 ADD PUSH1 0x40 MLOAD DUP1 SWAP2 SUB SWAP1 KECCAK256 PUSH1 0x1 ADD DUP1 SLOAD PUSH2 0x2E30 SWAP1 PUSH2 0x4C3A JUMP JUMPDEST SWAP1 POP EQ ISZERO SWAP1 POP PUSH2 0x2E70 JUMP JUMPDEST PUSH1 0x0 PUSH1 0x4 DUP5 PUSH1 0x40 MLOAD PUSH2 0x2E4D SWAP2 SWAP1 PUSH2 0x414F JUMP JUMPDEST SWAP1 DUP2 MSTORE PUSH1 0x20 ADD PUSH1 0x40 MLOAD DUP1 SWAP2 SUB SWAP1 KECCAK256 PUSH1 0x1 ADD DUP1 SLOAD PUSH2 0x2E69 SWAP1 PUSH2 0x4C3A JUMP JUMPDEST SWAP1 POP EQ ISZERO SWAP1 POP JUMPDEST SWAP3 SWAP2 POP POP JUMP JUMPDEST PUSH1 0x0 DUP1 PUSH1 0x6 DUP6 PUSH1 0x40 MLOAD PUSH2 0x2E89 SWAP2 SWAP1 PUSH2 0x414F JUMP JUMPDEST SWAP1 DUP2 MSTORE PUSH1 0x20 ADD PUSH1 0x40 MLOAD DUP1 SWAP2 SUB SWAP1 KECCAK256 SWAP1 POP DUP3 ISZERO PUSH2 0x2EC0 JUMPI PUSH1 0x5 DUP6 PUSH1 0x40 MLOAD PUSH2 0x2EAF SWAP2 SWAP1 PUSH2 0x414F JUMP JUMPDEST SWAP1 DUP2 MSTORE PUSH1 0x20 ADD PUSH1 0x40 MLOAD DUP1 SWAP2 SUB SWAP1 KECCAK256 SWAP1 POP JUMPDEST PUSH1 0x0 JUMPDEST DUP2 PUSH1 0x0 ADD DUP1 SLOAD SWAP1 POP DUP2 LT ISZERO PUSH2 0x2F52 JUMPI DUP5 DUP3 PUSH1 0x0 ADD DUP3 DUP2 SLOAD DUP2 LT PUSH2 0x2EE9 JUMPI PUSH2 0x2EE8 PUSH2 0x4DDD JUMP JUMPDEST JUMPDEST SWAP1 PUSH1 0x0 MSTORE PUSH1 0x20 PUSH1 0x0 KECCAK256 SWAP1 PUSH1 0x2 MUL ADD PUSH1 0x0 ADD SLOAD EQ ISZERO PUSH2 0x2F3F JUMPI DUP2 PUSH1 0x0 ADD DUP2 DUP2 SLOAD DUP2 LT PUSH2 0x2F17 JUMPI PUSH2 0x2F16 PUSH2 0x4DDD JUMP JUMPDEST JUMPDEST SWAP1 PUSH1 0x0 MSTORE PUSH1 0x20 PUSH1 0x0 KECCAK256 SWAP1 PUSH1 0x2 MUL ADD PUSH1 0x1 ADD PUSH1 0x0 SWAP1 SLOAD SWAP1 PUSH2 0x100 EXP SWAP1 DIV PUSH1 0xFF AND SWAP3 POP POP POP PUSH2 0x2F59 JUMP JUMPDEST DUP1 DUP1 PUSH2 0x2F4A SWAP1 PUSH2 0x4C9D JUMP JUMPDEST SWAP2 POP POP PUSH2 0x2EC3 JUMP JUMPDEST POP PUSH1 0x0 SWAP2 POP POP JUMPDEST SWAP4 SWAP3 POP POP POP JUMP JUMPDEST PUSH2 0x2F6C DUP3 DUP3 PUSH1 0x1 PUSH2 0x3184 JUMP JUMPDEST POP POP JUMP JUMPDEST PUSH1 0x60 PUSH1 0x0 DUP3 SWAP1 POP PUSH1 0x0 JUMPDEST DUP2 MLOAD DUP2 LT ISZERO PUSH2 0x2FFE JUMPI PUSH2 0x2FA9 DUP3 DUP3 DUP2 MLOAD DUP2 LT PUSH2 0x2F99 JUMPI PUSH2 0x2F98 PUSH2 0x4DDD JUMP JUMPDEST JUMPDEST PUSH1 0x20 ADD ADD MLOAD PUSH1 0xF8 SHR PUSH1 0xF8 SHL PUSH2 0x349F JUMP JUMPDEST DUP3 DUP3 DUP2 MLOAD DUP2 LT PUSH2 0x2FBC JUMPI PUSH2 0x2FBB PUSH2 0x4DDD JUMP JUMPDEST JUMPDEST PUSH1 0x20 ADD ADD SWAP1 PUSH31 0xFFFFFFFFFFFFFFFFFFFFFFFFFFFFFFFFFFFFFFFFFFFFFFFFFFFFFFFFFFFFFF NOT AND SWAP1 DUP2 PUSH1 0x0 BYTE SWAP1 MSTORE8 POP DUP1 DUP1 PUSH2 0x2FF6 SWAP1 PUSH2 0x4C9D JUMP JUMPDEST SWAP2 POP POP PUSH2 0x2F7A JUMP JUMPDEST POP DUP1 SWAP2 POP POP SWAP2 SWAP1 POP JUMP JUMPDEST PUSH2 0x3014 DUP3 DUP3 PUSH1 0x0 PUSH2 0x3184 JUMP JUMPDEST POP POP JUMP JUMPDEST PUSH1 0x0 PUSH1 0xA DUP3 PUSH1 0xF8 SHR PUSH1 0xFF AND LT ISZERO PUSH2 0x3043 JUMPI PUSH1 0x30 DUP3 PUSH1 0xF8 SHR PUSH2 0x3039 SWAP2 SWAP1 PUSH2 0x4898 JUMP JUMPDEST PUSH1 0xF8 SHL SWAP1 POP PUSH2 0x3059 JUMP JUMPDEST PUSH1 0x57 DUP3 PUSH1 0xF8 SHR PUSH2 0x3053 SWAP2 SWAP1 PUSH2 0x4898 JUMP JUMPDEST PUSH1 0xF8 SHL SWAP1 POP JUMPDEST SWAP2 SWAP1 POP JUMP JUMPDEST PUSH1 0x0 DUP1 PUSH1 0x0 SWAP1 POP JUMPDEST PUSH1 0x7 PUSH1 0x0 DUP6 DUP2 MSTORE PUSH1 0x20 ADD SWAP1 DUP2 MSTORE PUSH1 0x20 ADD PUSH1 0x0 KECCAK256 PUSH1 0x4 ADD DUP1 SLOAD SWAP1 POP DUP2 LT ISZERO PUSH2 0x30E5 JUMPI DUP3 PUSH1 0x7 PUSH1 0x0 DUP7 DUP2 MSTORE PUSH1 0x20 ADD SWAP1 DUP2 MSTORE PUSH1 0x20 ADD PUSH1 0x0 KECCAK256 PUSH1 0x4 ADD DUP3 DUP2 SLOAD DUP2 LT PUSH2 0x30B0 JUMPI PUSH2 0x30AF PUSH2 0x4DDD JUMP JUMPDEST JUMPDEST SWAP1 PUSH1 0x0 MSTORE PUSH1 0x20 PUSH1 0x0 KECCAK256 SWAP1 PUSH1 0x2 MUL ADD PUSH1 0x0 ADD SLOAD EQ ISZERO PUSH2 0x30D2 JUMPI PUSH1 0x1 SWAP2 POP POP PUSH2 0x30EB JUMP JUMPDEST DUP1 DUP1 PUSH2 0x30DD SWAP1 PUSH2 0x4C9D JUMP JUMPDEST SWAP2 POP POP PUSH2 0x3066 JUMP JUMPDEST POP PUSH1 0x0 SWAP1 POP JUMPDEST SWAP3 SWAP2 POP POP JUMP JUMPDEST PUSH1 0x0 DUP1 PUSH1 0x0 SWAP1 POP JUMPDEST PUSH1 0x8 PUSH1 0x0 DUP6 DUP2 MSTORE PUSH1 0x20 ADD SWAP1 DUP2 MSTORE PUSH1 0x20 ADD PUSH1 0x0 KECCAK256 PUSH1 0x4 ADD DUP1 SLOAD SWAP1 POP DUP2 LT ISZERO PUSH2 0x3178 JUMPI DUP3 PUSH1 0x8 PUSH1 0x0 DUP7 DUP2 MSTORE PUSH1 0x20 ADD SWAP1 DUP2 MSTORE PUSH1 0x20 ADD PUSH1 0x0 KECCAK256 PUSH1 0x4 ADD DUP3 DUP2 SLOAD DUP2 LT PUSH2 0x3143 JUMPI PUSH2 0x3142 PUSH2 0x4DDD JUMP JUMPDEST JUMPDEST SWAP1 PUSH1 0x0 MSTORE PUSH1 0x20 PUSH1 0x0 KECCAK256 SWAP1 PUSH1 0x2 MUL ADD PUSH1 0x0 ADD SLOAD EQ ISZERO PUSH2 0x3165 JUMPI PUSH1 0x1 SWAP2 POP POP PUSH2 0x317E JUMP JUMPDEST DUP1 DUP1 PUSH2 0x3170 SWAP1 PUSH2 0x4C9D JUMP JUMPDEST SWAP2 POP POP PUSH2 0x30F9 JUMP JUMPDEST POP PUSH1 0x0 SWAP1 POP JUMPDEST SWAP3 SWAP2 POP POP JUMP JUMPDEST PUSH1 0x0 PUSH1 0x8 PUSH1 0x0 DUP6 DUP2 MSTORE PUSH1 0x20 ADD SWAP1 DUP2 MSTORE PUSH1 0x20 ADD PUSH1 0x0 KECCAK256 SWAP1 POP PUSH1 0x0 PUSH1 0x6 DUP5 PUSH1 0x40 MLOAD PUSH2 0x31AD SWAP2 SWAP1 PUSH2 0x414F JUMP JUMPDEST SWAP1 DUP2 MSTORE PUSH1 0x20 ADD PUSH1 0x40 MLOAD DUP1 SWAP2 SUB SWAP1 KECCAK256 SWAP1 POP DUP3 ISZERO PUSH2 0x31F9 JUMPI PUSH1 0x7 PUSH1 0x0 DUP7 DUP2 MSTORE PUSH1 0x20 ADD SWAP1 DUP2 MSTORE PUSH1 0x20 ADD PUSH1 0x0 KECCAK256 SWAP2 POP PUSH1 0x5 DUP5 PUSH1 0x40 MLOAD PUSH2 0x31E8 SWAP2 SWAP1 PUSH2 0x414F JUMP JUMPDEST SWAP1 DUP2 MSTORE PUSH1 0x20 ADD PUSH1 0x40 MLOAD DUP1 SWAP2 SUB SWAP1 KECCAK256 SWAP1 POP JUMPDEST PUSH1 0x0 JUMPDEST DUP3 PUSH1 0x4 ADD DUP1 SLOAD SWAP1 POP DUP2 LT ISZERO PUSH2 0x3497 JUMPI DUP2 PUSH1 0x0 ADD PUSH1 0x40 MLOAD DUP1 PUSH1 0x60 ADD PUSH1 0x40 MSTORE DUP1 DUP6 PUSH1 0x4 ADD DUP5 DUP2 SLOAD DUP2 LT PUSH2 0x3230 JUMPI PUSH2 0x322F PUSH2 0x4DDD JUMP JUMPDEST JUMPDEST SWAP1 PUSH1 0x0 MSTORE PUSH1 0x20 PUSH1 0x0 KECCAK256 SWAP1 PUSH1 0x2 MUL ADD PUSH1 0x0 ADD SLOAD DUP2 MSTORE PUSH1 0x20 ADD DUP6 PUSH1 0x4 ADD DUP5 DUP2 SLOAD DUP2 LT PUSH2 0x325D JUMPI PUSH2 0x325C PUSH2 0x4DDD JUMP JUMPDEST JUMPDEST SWAP1 PUSH1 0x0 MSTORE PUSH1 0x20 PUSH1 0x0 KECCAK256 SWAP1 PUSH1 0x2 MUL ADD PUSH1 0x1 ADD PUSH1 0x0 SWAP1 SLOAD SWAP1 PUSH2 0x100 EXP SWAP1 DIV PUSH1 0xFF AND PUSH1 0x3 DUP2 GT ISZERO PUSH2 0x328E JUMPI PUSH2 0x328D PUSH2 0x4D7F JUMP JUMPDEST JUMPDEST DUP2 MSTORE PUSH1 0x20 ADD DUP6 PUSH1 0x4 ADD DUP5 DUP2 SLOAD DUP2 LT PUSH2 0x32A9 JUMPI PUSH2 0x32A8 PUSH2 0x4DDD JUMP JUMPDEST JUMPDEST SWAP1 PUSH1 0x0 MSTORE PUSH1 0x20 PUSH1 0x0 KECCAK256 SWAP1 PUSH1 0x2 MUL ADD PUSH1 0x1 ADD PUSH1 0x1 SWAP1 SLOAD SWAP1 PUSH2 0x100 EXP SWAP1 DIV PUSH1 0xFF AND ISZERO ISZERO DUP2 MSTORE POP SWAP1 DUP1 PUSH1 0x1 DUP2 SLOAD ADD DUP1 DUP3 SSTORE DUP1 SWAP2 POP POP PUSH1 0x1 SWAP1 SUB SWAP1 PUSH1 0x0 MSTORE PUSH1 0x20 PUSH1 0x0 KECCAK256 SWAP1 PUSH1 0x2 MUL ADD PUSH1 0x0 SWAP1 SWAP2 SWAP1 SWAP2 SWAP1 SWAP2 POP PUSH1 0x0 DUP3 ADD MLOAD DUP2 PUSH1 0x0 ADD SSTORE PUSH1 0x20 DUP3 ADD MLOAD DUP2 PUSH1 0x1 ADD PUSH1 0x0 PUSH2 0x100 EXP DUP2 SLOAD DUP2 PUSH1 0xFF MUL NOT AND SWAP1 DUP4 PUSH1 0x3 DUP2 GT ISZERO PUSH2 0x332B JUMPI PUSH2 0x332A PUSH2 0x4D7F JUMP JUMPDEST JUMPDEST MUL OR SWAP1 SSTORE POP PUSH1 0x40 DUP3 ADD MLOAD DUP2 PUSH1 0x1 ADD PUSH1 0x1 PUSH2 0x100 EXP DUP2 SLOAD DUP2 PUSH1 0xFF MUL NOT AND SWAP1 DUP4 ISZERO ISZERO MUL OR SWAP1 SSTORE POP POP POP DUP3 PUSH1 0x4 ADD DUP2 DUP2 SLOAD DUP2 LT PUSH2 0x3368 JUMPI PUSH2 0x3367 PUSH2 0x4DDD JUMP JUMPDEST JUMPDEST SWAP1 PUSH1 0x0 MSTORE PUSH1 0x20 PUSH1 0x0 KECCAK256 SWAP1 PUSH1 0x2 MUL ADD PUSH1 0x1 ADD PUSH1 0x1 SWAP1 SLOAD SWAP1 PUSH2 0x100 EXP SWAP1 DIV PUSH1 0xFF AND ISZERO PUSH2 0x3484 JUMPI PUSH2 0x3483 DUP6 DUP5 PUSH1 0x4 ADD DUP4 DUP2 SLOAD DUP2 LT PUSH2 0x33A6 JUMPI PUSH2 0x33A5 PUSH2 0x4DDD JUMP JUMPDEST JUMPDEST SWAP1 PUSH1 0x0 MSTORE PUSH1 0x20 PUSH1 0x0 KECCAK256 SWAP1 PUSH1 0x2 MUL ADD PUSH1 0x0 ADD SLOAD DUP6 PUSH1 0x5 ADD PUSH1 0x0 DUP8 PUSH1 0x4 ADD DUP7 DUP2 SLOAD DUP2 LT PUSH2 0x33D4 JUMPI PUSH2 0x33D3 PUSH2 0x4DDD JUMP JUMPDEST JUMPDEST SWAP1 PUSH1 0x0 MSTORE PUSH1 0x20 PUSH1 0x0 KECCAK256 SWAP1 PUSH1 0x2 MUL ADD PUSH1 0x0 ADD SLOAD DUP2 MSTORE PUSH1 0x20 ADD SWAP1 DUP2 MSTORE PUSH1 0x20 ADD PUSH1 0x0 KECCAK256 DUP1 SLOAD PUSH2 0x33FF SWAP1 PUSH2 0x4C3A JUMP JUMPDEST DUP1 PUSH1 0x1F ADD PUSH1 0x20 DUP1 SWAP2 DIV MUL PUSH1 0x20 ADD PUSH1 0x40 MLOAD SWAP1 DUP2 ADD PUSH1 0x40 MSTORE DUP1 SWAP3 SWAP2 SWAP1 DUP2 DUP2 MSTORE PUSH1 0x20 ADD DUP3 DUP1 SLOAD PUSH2 0x342B SWAP1 PUSH2 0x4C3A JUMP JUMPDEST DUP1 ISZERO PUSH2 0x3478 JUMPI DUP1 PUSH1 0x1F LT PUSH2 0x344D JUMPI PUSH2 0x100 DUP1 DUP4 SLOAD DIV MUL DUP4 MSTORE SWAP2 PUSH1 0x20 ADD SWAP2 PUSH2 0x3478 JUMP JUMPDEST DUP3 ADD SWAP2 SWAP1 PUSH1 0x0 MSTORE PUSH1 0x20 PUSH1 0x0 KECCAK256 SWAP1 JUMPDEST DUP2 SLOAD DUP2 MSTORE SWAP1 PUSH1 0x1 ADD SWAP1 PUSH1 0x20 ADD DUP1 DUP4 GT PUSH2 0x345B JUMPI DUP3 SWAP1 SUB PUSH1 0x1F AND DUP3 ADD SWAP2 JUMPDEST POP POP POP POP POP DUP8 PUSH2 0x1057 JUMP JUMPDEST JUMPDEST DUP1 DUP1 PUSH2 0x348F SWAP1 PUSH2 0x4C9D JUMP JUMPDEST SWAP2 POP POP PUSH2 0x31FC JUMP JUMPDEST POP POP POP POP POP POP JUMP JUMPDEST PUSH1 0x0 PUSH1 0x61 PUSH1 0xF8 SHL DUP3 PUSH31 0xFFFFFFFFFFFFFFFFFFFFFFFFFFFFFFFFFFFFFFFFFFFFFFFFFFFFFFFFFFFFFF NOT AND LT ISZERO DUP1 ISZERO PUSH2 0x34FD JUMPI POP PUSH1 0x7A PUSH1 0xF8 SHL DUP3 PUSH31 0xFFFFFFFFFFFFFFFFFFFFFFFFFFFFFFFFFFFFFFFFFFFFFFFFFFFFFFFFFFFFFF NOT AND GT ISZERO JUMPDEST ISZERO PUSH2 0x351C JUMPI PUSH1 0x20 DUP3 PUSH1 0xF8 SHR PUSH2 0x3512 SWAP2 SWAP1 PUSH2 0x4B6B JUMP JUMPDEST PUSH1 0xF8 SHL SWAP1 POP PUSH2 0x3520 JUMP JUMPDEST DUP2 SWAP1 POP JUMPDEST SWAP2 SWAP1 POP JUMP JUMPDEST DUP3 DUP1 SLOAD PUSH2 0x3531 SWAP1 PUSH2 0x4C3A JUMP JUMPDEST SWAP1 PUSH1 0x0 MSTORE PUSH1 0x20 PUSH1 0x0 KECCAK256 SWAP1 PUSH1 0x1F ADD PUSH1 0x20 SWAP1 DIV DUP2 ADD SWAP3 DUP3 PUSH2 0x3553 JUMPI PUSH1 0x0 DUP6 SSTORE PUSH2 0x359A JUMP JUMPDEST DUP3 PUSH1 0x1F LT PUSH2 0x356C JUMPI DUP1 MLOAD PUSH1 0xFF NOT AND DUP4 DUP1 ADD OR DUP6 SSTORE PUSH2 0x359A JUMP JUMPDEST DUP3 DUP1 ADD PUSH1 0x1 ADD DUP6 SSTORE DUP3 ISZERO PUSH2 0x359A JUMPI SWAP2 DUP3 ADD JUMPDEST DUP3 DUP2 GT ISZERO PUSH2 0x3599 JUMPI DUP3 MLOAD DUP3 SSTORE SWAP2 PUSH1 0x20 ADD SWAP2 SWAP1 PUSH1 0x1 ADD SWAP1 PUSH2 0x357E JUMP JUMPDEST JUMPDEST POP SWAP1 POP PUSH2 0x35A7 SWAP2 SWAP1 PUSH2 0x35AB JUMP JUMPDEST POP SWAP1 JUMP JUMPDEST JUMPDEST DUP1 DUP3 GT ISZERO PUSH2 0x35C4 JUMPI PUSH1 0x0 DUP2 PUSH1 0x0 SWAP1 SSTORE POP PUSH1 0x1 ADD PUSH2 0x35AC JUMP JUMPDEST POP SWAP1 JUMP JUMPDEST PUSH1 0x0 PUSH2 0x35DB PUSH2 0x35D6 DUP5 PUSH2 0x474E JUMP JUMPDEST PUSH2 0x4729 JUMP JUMPDEST SWAP1 POP DUP1 DUP4 DUP3 MSTORE PUSH1 0x20 DUP3 ADD SWAP1 POP DUP3 DUP6 PUSH1 0x20 DUP7 MUL DUP3 ADD GT ISZERO PUSH2 0x35FE JUMPI PUSH2 0x35FD PUSH2 0x4E40 JUMP JUMPDEST JUMPDEST PUSH1 0x0 JUMPDEST DUP6 DUP2 LT ISZERO PUSH2 0x364C JUMPI DUP2 CALLDATALOAD PUSH8 0xFFFFFFFFFFFFFFFF DUP2 GT ISZERO PUSH2 0x3624 JUMPI PUSH2 0x3623 PUSH2 0x4E3B JUMP JUMPDEST JUMPDEST DUP1 DUP7 ADD PUSH2 0x3631 DUP10 DUP3 PUSH2 0x3705 JUMP JUMPDEST DUP6 MSTORE PUSH1 0x20 DUP6 ADD SWAP5 POP PUSH1 0x20 DUP5 ADD SWAP4 POP POP POP PUSH1 0x1 DUP2 ADD SWAP1 POP PUSH2 0x3601 JUMP JUMPDEST POP POP POP SWAP4 SWAP3 POP POP POP JUMP JUMPDEST PUSH1 0x0 PUSH2 0x3669 PUSH2 0x3664 DUP5 PUSH2 0x477A JUMP JUMPDEST PUSH2 0x4729 JUMP JUMPDEST SWAP1 POP DUP3 DUP2 MSTORE PUSH1 0x20 DUP2 ADD DUP5 DUP5 DUP5 ADD GT ISZERO PUSH2 0x3685 JUMPI PUSH2 0x3684 PUSH2 0x4E45 JUMP JUMPDEST JUMPDEST PUSH2 0x3690 DUP5 DUP3 DUP6 PUSH2 0x4BF8 JUMP JUMPDEST POP SWAP4 SWAP3 POP POP POP JUMP JUMPDEST PUSH1 0x0 DUP3 PUSH1 0x1F DUP4 ADD SLT PUSH2 0x36AD JUMPI PUSH2 0x36AC PUSH2 0x4E3B JUMP JUMPDEST JUMPDEST DUP2 CALLDATALOAD PUSH2 0x36BD DUP5 DUP3 PUSH1 0x20 DUP7 ADD PUSH2 0x35C8 JUMP JUMPDEST SWAP2 POP POP SWAP3 SWAP2 POP POP JUMP JUMPDEST PUSH1 0x0 DUP2 CALLDATALOAD SWAP1 POP PUSH2 0x36D5 DUP2 PUSH2 0x5612 JUMP JUMPDEST SWAP3 SWAP2 POP POP JUMP JUMPDEST PUSH1 0x0 DUP2 CALLDATALOAD SWAP1 POP PUSH2 0x36EA DUP2 PUSH2 0x5629 JUMP JUMPDEST SWAP3 SWAP2 POP POP JUMP JUMPDEST PUSH1 0x0 DUP2 CALLDATALOAD SWAP1 POP PUSH2 0x36FF DUP2 PUSH2 0x5640 JUMP JUMPDEST SWAP3 SWAP2 POP POP JUMP JUMPDEST PUSH1 0x0 DUP3 PUSH1 0x1F DUP4 ADD SLT PUSH2 0x371A JUMPI PUSH2 0x3719 PUSH2 0x4E3B JUMP JUMPDEST JUMPDEST DUP2 CALLDATALOAD PUSH2 0x372A DUP5 DUP3 PUSH1 0x20 DUP7 ADD PUSH2 0x3656 JUMP JUMPDEST SWAP2 POP POP SWAP3 SWAP2 POP POP JUMP JUMPDEST PUSH1 0x0 DUP2 CALLDATALOAD SWAP1 POP PUSH2 0x3742 DUP2 PUSH2 0x5657 JUMP JUMPDEST SWAP3 SWAP2 POP POP JUMP JUMPDEST PUSH1 0x0 DUP2 MLOAD SWAP1 POP PUSH2 0x3757 DUP2 PUSH2 0x5657 JUMP JUMPDEST SWAP3 SWAP2 POP POP JUMP JUMPDEST PUSH1 0x0 DUP1 PUSH1 0x0 DUP1 PUSH1 0x0 PUSH1 0xA0 DUP7 DUP9 SUB SLT ISZERO PUSH2 0x3779 JUMPI PUSH2 0x3778 PUSH2 0x4E4F JUMP JUMPDEST JUMPDEST PUSH1 0x0 PUSH2 0x3787 DUP9 DUP3 DUP10 ADD PUSH2 0x36F0 JUMP JUMPDEST SWAP6 POP POP PUSH1 0x20 PUSH2 0x3798 DUP9 DUP3 DUP10 ADD PUSH2 0x36F0 JUMP JUMPDEST SWAP5 POP POP PUSH1 0x40 PUSH2 0x37A9 DUP9 DUP3 DUP10 ADD PUSH2 0x36DB JUMP JUMPDEST SWAP4 POP POP PUSH1 0x60 PUSH2 0x37BA DUP9 DUP3 DUP10 ADD PUSH2 0x36C6 JUMP JUMPDEST SWAP3 POP POP PUSH1 0x80 DUP7 ADD CALLDATALOAD PUSH8 0xFFFFFFFFFFFFFFFF DUP2 GT ISZERO PUSH2 0x37DB JUMPI PUSH2 0x37DA PUSH2 0x4E4A JUMP JUMPDEST JUMPDEST PUSH2 0x37E7 DUP9 DUP3 DUP10 ADD PUSH2 0x3705 JUMP JUMPDEST SWAP2 POP POP SWAP3 SWAP6 POP SWAP3 SWAP6 SWAP1 SWAP4 POP JUMP JUMPDEST PUSH1 0x0 DUP1 PUSH1 0x0 PUSH1 0x60 DUP5 DUP7 SUB SLT ISZERO PUSH2 0x380D JUMPI PUSH2 0x380C PUSH2 0x4E4F JUMP JUMPDEST JUMPDEST PUSH1 0x0 PUSH2 0x381B DUP7 DUP3 DUP8 ADD PUSH2 0x36F0 JUMP JUMPDEST SWAP4 POP POP PUSH1 0x20 PUSH2 0x382C DUP7 DUP3 DUP8 ADD PUSH2 0x36F0 JUMP JUMPDEST SWAP3 POP POP PUSH1 0x40 DUP5 ADD CALLDATALOAD PUSH8 0xFFFFFFFFFFFFFFFF DUP2 GT ISZERO PUSH2 0x384D JUMPI PUSH2 0x384C PUSH2 0x4E4A JUMP JUMPDEST JUMPDEST PUSH2 0x3859 DUP7 DUP3 DUP8 ADD PUSH2 0x3705 JUMP JUMPDEST SWAP2 POP POP SWAP3 POP SWAP3 POP SWAP3 JUMP JUMPDEST PUSH1 0x0 DUP1 PUSH1 0x0 DUP1 PUSH1 0x0 PUSH1 0xA0 DUP7 DUP9 SUB SLT ISZERO PUSH2 0x387F JUMPI PUSH2 0x387E PUSH2 0x4E4F JUMP JUMPDEST JUMPDEST PUSH1 0x0 PUSH2 0x388D DUP9 DUP3 DUP10 ADD PUSH2 0x36F0 JUMP JUMPDEST SWAP6 POP POP PUSH1 0x20 PUSH2 0x389E DUP9 DUP3 DUP10 ADD PUSH2 0x36F0 JUMP JUMPDEST SWAP5 POP POP PUSH1 0x40 PUSH2 0x38AF DUP9 DUP3 DUP10 ADD PUSH2 0x3733 JUMP JUMPDEST SWAP4 POP POP PUSH1 0x60 PUSH2 0x38C0 DUP9 DUP3 DUP10 ADD PUSH2 0x36F0 JUMP JUMPDEST SWAP3 POP POP PUSH1 0x80 DUP7 ADD CALLDATALOAD PUSH8 0xFFFFFFFFFFFFFFFF DUP2 GT ISZERO PUSH2 0x38E1 JUMPI PUSH2 0x38E0 PUSH2 0x4E4A JUMP JUMPDEST JUMPDEST PUSH2 0x38ED DUP9 DUP3 DUP10 ADD PUSH2 0x3705 JUMP JUMPDEST SWAP2 POP POP SWAP3 SWAP6 POP SWAP3 SWAP6 SWAP1 SWAP4 POP JUMP JUMPDEST PUSH1 0x0 DUP1 PUSH1 0x40 DUP4 DUP6 SUB SLT ISZERO PUSH2 0x3911 JUMPI PUSH2 0x3910 PUSH2 0x4E4F JUMP JUMPDEST JUMPDEST PUSH1 0x0 PUSH2 0x391F DUP6 DUP3 DUP7 ADD PUSH2 0x36F0 JUMP JUMPDEST SWAP3 POP POP PUSH1 0x20 PUSH2 0x3930 DUP6 DUP3 DUP7 ADD PUSH2 0x3733 JUMP JUMPDEST SWAP2 POP POP SWAP3 POP SWAP3 SWAP1 POP JUMP JUMPDEST PUSH1 0x0 PUSH1 0x20 DUP3 DUP5 SUB SLT ISZERO PUSH2 0x3950 JUMPI PUSH2 0x394F PUSH2 0x4E4F JUMP JUMPDEST JUMPDEST PUSH1 0x0 DUP3 ADD CALLDATALOAD PUSH8 0xFFFFFFFFFFFFFFFF DUP2 GT ISZERO PUSH2 0x396E JUMPI PUSH2 0x396D PUSH2 0x4E4A JUMP JUMPDEST JUMPDEST PUSH2 0x397A DUP5 DUP3 DUP6 ADD PUSH2 0x3705 JUMP JUMPDEST SWAP2 POP POP SWAP3 SWAP2 POP POP JUMP JUMPDEST PUSH1 0x0 DUP1 PUSH1 0x40 DUP4 DUP6 SUB SLT ISZERO PUSH2 0x399A JUMPI PUSH2 0x3999 PUSH2 0x4E4F JUMP JUMPDEST JUMPDEST PUSH1 0x0 DUP4 ADD CALLDATALOAD PUSH8 0xFFFFFFFFFFFFFFFF DUP2 GT ISZERO PUSH2 0x39B8 JUMPI PUSH2 0x39B7 PUSH2 0x4E4A JUMP JUMPDEST JUMPDEST PUSH2 0x39C4 DUP6 DUP3 DUP7 ADD PUSH2 0x3705 JUMP JUMPDEST SWAP3 POP POP PUSH1 0x20 DUP4 ADD CALLDATALOAD PUSH8 0xFFFFFFFFFFFFFFFF DUP2 GT ISZERO PUSH2 0x39E5 JUMPI PUSH2 0x39E4 PUSH2 0x4E4A JUMP JUMPDEST JUMPDEST PUSH2 0x39F1 DUP6 DUP3 DUP7 ADD PUSH2 0x3698 JUMP JUMPDEST SWAP2 POP POP SWAP3 POP SWAP3 SWAP1 POP JUMP JUMPDEST PUSH1 0x0 DUP1 PUSH1 0x0 PUSH1 0x60 DUP5 DUP7 SUB SLT ISZERO PUSH2 0x3A14 JUMPI PUSH2 0x3A13 PUSH2 0x4E4F JUMP JUMPDEST JUMPDEST PUSH1 0x0 DUP5 ADD CALLDATALOAD PUSH8 0xFFFFFFFFFFFFFFFF DUP2 GT ISZERO PUSH2 0x3A32 JUMPI PUSH2 0x3A31 PUSH2 0x4E4A JUMP JUMPDEST JUMPDEST PUSH2 0x3A3E DUP7 DUP3 DUP8 ADD PUSH2 0x3705 JUMP JUMPDEST SWAP4 POP POP PUSH1 0x20 PUSH2 0x3A4F DUP7 DUP3 DUP8 ADD PUSH2 0x36F0 JUMP JUMPDEST SWAP3 POP POP PUSH1 0x40 DUP5 ADD CALLDATALOAD PUSH8 0xFFFFFFFFFFFFFFFF DUP2 GT ISZERO PUSH2 0x3A70 JUMPI PUSH2 0x3A6F PUSH2 0x4E4A JUMP JUMPDEST JUMPDEST PUSH2 0x3A7C DUP7 DUP3 DUP8 ADD PUSH2 0x3705 JUMP JUMPDEST SWAP2 POP POP SWAP3 POP SWAP3 POP SWAP3 JUMP JUMPDEST PUSH1 0x0 PUSH1 0x20 DUP3 DUP5 SUB SLT ISZERO PUSH2 0x3A9C JUMPI PUSH2 0x3A9B PUSH2 0x4E4F JUMP JUMPDEST JUMPDEST PUSH1 0x0 PUSH2 0x3AAA DUP5 DUP3 DUP6 ADD PUSH2 0x3748 JUMP JUMPDEST SWAP2 POP POP SWAP3 SWAP2 POP POP JUMP JUMPDEST PUSH1 0x0 PUSH2 0x3ABF DUP4 DUP4 PUSH2 0x3B80 JUMP JUMPDEST SWAP1 POP SWAP3 SWAP2 POP POP JUMP JUMPDEST PUSH1 0x0 PUSH2 0x3AD2 DUP3 PUSH2 0x47D0 JUMP JUMPDEST PUSH2 0x3ADC DUP2 DUP6 PUSH2 0x47F3 JUMP JUMPDEST SWAP4 POP DUP4 PUSH1 0x20 DUP3 MUL DUP6 ADD PUSH2 0x3AEE DUP6 PUSH2 0x47AB JUMP JUMPDEST DUP1 PUSH1 0x0 JUMPDEST DUP6 DUP2 LT ISZERO PUSH2 0x3B2A JUMPI DUP5 DUP5 SUB DUP10 MSTORE DUP2 MLOAD PUSH2 0x3B0B DUP6 DUP3 PUSH2 0x3AB3 JUMP JUMPDEST SWAP5 POP PUSH2 0x3B16 DUP4 PUSH2 0x47E6 JUMP JUMPDEST SWAP3 POP PUSH1 0x20 DUP11 ADD SWAP10 POP POP PUSH1 0x1 DUP2 ADD SWAP1 POP PUSH2 0x3AF2 JUMP JUMPDEST POP DUP3 SWAP8 POP DUP8 SWAP6 POP POP POP POP POP POP SWAP3 SWAP2 POP POP JUMP JUMPDEST PUSH2 0x3B45 DUP2 PUSH2 0x4B9F JUMP JUMPDEST DUP3 MSTORE POP POP JUMP JUMPDEST PUSH2 0x3B54 DUP2 PUSH2 0x4BAB JUMP JUMPDEST DUP3 MSTORE POP POP JUMP JUMPDEST PUSH2 0x3B63 DUP2 PUSH2 0x4BD7 JUMP JUMPDEST DUP3 MSTORE POP POP JUMP JUMPDEST PUSH2 0x3B7A PUSH2 0x3B75 DUP3 PUSH2 0x4BD7 JUMP JUMPDEST PUSH2 0x4CE6 JUMP JUMPDEST DUP3 MSTORE POP POP JUMP JUMPDEST PUSH1 0x0 PUSH2 0x3B8B DUP3 PUSH2 0x47DB JUMP JUMPDEST PUSH2 0x3B95 DUP2 DUP6 PUSH2 0x4804 JUMP JUMPDEST SWAP4 POP PUSH2 0x3BA5 DUP2 DUP6 PUSH1 0x20 DUP7 ADD PUSH2 0x4C07 JUMP JUMPDEST PUSH2 0x3BAE DUP2 PUSH2 0x4E54 JUMP JUMPDEST DUP5 ADD SWAP2 POP POP SWAP3 SWAP2 POP POP JUMP JUMPDEST PUSH1 0x0 PUSH2 0x3BC4 DUP3 PUSH2 0x47DB JUMP JUMPDEST PUSH2 0x3BCE DUP2 DUP6 PUSH2 0x4815 JUMP JUMPDEST SWAP4 POP PUSH2 0x3BDE DUP2 DUP6 PUSH1 0x20 DUP7 ADD PUSH2 0x4C07 JUMP JUMPDEST PUSH2 0x3BE7 DUP2 PUSH2 0x4E54 JUMP JUMPDEST DUP5 ADD SWAP2 POP POP SWAP3 SWAP2 POP POP JUMP JUMPDEST PUSH1 0x0 PUSH2 0x3BFD DUP3 PUSH2 0x47DB JUMP JUMPDEST PUSH2 0x3C07 DUP2 DUP6 PUSH2 0x4826 JUMP JUMPDEST SWAP4 POP PUSH2 0x3C17 DUP2 DUP6 PUSH1 0x20 DUP7 ADD PUSH2 0x4C07 JUMP JUMPDEST PUSH2 0x3C20 DUP2 PUSH2 0x4E54 JUMP JUMPDEST DUP5 ADD SWAP2 POP POP SWAP3 SWAP2 POP POP JUMP JUMPDEST PUSH1 0x0 PUSH2 0x3C36 DUP3 PUSH2 0x47DB JUMP JUMPDEST PUSH2 0x3C40 DUP2 DUP6 PUSH2 0x4837 JUMP JUMPDEST SWAP4 POP PUSH2 0x3C50 DUP2 DUP6 PUSH1 0x20 DUP7 ADD PUSH2 0x4C07 JUMP JUMPDEST DUP1 DUP5 ADD SWAP2 POP POP SWAP3 SWAP2 POP POP JUMP JUMPDEST PUSH1 0x0 DUP2 SLOAD PUSH2 0x3C69 DUP2 PUSH2 0x4C3A JUMP JUMPDEST PUSH2 0x3C73 DUP2 DUP7 PUSH2 0x4837 JUMP JUMPDEST SWAP5 POP PUSH1 0x1 DUP3 AND PUSH1 0x0 DUP2 EQ PUSH2 0x3C8E JUMPI PUSH1 0x1 DUP2 EQ PUSH2 0x3C9F JUMPI PUSH2 0x3CD2 JUMP JUMPDEST PUSH1 0xFF NOT DUP4 AND DUP7 MSTORE DUP2 DUP7 ADD SWAP4 POP PUSH2 0x3CD2 JUMP JUMPDEST PUSH2 0x3CA8 DUP6 PUSH2 0x47BB JUMP JUMPDEST PUSH1 0x0 JUMPDEST DUP4 DUP2 LT ISZERO PUSH2 0x3CCA JUMPI DUP2 SLOAD DUP2 DUP10 ADD MSTORE PUSH1 0x1 DUP3 ADD SWAP2 POP PUSH1 0x20 DUP2 ADD SWAP1 POP PUSH2 0x3CAB JUMP JUMPDEST DUP4 DUP9 ADD SWAP6 POP POP POP JUMPDEST POP POP POP SWAP3 SWAP2 POP POP JUMP JUMPDEST PUSH1 0x0 PUSH2 0x3CE8 PUSH1 0x4 DUP4 PUSH2 0x4837 JUMP JUMPDEST SWAP2 POP PUSH2 0x3CF3 DUP3 PUSH2 0x4E72 JUMP JUMPDEST PUSH1 0x4 DUP3 ADD SWAP1 POP SWAP2 SWAP1 POP JUMP JUMPDEST PUSH1 0x0 PUSH2 0x3D0B PUSH1 0x16 DUP4 PUSH2 0x4815 JUMP JUMPDEST SWAP2 POP PUSH2 0x3D16 DUP3 PUSH2 0x4E9B JUMP JUMPDEST PUSH1 0x20 DUP3 ADD SWAP1 POP SWAP2 SWAP1 POP JUMP JUMPDEST PUSH1 0x0 PUSH2 0x3D2E PUSH1 0x36 DUP4 PUSH2 0x4815 JUMP JUMPDEST SWAP2 POP PUSH2 0x3D39 DUP3 PUSH2 0x4EC4 JUMP JUMPDEST PUSH1 0x40 DUP3 ADD SWAP1 POP SWAP2 SWAP1 POP JUMP JUMPDEST PUSH1 0x0 PUSH2 0x3D51 PUSH1 0x41 DUP4 PUSH2 0x4815 JUMP JUMPDEST SWAP2 POP PUSH2 0x3D5C DUP3 PUSH2 0x4F13 JUMP JUMPDEST PUSH1 0x60 DUP3 ADD SWAP1 POP SWAP2 SWAP1 POP JUMP JUMPDEST PUSH1 0x0 PUSH2 0x3D74 PUSH1 0x1D DUP4 PUSH2 0x4815 JUMP JUMPDEST SWAP2 POP PUSH2 0x3D7F DUP3 PUSH2 0x4F88 JUMP JUMPDEST PUSH1 0x20 DUP3 ADD SWAP1 POP SWAP2 SWAP1 POP JUMP JUMPDEST PUSH1 0x0 PUSH2 0x3D97 PUSH1 0x10 DUP4 PUSH2 0x4815 JUMP JUMPDEST SWAP2 POP PUSH2 0x3DA2 DUP3 PUSH2 0x4FB1 JUMP JUMPDEST PUSH1 0x20 DUP3 ADD SWAP1 POP SWAP2 SWAP1 POP JUMP JUMPDEST PUSH1 0x0 PUSH2 0x3DBA PUSH1 0x13 DUP4 PUSH2 0x4815 JUMP JUMPDEST SWAP2 POP PUSH2 0x3DC5 DUP3 PUSH2 0x4FDA JUMP JUMPDEST PUSH1 0x20 DUP3 ADD SWAP1 POP SWAP2 SWAP1 POP JUMP JUMPDEST PUSH1 0x0 PUSH2 0x3DDD PUSH1 0x57 DUP4 PUSH2 0x4815 JUMP JUMPDEST SWAP2 POP PUSH2 0x3DE8 DUP3 PUSH2 0x5003 JUMP JUMPDEST PUSH1 0x60 DUP3 ADD SWAP1 POP SWAP2 SWAP1 POP JUMP JUMPDEST PUSH1 0x0 PUSH2 0x3E00 PUSH1 0x20 DUP4 PUSH2 0x4815 JUMP JUMPDEST SWAP2 POP PUSH2 0x3E0B DUP3 PUSH2 0x5078 JUMP JUMPDEST PUSH1 0x20 DUP3 ADD SWAP1 POP SWAP2 SWAP1 POP JUMP JUMPDEST PUSH1 0x0 PUSH2 0x3E23 PUSH1 0x35 DUP4 PUSH2 0x4815 JUMP JUMPDEST SWAP2 POP PUSH2 0x3E2E DUP3 PUSH2 0x50A1 JUMP JUMPDEST PUSH1 0x40 DUP3 ADD SWAP1 POP SWAP2 SWAP1 POP JUMP JUMPDEST PUSH1 0x0 PUSH2 0x3E46 PUSH1 0x14 DUP4 PUSH2 0x4837 JUMP JUMPDEST SWAP2 POP PUSH2 0x3E51 DUP3 PUSH2 0x50F0 JUMP JUMPDEST PUSH1 0x14 DUP3 ADD SWAP1 POP SWAP2 SWAP1 POP JUMP JUMPDEST PUSH1 0x0 PUSH2 0x3E69 PUSH1 0x4D DUP4 PUSH2 0x4815 JUMP JUMPDEST SWAP2 POP PUSH2 0x3E74 DUP3 PUSH2 0x5119 JUMP JUMPDEST PUSH1 0x60 DUP3 ADD SWAP1 POP SWAP2 SWAP1 POP JUMP JUMPDEST PUSH1 0x0 PUSH2 0x3E8C PUSH1 0x24 DUP4 PUSH2 0x4815 JUMP JUMPDEST SWAP2 POP PUSH2 0x3E97 DUP3 PUSH2 0x518E JUMP JUMPDEST PUSH1 0x40 DUP3 ADD SWAP1 POP SWAP2 SWAP1 POP JUMP JUMPDEST PUSH1 0x0 PUSH2 0x3EAF PUSH1 0x2 DUP4 PUSH2 0x4837 JUMP JUMPDEST SWAP2 POP PUSH2 0x3EBA DUP3 PUSH2 0x51DD JUMP JUMPDEST PUSH1 0x2 DUP3 ADD SWAP1 POP SWAP2 SWAP1 POP JUMP JUMPDEST PUSH1 0x0 PUSH2 0x3ED2 PUSH1 0x1E DUP4 PUSH2 0x4815 JUMP JUMPDEST SWAP2 POP PUSH2 0x3EDD DUP3 PUSH2 0x5206 JUMP JUMPDEST PUSH1 0x20 DUP3 ADD SWAP1 POP SWAP2 SWAP1 POP JUMP JUMPDEST PUSH1 0x0 PUSH2 0x3EF5 PUSH1 0x4C DUP4 PUSH2 0x4815 JUMP JUMPDEST SWAP2 POP PUSH2 0x3F00 DUP3 PUSH2 0x522F JUMP JUMPDEST PUSH1 0x60 DUP3 ADD SWAP1 POP SWAP2 SWAP1 POP JUMP JUMPDEST PUSH1 0x0 PUSH2 0x3F18 PUSH1 0x16 DUP4 PUSH2 0x4815 JUMP JUMPDEST SWAP2 POP PUSH2 0x3F23 DUP3 PUSH2 0x52A4 JUMP JUMPDEST PUSH1 0x20 DUP3 ADD SWAP1 POP SWAP2 SWAP1 POP JUMP JUMPDEST PUSH1 0x0 PUSH2 0x3F3B PUSH1 0x1D DUP4 PUSH2 0x4815 JUMP JUMPDEST SWAP2 POP PUSH2 0x3F46 DUP3 PUSH2 0x52CD JUMP JUMPDEST PUSH1 0x20 DUP3 ADD SWAP1 POP SWAP2 SWAP1 POP JUMP JUMPDEST PUSH1 0x0 PUSH2 0x3F5E PUSH1 0x5F DUP4 PUSH2 0x4815 JUMP JUMPDEST SWAP2 POP PUSH2 0x3F69 DUP3 PUSH2 0x52F6 JUMP JUMPDEST PUSH1 0x60 DUP3 ADD SWAP1 POP SWAP2 SWAP1 POP JUMP JUMPDEST PUSH1 0x0 PUSH2 0x3F81 PUSH1 0xE DUP4 PUSH2 0x4837 JUMP JUMPDEST SWAP2 POP PUSH2 0x3F8C DUP3 PUSH2 0x536B JUMP JUMPDEST PUSH1 0xE DUP3 ADD SWAP1 POP SWAP2 SWAP1 POP JUMP JUMPDEST PUSH1 0x0 PUSH2 0x3FA4 PUSH1 0x1 DUP4 PUSH2 0x4837 JUMP JUMPDEST SWAP2 POP PUSH2 0x3FAF DUP3 PUSH2 0x5394 JUMP JUMPDEST PUSH1 0x1 DUP3 ADD SWAP1 POP SWAP2 SWAP1 POP JUMP JUMPDEST PUSH1 0x0 PUSH2 0x3FC7 PUSH1 0x13 DUP4 PUSH2 0x4837 JUMP JUMPDEST SWAP2 POP PUSH2 0x3FD2 DUP3 PUSH2 0x53BD JUMP JUMPDEST PUSH1 0x13 DUP3 ADD SWAP1 POP SWAP2 SWAP1 POP JUMP JUMPDEST PUSH1 0x0 PUSH2 0x3FEA PUSH1 0x1 DUP4 PUSH2 0x4837 JUMP JUMPDEST SWAP2 POP PUSH2 0x3FF5 DUP3 PUSH2 0x53E6 JUMP JUMPDEST PUSH1 0x1 DUP3 ADD SWAP1 POP SWAP2 SWAP1 POP JUMP JUMPDEST PUSH1 0x0 PUSH2 0x400D PUSH1 0x34 DUP4 PUSH2 0x4815 JUMP JUMPDEST SWAP2 POP PUSH2 0x4018 DUP3 PUSH2 0x540F JUMP JUMPDEST PUSH1 0x40 DUP3 ADD SWAP1 POP SWAP2 SWAP1 POP JUMP JUMPDEST PUSH1 0x0 PUSH2 0x4030 PUSH1 0x2 DUP4 PUSH2 0x4837 JUMP JUMPDEST SWAP2 POP PUSH2 0x403B DUP3 PUSH2 0x545E JUMP JUMPDEST PUSH1 0x2 DUP3 ADD SWAP1 POP SWAP2 SWAP1 POP JUMP JUMPDEST PUSH1 0x0 PUSH2 0x4053 PUSH1 0x3A DUP4 PUSH2 0x4815 JUMP JUMPDEST SWAP2 POP PUSH2 0x405E DUP3 PUSH2 0x5487 JUMP JUMPDEST PUSH1 0x40 DUP3 ADD SWAP1 POP SWAP2 SWAP1 POP JUMP JUMPDEST PUSH1 0x0 PUSH2 0x4076 PUSH1 0x2F DUP4 PUSH2 0x4815 JUMP JUMPDEST SWAP2 POP PUSH2 0x4081 DUP3 PUSH2 0x54D6 JUMP JUMPDEST PUSH1 0x40 DUP3 ADD SWAP1 POP SWAP2 SWAP1 POP JUMP JUMPDEST PUSH1 0x0 PUSH2 0x4099 PUSH1 0x22 DUP4 PUSH2 0x4815 JUMP JUMPDEST SWAP2 POP PUSH2 0x40A4 DUP3 PUSH2 0x5525 JUMP JUMPDEST PUSH1 0x40 DUP3 ADD SWAP1 POP SWAP2 SWAP1 POP JUMP JUMPDEST PUSH1 0x0 PUSH2 0x40BC PUSH1 0x46 DUP4 PUSH2 0x4815 JUMP JUMPDEST SWAP2 POP PUSH2 0x40C7 DUP3 PUSH2 0x5574 JUMP JUMPDEST PUSH1 0x60 DUP3 ADD SWAP1 POP SWAP2 SWAP1 POP JUMP JUMPDEST PUSH1 0x0 PUSH2 0x40DF PUSH1 0x5 DUP4 PUSH2 0x4837 JUMP JUMPDEST SWAP2 POP PUSH2 0x40EA DUP3 PUSH2 0x55E9 JUMP JUMPDEST PUSH1 0x5 DUP3 ADD SWAP1 POP SWAP2 SWAP1 POP JUMP JUMPDEST PUSH2 0x40FE DUP2 PUSH2 0x4BE1 JUMP JUMPDEST DUP3 MSTORE POP POP JUMP JUMPDEST PUSH1 0x0 PUSH2 0x4110 DUP3 DUP7 PUSH2 0x3B69 JUMP JUMPDEST PUSH1 0x20 DUP3 ADD SWAP2 POP PUSH2 0x411F DUP3 PUSH2 0x3F97 JUMP JUMPDEST SWAP2 POP PUSH2 0x412B DUP3 DUP6 PUSH2 0x3C2B JUMP JUMPDEST SWAP2 POP PUSH2 0x4136 DUP3 PUSH2 0x3F97 JUMP JUMPDEST SWAP2 POP PUSH2 0x4142 DUP3 DUP5 PUSH2 0x3C2B JUMP JUMPDEST SWAP2 POP DUP2 SWAP1 POP SWAP5 SWAP4 POP POP POP POP JUMP JUMPDEST PUSH1 0x0 PUSH2 0x415B DUP3 DUP5 PUSH2 0x3C2B JUMP JUMPDEST SWAP2 POP DUP2 SWAP1 POP SWAP3 SWAP2 POP POP JUMP JUMPDEST PUSH1 0x0 PUSH2 0x4172 DUP3 DUP6 PUSH2 0x3C2B JUMP JUMPDEST SWAP2 POP PUSH2 0x417E DUP3 DUP5 PUSH2 0x3C2B JUMP JUMPDEST SWAP2 POP DUP2 SWAP1 POP SWAP4 SWAP3 POP POP POP JUMP JUMPDEST PUSH1 0x0 PUSH2 0x4196 DUP3 DUP6 PUSH2 0x3C2B JUMP JUMPDEST SWAP2 POP PUSH2 0x41A2 DUP3 DUP5 PUSH2 0x3C5C JUMP JUMPDEST SWAP2 POP DUP2 SWAP1 POP SWAP4 SWAP3 POP POP POP JUMP JUMPDEST PUSH1 0x0 PUSH2 0x41BA DUP3 DUP6 PUSH2 0x3C5C JUMP JUMPDEST SWAP2 POP PUSH2 0x41C5 DUP3 PUSH2 0x40D2 JUMP JUMPDEST SWAP2 POP PUSH2 0x41D1 DUP3 DUP5 PUSH2 0x3C2B JUMP JUMPDEST SWAP2 POP DUP2 SWAP1 POP SWAP4 SWAP3 POP POP POP JUMP JUMPDEST PUSH1 0x0 PUSH2 0x41E8 DUP3 PUSH2 0x3CDB JUMP JUMPDEST SWAP2 POP PUSH2 0x41F4 DUP3 DUP7 PUSH2 0x3B69 JUMP JUMPDEST PUSH1 0x20 DUP3 ADD SWAP2 POP PUSH2 0x4203 DUP3 PUSH2 0x3EA2 JUMP JUMPDEST SWAP2 POP PUSH2 0x420F DUP3 DUP6 PUSH2 0x3C2B JUMP JUMPDEST SWAP2 POP PUSH2 0x421A DUP3 PUSH2 0x3FDD JUMP JUMPDEST SWAP2 POP PUSH2 0x4226 DUP3 DUP5 PUSH2 0x3C2B JUMP JUMPDEST SWAP2 POP DUP2 SWAP1 POP SWAP5 SWAP4 POP POP POP POP JUMP JUMPDEST PUSH1 0x0 PUSH2 0x423E DUP3 PUSH2 0x3F74 JUMP JUMPDEST SWAP2 POP PUSH2 0x424A DUP3 DUP7 PUSH2 0x3C2B JUMP JUMPDEST SWAP2 POP PUSH2 0x4255 DUP3 PUSH2 0x3FBA JUMP JUMPDEST SWAP2 POP PUSH2 0x4261 DUP3 DUP6 PUSH2 0x3B69 JUMP JUMPDEST PUSH1 0x20 DUP3 ADD SWAP2 POP PUSH2 0x4270 DUP3 PUSH2 0x3E39 JUMP JUMPDEST SWAP2 POP PUSH2 0x427C DUP3 DUP5 PUSH2 0x3C2B JUMP JUMPDEST SWAP2 POP PUSH2 0x4287 DUP3 PUSH2 0x40D2 JUMP JUMPDEST SWAP2 POP DUP2 SWAP1 POP SWAP5 SWAP4 POP POP POP POP JUMP JUMPDEST PUSH1 0x0 PUSH2 0x429F DUP3 PUSH2 0x40D2 JUMP JUMPDEST SWAP2 POP PUSH2 0x42AB DUP3 DUP6 PUSH2 0x3C2B JUMP JUMPDEST SWAP2 POP PUSH2 0x42B7 DUP3 DUP5 PUSH2 0x3B69 JUMP JUMPDEST PUSH1 0x20 DUP3 ADD SWAP2 POP PUSH2 0x42C6 DUP3 PUSH2 0x4023 JUMP JUMPDEST SWAP2 POP DUP2 SWAP1 POP SWAP4 SWAP3 POP POP POP JUMP JUMPDEST PUSH1 0x0 PUSH1 0x20 DUP3 ADD SWAP1 POP DUP2 DUP2 SUB PUSH1 0x0 DUP4 ADD MSTORE PUSH2 0x42EC DUP2 DUP5 PUSH2 0x3AC7 JUMP JUMPDEST SWAP1 POP SWAP3 SWAP2 POP POP JUMP JUMPDEST PUSH1 0x0 PUSH1 0x20 DUP3 ADD SWAP1 POP PUSH2 0x4309 PUSH1 0x0 DUP4 ADD DUP5 PUSH2 0x3B4B JUMP JUMPDEST SWAP3 SWAP2 POP POP JUMP JUMPDEST PUSH1 0x0 PUSH1 0x20 DUP3 ADD SWAP1 POP PUSH2 0x4324 PUSH1 0x0 DUP4 ADD DUP5 PUSH2 0x3B5A JUMP JUMPDEST SWAP3 SWAP2 POP POP JUMP JUMPDEST PUSH1 0x0 PUSH1 0xA0 DUP3 ADD SWAP1 POP PUSH2 0x433F PUSH1 0x0 DUP4 ADD DUP9 PUSH2 0x3B5A JUMP JUMPDEST PUSH2 0x434C PUSH1 0x20 DUP4 ADD DUP8 PUSH2 0x3B5A JUMP JUMPDEST PUSH2 0x4359 PUSH1 0x40 DUP4 ADD DUP7 PUSH2 0x3B4B JUMP JUMPDEST PUSH2 0x4366 PUSH1 0x60 DUP4 ADD DUP6 PUSH2 0x3B3C JUMP JUMPDEST DUP2 DUP2 SUB PUSH1 0x80 DUP4 ADD MSTORE PUSH2 0x4378 DUP2 DUP5 PUSH2 0x3BB9 JUMP JUMPDEST SWAP1 POP SWAP7 SWAP6 POP POP POP POP POP POP JUMP JUMPDEST PUSH1 0x0 PUSH1 0x60 DUP3 ADD SWAP1 POP PUSH2 0x4399 PUSH1 0x0 DUP4 ADD DUP7 PUSH2 0x3B5A JUMP JUMPDEST PUSH2 0x43A6 PUSH1 0x20 DUP4 ADD DUP6 PUSH2 0x3B5A JUMP JUMPDEST DUP2 DUP2 SUB PUSH1 0x40 DUP4 ADD MSTORE PUSH2 0x43B8 DUP2 DUP5 PUSH2 0x3BB9 JUMP JUMPDEST SWAP1 POP SWAP5 SWAP4 POP POP POP POP JUMP JUMPDEST PUSH1 0x0 PUSH1 0x20 DUP3 ADD SWAP1 POP DUP2 DUP2 SUB PUSH1 0x0 DUP4 ADD MSTORE PUSH2 0x43DC DUP2 DUP5 PUSH2 0x3BF2 JUMP JUMPDEST SWAP1 POP SWAP3 SWAP2 POP POP JUMP JUMPDEST PUSH1 0x0 PUSH1 0x20 DUP3 ADD SWAP1 POP DUP2 DUP2 SUB PUSH1 0x0 DUP4 ADD MSTORE PUSH2 0x43FE DUP2 DUP5 PUSH2 0x3BB9 JUMP JUMPDEST SWAP1 POP SWAP3 SWAP2 POP POP JUMP JUMPDEST PUSH1 0x0 PUSH1 0x60 DUP3 ADD SWAP1 POP DUP2 DUP2 SUB PUSH1 0x0 DUP4 ADD MSTORE PUSH2 0x4420 DUP2 DUP7 PUSH2 0x3BB9 JUMP JUMPDEST SWAP1 POP PUSH2 0x442F PUSH1 0x20 DUP4 ADD DUP6 PUSH2 0x3B5A JUMP JUMPDEST DUP2 DUP2 SUB PUSH1 0x40 DUP4 ADD MSTORE PUSH2 0x4441 DUP2 DUP5 PUSH2 0x3BB9 JUMP JUMPDEST SWAP1 POP SWAP5 SWAP4 POP POP POP POP JUMP JUMPDEST PUSH1 0x0 PUSH1 0x60 DUP3 ADD SWAP1 POP DUP2 DUP2 SUB PUSH1 0x0 DUP4 ADD MSTORE PUSH2 0x4465 DUP2 DUP7 PUSH2 0x3BB9 JUMP JUMPDEST SWAP1 POP PUSH2 0x4474 PUSH1 0x20 DUP4 ADD DUP6 PUSH2 0x3B5A JUMP JUMPDEST PUSH2 0x4481 PUSH1 0x40 DUP4 ADD DUP5 PUSH2 0x40F5 JUMP JUMPDEST SWAP5 SWAP4 POP POP POP POP JUMP JUMPDEST PUSH1 0x0 PUSH1 0x20 DUP3 ADD SWAP1 POP DUP2 DUP2 SUB PUSH1 0x0 DUP4 ADD MSTORE PUSH2 0x44A2 DUP2 PUSH2 0x3CFE JUMP JUMPDEST SWAP1 POP SWAP2 SWAP1 POP JUMP JUMPDEST PUSH1 0x0 PUSH1 0x20 DUP3 ADD SWAP1 POP DUP2 DUP2 SUB PUSH1 0x0 DUP4 ADD MSTORE PUSH2 0x44C2 DUP2 PUSH2 0x3D21 JUMP JUMPDEST SWAP1 POP SWAP2 SWAP1 POP JUMP JUMPDEST PUSH1 0x0 PUSH1 0x20 DUP3 ADD SWAP1 POP DUP2 DUP2 SUB PUSH1 0x0 DUP4 ADD MSTORE PUSH2 0x44E2 DUP2 PUSH2 0x3D44 JUMP JUMPDEST SWAP1 POP SWAP2 SWAP1 POP JUMP JUMPDEST PUSH1 0x0 PUSH1 0x20 DUP3 ADD SWAP1 POP DUP2 DUP2 SUB PUSH1 0x0 DUP4 ADD MSTORE PUSH2 0x4502 DUP2 PUSH2 0x3D67 JUMP JUMPDEST SWAP1 POP SWAP2 SWAP1 POP JUMP JUMPDEST PUSH1 0x0 PUSH1 0x20 DUP3 ADD SWAP1 POP DUP2 DUP2 SUB PUSH1 0x0 DUP4 ADD MSTORE PUSH2 0x4522 DUP2 PUSH2 0x3D8A JUMP JUMPDEST SWAP1 POP SWAP2 SWAP1 POP JUMP JUMPDEST PUSH1 0x0 PUSH1 0x20 DUP3 ADD SWAP1 POP DUP2 DUP2 SUB PUSH1 0x0 DUP4 ADD MSTORE PUSH2 0x4542 DUP2 PUSH2 0x3DAD JUMP JUMPDEST SWAP1 POP SWAP2 SWAP1 POP JUMP JUMPDEST PUSH1 0x0 PUSH1 0x20 DUP3 ADD SWAP1 POP DUP2 DUP2 SUB PUSH1 0x0 DUP4 ADD MSTORE PUSH2 0x4562 DUP2 PUSH2 0x3DD0 JUMP JUMPDEST SWAP1 POP SWAP2 SWAP1 POP JUMP JUMPDEST PUSH1 0x0 PUSH1 0x20 DUP3 ADD SWAP1 POP DUP2 DUP2 SUB PUSH1 0x0 DUP4 ADD MSTORE PUSH2 0x4582 DUP2 PUSH2 0x3DF3 JUMP JUMPDEST SWAP1 POP SWAP2 SWAP1 POP JUMP JUMPDEST PUSH1 0x0 PUSH1 0x20 DUP3 ADD SWAP1 POP DUP2 DUP2 SUB PUSH1 0x0 DUP4 ADD MSTORE PUSH2 0x45A2 DUP2 PUSH2 0x3E16 JUMP JUMPDEST SWAP1 POP SWAP2 SWAP1 POP JUMP JUMPDEST PUSH1 0x0 PUSH1 0x20 DUP3 ADD SWAP1 POP DUP2 DUP2 SUB PUSH1 0x0 DUP4 ADD MSTORE PUSH2 0x45C2 DUP2 PUSH2 0x3E5C JUMP JUMPDEST SWAP1 POP SWAP2 SWAP1 POP JUMP JUMPDEST PUSH1 0x0 PUSH1 0x20 DUP3 ADD SWAP1 POP DUP2 DUP2 SUB PUSH1 0x0 DUP4 ADD MSTORE PUSH2 0x45E2 DUP2 PUSH2 0x3E7F JUMP JUMPDEST SWAP1 POP SWAP2 SWAP1 POP JUMP JUMPDEST PUSH1 0x0 PUSH1 0x20 DUP3 ADD SWAP1 POP DUP2 DUP2 SUB PUSH1 0x0 DUP4 ADD MSTORE PUSH2 0x4602 DUP2 PUSH2 0x3EC5 JUMP JUMPDEST SWAP1 POP SWAP2 SWAP1 POP JUMP JUMPDEST PUSH1 0x0 PUSH1 0x20 DUP3 ADD SWAP1 POP DUP2 DUP2 SUB PUSH1 0x0 DUP4 ADD MSTORE PUSH2 0x4622 DUP2 PUSH2 0x3EE8 JUMP JUMPDEST SWAP1 POP SWAP2 SWAP1 POP JUMP JUMPDEST PUSH1 0x0 PUSH1 0x20 DUP3 ADD SWAP1 POP DUP2 DUP2 SUB PUSH1 0x0 DUP4 ADD MSTORE PUSH2 0x4642 DUP2 PUSH2 0x3F0B JUMP JUMPDEST SWAP1 POP SWAP2 SWAP1 POP JUMP JUMPDEST PUSH1 0x0 PUSH1 0x20 DUP3 ADD SWAP1 POP DUP2 DUP2 SUB PUSH1 0x0 DUP4 ADD MSTORE PUSH2 0x4662 DUP2 PUSH2 0x3F2E JUMP JUMPDEST SWAP1 POP SWAP2 SWAP1 POP JUMP JUMPDEST PUSH1 0x0 PUSH1 0x20 DUP3 ADD SWAP1 POP DUP2 DUP2 SUB PUSH1 0x0 DUP4 ADD MSTORE PUSH2 0x4682 DUP2 PUSH2 0x3F51 JUMP JUMPDEST SWAP1 POP SWAP2 SWAP1 POP JUMP JUMPDEST PUSH1 0x0 PUSH1 0x20 DUP3 ADD SWAP1 POP DUP2 DUP2 SUB PUSH1 0x0 DUP4 ADD MSTORE PUSH2 0x46A2 DUP2 PUSH2 0x4000 JUMP JUMPDEST SWAP1 POP SWAP2 SWAP1 POP JUMP JUMPDEST PUSH1 0x0 PUSH1 0x20 DUP3 ADD SWAP1 POP DUP2 DUP2 SUB PUSH1 0x0 DUP4 ADD MSTORE PUSH2 0x46C2 DUP2 PUSH2 0x4046 JUMP JUMPDEST SWAP1 POP SWAP2 SWAP1 POP JUMP JUMPDEST PUSH1 0x0 PUSH1 0x20 DUP3 ADD SWAP1 POP DUP2 DUP2 SUB PUSH1 0x0 DUP4 ADD MSTORE PUSH2 0x46E2 DUP2 PUSH2 0x4069 JUMP JUMPDEST SWAP1 POP SWAP2 SWAP1 POP JUMP JUMPDEST PUSH1 0x0 PUSH1 0x20 DUP3 ADD SWAP1 POP DUP2 DUP2 SUB PUSH1 0x0 DUP4 ADD MSTORE PUSH2 0x4702 DUP2 PUSH2 0x408C JUMP JUMPDEST SWAP1 POP SWAP2 SWAP1 POP JUMP JUMPDEST PUSH1 0x0 PUSH1 0x20 DUP3 ADD SWAP1 POP DUP2 DUP2 SUB PUSH1 0x0 DUP4 ADD MSTORE PUSH2 0x4722 DUP2 PUSH2 0x40AF JUMP JUMPDEST SWAP1 POP SWAP2 SWAP1 POP JUMP JUMPDEST PUSH1 0x0 PUSH2 0x4733 PUSH2 0x4744 JUMP JUMPDEST SWAP1 POP PUSH2 0x473F DUP3 DUP3 PUSH2 0x4C6C JUMP JUMPDEST SWAP2 SWAP1 POP JUMP JUMPDEST PUSH1 0x0 PUSH1 0x40 MLOAD SWAP1 POP SWAP1 JUMP JUMPDEST PUSH1 0x0 PUSH8 0xFFFFFFFFFFFFFFFF DUP3 GT ISZERO PUSH2 0x4769 JUMPI PUSH2 0x4768 PUSH2 0x4E0C JUMP JUMPDEST JUMPDEST PUSH1 0x20 DUP3 MUL SWAP1 POP PUSH1 0x20 DUP2 ADD SWAP1 POP SWAP2 SWAP1 POP JUMP JUMPDEST PUSH1 0x0 PUSH8 0xFFFFFFFFFFFFFFFF DUP3 GT ISZERO PUSH2 0x4795 JUMPI PUSH2 0x4794 PUSH2 0x4E0C JUMP JUMPDEST JUMPDEST PUSH2 0x479E DUP3 PUSH2 0x4E54 JUMP JUMPDEST SWAP1 POP PUSH1 0x20 DUP2 ADD SWAP1 POP SWAP2 SWAP1 POP JUMP JUMPDEST PUSH1 0x0 DUP2 SWAP1 POP PUSH1 0x20 DUP3 ADD SWAP1 POP SWAP2 SWAP1 POP JUMP JUMPDEST PUSH1 0x0 DUP2 SWAP1 POP DUP2 PUSH1 0x0 MSTORE PUSH1 0x20 PUSH1 0x0 KECCAK256 SWAP1 POP SWAP2 SWAP1 POP JUMP JUMPDEST PUSH1 0x0 DUP2 MLOAD SWAP1 POP SWAP2 SWAP1 POP JUMP JUMPDEST PUSH1 0x0 DUP2 MLOAD SWAP1 POP SWAP2 SWAP1 POP JUMP JUMPDEST PUSH1 0x0 PUSH1 0x20 DUP3 ADD SWAP1 POP SWAP2 SWAP1 POP JUMP JUMPDEST PUSH1 0x0 DUP3 DUP3 MSTORE PUSH1 0x20 DUP3 ADD SWAP1 POP SWAP3 SWAP2 POP POP JUMP JUMPDEST PUSH1 0x0 DUP3 DUP3 MSTORE PUSH1 0x20 DUP3 ADD SWAP1 POP SWAP3 SWAP2 POP POP JUMP JUMPDEST PUSH1 0x0 DUP3 DUP3 MSTORE PUSH1 0x20 DUP3 ADD SWAP1 POP SWAP3 SWAP2 POP POP JUMP JUMPDEST PUSH1 0x0 DUP3 DUP3 MSTORE PUSH1 0x20 DUP3 ADD SWAP1 POP SWAP3 SWAP2 POP POP JUMP JUMPDEST PUSH1 0x0 DUP2 SWAP1 POP SWAP3 SWAP2 POP POP JUMP JUMPDEST PUSH1 0x0 PUSH2 0x484D DUP3 PUSH2 0x4BE1 JUMP JUMPDEST SWAP2 POP PUSH2 0x4858 DUP4 PUSH2 0x4BE1 JUMP JUMPDEST SWAP3 POP DUP3 PUSH32 0xFFFFFFFFFFFFFFFFFFFFFFFFFFFFFFFFFFFFFFFFFFFFFFFFFFFFFFFFFFFFFFFF SUB DUP3 GT ISZERO PUSH2 0x488D JUMPI PUSH2 0x488C PUSH2 0x4D21 JUMP JUMPDEST JUMPDEST DUP3 DUP3 ADD SWAP1 POP SWAP3 SWAP2 POP POP JUMP JUMPDEST PUSH1 0x0 PUSH2 0x48A3 DUP3 PUSH2 0x4BEB JUMP JUMPDEST SWAP2 POP PUSH2 0x48AE DUP4 PUSH2 0x4BEB JUMP JUMPDEST SWAP3 POP DUP3 PUSH1 0xFF SUB DUP3 GT ISZERO PUSH2 0x48C4 JUMPI PUSH2 0x48C3 PUSH2 0x4D21 JUMP JUMPDEST JUMPDEST DUP3 DUP3 ADD SWAP1 POP SWAP3 SWAP2 POP POP JUMP JUMPDEST PUSH1 0x0 PUSH2 0x48DA DUP3 PUSH2 0x4BE1 JUMP JUMPDEST SWAP2 POP PUSH2 0x48E5 DUP4 PUSH2 0x4BE1 JUMP JUMPDEST SWAP3 POP DUP3 PUSH2 0x48F5 JUMPI PUSH2 0x48F4 PUSH2 0x4D50 JUMP JUMPDEST JUMPDEST DUP3 DUP3 DIV SWAP1 POP SWAP3 SWAP2 POP POP JUMP JUMPDEST PUSH1 0x0 PUSH2 0x490B DUP3 PUSH2 0x4BEB JUMP JUMPDEST SWAP2 POP PUSH2 0x4916 DUP4 PUSH2 0x4BEB JUMP JUMPDEST SWAP3 POP DUP3 PUSH2 0x4926 JUMPI PUSH2 0x4925 PUSH2 0x4D50 JUMP JUMPDEST JUMPDEST DUP3 DUP3 DIV SWAP1 POP SWAP3 SWAP2 POP POP JUMP JUMPDEST PUSH1 0x0 DUP1 DUP3 SWAP2 POP DUP4 SWAP1 POP JUMPDEST PUSH1 0x1 DUP6 GT ISZERO PUSH2 0x497B JUMPI DUP1 DUP7 DIV DUP2 GT ISZERO PUSH2 0x4957 JUMPI PUSH2 0x4956 PUSH2 0x4D21 JUMP JUMPDEST JUMPDEST PUSH1 0x1 DUP6 AND ISZERO PUSH2 0x4966 JUMPI DUP1 DUP3 MUL SWAP2 POP JUMPDEST DUP1 DUP2 MUL SWAP1 POP PUSH2 0x4974 DUP6 PUSH2 0x4E65 JUMP JUMPDEST SWAP5 POP PUSH2 0x493B JUMP JUMPDEST SWAP5 POP SWAP5 SWAP3 POP POP POP JUMP JUMPDEST PUSH1 0x0 PUSH2 0x498F DUP3 PUSH2 0x4BE1 JUMP JUMPDEST SWAP2 POP PUSH2 0x499A DUP4 PUSH2 0x4BE1 JUMP JUMPDEST SWAP3 POP PUSH2 0x49C7 PUSH32 0xFFFFFFFFFFFFFFFFFFFFFFFFFFFFFFFFFFFFFFFFFFFFFFFFFFFFFFFFFFFFFFFF DUP5 DUP5 PUSH2 0x49CF JUMP JUMPDEST SWAP1 POP SWAP3 SWAP2 POP POP JUMP JUMPDEST PUSH1 0x0 DUP3 PUSH2 0x49DF JUMPI PUSH1 0x1 SWAP1 POP PUSH2 0x4A9B JUMP JUMPDEST DUP2 PUSH2 0x49ED JUMPI PUSH1 0x0 SWAP1 POP PUSH2 0x4A9B JUMP JUMPDEST DUP2 PUSH1 0x1 DUP2 EQ PUSH2 0x4A03 JUMPI PUSH1 0x2 DUP2 EQ PUSH2 0x4A0D JUMPI PUSH2 0x4A3C JUMP JUMPDEST PUSH1 0x1 SWAP2 POP POP PUSH2 0x4A9B JUMP JUMPDEST PUSH1 0xFF DUP5 GT ISZERO PUSH2 0x4A1F JUMPI PUSH2 0x4A1E PUSH2 0x4D21 JUMP JUMPDEST JUMPDEST DUP4 PUSH1 0x2 EXP SWAP2 POP DUP5 DUP3 GT ISZERO PUSH2 0x4A36 JUMPI PUSH2 0x4A35 PUSH2 0x4D21 JUMP JUMPDEST JUMPDEST POP PUSH2 0x4A9B JUMP JUMPDEST POP PUSH1 0x20 DUP4 LT PUSH2 0x133 DUP4 LT AND PUSH1 0x4E DUP5 LT PUSH1 0xB DUP5 LT AND OR ISZERO PUSH2 0x4A71 JUMPI DUP3 DUP3 EXP SWAP1 POP DUP4 DUP2 GT ISZERO PUSH2 0x4A6C JUMPI PUSH2 0x4A6B PUSH2 0x4D21 JUMP JUMPDEST JUMPDEST PUSH2 0x4A9B JUMP JUMPDEST PUSH2 0x4A7E DUP5 DUP5 DUP5 PUSH1 0x1 PUSH2 0x4931 JUMP JUMPDEST SWAP3 POP SWAP1 POP DUP2 DUP5 DIV DUP2 GT ISZERO PUSH2 0x4A95 JUMPI PUSH2 0x4A94 PUSH2 0x4D21 JUMP JUMPDEST JUMPDEST DUP2 DUP2 MUL SWAP1 POP JUMPDEST SWAP4 SWAP3 POP POP POP JUMP JUMPDEST PUSH1 0x0 PUSH2 0x4AAD DUP3 PUSH2 0x4BE1 JUMP JUMPDEST SWAP2 POP PUSH2 0x4AB8 DUP4 PUSH2 0x4BE1 JUMP JUMPDEST SWAP3 POP DUP2 PUSH32 0xFFFFFFFFFFFFFFFFFFFFFFFFFFFFFFFFFFFFFFFFFFFFFFFFFFFFFFFFFFFFFFFF DIV DUP4 GT DUP3 ISZERO ISZERO AND ISZERO PUSH2 0x4AF1 JUMPI PUSH2 0x4AF0 PUSH2 0x4D21 JUMP JUMPDEST JUMPDEST DUP3 DUP3 MUL SWAP1 POP SWAP3 SWAP2 POP POP JUMP JUMPDEST PUSH1 0x0 PUSH2 0x4B07 DUP3 PUSH2 0x4BEB JUMP JUMPDEST SWAP2 POP PUSH2 0x4B12 DUP4 PUSH2 0x4BEB JUMP JUMPDEST SWAP3 POP DUP2 PUSH1 0xFF DIV DUP4 GT DUP3 ISZERO ISZERO AND ISZERO PUSH2 0x4B2C JUMPI PUSH2 0x4B2B PUSH2 0x4D21 JUMP JUMPDEST JUMPDEST DUP3 DUP3 MUL SWAP1 POP SWAP3 SWAP2 POP POP JUMP JUMPDEST PUSH1 0x0 PUSH2 0x4B42 DUP3 PUSH2 0x4BE1 JUMP JUMPDEST SWAP2 POP PUSH2 0x4B4D DUP4 PUSH2 0x4BE1 JUMP JUMPDEST SWAP3 POP DUP3 DUP3 LT ISZERO PUSH2 0x4B60 JUMPI PUSH2 0x4B5F PUSH2 0x4D21 JUMP JUMPDEST JUMPDEST DUP3 DUP3 SUB SWAP1 POP SWAP3 SWAP2 POP POP JUMP JUMPDEST PUSH1 0x0 PUSH2 0x4B76 DUP3 PUSH2 0x4BEB JUMP JUMPDEST SWAP2 POP PUSH2 0x4B81 DUP4 PUSH2 0x4BEB JUMP JUMPDEST SWAP3 POP DUP3 DUP3 LT ISZERO PUSH2 0x4B94 JUMPI PUSH2 0x4B93 PUSH2 0x4D21 JUMP JUMPDEST JUMPDEST DUP3 DUP3 SUB SWAP1 POP SWAP3 SWAP2 POP POP JUMP JUMPDEST PUSH1 0x0 DUP2 ISZERO ISZERO SWAP1 POP SWAP2 SWAP1 POP JUMP JUMPDEST PUSH1 0x0 PUSH32 0xFFFFFFFFFFFFFFFFFFFFFFFFFFFFFFFF00000000000000000000000000000000 DUP3 AND SWAP1 POP SWAP2 SWAP1 POP JUMP JUMPDEST PUSH1 0x0 DUP2 SWAP1 POP SWAP2 SWAP1 POP JUMP JUMPDEST PUSH1 0x0 DUP2 SWAP1 POP SWAP2 SWAP1 POP JUMP JUMPDEST PUSH1 0x0 PUSH1 0xFF DUP3 AND SWAP1 POP SWAP2 SWAP1 POP JUMP JUMPDEST DUP3 DUP2 DUP4 CALLDATACOPY PUSH1 0x0 DUP4 DUP4 ADD MSTORE POP POP POP JUMP JUMPDEST PUSH1 0x0 JUMPDEST DUP4 DUP2 LT ISZERO PUSH2 0x4C25 JUMPI DUP1 DUP3 ADD MLOAD DUP2 DUP5 ADD MSTORE PUSH1 0x20 DUP2 ADD SWAP1 POP PUSH2 0x4C0A JUMP JUMPDEST DUP4 DUP2 GT ISZERO PUSH2 0x4C34 JUMPI PUSH1 0x0 DUP5 DUP5 ADD MSTORE JUMPDEST POP POP POP POP JUMP JUMPDEST PUSH1 0x0 PUSH1 0x2 DUP3 DIV SWAP1 POP PUSH1 0x1 DUP3 AND DUP1 PUSH2 0x4C52 JUMPI PUSH1 0x7F DUP3 AND SWAP2 POP JUMPDEST PUSH1 0x20 DUP3 LT DUP2 EQ ISZERO PUSH2 0x4C66 JUMPI PUSH2 0x4C65 PUSH2 0x4DAE JUMP JUMPDEST JUMPDEST POP SWAP2 SWAP1 POP JUMP JUMPDEST PUSH2 0x4C75 DUP3 PUSH2 0x4E54 JUMP JUMPDEST DUP2 ADD DUP2 DUP2 LT PUSH8 0xFFFFFFFFFFFFFFFF DUP3 GT OR ISZERO PUSH2 0x4C94 JUMPI PUSH2 0x4C93 PUSH2 0x4E0C JUMP JUMPDEST JUMPDEST DUP1 PUSH1 0x40 MSTORE POP POP POP JUMP JUMPDEST PUSH1 0x0 PUSH2 0x4CA8 DUP3 PUSH2 0x4BE1 JUMP JUMPDEST SWAP2 POP PUSH32 0xFFFFFFFFFFFFFFFFFFFFFFFFFFFFFFFFFFFFFFFFFFFFFFFFFFFFFFFFFFFFFFFF DUP3 EQ ISZERO PUSH2 0x4CDB JUMPI PUSH2 0x4CDA PUSH2 0x4D21 JUMP JUMPDEST JUMPDEST PUSH1 0x1 DUP3 ADD SWAP1 POP SWAP2 SWAP1 POP JUMP JUMPDEST PUSH1 0x0 DUP2 SWAP1 POP SWAP2 SWAP1 POP JUMP JUMPDEST PUSH1 0x0 PUSH2 0x4CFB DUP3 PUSH2 0x4BE1 JUMP JUMPDEST SWAP2 POP PUSH2 0x4D06 DUP4 PUSH2 0x4BE1 JUMP JUMPDEST SWAP3 POP DUP3 PUSH2 0x4D16 JUMPI PUSH2 0x4D15 PUSH2 0x4D50 JUMP JUMPDEST JUMPDEST DUP3 DUP3 MOD SWAP1 POP SWAP3 SWAP2 POP POP JUMP JUMPDEST PUSH32 0x4E487B7100000000000000000000000000000000000000000000000000000000 PUSH1 0x0 MSTORE PUSH1 0x11 PUSH1 0x4 MSTORE PUSH1 0x24 PUSH1 0x0 REVERT JUMPDEST PUSH32 0x4E487B7100000000000000000000000000000000000000000000000000000000 PUSH1 0x0 MSTORE PUSH1 0x12 PUSH1 0x4 MSTORE PUSH1 0x24 PUSH1 0x0 REVERT JUMPDEST PUSH32 0x4E487B7100000000000000000000000000000000000000000000000000000000 PUSH1 0x0 MSTORE PUSH1 0x21 PUSH1 0x4 MSTORE PUSH1 0x24 PUSH1 0x0 REVERT JUMPDEST PUSH32 0x4E487B7100000000000000000000000000000000000000000000000000000000 PUSH1 0x0 MSTORE PUSH1 0x22 PUSH1 0x4 MSTORE PUSH1 0x24 PUSH1 0x0 REVERT JUMPDEST PUSH32 0x4E487B7100000000000000000000000000000000000000000000000000000000 PUSH1 0x0 MSTORE PUSH1 0x32 PUSH1 0x4 MSTORE PUSH1 0x24 PUSH1 0x0 REVERT JUMPDEST PUSH32 0x4E487B7100000000000000000000000000000000000000000000000000000000 PUSH1 0x0 MSTORE PUSH1 0x41 PUSH1 0x4 MSTORE PUSH1 0x24 PUSH1 0x0 REVERT JUMPDEST PUSH1 0x0 DUP1 REVERT JUMPDEST PUSH1 0x0 DUP1 REVERT JUMPDEST PUSH1 0x0 DUP1 REVERT JUMPDEST PUSH1 0x0 DUP1 REVERT JUMPDEST PUSH1 0x0 DUP1 REVERT JUMPDEST PUSH1 0x0 PUSH1 0x1F NOT PUSH1 0x1F DUP4 ADD AND SWAP1 POP SWAP2 SWAP1 POP JUMP JUMPDEST PUSH1 0x0 DUP2 PUSH1 0x1 SHR SWAP1 POP SWAP2 SWAP1 POP JUMP JUMPDEST PUSH32 0x4C4F542000000000000000000000000000000000000000000000000000000000 PUSH1 0x0 DUP3 ADD MSTORE POP JUMP JUMPDEST PUSH32 0x50726F6475697420696E6578697374616E742021212100000000000000000000 PUSH1 0x0 DUP3 ADD MSTORE POP JUMP JUMPDEST PUSH32 0x566F7573206E276574657320706173206C652070726F70726965746169726520 PUSH1 0x0 DUP3 ADD MSTORE PUSH32 0x6427756E206C6F7420646520636F757665727475726500000000000000000000 PUSH1 0x20 DUP3 ADD MSTORE POP JUMP JUMPDEST PUSH32 0x566F7573206573736179657220646520636F757672697220756E2070726F6475 PUSH1 0x0 DUP3 ADD MSTORE PUSH32 0x6974206176656320756E206175747265206475206D656D652074797065202121 PUSH1 0x20 DUP3 ADD MSTORE PUSH32 0x2100000000000000000000000000000000000000000000000000000000000000 PUSH1 0x40 DUP3 ADD MSTORE POP JUMP JUMPDEST PUSH32 0x4563686563206465206C696169736F6E206465732070726F6475697473000000 PUSH1 0x0 DUP3 ADD MSTORE POP JUMP JUMPDEST PUSH32 0x4368616D70206578697374616E74202100000000000000000000000000000000 PUSH1 0x0 DUP3 ADD MSTORE POP JUMP JUMPDEST PUSH32 0x4368616D707320696E6578697374616E74202100000000000000000000000000 PUSH1 0x0 DUP3 ADD MSTORE POP JUMP JUMPDEST PUSH32 0x566F7573206573736179657220646520636F757672697220756E206C6F742064 PUSH1 0x0 DUP3 ADD MSTORE PUSH32 0x652070726F64756974206176656320756E206175747265206C6F742064652070 PUSH1 0x20 DUP3 ADD MSTORE PUSH32 0x726F64756974206475206D656D65207479706520212121000000000000000000 PUSH1 0x40 DUP3 ADD MSTORE POP JUMP JUMPDEST PUSH32 0x5479706520646520646F6E6E656573206E6F6E206175746F7269736520212121 PUSH1 0x0 DUP3 ADD MSTORE POP JUMP JUMPDEST PUSH32 0x54697472652070726F707269657461697265204D6F64656C2072657175697420 PUSH1 0x0 DUP3 ADD MSTORE PUSH32 0x706F757220636574746520616374696F6E202121210000000000000000000000 PUSH1 0x20 DUP3 ADD MSTORE POP JUMP JUMPDEST PUSH32 0x205F5F5F204E756D65726F206465206C6F743A20000000000000000000000000 PUSH1 0x0 DUP3 ADD MSTORE POP JUMP JUMPDEST PUSH32 0x566F7573206573736179657220646520636F757672697220756E2070726F6475 PUSH1 0x0 DUP3 ADD MSTORE PUSH32 0x6974206176656320756E206C6F74206475206D656D6520617574726520647520 PUSH1 0x20 DUP3 ADD MSTORE PUSH32 0x6D656D6520747970652021212100000000000000000000000000000000000000 PUSH1 0x40 DUP3 ADD MSTORE POP JUMP JUMPDEST PUSH32 0x436F64652070726F64756974206573742064656A6120656E2073657276696365 PUSH1 0x0 DUP3 ADD MSTORE PUSH32 0x2021212100000000000000000000000000000000000000000000000000000000 PUSH1 0x20 DUP3 ADD MSTORE POP JUMP JUMPDEST PUSH32 0x2D23000000000000000000000000000000000000000000000000000000000000 PUSH1 0x0 DUP3 ADD MSTORE POP JUMP JUMPDEST PUSH32 0x4365206368616D7073206E276573742070617320737461746963202121210000 PUSH1 0x0 DUP3 ADD MSTORE POP JUMP JUMPDEST PUSH32 0x4C652070726F64756974206F75206C65206C6F742064652070726F6475697420 PUSH1 0x0 DUP3 ADD MSTORE PUSH32 0x71756520766F7573206173736579657A20646520636F7576726972206E276578 PUSH1 0x20 DUP3 ADD MSTORE PUSH32 0x6973746520706173202121210000000000000000000000000000000000000000 PUSH1 0x40 DUP3 ADD MSTORE POP JUMP JUMPDEST PUSH32 0x4365206C6F74206578697374652064656A612021212100000000000000000000 PUSH1 0x0 DUP3 ADD MSTORE POP JUMP JUMPDEST PUSH32 0x436F64652070726F64756974206E6F6E207265636F6E6E756520212121000000 PUSH1 0x0 DUP3 ADD MSTORE POP JUMP JUMPDEST PUSH32 0x566F7573206573736179657220646520636F757672697220756E206C6F742064 PUSH1 0x0 DUP3 ADD MSTORE PUSH32 0x652070726F64756974206176656320756E2070726F64756974206465206D656D PUSH1 0x20 DUP3 ADD MSTORE PUSH32 0x6520747970652071756520636575782064616E73206C65206C6F742021212100 PUSH1 0x40 DUP3 ADD MSTORE POP JUMP JUMPDEST PUSH32 0x50726F7072696574616972653A20000000000000000000000000000000000000 PUSH1 0x0 DUP3 ADD MSTORE POP JUMP JUMPDEST PUSH32 0x5F00000000000000000000000000000000000000000000000000000000000000 PUSH1 0x0 DUP3 ADD MSTORE POP JUMP JUMPDEST PUSH32 0x205F5F5F20436F64652070726F647569743A2000000000000000000000000000 PUSH1 0x0 DUP3 ADD MSTORE POP JUMP JUMPDEST PUSH32 0x2D00000000000000000000000000000000000000000000000000000000000000 PUSH1 0x0 DUP3 ADD MSTORE POP JUMP JUMPDEST PUSH32 0x4964656E74696669616E742064652070726F6475697420646520636F75766572 PUSH1 0x0 DUP3 ADD MSTORE PUSH32 0x74757265206E6F6E207265636F6E6E7520212121000000000000000000000000 PUSH1 0x20 DUP3 ADD MSTORE POP JUMP JUMPDEST PUSH32 0x3A20000000000000000000000000000000000000000000000000000000000000 PUSH1 0x0 DUP3 ADD MSTORE POP JUMP JUMPDEST PUSH32 0x566F7573206E276574657320706173206C652070726F70726965746169726520 PUSH1 0x0 DUP3 ADD MSTORE PUSH32 0x6427756E2070726F6475697420646520636F7576657274757265000000000000 PUSH1 0x20 DUP3 ADD MSTORE POP JUMP JUMPDEST PUSH32 0x54697472652070726F7072696574616972652072657175697420706F75722063 PUSH1 0x0 DUP3 ADD MSTORE PUSH32 0x6574746520616374696F6E202121210000000000000000000000000000000000 PUSH1 0x20 DUP3 ADD MSTORE POP JUMP JUMPDEST PUSH32 0x4365206C6F742064652070726F64756974206E27657869737465207061732021 PUSH1 0x0 DUP3 ADD MSTORE PUSH32 0x2121000000000000000000000000000000000000000000000000000000000000 PUSH1 0x20 DUP3 ADD MSTORE POP JUMP JUMPDEST PUSH32 0x4C652070726F64756974206F75206C6F742064652070726F6475697420717565 PUSH1 0x0 DUP3 ADD MSTORE PUSH32 0x20766F757320617373657A657A2064652072617070656C6572206E2765786973 PUSH1 0x20 DUP3 ADD MSTORE PUSH32 0x7465207061730000000000000000000000000000000000000000000000000000 PUSH1 0x40 DUP3 ADD MSTORE POP JUMP JUMPDEST PUSH32 0x205F5F5F20000000000000000000000000000000000000000000000000000000 PUSH1 0x0 DUP3 ADD MSTORE POP JUMP JUMPDEST PUSH2 0x561B DUP2 PUSH2 0x4B9F JUMP JUMPDEST DUP2 EQ PUSH2 0x5626 JUMPI PUSH1 0x0 DUP1 REVERT JUMPDEST POP JUMP JUMPDEST PUSH2 0x5632 DUP2 PUSH2 0x4BAB JUMP JUMPDEST DUP2 EQ PUSH2 0x563D JUMPI PUSH1 0x0 DUP1 REVERT JUMPDEST POP JUMP JUMPDEST PUSH2 0x5649 DUP2 PUSH2 0x4BD7 JUMP JUMPDEST DUP2 EQ PUSH2 0x5654 JUMPI PUSH1 0x0 DUP1 REVERT JUMPDEST POP JUMP JUMPDEST PUSH2 0x5660 DUP2 PUSH2 0x4BE1 JUMP JUMPDEST DUP2 EQ PUSH2 0x566B JUMPI PUSH1 0x0 DUP1 REVERT JUMPDEST POP JUMP INVALID LOG2 PUSH5 0x6970667358 0x22 SLT KECCAK256 DUP3 PUSH9 0x264B26A50F3321235B 0xB0 DUP5 DIV PUSH8 0x8834E2184726B658 SWAP3 0xE2 0xB3 NUMBER DUP10 ADDRESS 0xF6 PUSH9 0x3A64736F6C63430008 SMOD STOP CALLER "
		},
		"gasEstimates": {
			"creation": {
				"codeDepositCost": "4436000",
				"executionCost": "infinite",
				"totalCost": "infinite"
			},
			"external": {
				"add_batch(bytes32,uint256)": "infinite",
				"add_batch_model(bytes32,bytes32,uint256,bytes32,string)": "infinite",
				"add_field_batch(bytes32,bytes32,bytes16,bool,string)": "infinite",
				"add_field_prod(bytes32,bytes32,bytes16,bool,string)": "infinite",
				"add_prod_model(bytes32,bytes32,string)": "infinite",
				"add_product(bytes32,uint256)": "infinite",
				"cover(string,string[])": "infinite",
				"get_product_profil(string)": "infinite",
				"get_products_id_list()": "infinite",
				"recall(string)": "infinite",
				"set_batch_model(bytes32,bytes32,string)": "infinite",
				"set_batch_profile(string,bytes32,string)": "infinite",
				"set_prod_model(bytes32,bytes32,string)": "infinite",
				"set_prod_profile(string,bytes32,string)": "infinite",
				"toBytes16(string)": "infinite",
				"toBytes32(string)": "infinite"
			},
			"internal": {
				"add_model(bytes32,bytes32,string memory,bool)": "infinite",
				"add_model_field(bytes32,bytes32,bytes16,bool,string memory,bool)": "infinite",
				"can_cover(string memory,string memory)": "infinite",
				"cover(string memory,string memory)": "infinite",
				"get_field_head_type(string memory,bytes32,bool)": "infinite",
				"is_already_create(string memory,bool)": "infinite",
				"is_field_already_create_on_batch(bytes32,bytes32)": "infinite",
				"is_field_already_create_on_prod(bytes32,bytes32)": "infinite",
				"join_article_profil(bytes32,string memory,bool)": "infinite",
				"join_batch_profile(bytes32,string memory)": "infinite",
				"join_prod_profile(bytes32,string memory)": "infinite",
				"safe_batch(bytes32,address)": "infinite",
				"safe_product(bytes32,address)": "infinite",
				"set_model_field(bytes32,bytes32,string memory,bool)": "infinite",
				"set_profile(string memory,bytes32,string memory,bool)": "infinite"
			}
		},
		"methodIdentifiers": {
			"add_batch(bytes32,uint256)": "310df0f6",
			"add_batch_model(bytes32,bytes32,uint256,bytes32,string)": "55c6d191",
			"add_field_batch(bytes32,bytes32,bytes16,bool,string)": "9fe2c845",
			"add_field_prod(bytes32,bytes32,bytes16,bool,string)": "72714ab0",
			"add_prod_model(bytes32,bytes32,string)": "27424aaa",
			"add_product(bytes32,uint256)": "22dd1a91",
			"cover(string,string[])": "d2738a49",
			"get_product_profil(string)": "46d81627",
			"get_products_id_list()": "feb7fe4e",
			"recall(string)": "fdf9b2b5",
			"set_batch_model(bytes32,bytes32,string)": "600c40d4",
			"set_batch_profile(string,bytes32,string)": "7931b820",
			"set_prod_model(bytes32,bytes32,string)": "5ad2e444",
			"set_prod_profile(string,bytes32,string)": "0d62942b",
			"toBytes16(string)": "18b624fd",
			"toBytes32(string)": "27df8f2a"
		}
	},
	"abi": [
		{
			"inputs": [],
			"stateMutability": "nonpayable",
			"type": "constructor"
		},
		{
			"anonymous": false,
			"inputs": [
				{
					"indexed": false,
					"internalType": "string[]",
					"name": "_serials",
					"type": "string[]"
				}
			],
			"name": "added_product",
			"type": "event"
		},
		{
			"anonymous": false,
			"inputs": [
				{
					"indexed": false,
					"internalType": "bytes32",
					"name": "_prod_code",
					"type": "bytes32"
				},
				{
					"indexed": false,
					"internalType": "bytes32",
					"name": "_name",
					"type": "bytes32"
				},
				{
					"indexed": false,
					"internalType": "string",
					"name": "_description",
					"type": "string"
				}
			],
			"name": "added_product_mockup",
			"type": "event"
		},
		{
			"anonymous": false,
			"inputs": [
				{
					"indexed": false,
					"internalType": "bytes32",
					"name": "_prod_code",
					"type": "bytes32"
				},
				{
					"indexed": false,
					"internalType": "bytes32",
					"name": "_name",
					"type": "bytes32"
				},
				{
					"indexed": false,
					"internalType": "bytes16",
					"name": "_type",
					"type": "bytes16"
				},
				{
					"indexed": false,
					"internalType": "bool",
					"name": "_is_static",
					"type": "bool"
				},
				{
					"indexed": false,
					"internalType": "string",
					"name": "_value",
					"type": "string"
				}
			],
			"name": "added_product_mockup_field",
			"type": "event"
		},
		{
			"anonymous": false,
			"inputs": [
				{
					"indexed": false,
					"internalType": "string",
					"name": "_serial",
					"type": "string"
				},
				{
					"indexed": false,
					"internalType": "bytes32",
					"name": "_field_name",
					"type": "bytes32"
				},
				{
					"indexed": false,
					"internalType": "uint256",
					"name": "_value",
					"type": "uint256"
				}
			],
			"name": "changed_date_value_product_profil",
			"type": "event"
		},
		{
			"anonymous": false,
			"inputs": [
				{
					"indexed": false,
					"internalType": "string",
					"name": "_serial",
					"type": "string"
				},
				{
					"indexed": false,
					"internalType": "bytes32",
					"name": "_field_name",
					"type": "bytes32"
				},
				{
					"indexed": false,
					"internalType": "string",
					"name": "_value",
					"type": "string"
				}
			],
			"name": "changed_string_value_product_profil",
			"type": "event"
		},
		{
			"anonymous": false,
			"inputs": [
				{
					"indexed": false,
					"internalType": "string",
					"name": "_serial",
					"type": "string"
				},
				{
					"indexed": false,
					"internalType": "bytes32",
					"name": "_field_name",
					"type": "bytes32"
				},
				{
					"indexed": false,
					"internalType": "uint256",
					"name": "_value",
					"type": "uint256"
				}
			],
			"name": "changed_uint_value_product_profil",
			"type": "event"
		},
		{
			"inputs": [
				{
					"internalType": "bytes32",
					"name": "_prod_code",
					"type": "bytes32"
				},
				{
					"internalType": "uint256",
					"name": "_amount",
					"type": "uint256"
				}
			],
			"name": "add_batch",
			"outputs": [],
			"stateMutability": "nonpayable",
			"type": "function"
		},
		{
			"inputs": [
				{
					"internalType": "bytes32",
					"name": "_batch_number",
					"type": "bytes32"
				},
				{
					"internalType": "bytes32",
					"name": "_prod_code",
					"type": "bytes32"
				},
				{
					"internalType": "uint256",
					"name": "_product_amount",
					"type": "uint256"
				},
				{
					"internalType": "bytes32",
					"name": "_name",
					"type": "bytes32"
				},
				{
					"internalType": "string",
					"name": "_description",
					"type": "string"
				}
			],
			"name": "add_batch_model",
			"outputs": [
				{
					"internalType": "bytes32",
					"name": "",
					"type": "bytes32"
				}
			],
			"stateMutability": "nonpayable",
			"type": "function"
		},
		{
			"inputs": [
				{
					"internalType": "bytes32",
					"name": "_batch_number",
					"type": "bytes32"
				},
				{
					"internalType": "bytes32",
					"name": "_name",
					"type": "bytes32"
				},
				{
					"internalType": "bytes16",
					"name": "_type",
					"type": "bytes16"
				},
				{
					"internalType": "bool",
					"name": "_is_static",
					"type": "bool"
				},
				{
					"internalType": "string",
					"name": "_value",
					"type": "string"
				}
			],
			"name": "add_field_batch",
			"outputs": [],
			"stateMutability": "nonpayable",
			"type": "function"
		},
		{
			"inputs": [
				{
					"internalType": "bytes32",
					"name": "_prod_code",
					"type": "bytes32"
				},
				{
					"internalType": "bytes32",
					"name": "_name",
					"type": "bytes32"
				},
				{
					"internalType": "bytes16",
					"name": "_type",
					"type": "bytes16"
				},
				{
					"internalType": "bool",
					"name": "_is_static",
					"type": "bool"
				},
				{
					"internalType": "string",
					"name": "_value",
					"type": "string"
				}
			],
			"name": "add_field_prod",
			"outputs": [],
			"stateMutability": "nonpayable",
			"type": "function"
		},
		{
			"inputs": [
				{
					"internalType": "bytes32",
					"name": "_prod_code",
					"type": "bytes32"
				},
				{
					"internalType": "bytes32",
					"name": "_name",
					"type": "bytes32"
				},
				{
					"internalType": "string",
					"name": "_description",
					"type": "string"
				}
			],
			"name": "add_prod_model",
			"outputs": [
				{
					"internalType": "bytes32",
					"name": "",
					"type": "bytes32"
				}
			],
			"stateMutability": "nonpayable",
			"type": "function"
		},
		{
			"inputs": [
				{
					"internalType": "bytes32",
					"name": "_prod_code",
					"type": "bytes32"
				},
				{
					"internalType": "uint256",
					"name": "_amount",
					"type": "uint256"
				}
			],
			"name": "add_product",
			"outputs": [
				{
					"internalType": "string[]",
					"name": "_serials",
					"type": "string[]"
				}
			],
			"stateMutability": "nonpayable",
			"type": "function"
		},
		{
			"inputs": [
				{
					"internalType": "string",
					"name": "_serial",
					"type": "string"
				},
				{
					"internalType": "string[]",
					"name": "_covers",
					"type": "string[]"
				}
			],
			"name": "cover",
			"outputs": [],
			"stateMutability": "nonpayable",
			"type": "function"
		},
		{
			"inputs": [
				{
					"internalType": "string",
					"name": "_serial",
					"type": "string"
				}
			],
			"name": "get_product_profil",
			"outputs": [
				{
					"internalType": "string",
					"name": "_info",
					"type": "string"
				}
			],
			"stateMutability": "view",
			"type": "function"
		},
		{
			"inputs": [],
			"name": "get_products_id_list",
			"outputs": [
				{
					"internalType": "string",
					"name": "",
					"type": "string"
				}
			],
			"stateMutability": "view",
			"type": "function"
		},
		{
			"inputs": [
				{
					"internalType": "string",
					"name": "_serial",
					"type": "string"
				}
			],
			"name": "recall",
			"outputs": [],
			"stateMutability": "nonpayable",
			"type": "function"
		},
		{
			"inputs": [
				{
					"internalType": "bytes32",
					"name": "_prod_code",
					"type": "bytes32"
				},
				{
					"internalType": "bytes32",
					"name": "_field_name",
					"type": "bytes32"
				},
				{
					"internalType": "string",
					"name": "_value",
					"type": "string"
				}
			],
			"name": "set_batch_model",
			"outputs": [],
			"stateMutability": "nonpayable",
			"type": "function"
		},
		{
			"inputs": [
				{
					"internalType": "string",
					"name": "_serial",
					"type": "string"
				},
				{
					"internalType": "bytes32",
					"name": "_field_name",
					"type": "bytes32"
				},
				{
					"internalType": "string",
					"name": "_value",
					"type": "string"
				}
			],
			"name": "set_batch_profile",
			"outputs": [],
			"stateMutability": "nonpayable",
			"type": "function"
		},
		{
			"inputs": [
				{
					"internalType": "bytes32",
					"name": "_prod_code",
					"type": "bytes32"
				},
				{
					"internalType": "bytes32",
					"name": "_field_name",
					"type": "bytes32"
				},
				{
					"internalType": "string",
					"name": "_value",
					"type": "string"
				}
			],
			"name": "set_prod_model",
			"outputs": [],
			"stateMutability": "nonpayable",
			"type": "function"
		},
		{
			"inputs": [
				{
					"internalType": "string",
					"name": "_serial",
					"type": "string"
				},
				{
					"internalType": "bytes32",
					"name": "_field_name",
					"type": "bytes32"
				},
				{
					"internalType": "string",
					"name": "_value",
					"type": "string"
				}
			],
			"name": "set_prod_profile",
			"outputs": [],
			"stateMutability": "nonpayable",
			"type": "function"
		},
		{
			"inputs": [
				{
					"internalType": "string",
					"name": "source",
					"type": "string"
				}
			],
			"name": "toBytes16",
			"outputs": [
				{
					"internalType": "bytes16",
					"name": "result",
					"type": "bytes16"
				}
			],
			"stateMutability": "pure",
			"type": "function"
		},
		{
			"inputs": [
				{
					"internalType": "string",
					"name": "source",
					"type": "string"
				}
			],
			"name": "toBytes32",
			"outputs": [
				{
					"internalType": "bytes32",
					"name": "result",
					"type": "bytes32"
				}
			],
			"stateMutability": "pure",
			"type": "function"
		}
	]
}